{"abi":[{"type":"constructor","inputs":[{"name":"_signers","type":"address[3]","internalType":"address[3]"},{"name":"_treasury","type":"address","internalType":"address"}],"stateMutability":"nonpayable"},{"type":"function","name":"ACTION_EXPIRY","inputs":[],"outputs":[{"name":"","type":"uint256","internalType":"uint256"}],"stateMutability":"view"},{"type":"function","name":"BOND_WINNER_SHARE_LOWER","inputs":[],"outputs":[{"name":"","type":"uint256","internalType":"uint256"}],"stateMutability":"view"},{"type":"function","name":"BOND_WINNER_SHARE_UPPER","inputs":[],"outputs":[{"name":"","type":"uint256","internalType":"uint256"}],"stateMutability":"view"},{"type":"function","name":"BPS_DENOMINATOR","inputs":[],"outputs":[{"name":"","type":"uint256","internalType":"uint256"}],"stateMutability":"view"},{"type":"function","name":"CREATOR_PRIORITY_WINDOW","inputs":[],"outputs":[{"name":"","type":"uint256","internalType":"uint256"}],"stateMutability":"view"},{"type":"function","name":"DISPUTE_WINDOW","inputs":[],"outputs":[{"name":"","type":"uint256","internalType":"uint256"}],"stateMutability":"view"},{"type":"function","name":"DYNAMIC_BOND_BPS_LOWER","inputs":[],"outputs":[{"name":"","type":"uint256","internalType":"uint256"}],"stateMutability":"view"},{"type":"function","name":"DYNAMIC_BOND_BPS_UPPER","inputs":[],"outputs":[{"name":"","type":"uint256","internalType":"uint256"}],"stateMutability":"view"},{"type":"function","name":"EMERGENCY_REFUND_DELAY","inputs":[],"outputs":[{"name":"","type":"uint256","internalType":"uint256"}],"stateMutability":"view"},{"type":"function","name":"MAX_CREATOR_FEE_BPS","inputs":[],"outputs":[{"name":"","type":"uint256","internalType":"uint256"}],"stateMutability":"view"},{"type":"function","name":"MAX_FEE_BPS","inputs":[],"outputs":[{"name":"","type":"uint256","internalType":"uint256"}],"stateMutability":"view"},{"type":"function","name":"MAX_HEAT_LEVEL","inputs":[],"outputs":[{"name":"","type":"uint256","internalType":"uint256"}],"stateMutability":"view"},{"type":"function","name":"MAX_MARKET_CREATION_FEE","inputs":[],"outputs":[{"name":"","type":"uint256","internalType":"uint256"}],"stateMutability":"view"},{"type":"function","name":"MAX_PROPOSER_REWARD_BPS","inputs":[],"outputs":[{"name":"","type":"uint256","internalType":"uint256"}],"stateMutability":"view"},{"type":"function","name":"MAX_RESOLUTION_FEE_BPS","inputs":[],"outputs":[{"name":"","type":"uint256","internalType":"uint256"}],"stateMutability":"view"},{"type":"function","name":"MIN_BET_LOWER","inputs":[],"outputs":[{"name":"","type":"uint256","internalType":"uint256"}],"stateMutability":"view"},{"type":"function","name":"MIN_BET_UPPER","inputs":[],"outputs":[{"name":"","type":"uint256","internalType":"uint256"}],"stateMutability":"view"},{"type":"function","name":"MIN_BOND_FLOOR_LOWER","inputs":[],"outputs":[{"name":"","type":"uint256","internalType":"uint256"}],"stateMutability":"view"},{"type":"function","name":"MIN_BOND_FLOOR_UPPER","inputs":[],"outputs":[{"name":"","type":"uint256","internalType":"uint256"}],"stateMutability":"view"},{"type":"function","name":"MIN_HEAT_LEVEL","inputs":[],"outputs":[{"name":"","type":"uint256","internalType":"uint256"}],"stateMutability":"view"},{"type":"function","name":"RESOLUTION_CUTOFF_BUFFER","inputs":[],"outputs":[{"name":"","type":"uint256","internalType":"uint256"}],"stateMutability":"view"},{"type":"function","name":"UNIT_PRICE","inputs":[],"outputs":[{"name":"","type":"uint256","internalType":"uint256"}],"stateMutability":"view"},{"type":"function","name":"VOTING_WINDOW","inputs":[],"outputs":[{"name":"","type":"uint256","internalType":"uint256"}],"stateMutability":"view"},{"type":"function","name":"actionNonce","inputs":[],"outputs":[{"name":"","type":"uint256","internalType":"uint256"}],"stateMutability":"view"},{"type":"function","name":"bondWinnerShareBps","inputs":[],"outputs":[{"name":"","type":"uint256","internalType":"uint256"}],"stateMutability":"view"},{"type":"function","name":"buyNo","inputs":[{"name":"marketId","type":"uint256","internalType":"uint256"},{"name":"minSharesOut","type":"uint256","internalType":"uint256"}],"outputs":[{"name":"sharesOut","type":"uint256","internalType":"uint256"}],"stateMutability":"payable"},{"type":"function","name":"buyYes","inputs":[{"name":"marketId","type":"uint256","internalType":"uint256"},{"name":"minSharesOut","type":"uint256","internalType":"uint256"}],"outputs":[{"name":"sharesOut","type":"uint256","internalType":"uint256"}],"stateMutability":"payable"},{"type":"function","name":"canEmergencyRefund","inputs":[{"name":"marketId","type":"uint256","internalType":"uint256"}],"outputs":[{"name":"eligible","type":"bool","internalType":"bool"},{"name":"timeUntilEligible","type":"uint256","internalType":"uint256"}],"stateMutability":"view"},{"type":"function","name":"claim","inputs":[{"name":"marketId","type":"uint256","internalType":"uint256"}],"outputs":[{"name":"payout","type":"uint256","internalType":"uint256"}],"stateMutability":"nonpayable"},{"type":"function","name":"confirmAction","inputs":[{"name":"actionId","type":"uint256","internalType":"uint256"}],"outputs":[],"stateMutability":"nonpayable"},{"type":"function","name":"createMarket","inputs":[{"name":"question","type":"string","internalType":"string"},{"name":"evidenceLink","type":"string","internalType":"string"},{"name":"resolutionRules","type":"string","internalType":"string"},{"name":"imageUrl","type":"string","internalType":"string"},{"name":"expiryTimestamp","type":"uint256","internalType":"uint256"},{"name":"heatLevel","type":"uint8","internalType":"enum PredictionMarket.HeatLevel"}],"outputs":[{"name":"marketId","type":"uint256","internalType":"uint256"}],"stateMutability":"payable"},{"type":"function","name":"createMarketAndBuy","inputs":[{"name":"question","type":"string","internalType":"string"},{"name":"evidenceLink","type":"string","internalType":"string"},{"name":"resolutionRules","type":"string","internalType":"string"},{"name":"imageUrl","type":"string","internalType":"string"},{"name":"expiryTimestamp","type":"uint256","internalType":"uint256"},{"name":"heatLevel","type":"uint8","internalType":"enum PredictionMarket.HeatLevel"},{"name":"buyYesSide","type":"bool","internalType":"bool"},{"name":"minSharesOut","type":"uint256","internalType":"uint256"}],"outputs":[{"name":"marketId","type":"uint256","internalType":"uint256"},{"name":"sharesOut","type":"uint256","internalType":"uint256"}],"stateMutability":"payable"},{"type":"function","name":"creatorFeeBps","inputs":[],"outputs":[{"name":"","type":"uint256","internalType":"uint256"}],"stateMutability":"view"},{"type":"function","name":"dispute","inputs":[{"name":"marketId","type":"uint256","internalType":"uint256"}],"outputs":[],"stateMutability":"payable"},{"type":"function","name":"dynamicBondBps","inputs":[],"outputs":[{"name":"","type":"uint256","internalType":"uint256"}],"stateMutability":"view"},{"type":"function","name":"emergencyRefund","inputs":[{"name":"marketId","type":"uint256","internalType":"uint256"}],"outputs":[{"name":"refund","type":"uint256","internalType":"uint256"}],"stateMutability":"nonpayable"},{"type":"function","name":"executeAction","inputs":[{"name":"actionId","type":"uint256","internalType":"uint256"}],"outputs":[],"stateMutability":"nonpayable"},{"type":"function","name":"finalizeMarket","inputs":[{"name":"marketId","type":"uint256","internalType":"uint256"}],"outputs":[],"stateMutability":"nonpayable"},{"type":"function","name":"getDispute","inputs":[{"name":"marketId","type":"uint256","internalType":"uint256"}],"outputs":[{"name":"disputer","type":"address","internalType":"address"},{"name":"disputeTime","type":"uint256","internalType":"uint256"},{"name":"disputeBond","type":"uint256","internalType":"uint256"},{"name":"votingDeadline","type":"uint256","internalType":"uint256"},{"name":"yesVotes","type":"uint256","internalType":"uint256"},{"name":"noVotes","type":"uint256","internalType":"uint256"}],"stateMutability":"view"},{"type":"function","name":"getMarket","inputs":[{"name":"marketId","type":"uint256","internalType":"uint256"}],"outputs":[{"name":"question","type":"string","internalType":"string"},{"name":"evidenceLink","type":"string","internalType":"string"},{"name":"resolutionRules","type":"string","internalType":"string"},{"name":"imageUrl","type":"string","internalType":"string"},{"name":"creator","type":"address","internalType":"address"},{"name":"expiryTimestamp","type":"uint256","internalType":"uint256"},{"name":"yesSupply","type":"uint256","internalType":"uint256"},{"name":"noSupply","type":"uint256","internalType":"uint256"},{"name":"poolBalance","type":"uint256","internalType":"uint256"},{"name":"resolved","type":"bool","internalType":"bool"},{"name":"outcome","type":"bool","internalType":"bool"}],"stateMutability":"view"},{"type":"function","name":"getMarketStatus","inputs":[{"name":"marketId","type":"uint256","internalType":"uint256"}],"outputs":[{"name":"","type":"uint8","internalType":"enum PredictionMarket.MarketStatus"}],"stateMutability":"view"},{"type":"function","name":"getMaxSellableShares","inputs":[{"name":"marketId","type":"uint256","internalType":"uint256"},{"name":"userShares","type":"uint256","internalType":"uint256"},{"name":"isYes","type":"bool","internalType":"bool"}],"outputs":[{"name":"maxShares","type":"uint256","internalType":"uint256"},{"name":"bnbOut","type":"uint256","internalType":"uint256"}],"stateMutability":"view"},{"type":"function","name":"getNoPrice","inputs":[{"name":"marketId","type":"uint256","internalType":"uint256"}],"outputs":[{"name":"price","type":"uint256","internalType":"uint256"}],"stateMutability":"view"},{"type":"function","name":"getPendingCreatorFees","inputs":[{"name":"account","type":"address","internalType":"address"}],"outputs":[{"name":"","type":"uint256","internalType":"uint256"}],"stateMutability":"view"},{"type":"function","name":"getPendingWithdrawal","inputs":[{"name":"account","type":"address","internalType":"address"}],"outputs":[{"name":"","type":"uint256","internalType":"uint256"}],"stateMutability":"view"},{"type":"function","name":"getPosition","inputs":[{"name":"marketId","type":"uint256","internalType":"uint256"},{"name":"user","type":"address","internalType":"address"}],"outputs":[{"name":"yesShares","type":"uint256","internalType":"uint256"},{"name":"noShares","type":"uint256","internalType":"uint256"},{"name":"claimed","type":"bool","internalType":"bool"},{"name":"emergencyRefunded","type":"bool","internalType":"bool"},{"name":"hasVoted","type":"bool","internalType":"bool"},{"name":"votedOutcome","type":"bool","internalType":"bool"}],"stateMutability":"view"},{"type":"function","name":"getProposal","inputs":[{"name":"marketId","type":"uint256","internalType":"uint256"}],"outputs":[{"name":"proposer","type":"address","internalType":"address"},{"name":"proposedOutcome","type":"bool","internalType":"bool"},{"name":"proposalTime","type":"uint256","internalType":"uint256"},{"name":"proposalBond","type":"uint256","internalType":"uint256"},{"name":"disputeDeadline","type":"uint256","internalType":"uint256"}],"stateMutability":"view"},{"type":"function","name":"getRequiredBond","inputs":[{"name":"marketId","type":"uint256","internalType":"uint256"}],"outputs":[{"name":"requiredBond","type":"uint256","internalType":"uint256"}],"stateMutability":"view"},{"type":"function","name":"getRequiredDisputeBond","inputs":[{"name":"marketId","type":"uint256","internalType":"uint256"}],"outputs":[{"name":"","type":"uint256","internalType":"uint256"}],"stateMutability":"view"},{"type":"function","name":"getSweepableAmount","inputs":[],"outputs":[{"name":"surplus","type":"uint256","internalType":"uint256"},{"name":"totalLocked","type":"uint256","internalType":"uint256"},{"name":"contractBalance","type":"uint256","internalType":"uint256"}],"stateMutability":"view"},{"type":"function","name":"getVoterCount","inputs":[{"name":"marketId","type":"uint256","internalType":"uint256"}],"outputs":[{"name":"","type":"uint256","internalType":"uint256"}],"stateMutability":"view"},{"type":"function","name":"getYesPrice","inputs":[{"name":"marketId","type":"uint256","internalType":"uint256"}],"outputs":[{"name":"price","type":"uint256","internalType":"uint256"}],"stateMutability":"view"},{"type":"function","name":"heatLevelApex","inputs":[],"outputs":[{"name":"","type":"uint256","internalType":"uint256"}],"stateMutability":"view"},{"type":"function","name":"heatLevelCore","inputs":[],"outputs":[{"name":"","type":"uint256","internalType":"uint256"}],"stateMutability":"view"},{"type":"function","name":"heatLevelCrack","inputs":[],"outputs":[{"name":"","type":"uint256","internalType":"uint256"}],"stateMutability":"view"},{"type":"function","name":"heatLevelHigh","inputs":[],"outputs":[{"name":"","type":"uint256","internalType":"uint256"}],"stateMutability":"view"},{"type":"function","name":"heatLevelPro","inputs":[],"outputs":[{"name":"","type":"uint256","internalType":"uint256"}],"stateMutability":"view"},{"type":"function","name":"marketCount","inputs":[],"outputs":[{"name":"","type":"uint256","internalType":"uint256"}],"stateMutability":"view"},{"type":"function","name":"marketCreationFee","inputs":[],"outputs":[{"name":"","type":"uint256","internalType":"uint256"}],"stateMutability":"view"},{"type":"function","name":"marketVoters","inputs":[{"name":"","type":"uint256","internalType":"uint256"},{"name":"","type":"uint256","internalType":"uint256"}],"outputs":[{"name":"","type":"address","internalType":"address"}],"stateMutability":"view"},{"type":"function","name":"markets","inputs":[{"name":"","type":"uint256","internalType":"uint256"}],"outputs":[{"name":"question","type":"string","internalType":"string"},{"name":"evidenceLink","type":"string","internalType":"string"},{"name":"resolutionRules","type":"string","internalType":"string"},{"name":"imageUrl","type":"string","internalType":"string"},{"name":"creator","type":"address","internalType":"address"},{"name":"expiryTimestamp","type":"uint256","internalType":"uint256"},{"name":"yesSupply","type":"uint256","internalType":"uint256"},{"name":"noSupply","type":"uint256","internalType":"uint256"},{"name":"poolBalance","type":"uint256","internalType":"uint256"},{"name":"virtualLiquidity","type":"uint256","internalType":"uint256"},{"name":"heatLevel","type":"uint8","internalType":"enum PredictionMarket.HeatLevel"},{"name":"resolved","type":"bool","internalType":"bool"},{"name":"outcome","type":"bool","internalType":"bool"},{"name":"proposer","type":"address","internalType":"address"},{"name":"proposedOutcome","type":"bool","internalType":"bool"},{"name":"proposalTime","type":"uint256","internalType":"uint256"},{"name":"proposalBond","type":"uint256","internalType":"uint256"},{"name":"disputer","type":"address","internalType":"address"},{"name":"disputeTime","type":"uint256","internalType":"uint256"},{"name":"disputeBond","type":"uint256","internalType":"uint256"},{"name":"yesVotes","type":"uint256","internalType":"uint256"},{"name":"noVotes","type":"uint256","internalType":"uint256"}],"stateMutability":"view"},{"type":"function","name":"minBet","inputs":[],"outputs":[{"name":"","type":"uint256","internalType":"uint256"}],"stateMutability":"view"},{"type":"function","name":"minBondFloor","inputs":[],"outputs":[{"name":"","type":"uint256","internalType":"uint256"}],"stateMutability":"view"},{"type":"function","name":"paused","inputs":[],"outputs":[{"name":"","type":"bool","internalType":"bool"}],"stateMutability":"view"},{"type":"function","name":"pendingActions","inputs":[{"name":"","type":"uint256","internalType":"uint256"}],"outputs":[{"name":"actionType","type":"uint8","internalType":"enum PredictionMarket.ActionType"},{"name":"data","type":"bytes","internalType":"bytes"},{"name":"confirmations","type":"uint256","internalType":"uint256"},{"name":"createdAt","type":"uint256","internalType":"uint256"},{"name":"executed","type":"bool","internalType":"bool"}],"stateMutability":"view"},{"type":"function","name":"pendingCreatorFees","inputs":[{"name":"","type":"address","internalType":"address"}],"outputs":[{"name":"","type":"uint256","internalType":"uint256"}],"stateMutability":"view"},{"type":"function","name":"pendingWithdrawals","inputs":[{"name":"","type":"address","internalType":"address"}],"outputs":[{"name":"","type":"uint256","internalType":"uint256"}],"stateMutability":"view"},{"type":"function","name":"platformFeeBps","inputs":[],"outputs":[{"name":"","type":"uint256","internalType":"uint256"}],"stateMutability":"view"},{"type":"function","name":"positions","inputs":[{"name":"","type":"uint256","internalType":"uint256"},{"name":"","type":"address","internalType":"address"}],"outputs":[{"name":"yesShares","type":"uint256","internalType":"uint256"},{"name":"noShares","type":"uint256","internalType":"uint256"},{"name":"claimed","type":"bool","internalType":"bool"},{"name":"emergencyRefunded","type":"bool","internalType":"bool"},{"name":"hasVoted","type":"bool","internalType":"bool"},{"name":"votedOutcome","type":"bool","internalType":"bool"}],"stateMutability":"view"},{"type":"function","name":"previewBuy","inputs":[{"name":"marketId","type":"uint256","internalType":"uint256"},{"name":"bnbAmount","type":"uint256","internalType":"uint256"},{"name":"isYes","type":"bool","internalType":"bool"}],"outputs":[{"name":"shares","type":"uint256","internalType":"uint256"}],"stateMutability":"view"},{"type":"function","name":"previewSell","inputs":[{"name":"marketId","type":"uint256","internalType":"uint256"},{"name":"shares","type":"uint256","internalType":"uint256"},{"name":"isYes","type":"bool","internalType":"bool"}],"outputs":[{"name":"bnbOut","type":"uint256","internalType":"uint256"}],"stateMutability":"view"},{"type":"function","name":"proposeAction","inputs":[{"name":"actionType","type":"uint8","internalType":"enum PredictionMarket.ActionType"},{"name":"data","type":"bytes","internalType":"bytes"}],"outputs":[{"name":"actionId","type":"uint256","internalType":"uint256"}],"stateMutability":"nonpayable"},{"type":"function","name":"proposeOutcome","inputs":[{"name":"marketId","type":"uint256","internalType":"uint256"},{"name":"outcome","type":"bool","internalType":"bool"}],"outputs":[],"stateMutability":"payable"},{"type":"function","name":"proposerRewardBps","inputs":[],"outputs":[{"name":"","type":"uint256","internalType":"uint256"}],"stateMutability":"view"},{"type":"function","name":"resolutionFeeBps","inputs":[],"outputs":[{"name":"","type":"uint256","internalType":"uint256"}],"stateMutability":"view"},{"type":"function","name":"sellNo","inputs":[{"name":"marketId","type":"uint256","internalType":"uint256"},{"name":"shares","type":"uint256","internalType":"uint256"},{"name":"minBnbOut","type":"uint256","internalType":"uint256"}],"outputs":[{"name":"bnbOut","type":"uint256","internalType":"uint256"}],"stateMutability":"nonpayable"},{"type":"function","name":"sellYes","inputs":[{"name":"marketId","type":"uint256","internalType":"uint256"},{"name":"shares","type":"uint256","internalType":"uint256"},{"name":"minBnbOut","type":"uint256","internalType":"uint256"}],"outputs":[{"name":"bnbOut","type":"uint256","internalType":"uint256"}],"stateMutability":"nonpayable"},{"type":"function","name":"signers","inputs":[{"name":"","type":"uint256","internalType":"uint256"}],"outputs":[{"name":"","type":"address","internalType":"address"}],"stateMutability":"view"},{"type":"function","name":"totalPendingCreatorFees","inputs":[],"outputs":[{"name":"","type":"uint256","internalType":"uint256"}],"stateMutability":"view"},{"type":"function","name":"totalPendingWithdrawals","inputs":[],"outputs":[{"name":"","type":"uint256","internalType":"uint256"}],"stateMutability":"view"},{"type":"function","name":"treasury","inputs":[],"outputs":[{"name":"","type":"address","internalType":"address"}],"stateMutability":"view"},{"type":"function","name":"vote","inputs":[{"name":"marketId","type":"uint256","internalType":"uint256"},{"name":"outcome","type":"bool","internalType":"bool"}],"outputs":[],"stateMutability":"nonpayable"},{"type":"function","name":"withdrawBond","inputs":[],"outputs":[{"name":"amount","type":"uint256","internalType":"uint256"}],"stateMutability":"nonpayable"},{"type":"function","name":"withdrawCreatorFees","inputs":[],"outputs":[{"name":"amount","type":"uint256","internalType":"uint256"}],"stateMutability":"nonpayable"},{"type":"event","name":"ActionConfirmed","inputs":[{"name":"actionId","type":"uint256","indexed":true,"internalType":"uint256"},{"name":"confirmer","type":"address","indexed":true,"internalType":"address"}],"anonymous":false},{"type":"event","name":"ActionExecuted","inputs":[{"name":"actionId","type":"uint256","indexed":true,"internalType":"uint256"},{"name":"actionType","type":"uint8","indexed":false,"internalType":"enum PredictionMarket.ActionType"}],"anonymous":false},{"type":"event","name":"ActionProposed","inputs":[{"name":"actionId","type":"uint256","indexed":true,"internalType":"uint256"},{"name":"actionType","type":"uint8","indexed":false,"internalType":"enum PredictionMarket.ActionType"},{"name":"proposer","type":"address","indexed":true,"internalType":"address"}],"anonymous":false},{"type":"event","name":"BondDistributed","inputs":[{"name":"marketId","type":"uint256","indexed":true,"internalType":"uint256"},{"name":"winner","type":"address","indexed":true,"internalType":"address"},{"name":"winnerAmount","type":"uint256","indexed":false,"internalType":"uint256"},{"name":"voterPoolAmount","type":"uint256","indexed":false,"internalType":"uint256"}],"anonymous":false},{"type":"event","name":"Claimed","inputs":[{"name":"marketId","type":"uint256","indexed":true,"internalType":"uint256"},{"name":"user","type":"address","indexed":true,"internalType":"address"},{"name":"amount","type":"uint256","indexed":false,"internalType":"uint256"}],"anonymous":false},{"type":"event","name":"CreatorFeesClaimed","inputs":[{"name":"creator","type":"address","indexed":true,"internalType":"address"},{"name":"amount","type":"uint256","indexed":false,"internalType":"uint256"}],"anonymous":false},{"type":"event","name":"CreatorFeesCredited","inputs":[{"name":"creator","type":"address","indexed":true,"internalType":"address"},{"name":"marketId","type":"uint256","indexed":true,"internalType":"uint256"},{"name":"amount","type":"uint256","indexed":false,"internalType":"uint256"}],"anonymous":false},{"type":"event","name":"EmergencyRefunded","inputs":[{"name":"marketId","type":"uint256","indexed":true,"internalType":"uint256"},{"name":"user","type":"address","indexed":true,"internalType":"address"},{"name":"amount","type":"uint256","indexed":false,"internalType":"uint256"}],"anonymous":false},{"type":"event","name":"FundsSwept","inputs":[{"name":"amount","type":"uint256","indexed":false,"internalType":"uint256"},{"name":"totalLocked","type":"uint256","indexed":false,"internalType":"uint256"},{"name":"contractBalance","type":"uint256","indexed":false,"internalType":"uint256"}],"anonymous":false},{"type":"event","name":"JuryFeeDistributed","inputs":[{"name":"marketId","type":"uint256","indexed":true,"internalType":"uint256"},{"name":"voter","type":"address","indexed":true,"internalType":"address"},{"name":"amount","type":"uint256","indexed":false,"internalType":"uint256"}],"anonymous":false},{"type":"event","name":"MarketCreated","inputs":[{"name":"marketId","type":"uint256","indexed":true,"internalType":"uint256"},{"name":"creator","type":"address","indexed":true,"internalType":"address"},{"name":"question","type":"string","indexed":false,"internalType":"string"},{"name":"expiryTimestamp","type":"uint256","indexed":false,"internalType":"uint256"},{"name":"heatLevel","type":"uint8","indexed":false,"internalType":"enum PredictionMarket.HeatLevel"},{"name":"virtualLiquidity","type":"uint256","indexed":false,"internalType":"uint256"}],"anonymous":false},{"type":"event","name":"MarketResolutionFailed","inputs":[{"name":"marketId","type":"uint256","indexed":true,"internalType":"uint256"},{"name":"reason","type":"string","indexed":false,"internalType":"string"}],"anonymous":false},{"type":"event","name":"MarketResolved","inputs":[{"name":"marketId","type":"uint256","indexed":true,"internalType":"uint256"},{"name":"outcome","type":"bool","indexed":false,"internalType":"bool"},{"name":"wasDisputed","type":"bool","indexed":false,"internalType":"bool"}],"anonymous":false},{"type":"event","name":"OutcomeProposed","inputs":[{"name":"marketId","type":"uint256","indexed":true,"internalType":"uint256"},{"name":"proposer","type":"address","indexed":true,"internalType":"address"},{"name":"outcome","type":"bool","indexed":false,"internalType":"bool"},{"name":"bond","type":"uint256","indexed":false,"internalType":"uint256"}],"anonymous":false},{"type":"event","name":"Paused","inputs":[{"name":"by","type":"address","indexed":true,"internalType":"address"}],"anonymous":false},{"type":"event","name":"ProposalDisputed","inputs":[{"name":"marketId","type":"uint256","indexed":true,"internalType":"uint256"},{"name":"disputer","type":"address","indexed":true,"internalType":"address"},{"name":"bond","type":"uint256","indexed":false,"internalType":"uint256"}],"anonymous":false},{"type":"event","name":"ProposerRewardPaid","inputs":[{"name":"marketId","type":"uint256","indexed":true,"internalType":"uint256"},{"name":"proposer","type":"address","indexed":true,"internalType":"address"},{"name":"amount","type":"uint256","indexed":false,"internalType":"uint256"}],"anonymous":false},{"type":"event","name":"SignerReplaced","inputs":[{"name":"oldSigner","type":"address","indexed":true,"internalType":"address"},{"name":"newSigner","type":"address","indexed":true,"internalType":"address"},{"name":"actionId","type":"uint256","indexed":true,"internalType":"uint256"}],"anonymous":false},{"type":"event","name":"Trade","inputs":[{"name":"marketId","type":"uint256","indexed":true,"internalType":"uint256"},{"name":"trader","type":"address","indexed":true,"internalType":"address"},{"name":"isYes","type":"bool","indexed":false,"internalType":"bool"},{"name":"isBuy","type":"bool","indexed":false,"internalType":"bool"},{"name":"shares","type":"uint256","indexed":false,"internalType":"uint256"},{"name":"bnbAmount","type":"uint256","indexed":false,"internalType":"uint256"}],"anonymous":false},{"type":"event","name":"Unpaused","inputs":[{"name":"by","type":"address","indexed":true,"internalType":"address"}],"anonymous":false},{"type":"event","name":"VoteCast","inputs":[{"name":"marketId","type":"uint256","indexed":true,"internalType":"uint256"},{"name":"voter","type":"address","indexed":true,"internalType":"address"},{"name":"outcome","type":"bool","indexed":false,"internalType":"bool"},{"name":"weight","type":"uint256","indexed":false,"internalType":"uint256"}],"anonymous":false},{"type":"event","name":"WithdrawalClaimed","inputs":[{"name":"user","type":"address","indexed":true,"internalType":"address"},{"name":"amount","type":"uint256","indexed":false,"internalType":"uint256"}],"anonymous":false},{"type":"event","name":"WithdrawalCredited","inputs":[{"name":"user","type":"address","indexed":true,"internalType":"address"},{"name":"amount","type":"uint256","indexed":false,"internalType":"uint256"},{"name":"reason","type":"string","indexed":false,"internalType":"string"}],"anonymous":false},{"type":"error","name":"ActionAlreadyExecuted","inputs":[]},{"type":"error","name":"ActionExpired","inputs":[]},{"type":"error","name":"AlreadyClaimed","inputs":[]},{"type":"error","name":"AlreadyConfirmed","inputs":[]},{"type":"error","name":"AlreadyDisputed","inputs":[]},{"type":"error","name":"AlreadyEmergencyRefunded","inputs":[]},{"type":"error","name":"AlreadyProposed","inputs":[]},{"type":"error","name":"AlreadyVoted","inputs":[]},{"type":"error","name":"BelowMinBet","inputs":[]},{"type":"error","name":"ContractNotPaused","inputs":[]},{"type":"error","name":"ContractPaused","inputs":[]},{"type":"error","name":"CreatorPriorityActive","inputs":[]},{"type":"error","name":"DisputeWindowClosed","inputs":[]},{"type":"error","name":"DisputeWindowExpired","inputs":[]},{"type":"error","name":"EmergencyRefundTooEarly","inputs":[]},{"type":"error","name":"EmptyQuestion","inputs":[]},{"type":"error","name":"InsufficientBond","inputs":[]},{"type":"error","name":"InsufficientCreationFee","inputs":[]},{"type":"error","name":"InsufficientPoolBalance","inputs":[]},{"type":"error","name":"InsufficientShares","inputs":[]},{"type":"error","name":"InvalidAddress","inputs":[]},{"type":"error","name":"InvalidBondWinnerShare","inputs":[]},{"type":"error","name":"InvalidDynamicBondBps","inputs":[]},{"type":"error","name":"InvalidExpiryTimestamp","inputs":[]},{"type":"error","name":"InvalidFee","inputs":[]},{"type":"error","name":"InvalidMarketCreationFee","inputs":[]},{"type":"error","name":"InvalidMinBet","inputs":[]},{"type":"error","name":"InvalidMinBondFloor","inputs":[]},{"type":"error","name":"InvalidProposerReward","inputs":[]},{"type":"error","name":"InvalidSignerReplacement","inputs":[]},{"type":"error","name":"MarketAlreadyResolved","inputs":[]},{"type":"error","name":"MarketNotActive","inputs":[]},{"type":"error","name":"MarketNotExpired","inputs":[]},{"type":"error","name":"MarketNotResolved","inputs":[]},{"type":"error","name":"MarketStuck","inputs":[]},{"type":"error","name":"NoPosition","inputs":[]},{"type":"error","name":"NoSharesForVoting","inputs":[]},{"type":"error","name":"NoTradesToResolve","inputs":[]},{"type":"error","name":"NotEnoughConfirmations","inputs":[]},{"type":"error","name":"NotProposed","inputs":[]},{"type":"error","name":"NotSigner","inputs":[]},{"type":"error","name":"NothingToClaim","inputs":[]},{"type":"error","name":"NothingToSweep","inputs":[]},{"type":"error","name":"NothingToWithdraw","inputs":[]},{"type":"error","name":"ProposalWindowClosed","inputs":[]},{"type":"error","name":"ReentrancyGuardReentrantCall","inputs":[]},{"type":"error","name":"SignerNotFound","inputs":[]},{"type":"error","name":"SlippageExceeded","inputs":[]},{"type":"error","name":"TransferFailed","inputs":[]},{"type":"error","name":"VotingNotActive","inputs":[]},{"type":"error","name":"VotingNotEnded","inputs":[]}],"bytecode":{"object":"0x6080346200023d57601f62004ef338819003918201601f19168301926001600160401b039290918385118386101762000241578190604095865283398101906080818303126200023d5781601f820112156200023d578351926060840190811184821017620002415784528290606081019283116200023d57905b828210620002225750506200008f9062000255565b9060019060017f9b779b17422d0df92223018b32b4d1fa46e071723d6817e2486d003becc55f005560646005556032600655601e6007556611c37937e08000806008556009556064600a55611388600b556032600c555f600e556802b5e3af16b1880000600f55680ad78ebc5ac6200000601055681b1ae4d6e2ef500000601155686c6b935b8bbd40000060125569021e19e0c9bab24000006013555f5b600381106200017c575050506001600160a01b031680156200016b57600d80546001600160a01b03191691909117905551614c629081620002918239f35b815163e6c4247b60e01b8152600490fd5b6001600160a01b03806200019183856200026a565b51161562000211579083915f5b828110620001cc5750620001b382856200026a565b5182546001600160a01b0319169116178155016200012d565b90829350620001dd8193866200026a565b511682620001ec83876200026a565b51161462000200578401908492916200019e565b865163e6c4247b60e01b8152600490fd5b855163e6c4247b60e01b8152600490fd5b60208091620002318462000255565b8152019101906200007a565b5f80fd5b634e487b7160e01b5f52604160045260245ffd5b51906001600160a01b03821682036200023d57565b9060038110156200027c5760051b0190565b634e487b7160e01b5f52603260045260245ffdfe610120604052600480361015610013575f80fd5b5f3560e01c90816303117ba214612bf157816305040df414612a305781630acbdee314612a135781630dbacc62146129f757816312dcf12d1461299c578163132eb94b1461298057816314887fdf1461292b5781631690088c1461290e57816316fe6929146126d057816317773ebb146126b35781632079fb9a1461268257816322dcd13e146126655781632d162369146126485781632ef1bdfa1461262b5781633173cd2614611b81578163366b73401461260e578163379607f514612423578163399af502146122265781633fbf2ccd1461220257816347b0f737146121e55781635c975abb146121c35781635de97e11146121a657816361a895df1461218557816361d027b31461215d57816366eb9cec146120b85781636c82169d14611b7c57816370e5deb914611f1e5781637740a68014611b7c5781637ee8b2f81461043457816386d6282c14611dc757816387f7291614611da557816388553a2a14611b865781638ff6565114611b8157816394a29beb14611b7c57816394c38bca14611a5a5781639619367d14611a3d5781639716919b14611a2057816397e02ee814611a035781639ba85fae146119a3578163a260a02a14611827578163a4563e0314611986578163a63d914f1461184d578163a732e4c91461182c578163a844a13414611827578163a9f6b058146115c1578163abde480314611579578163afa40bbd14611558578163b05ef45414611517578163b1283e7714611325578163b1b84b4914611308578163b30dbfb2146112ed578163b7f12f6a146112c8578163bd149d71146112ab578163be04f84f14611029578163bff9d0401461100d578163c0c1cf5514610f1e578163c2f5738614610bc9578163c354648514610e97578163c598b2f9146104a5578163c651af1214610e7a578163c7f758a814610df5578163c9d27afe14610c1d578163c9d2d5de14610bce578163d29f541d14610668578163d55be8c614610bc9578163d671484c14610bac578163d67d643e14610b8f578163d7dfd97114610b72578163dffad4e214610887578163e13d1aaa1461086c578163e1a4521814610850578163e1cd04b41461078b578163e3a96cbd14610704578163e684d71814610668578163e7176d3114610639578163e92e5c3414610611578163eb44fdd314610515578163ec5a711a146104dd57508063ec763653146104a5578063ec97908214610488578063f02d63721461046c578063f3f4370314610434578063f585dc57146104185763fd759e51146103b9575f80fd5b34610414575f366003190112610414576103d161493c565b478181111561040a576104066103e7838361306d565b915b604051938493846040919493926060820195825260208201520152565b0390f35b6104065f916103e9565b5f80fd5b34610414575f3660031901126104145760206040516107088152f35b34610414576020366003190112610414576001600160a01b03610455612eab565b165f526019602052602060405f2054604051908152f35b34610414575f366003190112610414576020604051611f408152f35b34610414575f366003190112610414576020601554604051908152f35b34610414576020366003190112610414576001600160a01b036104c6612eab565b165f52601a602052602060405f2054604051908152f35b3461041457602036600319011261041457355f526016602052602061050460405f206139fa565b6040519061051181612f98565b8152f35b346104145760203660031901126104145780355f5260166020526105ae60405f209160018060a01b03908301541660ff600584015460068501546007860154600887015491600a880154936105d861056c8a612f1b565b6105ca61057b60018d01612f1b565b9b6105bc610597600361059060028501612f1b565b9301612f1b565b936040519e8f9e8f92610160808552840190612d9f565b916020818403910152612d9f565b8c810360408e015290612d9f565b908a820360608c0152612d9f565b96608089015260a088015260c087015260e0860152610100850152818160081c16151561012085015260101c1615156101408301520390f35b3461041457602036600319011261041457355f526018602052602060405f2054604051908152f35b34610414576020366003190112610414576106549035613844565b604080519215158352602083019190915290f35b3461041457604036600319011261041457610681612ec1565b90355f52601760205260405f209060018060a01b03165f5260205260405f2080546104066002600184015493015491604051938360ff869560181c169260ff8260101c169260ff808460081c169316918794919260a0949197969360c0870198875260208701521515604086015215156060850152151560808401521515910152565b346104145760203660031901126104145780355f52601660205260405f2060018060a01b03600d8201541690600e81015490600f810154610e108301908184116107785760c095506011601084015493015493604051958652602086015260408501526060840152608083015260a0820152f35b601186634e487b7160e01b5f525260245ffd5b34610414575f366003190112610414576107a36139cb565b335f52601a60205260405f2054801561084057335f52601a6020525f60408120556107d081601c5461306d565b601c555f80808084335af16107e361307a565b5015610830576020906040518181527fd046302bdc39599e60a5981e59227dcd1c643f512f56f2e984390c3ac6eadedb833392a260015f80516020614bad83398151915255604051908152f35b506040516312171d8360e31b8152fd5b50604051630686827b60e51b8152fd5b34610414575f3660031901126104145760206040516127108152f35b34610414575f36600319011261041457602060405160328152f35b346104145761089536612e3d565b9161089e6139cb565b60ff60145416610b6157805f526020936016855260405f206108bf816139fa565b6108c881612f98565b610b5157825f526017865260405f20335f52865260405f209084825410610b405760068101805492600783015461092a886109248161091e61091860098a0154610912818d61302f565b9761302f565b8661302f565b9461306d565b9261306d565b90662386f26fc10000808a02908a8204148a151715610b2d579061094d9161303c565b670de0b6b3a764000091828102928184041490151715610b1a57906109719161304f565b60088401908154808211610b095761271094856109906005548561303c565b049561099e6006548561303c565b04976109b36109ad8a8961302f565b8561306d565b9c8d10610af857918a989796959493916109d08d6109d79561306d565b905561306d565b90556109e488825461306d565b905580610aba575b50878483610a64575b50505050505f80808087335af1610a0a61307a565b5015610a55575060405191600183525f8584015260408301528260608301525f80516020614bed83398151915260803393a360015f80516020614bad83398151915255604051908152f35b6040516312171d8360e31b8152fd5b5f80516020614b8d833981519152920160018060a01b0390818154165f52601a835260405f20610a9586825461302f565b9055610aa385601c5461302f565b601c55541692604051908152a381868087846109f5565b5f808093949550809260018060a01b03600d54165af1610ad861307a565b5015610ae757908391886109ec565b6040516312171d8360e31b81528390fd5b604051638199f5f360e01b81528a90fd5b60405163bc6072f160e01b81528890fd5b601187634e487b7160e01b5f525260245ffd5b601188634e487b7160e01b5f525260245ffd5b604051633999656760e01b81528390fd5b50604051635a90bb8d60e11b8152fd5b60405163ab35696f60e01b81528490fd5b34610414575f366003190112610414576020600b54604051908152f35b34610414575f366003190112610414576020600a54604051908152f35b34610414575f366003190112610414576020601154604051908152f35b612fa2565b3461041457602036600319011261041457610be76139cb565b60ff60145416610c0e57610bfb90356131ef565b60015f80516020614bad83398151915255005b60405163ab35696f60e01b8152fd5b34610414576040366003190112610414578035610c38612e0b565b9160ff60145416610c0e57815f52601660205260405f20906003610c5b836139fa565b610c6481612f98565b03610dd357600e820154610e108101809111610de2574211610dd357825f52601760205260405f20335f5260205260405f20916002830180549360ff8560101c16610dc257806001610cba92549101549061302f565b938415610db15763ffff000019168615801560181b63ff00000016919091176201000017909155610d9c57601001610cf383825461302f565b90555b825f52601860205260405f2080549168010000000000000000831015610d89575091610d4c827fcbdf6214089cba887ecbf35a0b6a734589959c9763342c756bb2a80ca2bc9f6e946001610d8495018155612ef2565b81546001600160a01b0360039290921b91821b1916339182901b17909155604080519615158752602087019290925294918291820190565b0390a3005b604190634e487b7160e01b5f525260245ffd5b601101610daa83825461302f565b9055610cf6565b60405163922b788560e01b81528490fd5b604051637c9a1cf960e01b81528490fd5b604051639b8cc47560e01b8152fd5b601182634e487b7160e01b5f525260245ffd5b346104145760203660031901126104145780355f52601660205260405f20600a81015490600c600b820154910154610708820191828111610e675760408051601886901c6001600160a01b0316815260b89590951c60ff16151560208601528401526060830152608082015260a09150f35b601185634e487b7160e01b5f525260245ffd5b34610414575f366003190112610414576020601c54604051908152f35b346104145760203660031901126104145780355f52601660205260405f20610ed76006820154610ed160096007850154940154809261302f565b9261302f565b90662386f26fc10000928284029384048303610f0b576020610f0385610efd868661302f565b9061304f565b604051908152f35b601190634e487b7160e01b5f525260245ffd5b34610414576020366003190112610414578035610f3a33613895565b15610ffd57805f528160205260405f2060ff8382015416610fec576003810154610e108101809111610fd9574211610fc95760ff8154166013811015610fb657601203610fab57600260ff815b1691015410610f9b57610f9990613efd565b005b50604051635c9885ab60e11b8152fd5b600260ff6003610f87565b602184634e487b7160e01b5f525260245ffd5b604051621331cf60e01b81528390fd5b601184634e487b7160e01b5f525260245ffd5b604051631b50735b60e21b81528390fd5b5060405163143606b960e31b8152fd5b34610414575f3660031901126104145760206040516107d08152f35b6101003660031901126104145767ffffffffffffffff8135818111610414576110559036908401612ddd565b91906024358281116104145761106e9036908601612ddd565b939091604435848111610414576110889036908801612ddd565b919094606435908111610414576110a29036908901612ddd565b9060a4359360058510156104145760c43597881515998a8a03610414576110c76139cb565b60ff6014541661129a57600e54803410611289576110e5903461306d565b986008548a10611278576110fc9860843597613a50565b92835f526020916016835260405f209061112661271061111e6005548461303c565b04809261306d565b600683019586546007850194611146865492848685600986015493613956565b9860e4358a10611267576111a6968a60089461119c965f14611231575061116f9150825461302f565b9055895f526017885260405f20335f52885260405f206111908a825461302f565b90555b0191825461302f565b9055600e5461302f565b806111f6575b506040809550519081526001828201528285820152346060820152835f80516020614bed83398151915260803393a360015f80516020614bad833981519152558351928352820152f35b600d545f918291829182916001600160a01b03165af161121461307a565b501561122057846111ac565b6040516312171d8360e31b81528590fd5b61123c92935061302f565b9055895f526017885260405f20335f528852600160405f20016112608a825461302f565b9055611193565b604051638199f5f360e01b81528c90fd5b604051635688ffb360e01b81528d90fd5b604051630535b74760e41b81528d90fd5b60405163ab35696f60e01b81528c90fd5b34610414575f366003190112610414576020600c54604051908152f35b346104145760406112e16112db36612e1a565b916130ed565b82519182526020820152f35b34610414575f36600319011261041457602060405160648152f35b34610414575f366003190112610414576020601254604051908152f35b346104145760203660031901126104145780355f52601660205260405f2061134c81612f1b565b61135860018301612f1b565b60e05261136760028301612f1b565b6101005261137760038301612f1b565b92600160a01b60019003908301541660a0526005820154926006830154600784015460088501546009860154600a87015490600b88015492600c89015494600160a01b60019003600d8b01541696600e8b015498600f8c01549a60108d01549c6011015460805260405160c0526102c08060c0515260c051016113f991612d9f565b60c051810360c0516020015260e0519061141291612d9f565b60c051810360c05160400152610100519061142c91612d9f565b60c051810360c0516060015261144191612d9f565b9b60a05160c0516080015260c05160a0015260c05160c0015260c05160e0015260c051610100015260c051610120015260ff811661147e90612f98565b60ff811660c05161014001528060081c60ff16151560c05161016001528060101c60ff16151560c0516101800152600160a01b600190038160181c1660c0516101a0015260b81c60ff16151560c0516101c0015260c0516101e0015260c051610200015260c051610220015260c051610240015260c051610260015260c051610280015260805160c0516102a0015260c051900360c051f35b346104145760203660031901126104145780355f526016602052600c60405f200154908160011b9180830460021490151715610f0b57602082604051908152f35b34610414575f366003190112610414576020604051662386f26fc100008152f35b346104145761158736612e73565b905f52601860205260405f208054821015610414576020916115a891612ef2565b905460405160039290921b1c6001600160a01b03168152f35b6115ca36612e73565b6115d26139cb565b60ff6014541661181657600854341061180557815f526020916016835260405f206115fc816139fa565b61160581612f98565b6117f457612710908161161a6005543461303c565b04916116286006543461303c565b049161163d611637848361302f565b3461306d565b6006830154600784019081549061167661167061166961166260098a0154809561302f565b938561302f565b809361302f565b8561303c565b670de0b6b3a7640000908181029181830414901517156117e157662386f26fc1000091808302928304036117e157906116ae9161304f565b978810610af857876116bf9161302f565b90556116d06008840191825461302f565b9055835f526017865260405f20335f528652600160405f20016116f486825461302f565b9055806117a6575b50848394959683611750575b508584604051905f82526001848301528260408301523460608301525f80516020614bed83398151915260803393a360015f80516020614bad83398151915255604051908152f35b5f80516020614b8d833981519152920160018060a01b0390818154165f52601a835260405f2061178186825461302f565b905561178f85601c5461302f565b601c55541692604051908152a38084808581611708565b600d545f918291829182916001600160a01b03165af16117c461307a565b50156117d057866116fc565b6040516312171d8360e31b81528690fd5b60118c634e487b7160e01b5f525260245ffd5b604051635a90bb8d60e11b81528590fd5b604051635688ffb360e01b81528390fd5b60405163ab35696f60e01b81528390fd5b612ed7565b34610414575f3660031901126104145760206040516611c37937e080008152f35b346104145760203660031901126104145780359061186a33613895565b1561197757815f528060205260405f209060ff8183015416611968576003820154610e108101809111610de257421161195a5760058201335f528060205260ff60405f20541661194a57335f5260205260405f20600160ff1982541617905560ff60028301926118da8454612fbe565b80945533857f8d33281e1711fba153adffbde99ea4fd340a412490b8254097b438c0e8d41e4a5f80a35416906013821015611937575060120361192e5760ff60025b16111561192557005b610f9990613efd565b60ff600361191c565b602190634e487b7160e01b5f525260245ffd5b50604051635f8a9c0b60e01b8152fd5b604051621331cf60e01b8152fd5b604051631b50735b60e21b8152fd5b60405163143606b960e31b8152fd5b34610414575f366003190112610414576020601b54604051908152f35b346104145760203660031901126104145780355f52601660205260405f206119dd6006820154610ed160096007850154940154809261302f565b90662386f26fc10000928184029384048203610f0b576020610f0385610efd868661302f565b34610414575f366003190112610414576020601354604051908152f35b34610414575f366003190112610414576020600f54604051908152f35b34610414575f366003190112610414576020600854604051908152f35b60c03660031901126104145767ffffffffffffffff813581811161041457611a859036908401612ddd565b919060243582811161041457611a9e9036908601612ddd565b60449391933582811161041457611ab89036908801612ddd565b909260643590811161041457611ad19036908901612ddd565b93909260a43596600588101561041457611ae96139cb565b60ff60145416611b6b57600e543410611b5a57611b099860843597613a50565b34611b2b575b60209060015f80516020614bad83398151915255604051908152f35b5f8080803460018060a01b03600d54165af1611b4561307a565b50611b0f57506040516312171d8360e31b8152fd5b604051630535b74760e41b81528a90fd5b60405163ab35696f60e01b81528a90fd5b612e89565b612e57565b6040366003190112610414578035611b9c612e0b565b91611ba56139cb565b60ff60145416610c0e57815f52601660205260405f2090611bc5826139fa565b611bce81612f98565b8015611d955780611be0600192612f98565b03611d865760068201541580611d7a575b611d6b576005820154620151808101808211611d5857620135608201908111611d5857421015611d48576102588101809111610de2574210611d26575b611c37836130b9565b91612710611c476007543461303c565b0490611c53823461306d565b938410611d1557600a810180546301000000600160c01b0319163360181b6301000000600160b81b03161787151560b81b60ff60b81b1617905542600b820155600c0183905580611ceb575b5050604080519315158452602084019190915233927f6c7a43e53c92053a64485f76aa8f94f52dc1de8d1b1d03991e1bbcbf8c0517999190a360015f80516020614bad83398151915255005b600d545f918291829182916001600160a01b03165af1611d0961307a565b5015610a555780611c9f565b60405163e92c469f60e01b81528390fd5b808201546001600160a01b03163314611c2e57604051630c93731360e11b8152fd5b50604051633c79f67960e01b8152fd5b601183634e487b7160e01b5f525260245ffd5b604051630c73072d60e11b8152fd5b50600782015415611bf1565b604051633ca148c360e11b8152fd5b5060405163671eb0c560e01b8152fd5b34610414575f366003190112610414576020604051670de0b6b3a76400008152f35b6020366003190112610414578035611ddd6139cb565b60ff60145416611f0e57805f52601660205260405f20916002611dff846139fa565b611e0881612f98565b03611eff57600b8301546107088101809111610de2574211611ef057600c830154928360011b9380850460021490151715610de257612710611e4c6007543461303c565b0490611e58823461306d565b948510611d1557600d810180546001600160a01b0319163317905542600e820155600f0184905580611ec6575b50506040519182527fde1573422d8e8f907aa39b232e67b89a948f3a0367e19ca12e2e761ec229750160203393a360015f80516020614bad83398151915255005b600d545f918291829182916001600160a01b03165af1611ee461307a565b5015610a555780611e85565b60405163234c0ffd60e21b8152fd5b6040516379543eaf60e11b8152fd5b5060405163ab35696f60e01b8152fd5b346104145760209081600319360112610414578035611f3b6139cb565b805f526016835260405f20916005830154620151808101809111610de25742106120a95760ff600a84015460081c1661209a57815f526017845260405f20335f52845260405f20600281019081549460ff8660081c1661208957815492611fa8600184019485549061302f565b801561207857915f94939185936006830191610100611fe8845495611fe36008611fd860078401998a549061302f565b92019586549061303c565b61304f565b9b61ff001916179055611ffc8a825461306d565b905561200a8354825461306d565b90556120188454825461306d565b905555555f80808086335af161202c61307a565b5015610a555750604051908282527f49def7ae9132a7281c47912927b25c31186e59b9488226d422e1a370e9c2d27f843393a360015f80516020614bad83398151915255604051908152f35b604051632afc3c0d60e21b81528690fd5b60405163438da29b60e11b81528490fd5b60405163aa43cb2d60e01b8152fd5b6040516321ec2ba160e21b8152fd5b34610414575f366003190112610414576120d06139cb565b335f52601960205260405f2054801561084057335f5260196020525f60408120556120fd81601b5461306d565b601b555f80808084335af161211061307a565b5015610830576020906040518181527fd3f990ddd0f1a820ca21d6f29136b25c504220122117b21de9ede5602b99c586833392a260015f80516020614bad83398151915255604051908152f35b34610414575f36600319011261041457600d546040516001600160a01b039091168152602090f35b34610414575f36600319011261041457602060405166038d7ea4c680008152f35b34610414575f366003190112610414576020600754604051908152f35b34610414575f36600319011261041457602060ff601454166040519015158152f35b34610414575f366003190112610414576020601054604051908152f35b34610414575f36600319011261041457602060405169032d26d12e980b6000008152f35b61222f36612e73565b6122376139cb565b60ff6014541661181657600854341061180557815f526020916016835260405f20612261816139fa565b61226a81612f98565b6117f457612710908161227f6005543461303c565b049161228d6006543461303c565b049161229c611637848361302f565b60068301805460078501546122cb6116706122c560098901546122bf818761302f565b9461302f565b8361302f565b670de0b6b3a7640000908181029181830414901517156117e157662386f26fc1000091808302928304036117e157906123039161304f565b978810610af857876123149161302f565b90556123256008840191825461302f565b9055835f526017865260405f20335f52865260405f2061234686825461302f565b9055806123f9575b508483949596836123a3575b50858460405190600182526001848301528260408301523460608301525f80516020614bed83398151915260803393a360015f80516020614bad83398151915255604051908152f35b5f80516020614b8d833981519152920160018060a01b0390818154165f52601a835260405f206123d486825461302f565b90556123e285601c5461302f565b601c55541692604051908152a3808480858161235a565b600d545f918291829182916001600160a01b03165af161241761307a565b50156117d0578661234e565b3461041457602090816003193601126104145780356124406139cb565b805f526016835260405f2091600a830180549360ff8560081c16156125fd57835f526017865260405f20335f52865260405f2090600282019283549660ff88166125ec5760ff8860081c166125db5760101c60ff169283156125d15754925b83156125c05760ff9190156125b65760068301545b6124f56124ca6008860192611fe384548961303c565b6127106124d96007548361303c565b049760016124e78a8461306d565b9c871916179055825461306d565b90555460101c16156125a0576006612510910191825461306d565b90555b80612576575b505f80808086335af161252a61307a565b5015610a555750604051908282527f4ec90e965519d92681267467f775ada5bd214aa92c0dc93d90a5e880ce9ed026843393a360015f80516020614bad83398151915255604051908152f35b600d545f918291829182916001600160a01b03165af161259461307a565b5015610a555784612519565b60076125af910191825461306d565b9055612513565b60078301546124b4565b6040516312d37ee560e31b81528690fd5b600101549261249f565b60405163438da29b60e11b81528690fd5b604051630c8d9eab60e31b81528690fd5b60405163174b639360e11b81528390fd5b3461041457602036600319011261041457610f03602091356130b9565b34610414575f366003190112610414576020600e54604051908152f35b34610414575f366003190112610414576020600354604051908152f35b34610414575f366003190112610414576020600554604051908152f35b346104145760203660031901126104145735600381101561041457546040516001600160a01b039091168152602090f35b34610414575f366003190112610414576020600654604051908152f35b34610414576126de36612e3d565b916126e76139cb565b60ff60145416610b6157805f526020936016855260405f20612708816139fa565b61271181612f98565b610b5157825f526017865260405f20335f528652600160405f20019084825410610b4057600681015491600782019081549361276e886109248161091e61276761276060098b0154809861302f565b968b61302f565b809661302f565b90662386f26fc10000808a02908a8204148a151715610b2d57906127919161303c565b670de0b6b3a764000091828102928184041490151715610b1a57906127b59161304f565b60088401908154808211610b095761271094856127d46005548561303c565b04956127e26006548561303c565b04976127f16109ad8a8961302f565b9c8d10610af857918a989796959493916109d08d61280e9561306d565b905561281b88825461306d565b9055806128e1575b5087848361288b575b50505050505f80808087335af161284161307a565b5015610a555750604051915f83525f8584015260408301528260608301525f80516020614bed83398151915260803393a360015f80516020614bad83398151915255604051908152f35b5f80516020614b8d833981519152920160018060a01b0390818154165f52601a835260405f206128bc86825461302f565b90556128ca85601c5461302f565b601c55541692604051908152a3818680878461282c565b5f808093949550809260018060a01b03600d54165af16128ff61307a565b5015610ae75790839188612823565b34610414575f366003190112610414576020600954604051908152f35b34610414576020610f0361293e36612e1a565b90915f526016845260405f2061271061295f6116706005546006549061302f565b0492600961297760068401549560078501549361306d565b92015493613956565b34610414575f3660031901126104145760206040516102588152f35b34610414576020610f036129d56129b236612e1a565b90915f526016855260405f209160068301549260096007820154910154936138d2565b6127106129f06129ea6005546006549061302f565b8361303c565b049061306d565b34610414575f366003190112610414576020604051611c208152f35b34610414575f366003190112610414576020604051620151808152f35b346104145760403660031901126104145780359060138210156104145767ffffffffffffffff9160243583811161041457612a6e9036908401612ddd565b92612a7833613895565b156119775760035493612a8a85612fbe565b600355845f5260209582875260405f209160ff19948584541660ff8816178455600194858501938311610d895750612acc82612ac68554612c6e565b85612fe0565b5f90601f8311600114612b8b579180612aff9260059695945f92612b80575b50508160011b915f199060031b1c19161790565b90555b826002820155426003820155335f5201855260405f2091825416179055612b2c6040518092612d7e565b817f0bd5a1be8a9259e42ff3ff2d4b8457044eda96d3db9aed28322f8da78f1e0d41843393a36040519033817f8d33281e1711fba153adffbde99ea4fd340a412490b8254097b438c0e8d41e4a5f80a38152f35b013590508b80612aeb565b918591949392601f19821690845f528b5f20915f5b8d828210612bdb575050968360059810612bc2575b505050811b019055612b02565b01355f19600384901b60f8161c191690558a8080612bb5565b838a01358555988901988a969094019301612ba0565b346104145760203660031901126104145780612c4791355f528060205260405f209060ff82541691612c2560018201612cdc565b90612c5860ff6002830154946003840154930154169260405196878097612d7e565b60a0602087015260a0860190612d9f565b9260408501526060840152151560808301520390f35b90600182811c92168015612c9c575b6020831014612c8857565b634e487b7160e01b5f52602260045260245ffd5b91607f1691612c7d565b90601f8019910116810190811067ffffffffffffffff821117612cc857604052565b634e487b7160e01b5f52604160045260245ffd5b9060405191825f8254612cee81612c6e565b908184526020946001916001811690815f14612d5c5750600114612d1e575b505050612d1c92500383612ca6565b565b5f90815285812095935091905b818310612d44575050612d1c93508201015f8080612d0d565b85548884018501529485019487945091830191612d2b565b92505050612d1c94925060ff191682840152151560051b8201015f8080612d0d565b906013821015612d8b5752565b634e487b7160e01b5f52602160045260245ffd5b91908251928382525f5b848110612dc9575050825f602080949584010152601f8019910116010190565b602081830181015184830182015201612da9565b9181601f840112156104145782359167ffffffffffffffff8311610414576020838186019501011161041457565b60243590811515820361041457565b606090600319011261041457600435906024359060443580151581036104145790565b606090600319011261041457600435906024359060443590565b34610414575f366003190112610414576020604051610e108152f35b6040906003190112610414576004359060243590565b34610414575f36600319011261041457602060405167016345785d8a00008152f35b600435906001600160a01b038216820361041457565b602435906001600160a01b038216820361041457565b34610414575f36600319011261041457602060405160c88152f35b8054821015612f07575f5260205f2001905f90565b634e487b7160e01b5f52603260045260245ffd5b9060405191825f8254612f2d81612c6e565b908184526020946001916001811690815f14612d5c5750600114612f5a57505050612d1c92500383612ca6565b5f90815285812095935091905b818310612f80575050612d1c93508201015f8080612d0d565b85548884018501529485019487945091830191612f67565b60051115612d8b57565b34610414575f3660031901126104145760206040516101f48152f35b5f198114612fcc5760010190565b634e487b7160e01b5f52601160045260245ffd5b601f8211612fed57505050565b5f5260205f20906020601f840160051c83019310613025575b601f0160051c01905b81811061301a575050565b5f815560010161300f565b9091508190613006565b91908201809211612fcc57565b81810292918115918404141715612fcc57565b8115613059570490565b634e487b7160e01b5f52601260045260245ffd5b91908203918211612fcc57565b3d156130b4573d9067ffffffffffffffff8211612cc857604051916130a9601f8201601f191660200184612ca6565b82523d5f602084013e565b606090565b5f5260166020526127106130d7600860405f200154600a549061303c565b046009548082115f146130e8575090565b905090565b92915f935f52601660205260405f209082156131e4576006820154600783015490600984015493600861312386868987876138d2565b91015490818111156131c057505f95905b8187106131685750508461314b575b505050509190565b849650936129d593929161315e956138d2565b915f808080613143565b9095613174878261302f565b6001808201809211612fcc571c908261319088888589896138d2565b1161319e5750955b90613134565b96505f1981019081111561319857634e487b7160e01b5f52601160045260245ffd5b9450505050506131e19193506127106129f06129ea6005546006549061302f565b90565b50505090505f905f90565b805f526020601681526040805f2091613207836139fa565b61321081612f98565b600281036134e15750600b8301546107088101809111612fcc574211156134d05783600a840193845460ff8160b81c165f146134c65760068201545b156133be57509160805f927fdc2ddf2d5ba9d7ae2e3763f353bea15c1618e60da8ac6eca3b14d806ce8a331696946132ac60ff61010061ff00198954161780895560b81c16879062ff0000825491151560101b169062ff00001916179055565b836008820191600c8354916127106132c583548561303c565b04948515159386856133ab575b50505001876132e285835461302f565b91555f80516020614bcd83398151915260018060a01b03998a815460181c168a52601985528b8a2061331584825461302f565b905561332383601b5461302f565b601b5554998a60181c169687928c519081528c8682015260148d820152731c1c9bdc1bdcd95c97d89bdb9917dc995dd85c9960621b6060820152a261337a575b5050505060ff84519360101c1615158352820152a2565b7f703bc125a2665c8fdf99388ee79d5641c0723bd082e35dbf8976021756e25aa6918851908152a35f868183613363565b6133b49161306d565b90555f80866132d2565b907fe12a108659cfceebb9cd8b65c57b8f6d2a0896a9a0bcc5797792c52074abf49e959250600c0190848254918261343a575b50505050505051806134358160609060208152601a60208201527f4e6f20686f6c64657273206f6e2077696e6e696e67207369646500000000000060408201520190565b0390a2565b5f80516020614bcd833981519152945f6080955560018060a01b03809260181c165f5260198752825f2061346f85825461302f565b905561347d84601b5461302f565b601b555460181c169481519283528201526018858201527f70726f706f7365725f626f6e645f656d7074795f7369646500000000000000006060820152a25f80808084816133f1565b600782015461324c565b815163234c0ffd60e21b8152600490fd5b806134ed600392612f98565b0361383357600e830154610e108101809111612fcc57421115613822576010830180549060118501918254146138145754905410801561380a5760068401545b156137a257600a8401805462ffff00191682151560101b62ff000016176101001781557fdc2ddf2d5ba9d7ae2e3763f353bea15c1618e60da8ac6eca3b14d806ce8a33169460019260ff929190819089845491868360b81c16151514888a5f948380613797575b613728575b84916136218761361c7f27fa0e98dfa1197c7d1238ba14b175c914fafadedebdf5c8d68effd3079f42f194885f1461371d57600f8c0154905b891561370a5760181c6001600160a01b0316985b1561370057600c8c01545b5f600f61360e612710613606600b548761303c565b04809561306d565b9e82600c820155015561302f565b61302f565b888d8060a01b0380971695865f5260198152835f2061364184825461302f565b905561364f83601b5461302f565b601b55865f80516020614bcd833981519152608086518681528785820152600b888201526a3137b7322fbbb4b73732b960a91b6060820152a28351928352820152a388836136c8575b50505050806136b7575b50505460101c169183519215158352820152a2565b6136c191896149e2565b5f806136a2565b7f703bc125a2665c8fdf99388ee79d5641c0723bd082e35dbf8976021756e25aa691875460181c16938b51908152a35f898188613698565b600f8c01546135f1565b508f8060a01b03600d8d015416986135e6565b600c8c0154906135d2565b94507f27fa0e98dfa1197c7d1238ba14b175c914fafadedebdf5c8d68effd3079f42f18491613621600889019761361c89549161271061376a600c548561303c565b049a8b938480613784575b50505094505050509150613599565b61378d9161306d565b90555f8084613775565b50600c541515613594565b50506137ce7fe12a108659cfceebb9cd8b65c57b8f6d2a0896a9a0bcc5797792c52074abf49e92614815565b516020808252601a908201527f4e6f20686f6c64657273206f6e2077696e6e696e67207369646500000000000060408201528060608101613435565b600784015461352d565b50505050612d1c9150614815565b8151633fc30bd160e11b8152600490fd5b815163174b639360e11b8152600490fd5b5f52601660205260405f2060ff600a82015460081c1661388e5760050154620151808101809111612fcc57804210156138865761388290429061306d565b5f91565b506001905f90565b505f905f90565b5f546001600160a01b0391821690821681149182156138c4575b82156138ba57505090565b6002541614919050565b6001548116821492506138af565b82809495926138ec84610ed161390897966139029661302f565b6138f6818361302f565b971561394f575061306d565b9361306d565b91662386f26fc1000091828102928184041490151715612fcc5761392b9161303c565b90670de0b6b3a764000090818102918183041490151715612fcc576131e19161304f565b905061306d565b936139678161396d9395949661302f565b9361302f565b92613978848461302f565b91156139c15761398992935061303c565b90670de0b6b3a764000091828102928184041490151715612fcc57662386f26fc100009080820291820403612fcc576131e19161304f565b613989925061303c565b5f80516020614bad83398151915260028154146139e85760029055565b604051633ee5aeb560e01b8152600490fd5b600a81015460ff8160081c16613a4957600d8201546001600160a01b0391908216613a415760181c16613a3b5760050154421015613a36575f90565b600190565b50600290565b505050600390565b5050600490565b94939892999791909695998715613ed75742831115613ec55760155496613a7688612fbe565b601555879a885f526020966016885260405f209467ffffffffffffffff94858d11612cc857613aaf8d613aa98954612c6e565b89612fe0565b8c5f601f8211600114613e5e579080613adc925f91613e53575b508160011b915f199060031b1c19161790565b87555b6001870191868211612cc857613af982612ac68554612c6e565b5f90601f8311600114613dee57613b2692915f9183613cf55750508160011b915f199060031b1c19161790565b90555b6002850191848211612cc857613b4382612ac68554612c6e565b5f90601f8311600114613d8b57613b7092915f9183613cf55750508160011b915f199060031b1c19161790565b90555b60038301918111612cc857613b9281613b8c8454612c6e565b84612fe0565b5f601f8211600114613d0057816009949392613be8927f088de4ff1d0b36eed2a164a1efb89ec8d72c1a7846023e20716b1cf80405d7f19b9c9d9e9f5f92613cf55750508160011b915f199060031b1c19161790565b90555b6004810180546001600160a01b0319163317905560058101839055600a8101613c1385612f98565b60ff1981541660ff8616179055613c2984612f98565b83613c8057600f54828201555b01549287604051956080875281608088015260a08701375f60a08987010152840152613c6181612f98565b604083015260608201523393601f01601f1916810181900360a00190a3565b613c8984612f98565b60018403613c9e57601054828201555b613c36565b613ca784612f98565b60028403613cbb5760115482820155613c36565b613cc484612f98565b60038403613cd85760125482820155613c36565b613ce184612f98565b60048403613c995760135482820155613c36565b013590505f80612aeb565b601f19821690835f52875f20915f5b818110613d745750917f088de4ff1d0b36eed2a164a1efb89ec8d72c1a7846023e20716b1cf80405d7f19a9b9c9d9e8492600997969560019510613d5b575b505050811b019055613beb565b01355f19600384901b60f8161c191690555f8080613d4e565b8f8301358455600190930192918901918901613d0f565b601f19831691845f528a5f20925f5b8c828210613dd8575050908460019594939210613dbf575b505050811b019055613b73565b01355f19600384901b60f8161c191690555f8080613db2565b6001849682939587013581550195019201613d9a565b5f8481528c81209290601f198516908e5b828210613e3c575050908460019594939210613e23575b505050811b019055613b29565b01355f19600384901b60f8161c191690555f8080613e16565b60018496829395870135815501950192018e613dff565b90508d01355f613ac9565b885f528b5f20918d8d5f915b601f1984168310613eae5750505080601f19811610613e94575b905060018092501b018755613adf565b60f85f199160031b161c19908d01351690555f808e613e84565b840135855560019094019392830192018d8f613e6a565b60405163212be55960e11b8152600490fd5b604051630d5003f360e01b8152600490fd5b51906001600160a01b038216820361041457565b805f526004602090808252604090815f209080820160019060ff1990828282541617905560ff8454166013811015610fb65780613f92575050613f41908301612cdc565b848180518101031261041457840151906101f48211613f84575060ff5f80516020614c0d833981519152949392613f81926005555b541691518092612d7e565ba2565b83516358d620b360e01b8152fd5b80830361400a575050613fa6908301612cdc565b8481805181010312610414578401519066038d7ea4c6800082108015613ff9575b613feb575060ff5f80516020614c0d833981519152949392613f8192600855613f76565b8351637cc0badd60e11b8152fd5b5067016345785d8a00008211613fc7565b6002810361408a57505061401f908301612cdc565b8481805181010312610414576001600160a01b039061403f908601613ee9565b1690811561407c575060ff5f80516020614c0d833981519152949392613f81926bffffffffffffffffffffffff60a01b600d541617600d55613f76565b835163e6c4247b60e01b8152fd5b919290916003908082036140e5575050505f80516020614c0d833981519152949392613f819260ff926014541617601455337f62e78cea01bee320cd4e420270b5ea74000d11b0c9f74754ebdbfc544b05a2585f80a2613f76565b9293919280840361413c575050505060ff5f80516020614c0d833981519152949392613f819260145416601455337f5db9ee0a495bf2e6ff9c91a7834c1ba4fdd244a5e8aa4e537bd38aeae4b073aa5f80a2613f76565b92935090916005810361418e575050614156908301612cdc565b8481805181010312610414578401519060c88211613f84575060ff5f80516020614c0d833981519152949392613f8192600655613f76565b600681036141db5750506141a3908301612cdc565b8481805181010312610414578401519060648211613f84575060ff5f80516020614c0d833981519152949392613f8192600755613f76565b600781036142545750506141f0908301612cdc565b848180518101031261041457840151906611c37937e0800082108015614243575b614235575060ff5f80516020614c0d833981519152949392613f8192600955613f76565b835163329b7bc160e11b8152fd5b5067016345785d8a00008211614211565b600881036142c1575050614269908301612cdc565b848180518101031261041457840151906032821080156142b6575b6142a8575060ff5f80516020614c0d833981519152949392613f8192600a55613f76565b835163ba344cfd60e01b8152fd5b506101f48211614284565b6009810361432f5750506142d6908301612cdc565b848180518101031261041457840151906107d082108015614324575b614316575060ff5f80516020614c0d833981519152949392613f8192600b55613f76565b8351630c7311a160e31b8152fd5b50611f4082116142f2565b600a8103614391575050614344908301612cdc565b8481805181010312610414578401519067016345785d8a00008211614383575060ff5f80516020614c0d833981519152949392613f8192600e55613f76565b835163eb8a0a9360e01b8152fd5b600b81036143ff5750506143a6908301612cdc565b84818051810103126104145784015190670de0b6b3a7640000821080156143ec575b613f84575060ff5f80516020614c0d833981519152949392613f8192600f55613f76565b5069032d26d12e980b60000082116143c8565b600c810361446d575050614414908301612cdc565b84818051810103126104145784015190670de0b6b3a76400008210801561445a575b613f84575060ff5f80516020614c0d833981519152949392613f8192601055613f76565b5069032d26d12e980b6000008211614436565b600d81036144db575050614482908301612cdc565b84818051810103126104145784015190670de0b6b3a7640000821080156144c8575b613f84575060ff5f80516020614c0d833981519152949392613f8192601155613f76565b5069032d26d12e980b60000082116144a4565b600e81036145495750506144f0908301612cdc565b84818051810103126104145784015190670de0b6b3a764000082108015614536575b613f84575060ff5f80516020614c0d833981519152949392613f8192601255613f76565b5069032d26d12e980b6000008211614512565b600f81036145b757505061455e908301612cdc565b84818051810103126104145784015190670de0b6b3a7640000821080156145a4575b613f84575060ff5f80516020614c0d833981519152949392613f8192601355613f76565b5069032d26d12e980b6000008211614580565b6010810361467e575050506145ca61493c565b90478281111561466f576145de838261306d565b915f8080808660018060a01b03600d54165af16145f961307a565b50156146615750927fff02ca5daf9e2d4ae6902c9f40af03bfc1d974ac4e37ea162881d0eaaeb272e6613f819360ff9361465988975f80516020614c0d8339815191529a9951938493846040919493926060820195825260208201520152565b0390a1613f76565b85516312171d8360e31b8152fd5b508351630d44987f60e21b8152fd5b601181036146d9575050614693908301612cdc565b8481805181010312610414578401519060c882116146cb575060ff5f80516020614c0d833981519152949392613f8192600c55613f76565b83516379d3ee4160e11b8152fd5b909290601214614702575b50505090613f8160ff5f80516020614c0d8339815191529493613f76565b61470d828501612cdc565b85818051810103126104145761472f86614728898401613ee9565b9201613ee9565b6001600160a01b03908116949181169390918515614805578585146147f55761475786613895565b6147f5575f925f5b8281106147c4575b50505050156147b657505f80516020614c0d83398151915294939286613f819360ff937f3288defc7d8a5d94d6a119b650b3275db0b541801744754565b543431ea11cf15f80a49293946146e4565b845163bdb712ef60e01b8152fd5b87815488848216146147d9575050830161475f565b6001600160a01b031916179055509091505f9050808080614767565b87516378327bb360e01b81528490fd5b875163e6c4247b60e01b81528490fd5b600c8101805490816148b3575b5050600f81018054918261483557505050565b600d6080915f5f80516020614bcd83398151915294550160018060a01b0390818154165f52601960205260405f2061486e86825461302f565b905561487c85601b5461302f565b601b5554169260405190815260406020820152601160408201527064697370757465725f626f6e645f74696560781b6060820152a2565b5f90555f80516020614bcd8339815191526080600a840160018060a01b039081815460181c165f52601960205260405f206148ef86825461302f565b90556148fd85601b5461302f565b601b555460181c169260405190815260406020820152601160408201527070726f706f7365725f626f6e645f74696560781b6060820152a25f80614822565b5f80601554905b81811061496557505061495c6131e191601b549061302f565b601c549061302f565b805f52601660205260405f20600a81015460ff600891821c16156149cc575b50600c810154806149b8575b50600f0154806149a4575b50600101614943565b6149b1906001929461302f565b929061499b565b6149c590600f929561302f565b9390614990565b9381946149db9201549061302f565b925f614984565b600a82015492939260101c60ff16918215614b825760100154935b8415614b4457815f52602060188152604091825f20965f5b8854811015614b395780614a2b6001928b612ef2565b838060a01b0391549060031b1c16875f5260178652865f20815f52865287875f2085600282015460ff8160101c169081614b25575b50614a70575b5050505001614a15565b611fe3614a868388614a8c95549101549061302f565b8961303c565b8781614a9a575b5085614a66565b7f554650a83f978b117f8cf5d88e8fe59a5293f4d01273ba34e3a362e5d63399ec91845f52601982528a5f20614ad182825461302f565b9055601b614ae082825461302f565b9055845f80516020614bcd83398151915260808d60088151918683528088840152820152676a7572795f66656560c01b6060820152a28a51908152a35f878187614a93565b60181c60ff1615158d15151490505f614a60565b505050505050509050565b600d549394505f938493508392508291906001600160a01b03165af1614b6861307a565b5015614b7057565b6040516312171d8360e31b8152600490fd5b60110154936149fd56feee6d275681f6338b9dcbc5762e1fb9518bbb1e7db15049fbe7f9ed98857670bd9b779b17422d0df92223018b32b4d1fa46e071723d6817e2486d003becc55f00adadeee46984897fe0fddcdd6b48a8011d2dc74760aac19667d9a7c13ca750581080a6e42ac16e1e06ceeec56bfcd11d5f64a6b48cdf10db0f6566172e7f92a0ccbac48ec328eb4bdb4ace10025e03ecf58898746c98bdf8cfd4d32ade75f42aa2646970667358221220e85754b203a07dd39e9355a180df2ed3c06bd1b12bab391025967264eda0a07064736f6c63430008180033","linkReferences":{}},"methodIdentifiers":{"ACTION_EXPIRY()":"8ff65651","BOND_WINNER_SHARE_LOWER()":"bff9d040","BOND_WINNER_SHARE_UPPER()":"f02d6372","BPS_DENOMINATOR()":"e1a45218","CREATOR_PRIORITY_WINDOW()":"132eb94b","DISPUTE_WINDOW()":"f585dc57","DYNAMIC_BOND_BPS_LOWER()":"e13d1aaa","DYNAMIC_BOND_BPS_UPPER()":"c2f57386","EMERGENCY_REFUND_DELAY()":"0acbdee3","MAX_CREATOR_FEE_BPS()":"a844a134","MAX_FEE_BPS()":"d55be8c6","MAX_HEAT_LEVEL()":"3fbf2ccd","MAX_MARKET_CREATION_FEE()":"6c82169d","MAX_PROPOSER_REWARD_BPS()":"a260a02a","MAX_RESOLUTION_FEE_BPS()":"b30dbfb2","MIN_BET_LOWER()":"61a895df","MIN_BET_UPPER()":"94a29beb","MIN_BOND_FLOOR_LOWER()":"a732e4c9","MIN_BOND_FLOOR_UPPER()":"7740a680","MIN_HEAT_LEVEL()":"87f72916","RESOLUTION_CUTOFF_BUFFER()":"0dbacc62","UNIT_PRICE()":"afa40bbd","VOTING_WINDOW()":"3173cd26","actionNonce()":"2d162369","bondWinnerShareBps()":"d7dfd971","buyNo(uint256,uint256)":"a9f6b058","buyYes(uint256,uint256)":"399af502","canEmergencyRefund(uint256)":"e7176d31","claim(uint256)":"379607f5","confirmAction(uint256)":"a63d914f","createMarket(string,string,string,string,uint256,uint8)":"94c38bca","createMarketAndBuy(string,string,string,string,uint256,uint8,bool,uint256)":"be04f84f","creatorFeeBps()":"17773ebb","dispute(uint256)":"86d6282c","dynamicBondBps()":"d67d643e","emergencyRefund(uint256)":"70e5deb9","executeAction(uint256)":"c0c1cf55","finalizeMarket(uint256)":"c9d2d5de","getDispute(uint256)":"e3a96cbd","getMarket(uint256)":"eb44fdd3","getMarketStatus(uint256)":"ec5a711a","getMaxSellableShares(uint256,uint256,bool)":"b7f12f6a","getNoPrice(uint256)":"c3546485","getPendingCreatorFees(address)":"ec763653","getPendingWithdrawal(address)":"7ee8b2f8","getPosition(uint256,address)":"d29f541d","getProposal(uint256)":"c7f758a8","getRequiredBond(uint256)":"366b7340","getRequiredDisputeBond(uint256)":"b05ef454","getSweepableAmount()":"fd759e51","getVoterCount(uint256)":"e92e5c34","getYesPrice(uint256)":"9ba85fae","heatLevelApex()":"b1b84b49","heatLevelCore()":"97e02ee8","heatLevelCrack()":"9716919b","heatLevelHigh()":"47b0f737","heatLevelPro()":"d671484c","marketCount()":"ec979082","marketCreationFee()":"2ef1bdfa","marketVoters(uint256,uint256)":"abde4803","markets(uint256)":"b1283e77","minBet()":"9619367d","minBondFloor()":"1690088c","paused()":"5c975abb","pendingActions(uint256)":"03117ba2","pendingCreatorFees(address)":"c598b2f9","pendingWithdrawals(address)":"f3f43703","platformFeeBps()":"22dcd13e","positions(uint256,address)":"e684d718","previewBuy(uint256,uint256,bool)":"14887fdf","previewSell(uint256,uint256,bool)":"12dcf12d","proposeAction(uint8,bytes)":"05040df4","proposeOutcome(uint256,bool)":"88553a2a","proposerRewardBps()":"bd149d71","resolutionFeeBps()":"5de97e11","sellNo(uint256,uint256,uint256)":"16fe6929","sellYes(uint256,uint256,uint256)":"dffad4e2","signers(uint256)":"2079fb9a","totalPendingCreatorFees()":"c651af12","totalPendingWithdrawals()":"a4563e03","treasury()":"61d027b3","vote(uint256,bool)":"c9d27afe","withdrawBond()":"66eb9cec","withdrawCreatorFees()":"e1cd04b4"},"id":2}