{"abi":[{"type":"constructor","inputs":[{"name":"_signers","type":"address[3]","internalType":"address[3]"},{"name":"_treasury","type":"address","internalType":"address"}],"stateMutability":"nonpayable"},{"type":"receive","stateMutability":"payable"},{"type":"function","name":"ACTION_EXPIRY","inputs":[],"outputs":[{"name":"","type":"uint256","internalType":"uint256"}],"stateMutability":"view"},{"type":"function","name":"BOND_WINNER_SHARE_LOWER","inputs":[],"outputs":[{"name":"","type":"uint256","internalType":"uint256"}],"stateMutability":"view"},{"type":"function","name":"BOND_WINNER_SHARE_UPPER","inputs":[],"outputs":[{"name":"","type":"uint256","internalType":"uint256"}],"stateMutability":"view"},{"type":"function","name":"BPS_DENOMINATOR","inputs":[],"outputs":[{"name":"","type":"uint256","internalType":"uint256"}],"stateMutability":"view"},{"type":"function","name":"CREATOR_PRIORITY_WINDOW","inputs":[],"outputs":[{"name":"","type":"uint256","internalType":"uint256"}],"stateMutability":"view"},{"type":"function","name":"DISPUTE_WINDOW","inputs":[],"outputs":[{"name":"","type":"uint256","internalType":"uint256"}],"stateMutability":"view"},{"type":"function","name":"DYNAMIC_BOND_BPS_LOWER","inputs":[],"outputs":[{"name":"","type":"uint256","internalType":"uint256"}],"stateMutability":"view"},{"type":"function","name":"DYNAMIC_BOND_BPS_UPPER","inputs":[],"outputs":[{"name":"","type":"uint256","internalType":"uint256"}],"stateMutability":"view"},{"type":"function","name":"EMERGENCY_REFUND_DELAY","inputs":[],"outputs":[{"name":"","type":"uint256","internalType":"uint256"}],"stateMutability":"view"},{"type":"function","name":"MAX_CREATOR_FEE_BPS","inputs":[],"outputs":[{"name":"","type":"uint256","internalType":"uint256"}],"stateMutability":"view"},{"type":"function","name":"MAX_FEE_BPS","inputs":[],"outputs":[{"name":"","type":"uint256","internalType":"uint256"}],"stateMutability":"view"},{"type":"function","name":"MAX_RESOLUTION_FEE_BPS","inputs":[],"outputs":[{"name":"","type":"uint256","internalType":"uint256"}],"stateMutability":"view"},{"type":"function","name":"MIN_BET_LOWER","inputs":[],"outputs":[{"name":"","type":"uint256","internalType":"uint256"}],"stateMutability":"view"},{"type":"function","name":"MIN_BET_UPPER","inputs":[],"outputs":[{"name":"","type":"uint256","internalType":"uint256"}],"stateMutability":"view"},{"type":"function","name":"MIN_BOND_FLOOR_LOWER","inputs":[],"outputs":[{"name":"","type":"uint256","internalType":"uint256"}],"stateMutability":"view"},{"type":"function","name":"MIN_BOND_FLOOR_UPPER","inputs":[],"outputs":[{"name":"","type":"uint256","internalType":"uint256"}],"stateMutability":"view"},{"type":"function","name":"UNIT_PRICE","inputs":[],"outputs":[{"name":"","type":"uint256","internalType":"uint256"}],"stateMutability":"view"},{"type":"function","name":"VIRTUAL_LIQUIDITY","inputs":[],"outputs":[{"name":"","type":"uint256","internalType":"uint256"}],"stateMutability":"view"},{"type":"function","name":"VOTING_WINDOW","inputs":[],"outputs":[{"name":"","type":"uint256","internalType":"uint256"}],"stateMutability":"view"},{"type":"function","name":"actionNonce","inputs":[],"outputs":[{"name":"","type":"uint256","internalType":"uint256"}],"stateMutability":"view"},{"type":"function","name":"bondWinnerShareBps","inputs":[],"outputs":[{"name":"","type":"uint256","internalType":"uint256"}],"stateMutability":"view"},{"type":"function","name":"buyNo","inputs":[{"name":"marketId","type":"uint256","internalType":"uint256"},{"name":"minSharesOut","type":"uint256","internalType":"uint256"}],"outputs":[{"name":"sharesOut","type":"uint256","internalType":"uint256"}],"stateMutability":"payable"},{"type":"function","name":"buyYes","inputs":[{"name":"marketId","type":"uint256","internalType":"uint256"},{"name":"minSharesOut","type":"uint256","internalType":"uint256"}],"outputs":[{"name":"sharesOut","type":"uint256","internalType":"uint256"}],"stateMutability":"payable"},{"type":"function","name":"canEmergencyRefund","inputs":[{"name":"marketId","type":"uint256","internalType":"uint256"}],"outputs":[{"name":"eligible","type":"bool","internalType":"bool"},{"name":"timeUntilEligible","type":"uint256","internalType":"uint256"}],"stateMutability":"view"},{"type":"function","name":"claim","inputs":[{"name":"marketId","type":"uint256","internalType":"uint256"}],"outputs":[{"name":"payout","type":"uint256","internalType":"uint256"}],"stateMutability":"nonpayable"},{"type":"function","name":"confirmAction","inputs":[{"name":"actionId","type":"uint256","internalType":"uint256"}],"outputs":[],"stateMutability":"nonpayable"},{"type":"function","name":"createMarket","inputs":[{"name":"question","type":"string","internalType":"string"},{"name":"evidenceLink","type":"string","internalType":"string"},{"name":"resolutionRules","type":"string","internalType":"string"},{"name":"imageUrl","type":"string","internalType":"string"},{"name":"expiryTimestamp","type":"uint256","internalType":"uint256"}],"outputs":[{"name":"marketId","type":"uint256","internalType":"uint256"}],"stateMutability":"nonpayable"},{"type":"function","name":"createMarketAndBuy","inputs":[{"name":"question","type":"string","internalType":"string"},{"name":"evidenceLink","type":"string","internalType":"string"},{"name":"resolutionRules","type":"string","internalType":"string"},{"name":"imageUrl","type":"string","internalType":"string"},{"name":"expiryTimestamp","type":"uint256","internalType":"uint256"},{"name":"buyYesSide","type":"bool","internalType":"bool"},{"name":"minSharesOut","type":"uint256","internalType":"uint256"}],"outputs":[{"name":"marketId","type":"uint256","internalType":"uint256"},{"name":"sharesOut","type":"uint256","internalType":"uint256"}],"stateMutability":"payable"},{"type":"function","name":"creatorFeeBps","inputs":[],"outputs":[{"name":"","type":"uint256","internalType":"uint256"}],"stateMutability":"view"},{"type":"function","name":"dispute","inputs":[{"name":"marketId","type":"uint256","internalType":"uint256"}],"outputs":[],"stateMutability":"payable"},{"type":"function","name":"dynamicBondBps","inputs":[],"outputs":[{"name":"","type":"uint256","internalType":"uint256"}],"stateMutability":"view"},{"type":"function","name":"emergencyRefund","inputs":[{"name":"marketId","type":"uint256","internalType":"uint256"}],"outputs":[{"name":"refund","type":"uint256","internalType":"uint256"}],"stateMutability":"nonpayable"},{"type":"function","name":"executeAction","inputs":[{"name":"actionId","type":"uint256","internalType":"uint256"}],"outputs":[],"stateMutability":"nonpayable"},{"type":"function","name":"finalizeMarket","inputs":[{"name":"marketId","type":"uint256","internalType":"uint256"}],"outputs":[],"stateMutability":"nonpayable"},{"type":"function","name":"getDispute","inputs":[{"name":"marketId","type":"uint256","internalType":"uint256"}],"outputs":[{"name":"disputer","type":"address","internalType":"address"},{"name":"disputeTime","type":"uint256","internalType":"uint256"},{"name":"disputeBond","type":"uint256","internalType":"uint256"},{"name":"votingDeadline","type":"uint256","internalType":"uint256"},{"name":"yesVotes","type":"uint256","internalType":"uint256"},{"name":"noVotes","type":"uint256","internalType":"uint256"}],"stateMutability":"view"},{"type":"function","name":"getMarket","inputs":[{"name":"marketId","type":"uint256","internalType":"uint256"}],"outputs":[{"name":"question","type":"string","internalType":"string"},{"name":"evidenceLink","type":"string","internalType":"string"},{"name":"resolutionRules","type":"string","internalType":"string"},{"name":"imageUrl","type":"string","internalType":"string"},{"name":"creator","type":"address","internalType":"address"},{"name":"expiryTimestamp","type":"uint256","internalType":"uint256"},{"name":"yesSupply","type":"uint256","internalType":"uint256"},{"name":"noSupply","type":"uint256","internalType":"uint256"},{"name":"poolBalance","type":"uint256","internalType":"uint256"},{"name":"resolved","type":"bool","internalType":"bool"},{"name":"outcome","type":"bool","internalType":"bool"}],"stateMutability":"view"},{"type":"function","name":"getMarketStatus","inputs":[{"name":"marketId","type":"uint256","internalType":"uint256"}],"outputs":[{"name":"","type":"uint8","internalType":"enum PredictionMarket.MarketStatus"}],"stateMutability":"view"},{"type":"function","name":"getMaxSellableShares","inputs":[{"name":"marketId","type":"uint256","internalType":"uint256"},{"name":"userShares","type":"uint256","internalType":"uint256"},{"name":"isYes","type":"bool","internalType":"bool"}],"outputs":[{"name":"maxShares","type":"uint256","internalType":"uint256"},{"name":"bnbOut","type":"uint256","internalType":"uint256"}],"stateMutability":"view"},{"type":"function","name":"getNoPrice","inputs":[{"name":"marketId","type":"uint256","internalType":"uint256"}],"outputs":[{"name":"price","type":"uint256","internalType":"uint256"}],"stateMutability":"view"},{"type":"function","name":"getPosition","inputs":[{"name":"marketId","type":"uint256","internalType":"uint256"},{"name":"user","type":"address","internalType":"address"}],"outputs":[{"name":"yesShares","type":"uint256","internalType":"uint256"},{"name":"noShares","type":"uint256","internalType":"uint256"},{"name":"claimed","type":"bool","internalType":"bool"},{"name":"emergencyRefunded","type":"bool","internalType":"bool"},{"name":"hasVoted","type":"bool","internalType":"bool"},{"name":"votedOutcome","type":"bool","internalType":"bool"}],"stateMutability":"view"},{"type":"function","name":"getProposal","inputs":[{"name":"marketId","type":"uint256","internalType":"uint256"}],"outputs":[{"name":"proposer","type":"address","internalType":"address"},{"name":"proposedOutcome","type":"bool","internalType":"bool"},{"name":"proofLink","type":"string","internalType":"string"},{"name":"proposalTime","type":"uint256","internalType":"uint256"},{"name":"proposalBond","type":"uint256","internalType":"uint256"},{"name":"disputeDeadline","type":"uint256","internalType":"uint256"}],"stateMutability":"view"},{"type":"function","name":"getRequiredBond","inputs":[{"name":"marketId","type":"uint256","internalType":"uint256"}],"outputs":[{"name":"requiredBond","type":"uint256","internalType":"uint256"}],"stateMutability":"view"},{"type":"function","name":"getRequiredDisputeBond","inputs":[{"name":"marketId","type":"uint256","internalType":"uint256"}],"outputs":[{"name":"","type":"uint256","internalType":"uint256"}],"stateMutability":"view"},{"type":"function","name":"getVoterCount","inputs":[{"name":"marketId","type":"uint256","internalType":"uint256"}],"outputs":[{"name":"","type":"uint256","internalType":"uint256"}],"stateMutability":"view"},{"type":"function","name":"getYesPrice","inputs":[{"name":"marketId","type":"uint256","internalType":"uint256"}],"outputs":[{"name":"price","type":"uint256","internalType":"uint256"}],"stateMutability":"view"},{"type":"function","name":"marketCount","inputs":[],"outputs":[{"name":"","type":"uint256","internalType":"uint256"}],"stateMutability":"view"},{"type":"function","name":"marketVoters","inputs":[{"name":"","type":"uint256","internalType":"uint256"},{"name":"","type":"uint256","internalType":"uint256"}],"outputs":[{"name":"","type":"address","internalType":"address"}],"stateMutability":"view"},{"type":"function","name":"markets","inputs":[{"name":"","type":"uint256","internalType":"uint256"}],"outputs":[{"name":"question","type":"string","internalType":"string"},{"name":"evidenceLink","type":"string","internalType":"string"},{"name":"resolutionRules","type":"string","internalType":"string"},{"name":"imageUrl","type":"string","internalType":"string"},{"name":"creator","type":"address","internalType":"address"},{"name":"expiryTimestamp","type":"uint256","internalType":"uint256"},{"name":"yesSupply","type":"uint256","internalType":"uint256"},{"name":"noSupply","type":"uint256","internalType":"uint256"},{"name":"poolBalance","type":"uint256","internalType":"uint256"},{"name":"resolved","type":"bool","internalType":"bool"},{"name":"outcome","type":"bool","internalType":"bool"},{"name":"proposer","type":"address","internalType":"address"},{"name":"proposedOutcome","type":"bool","internalType":"bool"},{"name":"proofLink","type":"string","internalType":"string"},{"name":"proposalTime","type":"uint256","internalType":"uint256"},{"name":"proposalBond","type":"uint256","internalType":"uint256"},{"name":"disputer","type":"address","internalType":"address"},{"name":"disputeTime","type":"uint256","internalType":"uint256"},{"name":"disputeBond","type":"uint256","internalType":"uint256"},{"name":"yesVotes","type":"uint256","internalType":"uint256"},{"name":"noVotes","type":"uint256","internalType":"uint256"}],"stateMutability":"view"},{"type":"function","name":"minBet","inputs":[],"outputs":[{"name":"","type":"uint256","internalType":"uint256"}],"stateMutability":"view"},{"type":"function","name":"minBondFloor","inputs":[],"outputs":[{"name":"","type":"uint256","internalType":"uint256"}],"stateMutability":"view"},{"type":"function","name":"paused","inputs":[],"outputs":[{"name":"","type":"bool","internalType":"bool"}],"stateMutability":"view"},{"type":"function","name":"pendingActions","inputs":[{"name":"","type":"uint256","internalType":"uint256"}],"outputs":[{"name":"actionType","type":"uint8","internalType":"enum PredictionMarket.ActionType"},{"name":"data","type":"bytes","internalType":"bytes"},{"name":"confirmations","type":"uint256","internalType":"uint256"},{"name":"createdAt","type":"uint256","internalType":"uint256"},{"name":"executed","type":"bool","internalType":"bool"}],"stateMutability":"view"},{"type":"function","name":"platformFeeBps","inputs":[],"outputs":[{"name":"","type":"uint256","internalType":"uint256"}],"stateMutability":"view"},{"type":"function","name":"positions","inputs":[{"name":"","type":"uint256","internalType":"uint256"},{"name":"","type":"address","internalType":"address"}],"outputs":[{"name":"yesShares","type":"uint256","internalType":"uint256"},{"name":"noShares","type":"uint256","internalType":"uint256"},{"name":"claimed","type":"bool","internalType":"bool"},{"name":"emergencyRefunded","type":"bool","internalType":"bool"},{"name":"hasVoted","type":"bool","internalType":"bool"},{"name":"votedOutcome","type":"bool","internalType":"bool"}],"stateMutability":"view"},{"type":"function","name":"previewBuy","inputs":[{"name":"marketId","type":"uint256","internalType":"uint256"},{"name":"bnbAmount","type":"uint256","internalType":"uint256"},{"name":"isYes","type":"bool","internalType":"bool"}],"outputs":[{"name":"shares","type":"uint256","internalType":"uint256"}],"stateMutability":"view"},{"type":"function","name":"previewSell","inputs":[{"name":"marketId","type":"uint256","internalType":"uint256"},{"name":"shares","type":"uint256","internalType":"uint256"},{"name":"isYes","type":"bool","internalType":"bool"}],"outputs":[{"name":"bnbOut","type":"uint256","internalType":"uint256"}],"stateMutability":"view"},{"type":"function","name":"proposeAction","inputs":[{"name":"actionType","type":"uint8","internalType":"enum PredictionMarket.ActionType"},{"name":"data","type":"bytes","internalType":"bytes"}],"outputs":[{"name":"actionId","type":"uint256","internalType":"uint256"}],"stateMutability":"nonpayable"},{"type":"function","name":"proposeOutcome","inputs":[{"name":"marketId","type":"uint256","internalType":"uint256"},{"name":"outcome","type":"bool","internalType":"bool"},{"name":"proofLink","type":"string","internalType":"string"}],"outputs":[],"stateMutability":"payable"},{"type":"function","name":"resolutionFeeBps","inputs":[],"outputs":[{"name":"","type":"uint256","internalType":"uint256"}],"stateMutability":"view"},{"type":"function","name":"sellNo","inputs":[{"name":"marketId","type":"uint256","internalType":"uint256"},{"name":"shares","type":"uint256","internalType":"uint256"},{"name":"minBnbOut","type":"uint256","internalType":"uint256"}],"outputs":[{"name":"bnbOut","type":"uint256","internalType":"uint256"}],"stateMutability":"nonpayable"},{"type":"function","name":"sellYes","inputs":[{"name":"marketId","type":"uint256","internalType":"uint256"},{"name":"shares","type":"uint256","internalType":"uint256"},{"name":"minBnbOut","type":"uint256","internalType":"uint256"}],"outputs":[{"name":"bnbOut","type":"uint256","internalType":"uint256"}],"stateMutability":"nonpayable"},{"type":"function","name":"signers","inputs":[{"name":"","type":"uint256","internalType":"uint256"}],"outputs":[{"name":"","type":"address","internalType":"address"}],"stateMutability":"view"},{"type":"function","name":"treasury","inputs":[],"outputs":[{"name":"","type":"address","internalType":"address"}],"stateMutability":"view"},{"type":"function","name":"vote","inputs":[{"name":"marketId","type":"uint256","internalType":"uint256"},{"name":"outcome","type":"bool","internalType":"bool"}],"outputs":[],"stateMutability":"nonpayable"},{"type":"event","name":"ActionConfirmed","inputs":[{"name":"actionId","type":"uint256","indexed":true,"internalType":"uint256"},{"name":"confirmer","type":"address","indexed":true,"internalType":"address"}],"anonymous":false},{"type":"event","name":"ActionExecuted","inputs":[{"name":"actionId","type":"uint256","indexed":true,"internalType":"uint256"},{"name":"actionType","type":"uint8","indexed":false,"internalType":"enum PredictionMarket.ActionType"}],"anonymous":false},{"type":"event","name":"ActionProposed","inputs":[{"name":"actionId","type":"uint256","indexed":true,"internalType":"uint256"},{"name":"actionType","type":"uint8","indexed":false,"internalType":"enum PredictionMarket.ActionType"},{"name":"proposer","type":"address","indexed":true,"internalType":"address"}],"anonymous":false},{"type":"event","name":"BondDistributed","inputs":[{"name":"marketId","type":"uint256","indexed":true,"internalType":"uint256"},{"name":"winner","type":"address","indexed":true,"internalType":"address"},{"name":"winnerAmount","type":"uint256","indexed":false,"internalType":"uint256"},{"name":"voterPoolAmount","type":"uint256","indexed":false,"internalType":"uint256"}],"anonymous":false},{"type":"event","name":"Claimed","inputs":[{"name":"marketId","type":"uint256","indexed":true,"internalType":"uint256"},{"name":"user","type":"address","indexed":true,"internalType":"address"},{"name":"amount","type":"uint256","indexed":false,"internalType":"uint256"}],"anonymous":false},{"type":"event","name":"EmergencyRefunded","inputs":[{"name":"marketId","type":"uint256","indexed":true,"internalType":"uint256"},{"name":"user","type":"address","indexed":true,"internalType":"address"},{"name":"amount","type":"uint256","indexed":false,"internalType":"uint256"}],"anonymous":false},{"type":"event","name":"JuryFeeDistributed","inputs":[{"name":"marketId","type":"uint256","indexed":true,"internalType":"uint256"},{"name":"voter","type":"address","indexed":true,"internalType":"address"},{"name":"amount","type":"uint256","indexed":false,"internalType":"uint256"}],"anonymous":false},{"type":"event","name":"MarketCreated","inputs":[{"name":"marketId","type":"uint256","indexed":true,"internalType":"uint256"},{"name":"creator","type":"address","indexed":true,"internalType":"address"},{"name":"question","type":"string","indexed":false,"internalType":"string"},{"name":"expiryTimestamp","type":"uint256","indexed":false,"internalType":"uint256"}],"anonymous":false},{"type":"event","name":"MarketResolved","inputs":[{"name":"marketId","type":"uint256","indexed":true,"internalType":"uint256"},{"name":"outcome","type":"bool","indexed":false,"internalType":"bool"},{"name":"wasDisputed","type":"bool","indexed":false,"internalType":"bool"}],"anonymous":false},{"type":"event","name":"OutcomeProposed","inputs":[{"name":"marketId","type":"uint256","indexed":true,"internalType":"uint256"},{"name":"proposer","type":"address","indexed":true,"internalType":"address"},{"name":"outcome","type":"bool","indexed":false,"internalType":"bool"},{"name":"proofLink","type":"string","indexed":false,"internalType":"string"},{"name":"bond","type":"uint256","indexed":false,"internalType":"uint256"}],"anonymous":false},{"type":"event","name":"Paused","inputs":[{"name":"by","type":"address","indexed":true,"internalType":"address"}],"anonymous":false},{"type":"event","name":"ProposalDisputed","inputs":[{"name":"marketId","type":"uint256","indexed":true,"internalType":"uint256"},{"name":"disputer","type":"address","indexed":true,"internalType":"address"},{"name":"bond","type":"uint256","indexed":false,"internalType":"uint256"}],"anonymous":false},{"type":"event","name":"Trade","inputs":[{"name":"marketId","type":"uint256","indexed":true,"internalType":"uint256"},{"name":"trader","type":"address","indexed":true,"internalType":"address"},{"name":"isYes","type":"bool","indexed":false,"internalType":"bool"},{"name":"isBuy","type":"bool","indexed":false,"internalType":"bool"},{"name":"shares","type":"uint256","indexed":false,"internalType":"uint256"},{"name":"bnbAmount","type":"uint256","indexed":false,"internalType":"uint256"}],"anonymous":false},{"type":"event","name":"Unpaused","inputs":[{"name":"by","type":"address","indexed":true,"internalType":"address"}],"anonymous":false},{"type":"event","name":"VoteCast","inputs":[{"name":"marketId","type":"uint256","indexed":true,"internalType":"uint256"},{"name":"voter","type":"address","indexed":true,"internalType":"address"},{"name":"outcome","type":"bool","indexed":false,"internalType":"bool"},{"name":"weight","type":"uint256","indexed":false,"internalType":"uint256"}],"anonymous":false},{"type":"error","name":"ActionAlreadyExecuted","inputs":[]},{"type":"error","name":"ActionExpired","inputs":[]},{"type":"error","name":"AlreadyClaimed","inputs":[]},{"type":"error","name":"AlreadyConfirmed","inputs":[]},{"type":"error","name":"AlreadyDisputed","inputs":[]},{"type":"error","name":"AlreadyEmergencyRefunded","inputs":[]},{"type":"error","name":"AlreadyProposed","inputs":[]},{"type":"error","name":"AlreadyVoted","inputs":[]},{"type":"error","name":"BelowMinBet","inputs":[]},{"type":"error","name":"ContractNotPaused","inputs":[]},{"type":"error","name":"ContractPaused","inputs":[]},{"type":"error","name":"CreatorPriorityActive","inputs":[]},{"type":"error","name":"DisputeWindowExpired","inputs":[]},{"type":"error","name":"EmergencyRefundTooEarly","inputs":[]},{"type":"error","name":"EmptyQuestion","inputs":[]},{"type":"error","name":"InsufficientBond","inputs":[]},{"type":"error","name":"InsufficientPoolBalance","inputs":[]},{"type":"error","name":"InsufficientShares","inputs":[]},{"type":"error","name":"InvalidAddress","inputs":[]},{"type":"error","name":"InvalidBondWinnerShare","inputs":[]},{"type":"error","name":"InvalidDynamicBondBps","inputs":[]},{"type":"error","name":"InvalidExpiryTimestamp","inputs":[]},{"type":"error","name":"InvalidFee","inputs":[]},{"type":"error","name":"InvalidMinBet","inputs":[]},{"type":"error","name":"InvalidMinBondFloor","inputs":[]},{"type":"error","name":"MarketAlreadyResolved","inputs":[]},{"type":"error","name":"MarketNotActive","inputs":[]},{"type":"error","name":"MarketNotExpired","inputs":[]},{"type":"error","name":"MarketNotResolved","inputs":[]},{"type":"error","name":"MarketStuck","inputs":[]},{"type":"error","name":"NoPosition","inputs":[]},{"type":"error","name":"NoSharesForVoting","inputs":[]},{"type":"error","name":"NotEnoughConfirmations","inputs":[]},{"type":"error","name":"NotProposed","inputs":[]},{"type":"error","name":"NotSigner","inputs":[]},{"type":"error","name":"NothingToClaim","inputs":[]},{"type":"error","name":"ReentrancyGuardReentrantCall","inputs":[]},{"type":"error","name":"SlippageExceeded","inputs":[]},{"type":"error","name":"TransferFailed","inputs":[]},{"type":"error","name":"VotingNotActive","inputs":[]},{"type":"error","name":"VotingNotEnded","inputs":[]}],"bytecode":{"object":"0x608034620001a257601f62003de338819003918201601f19168301926001600160401b0392909183851183861017620001a657819060409586528339810190608081830312620001a25781601f82011215620001a2578351926060840190811184821017620001a6578452829060608101928311620001a257905b828210620001875750506200008f90620001ba565b9060019060017f9b779b17422d0df92223018b32b4d1fa46e071723d6817e2486d003becc55f005560646005556032600655601e6007556611c37937e08000806008556009556064600a55611388600b555f5b6003811062000131575050506001600160a01b031680156200012057600c80546001600160a01b03191691909117905551613bed9081620001f68239f35b815163e6c4247b60e01b8152600490fd5b6001600160a01b0380620001468385620001cf565b51161562000176579083916200015d8285620001cf565b5182546001600160a01b031916911617815501620000e2565b855163e6c4247b60e01b8152600490fd5b602080916200019684620001ba565b8152019101906200007a565b5f80fd5b634e487b7160e01b5f52604160045260245ffd5b51906001600160a01b0382168203620001a257565b906003811015620001e15760051b0190565b634e487b7160e01b5f52603260045260245ffdfe61012060405260048036101561001d575b50361561001b575f80fd5b005b5f3560e01c806303117ba2146126eb57806305040df41461252f5780630acbdee31461251257806312dcf12d146124bf578063132eb94b146124a357806314887fdf1461244f5780631690088c1461243257806316fe69291461222557806317773ebb146122085780632079fb9a146121d657806322dcd13e146121b95780632d1623691461219c5780633173cd26146117e3578063366b73401461217e578063379607f514611ff0578063399af50214611e155780633f4a5d0a14611d6f5780635c975abb14611d4a5780635de97e1114611d2d57806361a895df14611d0c57806361d027b314611ce457806370e5deb914611b845780637740a680146117de57806386d6282c14611a185780638b804759146117e85780638ff65651146117e357806394a29beb146117de5780639619367d146117c15780639ba85fae14611755578063a63d914f14611650578063a732e4c91461162f578063a844a13414611614578063a9f6b058146113b1578063abde480314611369578063afa40bbd14611348578063b05ef45414611306578063b1283e7714611114578063b30dbfb2146110f9578063b7f12f6a146110d4578063bff9d040146110b8578063c0c1cf5514611013578063c2f5738614610c94578063c354648514610f73578063c7f758a814610ecc578063c9d27afe14610cdd578063c9d2d5de14610c99578063d29f541d1461081b578063d55be8c614610c94578063d67d643e14610c77578063d7dfd97114610c5a578063dffad4e214610963578063e13d1aaa14610948578063e1a452181461092c578063e3a96cbd146108a4578063e684d7181461081b578063e7176d31146107eb578063e92e5c34146107c2578063eb44fdd3146106c8578063ec5a711a14610679578063ec9790821461065c578063f02d637214610640578063f585dc5714610624578063f5dd6a08146106015763f5fab622036100105760603660031901126105fd5780356102f7612906565b67ffffffffffffffff926044358481116105fd5761031890369083016128d8565b909161032261315b565b60ff600c5460a01c166105ee57845f52602095600e60205260405f206103478161318a565b9160058310156105db5782156105ca5760018093036105b957600582015461025881018091116105a6574210610582575b61038188612b0c565b9861271061039160075434612a8f565b049361039d8534612ac0565b9a8b106105715760098401805462010000600160b81b0319163360101b62010000600160b01b03161799151560b081901b60ff60b01b169a909a179055600a840192871161055e57918693918b936103ff866103f98554612769565b85612a33565b5f91601f87116001146104e557505084600c9495610431925f916104da575b508160011b915f199060031b1c19161790565b90555b42600b8201550155806104a1575b50507f815cc41ecb2555939bf0d6e3d00cc93628a351ce9dbf6cd3b465fab12d2f5477929161048291604051938452606060208501526060840191612fde565b9360408201528033940390a360015f80516020613b5883398151915255005b600c545f918291829182916001600160a01b03165af16104bf612acd565b50156104cb5780610442565b6040516312171d8360e31b8152fd5b90508a01355f61041e565b919095601f19811696845f5260205f20935f915b8d8a84106105375750505050600c95961061051e575b5050600187811b019055610434565b8901355f1960038a901b60f8161c191690555f8061050f565b82958394989a5082955080999b97910135815501960194018e9694928b92989694986104f9565b604186634e487b7160e01b5f525260245ffd5b60405163e92c469f60e01b81528690fd5b838201546001600160a01b0316331461037857604051630c93731360e11b81528490fd5b601185634e487b7160e01b5f525260245ffd5b604051633ca148c360e11b81528490fd5b60405163671eb0c560e01b81528490fd5b602184634e487b7160e01b5f525260245ffd5b60405163ab35696f60e01b8152fd5b5f80fd5b346105fd575f3660031901126105fd57602060405168056bc75e2d631000008152f35b346105fd575f3660031901126105fd5760206040516107088152f35b346105fd575f3660031901126105fd576020604051611f408152f35b346105fd575f3660031901126105fd576020600d54604051908152f35b50346105fd5760203660031901126105fd5780355f52600e6020526106a060405f2061318a565b6040519060058110156106b557602092508152f35b602183634e487b7160e01b5f525260245ffd5b50346105fd5760203660031901126105fd5780355f52600e60205261076260405f209160018060a01b03908301541660ff60058401546006850154600786015460088701549160098801549361078c6107208a6127d7565b61077e61072f60018d016127d7565b9b61077061074b6003610744600285016127d7565b93016127d7565b936040519e8f9e8f9261016080855284019061289a565b91602081840391015261289a565b8c810360408e01529061289a565b908a820360608c015261289a565b96608089015260a088015260c087015260e0860152610100850152818116151561012085015260081c1615156101408301520390f35b50346105fd5760203660031901126105fd57355f526010602052602060405f2054604051908152f35b50346105fd5760203660031901126105fd576108079035612f90565b604080519215158352602083019190915290f35b346105fd57610829366129eb565b5f918252600f602090815260408084206001600160a01b03939093168452918152918190208054600182015460029092015483519182529381019190915260ff808416151592820192909252600883901c821615156060820152601083901c82161515608082015260189290921c16151560a082015260c090f35b50346105fd5760203660031901126105fd5780355f52600e60205260405f2060018060a01b03600d8201541690600e81015490600f810154610e108301908184116109195760c095506011601084015493015493604051958652602086015260408501526060840152608083015260a0820152f35b601186634e487b7160e01b5f525260245ffd5b346105fd575f3660031901126105fd5760206040516127108152f35b346105fd575f3660031901126105fd57602060405160328152f35b50346105fd5761097236612938565b9161097b61315b565b60ff600c5460a01c16610c4957805f52600e60205260405f2061099d8161318a565b6005811015610c3657610c2557815f52600f60205260405f20335f5260205260405f209083825410610c14576006810191825490600783015468056bc75e2d631000009081840191828511610bdb578101809111610c01576109ff9082612a82565b662386f26fc100008281028181048403610bee5789610a2b81610a2586610a3195612aa2565b96612ac0565b93612ac0565b9180820291820403610bdb57670de0b6b3a764000092610a57610a6693610a5d93612aa2565b90612a82565b60011c88612a8f565b04916008840190815493848111610bca576127109485610a8860055484612a8f565b0495610a9660065484612a8f565b0497610aab610aa58a89612a82565b84612ac0565b9b8c10610bb957610abf8b610ac695612ac0565b9055612ac0565b9055610ad3868254612ac0565b905580610b7e575b5081610b53575b50505f80808086335af1610af4612acd565b5015610b42576020935060405191600183525f8584015260408301528260608301525f80516020613b7883398151915260803393a360015f80516020613b5883398151915255604051908152f35b6040516312171d8360e31b81528490fd5b8501545f918291829182916001600160a01b03165af1610b71612acd565b5015610b42575f80610ae2565b600c545f918291829182916001600160a01b03165af1610b9c612acd565b5015610ba8575f610adb565b6040516312171d8360e31b81528690fd5b604051638199f5f360e01b81528d90fd5b60405163bc6072f160e01b81528b90fd5b60118b634e487b7160e01b5f525260245ffd5b60118c634e487b7160e01b5f525260245ffd5b60118a634e487b7160e01b5f525260245ffd5b604051633999656760e01b81528690fd5b604051635a90bb8d60e11b81528590fd5b602186634e487b7160e01b5f525260245ffd5b60405163ab35696f60e01b81528490fd5b346105fd575f3660031901126105fd576020600b54604051908152f35b346105fd575f3660031901126105fd576020600a54604051908152f35b6129cf565b50346105fd5760203660031901126105fd57610cb361315b565b60ff600c5460a01c166105ee57610cca9035612c35565b60015f80516020613b5883398151915255005b50346105fd5760403660031901126105fd578035610cf9612906565b9160ff600c5460a01c166105ee57815f52600e60205260405f2090610d1d8261318a565b6005811015610eb957600303610e9757600e820154610e108101809111610ea6574211610e9757825f52600f60205260405f20335f5260205260405f20916002830180549360ff8560101c16610e8657806001610d7e925491015490612a82565b938415610e755763ffff000019168615801560181b63ff00000016919091176201000017909155610e6057601001610db7838254612a82565b90555b825f52601060205260405f2080549168010000000000000000831015610e4d575091610e10827fcbdf6214089cba887ecbf35a0b6a734589959c9763342c756bb2a80ca2bc9f6e946001610e48950181556129a6565b81546001600160a01b0360039290921b91821b1916339182901b17909155604080519615158752602087019290925294918291820190565b0390a3005b604190634e487b7160e01b5f525260245ffd5b601101610e6e838254612a82565b9055610dba565b60405163922b788560e01b81528490fd5b604051637c9a1cf960e01b81528490fd5b604051639b8cc47560e01b8152fd5b601182634e487b7160e01b5f525260245ffd5b602182634e487b7160e01b5f525260245ffd5b50346105fd5760203660031901126105fd5780355f52600e60205260405f2090600982015490600b83015490600c840154610708830191828411610f605750610f4c610f1c600a60ff97016127d7565b60405196879660018060a01b038160101c16885260b01c161515602087015260c0604087015260c086019061289a565b926060850152608084015260a08301520390f35b601190634e487b7160e01b5f525260245ffd5b50346105fd5760203660031901126105fd5780355f52600e60205260405f20600760068201549101549068056bc75e2d63100000808201809211611000578201809211610fed57662386f26fc10000928284029384048303610f60576020610fe585610fdf8686612a82565b90612aa2565b604051908152f35b601183634e487b7160e01b5f525260245ffd5b601184634e487b7160e01b5f525260245ffd5b50346105fd5760203660031901126105fd57803561103033612ffe565b156110a857805f528160205260405f2060ff8382015416611097576003810154610e1081018091116110005742116110875760026003910154106110775761001b906135b6565b50604051635c9885ab60e11b8152fd5b604051621331cf60e01b81528390fd5b604051631b50735b60e21b81528390fd5b5060405163143606b960e31b8152fd5b346105fd575f3660031901126105fd5760206040516107d08152f35b346105fd5760406110ed6110e736612915565b91612b40565b82519182526020820152f35b346105fd575f3660031901126105fd57602060405160648152f35b50346105fd5760203660031901126105fd5780355f52600e60205260405f2061113c816127d7565b611148600183016127d7565b60e052611157600283016127d7565b61010052611167600383016127d7565b928201546005830154600684015460078501546008860154600987015492979491926001600160a01b0390921691906111a2600a89016127d7565b93600b89015460a052600c89015499600160a01b60019003600d8b01541696600e8b015498600f8c01549a60108d01549c6011015460805260405160c0526102a08060c0515260c051016111f59161289a565b60c051810360c0516020015260e0519061120e9161289a565b60c051810360c0516040015261010051906112289161289a565b60c051810360c0516060015261123d9161289a565b9560c0516080015260c05160a0015260c05160c0015260c05160e0015260c051610100015260ff8116151560c05161012001528060081c60ff16151560c0516101400152600160a01b600190038160101c1660c051610160015260b01c60ff16151560c051610180015260c051810360c0516101a001526112bd9161289a565b9460a05160c0516101c0015260c0516101e0015260c051610200015260c051610220015260c051610240015260c051610260015260805160c051610280015260c051900360c051f35b50346105fd5760203660031901126105fd5780355f52600e602052600c60405f200154908160011b9180830460021490151715610f6057602082604051908152f35b346105fd575f3660031901126105fd576020604051662386f26fc100008152f35b346105fd576113773661296e565b905f52601060205260405f2080548210156105fd57602091611398916129a6565b905460405160039290921b1c6001600160a01b03168152f35b506113bb3661296e565b906113c461315b565b60ff600c5460a01c166116035760085434106115f257805f52600e60205260405f206113ef8161318a565b60058110156115df576115ce57612710908161140d60055434612a8f565b049161141b60065434612a8f565b049161143061142a8483612a82565b34612ac0565b6006830154600784019081549068056bc75e2d63100000808201809211610bdb57820190818311610bdb576114688261146e92612a82565b85612a8f565b670de0b6b3a764000090818102918183041490151715610bdb57662386f26fc100009180830292830403610bdb57906114a691612aa2565b9788106115bd57876114b791612a82565b90556114c860088401918254612a82565b9055835f52600f60205260405f20335f52602052600160405f20016114ee868254612a82565b905580611582575b5081611546575b60208484604051905f82526001848301528260408301523460608301525f80516020613b7883398151915260803393a360015f80516020613b5883398151915255604051908152f35b8401545f918291829182916001600160a01b03165af1611564612acd565b50156115715782806114fd565b6040516312171d8360e31b81528390fd5b600c545f918291829182916001600160a01b03165af16115a0612acd565b50156115ac575f6114f6565b6040516312171d8360e31b81528590fd5b604051638199f5f360e01b81528990fd5b604051635a90bb8d60e11b81528490fd5b602185634e487b7160e01b5f525260245ffd5b604051635688ffb360e01b81528390fd5b60405163ab35696f60e01b81528390fd5b346105fd575f3660031901126105fd57602060405160c88152f35b346105fd575f3660031901126105fd5760206040516611c37937e080008152f35b50346105fd5760203660031901126105fd5780359061166e33612ffe565b1561174657815f528060205260405f209060ff8183015416611737576003820154610e108101809111610ea6574211611729576005820190335f528160205260ff60405f20541661171a5750600391600291335f5260205260405f20600160ff19825416179055016116e08154612a11565b80915533837f8d33281e1711fba153adffbde99ea4fd340a412490b8254097b438c0e8d41e4a5f80a3101561171157005b61001b906135b6565b604051635f8a9c0b60e01b8152fd5b604051621331cf60e01b8152fd5b604051631b50735b60e21b8152fd5b60405163143606b960e31b8152fd5b50346105fd5760203660031901126105fd5780355f52600e60205260405f20600760068201549101549068056bc75e2d63100000808201809211611000578201809211610fed57662386f26fc10000928184029384048203610f60576020610fe585610fdf8686612a82565b346105fd575f3660031901126105fd576020600854604051908152f35b612984565b612952565b5060e03660031901126105fd5767ffffffffffffffff81358181116105fd5761181490369084016128d8565b6024358381116105fd5761182b90369086016128d8565b9290936044358181116105fd5761184590369088016128d8565b916064359081116105fd5761185d90369089016128d8565b92909160a43596871515988989036105fd5761187761315b565b60ff600c5460a01c16611a075761189197608435976131dd565b9160085434106119f657825f52602090600e825260405f20926127106118b960055434612a8f565b04906118c58234612ac0565b90600686019586549060078101976118e184868b5480966130dd565b9860c4358a106119e55789600894611933965f146119af575061190691508254612a82565b9055885f52600f875260405f20335f52875260405f20611927898254612a82565b90555b01918254612a82565b905580611985575b506040809550519081526001828201528285820152346060820152835f80516020613b7883398151915260803393a360015f80516020613b58833981519152558351928352820152f35b600c545f918291829182916001600160a01b03165af16119a3612acd565b50156115ac578461193b565b6119ba929350612a82565b9055885f52600f875260405f20335f528752600160405f20016119de898254612a82565b905561192a565b604051638199f5f360e01b81528c90fd5b604051635688ffb360e01b81528490fd5b60405163ab35696f60e01b81528b90fd5b5060203660031901126105fd578035611a2f61315b565b60ff600c5460a01c16611b7457805f52600e60205260405f2091611a528361318a565b6005811015610eb957600203611b6557600b8301546107088101809111610ea6574211611b5657600c830154928360011b9380850460021490151715610ea657612710611aa160075434612a8f565b0490611aad8234612ac0565b948510611b4557600d810180546001600160a01b0319163317905542600e820155600f0184905580611b1b575b50506040519182527fde1573422d8e8f907aa39b232e67b89a948f3a0367e19ca12e2e761ec229750160203393a360015f80516020613b5883398151915255005b600c545f918291829182916001600160a01b03165af1611b39612acd565b50156104cb5780611ada565b60405163e92c469f60e01b81528390fd5b60405163234c0ffd60e21b8152fd5b6040516379543eaf60e11b8152fd5b5060405163ab35696f60e01b8152fd5b50346105fd57602090816003193601126105fd578035611ba261315b565b805f52600e835260405f20916005830154620151808101809111610ea6574210611cd55760ff600984015416611cc657815f52600f845260405f20335f52845260405f2092600284019081549460ff8660081c16611cb557806001611c0b925491015490612a82565b8015611ca45781611c3a611c3f926008611c316006610100970154600786015490612a82565b93015490612a8f565b612aa2565b9461ff0019161790555f80808086335af1611c58612acd565b50156104cb5750604051908282527f49def7ae9132a7281c47912927b25c31186e59b9488226d422e1a370e9c2d27f843393a360015f80516020613b5883398151915255604051908152f35b604051632afc3c0d60e21b81528490fd5b60405163438da29b60e11b81528490fd5b60405163aa43cb2d60e01b8152fd5b6040516321ec2ba160e21b8152fd5b346105fd575f3660031901126105fd57600c546040516001600160a01b039091168152602090f35b346105fd575f3660031901126105fd57602060405166038d7ea4c680008152f35b346105fd575f3660031901126105fd576020600754604051908152f35b346105fd575f3660031901126105fd57602060ff600c5460a01c166040519015158152f35b50346105fd5760a03660031901126105fd5767ffffffffffffffff9080358281116105fd57611da190369083016128d8565b9190926024358181116105fd57611dbb90369084016128d8565b6044929192358281116105fd57611dd590369086016128d8565b9390926064359081116105fd57611def90369087016128d8565b96909560ff600c5460a01c166105ee576020610fe58a8a8a8a8a8a8a8a608435976131dd565b50611e1f3661296e565b90611e2861315b565b60ff600c5460a01c166116035760085434106115f257805f52600e60205260405f20611e538161318a565b60058110156115df576115ce576127109081611e7160055434612a8f565b0491611e7f60065434612a8f565b0491611e8e61142a8483612a82565b600683018054600785015468056bc75e2d631000009081830191828411610bee578101809111610bdb57611468611ec59183612a82565b670de0b6b3a764000090818102918183041490151715610bdb57662386f26fc100009180830292830403610bdb5790611efd91612aa2565b9788106115bd5787611f0e91612a82565b9055611f1f60088401918254612a82565b9055835f52600f60205260405f20335f5260205260405f20611f42868254612a82565b905580611fc6575b5081611f9b575b6020848460405190600182526001848301528260408301523460608301525f80516020613b7883398151915260803393a360015f80516020613b5883398151915255604051908152f35b8401545f918291829182916001600160a01b03165af1611fb9612acd565b5015611571578280611f51565b600c545f918291829182916001600160a01b03165af1611fe4612acd565b50156115ac575f611f4a565b50346105fd57602090816003193601126105fd57803561200e61315b565b805f52600e835260405f209160098301549260ff84161561216e57825f52600f855260405f20335f52855260405f2090600282019182549560ff871661215d5760081c60ff169081156121535754905b8115612142576120839291611c3a91156121355760086006840154935b015490612a8f565b9060016120a061271061209860075486612a8f565b048094612ac0565b9560ff19161790558061210b575b505f80808086335af16120bf612acd565b50156104cb5750604051908282527f4ec90e965519d92681267467f775ada5bd214aa92c0dc93d90a5e880ce9ed026843393a360015f80516020613b5883398151915255604051908152f35b600c545f918291829182916001600160a01b03165af1612129612acd565b50156104cb575f6120ae565b600860078401549361207b565b6040516312d37ee560e31b81528590fd5b600101549061205e565b604051630c8d9eab60e31b81528590fd5b5060405163174b639360e11b8152fd5b50346105fd5760203660031901126105fd57610fe560209135612b0c565b346105fd575f3660031901126105fd576020600354604051908152f35b346105fd575f3660031901126105fd576020600554604051908152f35b50346105fd5760203660031901126105fd573560038110156105fd57546040516001600160a01b039091168152602090f35b346105fd575f3660031901126105fd576020600654604051908152f35b50346105fd5761223436612938565b9161223d61315b565b60ff600c5460a01c16610c4957805f52600e60205260405f2061225f8161318a565b6005811015610c3657610c2557815f52600f60205260405f20335f52602052600160405f20019083825410610c14576006810154600782019283549168056bc75e2d63100000808201809211610c0157830190818411610c0157816122c391612a82565b662386f26fc100008281028181048403610bee5789610a2b81610a25866122e995612aa2565b9180820291820403610bdb57670de0b6b3a764000092610a5761230f93610a5d93612aa2565b04916008840190815493848111610bca57612710948561233160055484612a8f565b049561233f60065484612a8f565b049761234e610aa58a89612a82565b9b8c10610bb957610abf8b61236295612ac0565b905561236f868254612ac0565b905580612408575b50816123dd575b50505f80808086335af1612390612acd565b5015610b425760209350604051915f83525f8584015260408301528260608301525f80516020613b7883398151915260803393a360015f80516020613b5883398151915255604051908152f35b8501545f918291829182916001600160a01b03165af16123fb612acd565b5015610b42575f8061237e565b600c545f918291829182916001600160a01b03165af1612426612acd565b5015610ba8575f612377565b346105fd575f3660031901126105fd576020600954604051908152f35b346105fd576020610fe561246236612915565b915f52600e845260405f209061249d61271061248c61248660055460065490612a82565b84612a8f565b046007600685015494015492612ac0565b916130dd565b346105fd575f3660031901126105fd5760206040516102588152f35b346105fd576020610fe56124f06124d536612915565b915f52600e855260405f20600760068201549101549061303b565b61271061250b61250560055460065490612a82565b83612a8f565b0490612ac0565b346105fd575f3660031901126105fd576020604051620151808152f35b50346105fd5760403660031901126105fd57803590600a8210156105fd5767ffffffffffffffff916024358381116105fd5761256e90369084016128d8565b9261257833612ffe565b15611746576003549361258a85612a11565b600355845f5260209582875260405f209160ff19948584541660ff8816178455600194858501938311610e4d57506125c6826103f98554612769565b5f90601f83116001146126855791806125f99260059695945f9261267a575b50508160011b915f199060031b1c19161790565b90555b826002820155426003820155335f5201855260405f20918254161790556126266040518092612879565b817f0bd5a1be8a9259e42ff3ff2d4b8457044eda96d3db9aed28322f8da78f1e0d41843393a36040519033817f8d33281e1711fba153adffbde99ea4fd340a412490b8254097b438c0e8d41e4a5f80a38152f35b013590505f806125e5565b918591949392601f19821690845f528b5f20915f5b8d8282106126d55750509683600598106126bc575b505050811b0190556125fc565b01355f19600384901b60f8161c191690555f80806126af565b838a01358555988901988a96909401930161269a565b50346105fd5760203660031901126105fd578061274291355f528060205260405f209060ff82541691612720600182016127d7565b9061275360ff6002830154946003840154930154169260405196878097612879565b60a0602087015260a086019061289a565b9260408501526060840152151560808301520390f35b90600182811c92168015612797575b602083101461278357565b634e487b7160e01b5f52602260045260245ffd5b91607f1691612778565b90601f8019910116810190811067ffffffffffffffff8211176127c357604052565b634e487b7160e01b5f52604160045260245ffd5b9060405191825f82546127e981612769565b908184526020946001916001811690815f146128575750600114612819575b505050612817925003836127a1565b565b5f90815285812095935091905b81831061283f57505061281793508201015f8080612808565b85548884018501529485019487945091830191612826565b9250505061281794925060ff191682840152151560051b8201015f8080612808565b90600a8210156128865752565b634e487b7160e01b5f52602160045260245ffd5b91908251928382525f5b8481106128c4575050825f602080949584010152601f8019910116010190565b6020818301810151848301820152016128a4565b9181601f840112156105fd5782359167ffffffffffffffff83116105fd57602083818601950101116105fd57565b6024359081151582036105fd57565b60609060031901126105fd57600435906024359060443580151581036105fd5790565b60609060031901126105fd57600435906024359060443590565b346105fd575f3660031901126105fd576020604051610e108152f35b60409060031901126105fd576004359060243590565b346105fd575f3660031901126105fd57602060405167016345785d8a00008152f35b80548210156129bb575f5260205f2001905f90565b634e487b7160e01b5f52603260045260245ffd5b346105fd575f3660031901126105fd5760206040516101f48152f35b60409060031901126105fd57600435906024356001600160a01b03811681036105fd5790565b5f198114612a1f5760010190565b634e487b7160e01b5f52601160045260245ffd5b601f8211612a4057505050565b5f5260205f20906020601f840160051c83019310612a78575b601f0160051c01905b818110612a6d575050565b5f8155600101612a62565b9091508190612a59565b91908201809211612a1f57565b81810292918115918404141715612a1f57565b8115612aac570490565b634e487b7160e01b5f52601260045260245ffd5b91908203918211612a1f57565b3d15612b07573d9067ffffffffffffffff82116127c35760405191612afc601f8201601f1916602001846127a1565b82523d5f602084013e565b606090565b5f52600e602052612710612b2a600860405f200154600a5490612a8f565b046009548082115f14612b3b575090565b905090565b92915f935f52600e60205260405f208215612c2a5760068101546007820154916008612b6e8587868661303b565b9101549081811115612c0757505f94905b818610612bb057505083612b95575b5050509190565b839550926124f09291612ba79461303b565b915f8080612b8e565b9094612bbc8682612a82565b6001808201809211612a1f571c9082612bd78784888861303b565b11612be55750945b90612b7f565b95505f19810190811115612bdf57634e487b7160e01b5f52601160045260245ffd5b9350505050612c2791935061271061250b61250560055460065490612a82565b90565b50505090505f905f90565b805f52600e6020526040805f20612c4b8161318a565b60058110156128865760028103612d2d5750600b8101546107088101809111612a1f57421115612d1c575f8080806009850194612cab60ff600181198954161780895560b01c16879061ff00825491151560081b169061ff001916179055565b8554600c91909101549060101c6001600160a01b03165af1612ccb612acd565b5015612d0b579060ff7fdc2ddf2d5ba9d7ae2e3763f353bea15c1618e60da8ac6eca3b14d806ce8a3316925460081c16815190151581525f6020820152a2565b81516312171d8360e31b8152600490fd5b815163234c0ffd60e21b8152600490fd5b600303612f7f57600e810154610e108101809111612a1f57421115612f6e57601081018054906011830191825414612ed35754905460098301805461ffff191692909110600881901b61ff0016929092176001178155919082549060ff8260b01c16151514805f14612ec857600f830154915b8115612eb35760101c6001600160a01b0316905b15612ea557612de3600c840154925b612ddd612710612dd5600b5484612a8f565b048092612ac0565b93612a82565b905f80808085855af1612df4612acd565b5015612e945760ff938695935f93897f27fa0e98dfa1197c7d1238ba14b175c914fafadedebdf5c8d68effd3079f42f189600f967fdc2ddf2d5ba9d7ae2e3763f353bea15c1618e60da8ac6eca3b14d806ce8a33169c5194855285602086015260018060a01b031693a380612e83575b5082600c82015501555460081c168151901515815260016020820152a2565b612e8e90828a6139e7565b5f612e64565b85516312171d8360e31b8152600490fd5b612de3600f84015492612dc3565b50600d8301546001600160a01b031690612db4565b600c83015491612da0565b50509150600c8201805480612f3b575b5050600f82019182549081612ef9575b50505050565b600d01545f918291829182916001600160a01b03165af1612f18612acd565b5015612f2b57505f90555f808080612ef3565b516312171d8360e31b8152600490fd5b60098401545f9182918291829160101c6001600160a01b03165af1612f5e612acd565b5015612d0b575f90555f80612ee3565b8151633fc30bd160e11b8152600490fd5b815163174b639360e11b8152600490fd5b5f52600e60205260405f2060ff600982015416612fd75760050154620151808101809111612a1f5780421015612fcf57612fcb904290612ac0565b5f91565b506001905f90565b505f905f90565b908060209392818452848401375f828201840152601f01601f1916010190565b5f546001600160a01b03918216908216811491821561302d575b821561302357505090565b6002541614919050565b600154811682149250613018565b9092919268056bc75e2d63100000808301809311612a1f578101809111612a1f576130668183612a82565b92156130d55750915b662386f26fc10000918383028381048503612a1f578261309c81613096856130a295612aa2565b97612ac0565b92612ac0565b9080840293840403612a1f57670de0b6b3a764000093610a576130c8926130d195612aa2565b60011c90612a8f565b0490565b90509161306f565b9192909268056bc75e2d63100000808401809411612a1f578401809411612a1f576131088484612a82565b911561315157613119929350612a8f565b90670de0b6b3a764000091828102928184041490151715612a1f57662386f26fc100009080820291820403612a1f57612c2791612aa2565b6131199250612a8f565b5f80516020613b5883398151915260028154146131785760029055565b604051633ee5aeb560e01b8152600490fd5b600981015460ff81166131d657600d8201546001600160a01b03919082166131ce5760101c166131c857600501544210156131c3575f90565b600190565b50600290565b505050600390565b5050600490565b93959291989796909485156135a4574288111561359257600d549661320188612a11565b600d55879a885f52600e60205260405f209467ffffffffffffffff89116127c357613236896132308854612769565b88612a33565b5f89601f811160011461352d5780613261925f916104da57508160011b915f199060031b1c19161790565b86555b600186019167ffffffffffffffff82116127c357613286826103f98554612769565b5f90601f83116001146134c6576132b392915f918361267a5750508160011b915f199060031b1c19161790565b90555b67ffffffffffffffff82116127c3576132df826132d66002870154612769565b60028701612a33565b5f90601f83116001146134595761330c92915f918361267a5750508160011b915f199060031b1c19161790565b60028301555b600382019067ffffffffffffffff81116127c3578793613336826103f98554612769565b5f90601f83116001146133c7579261338f836005947f03e783e31593f59fda73a59d05e2525d610a533995cce4d4750186c3b6bf80bb9a9997946133b999975f9261267a5750508160011b915f199060031b1c19161790565b90555b6004810180546001600160a01b031916331790550155604080518181529390840191612fde565b9360208201528033940390a3565b601f19831691845f5260205f20925f5b81811061343e5750937f03e783e31593f59fda73a59d05e2525d610a533995cce4d4750186c3b6bf80bb999896936133b99896936001938360059810613425575b505050811b019055613392565b01355f19600384901b60f8161c191690555f8080613418565b8284013585558c9850600190940193602092830192016133d7565b600285939293015f5260205f20905f935b601f19841685106134ae576001945083601f19811610613495575b505050811b016002830155613312565b01355f19600384901b60f8161c191690555f8080613485565b8181013583556020948501946001909301920161346a565b835f9392935260205f20905f935b601f1984168510613515576001945083601f198116106134fc575b505050811b0190556132b6565b01355f19600384901b60f8161c191690555f80806134ef565b818101358355602094850194600190930192016134d4565b50865f5260205f20905f5b8a601f198d16821061357a5750508a601f19811610613561575b5050600189811b018655613264565b8901355f1960038c901b60f8161c191690555f80613552565b60018394602093948493013581550193019101613538565b60405163212be55960e11b8152600490fd5b604051630d5003f360e01b8152600490fd5b805f526004602090808252604090815f20908082016001908160ff1982541617905560ff835416600a8110156106b5578061364857506135f79083016127d7565b84818051810103126105fd57840151906101f4821161363a575060ff5f80516020613b98833981519152949392613637926005555b541691518092612879565ba2565b83516358d620b360e01b8152fd5b8082036136bf575061365b9083016127d7565b84818051810103126105fd578401519066038d7ea4c68000821080156136ae575b6136a0575060ff5f80516020613b988339815191529493926136379260085561362c565b8351637cc0badd60e11b8152fd5b5067016345785d8a0000821161367c565b6002810361373e57506136d39083016127d7565b84818051810103126105fd578401516001600160a01b03811691908290036105fd578115613730575060ff5f80516020613b98833981519152949392613637926bffffffffffffffffffffffff60a01b600c541617600c5561362c565b835163e6c4247b60e01b8152fd5b6003810361379e575050600c805460ff60a01b1916600160a01b179055505f80516020613b988339815191529291906136379060ff90337f62e78cea01bee320cd4e420270b5ea74000d11b0c9f74754ebdbfc544b05a2585f80a261362c565b8083036137f4575050509061363760ff5f80516020613b9883398151915294938160a01b19600c5416600c55337f5db9ee0a495bf2e6ff9c91a7834c1ba4fdd244a5e8aa4e537bd38aeae4b073aa5f80a261362c565b6005810361384057506138089083016127d7565b84818051810103126105fd578401519060c8821161363a575060ff5f80516020613b988339815191529493926136379260065561362c565b6006810361388c57506138549083016127d7565b84818051810103126105fd57840151906064821161363a575060ff5f80516020613b988339815191529493926136379260075561362c565b6007810361390457506138a09083016127d7565b84818051810103126105fd57840151906611c37937e08000821080156138f3575b6138e5575060ff5f80516020613b988339815191529493926136379260095561362c565b835163329b7bc160e11b8152fd5b5067016345785d8a000082116138c1565b6008810361397057506139189083016127d7565b84818051810103126105fd5784015190603282108015613965575b613957575060ff5f80516020613b9883398151915294939261363792600a5561362c565b835163ba344cfd60e01b8152fd5b506101f48211613933565b600914613995575b50509061363760ff5f80516020613b98833981519152949361362c565b6139a09083016127d7565b84818051810103126105fd57840151906107d0821080156139dc575b6139ce5750600b5561363760ff613978565b8351630c7311a160e31b8152fd5b50611f4082116139bc565b600982015460081c60ff9081169493928515613b4e57601001545b8015613b1057825f52601093602091601060205260409360405f20985f5b8a54811015613b035780613a366001928d6129a6565b838060a01b0391549060031b1c16895f52600f8852885f20815f52885289895f20878d88600284015480921c169081613af0575b50613a7a575b5050505001613a20565b611c3a613a908388613a96955491015490612a82565b8b612a8f565b80613aa2575b87613a70565b895f80808085885af1613ab3612acd565b50613abf575b50613a9c565b7f554650a83f978b117f8cf5d88e8fe59a5293f4d01273ba34e3a362e5d63399ec918c51908152a35f898189613ab9565b60181c891615158815151490505f613a6a565b5050505050505050509050565b5050600c549293505f92839283925082916001600160a01b03165af1613b34612acd565b5015613b3c57565b6040516312171d8360e31b8152600490fd5b60110154613a0256fe9b779b17422d0df92223018b32b4d1fa46e071723d6817e2486d003becc55f001080a6e42ac16e1e06ceeec56bfcd11d5f64a6b48cdf10db0f6566172e7f92a0ccbac48ec328eb4bdb4ace10025e03ecf58898746c98bdf8cfd4d32ade75f42aa2646970667358221220d60f19969ad40d0ac0c93a8bed86060a9e8e9c0d0d4b84cf08d8452740b3d84e64736f6c63430008180033","linkReferences":{}},"methodIdentifiers":{"ACTION_EXPIRY()":"8ff65651","BOND_WINNER_SHARE_LOWER()":"bff9d040","BOND_WINNER_SHARE_UPPER()":"f02d6372","BPS_DENOMINATOR()":"e1a45218","CREATOR_PRIORITY_WINDOW()":"132eb94b","DISPUTE_WINDOW()":"f585dc57","DYNAMIC_BOND_BPS_LOWER()":"e13d1aaa","DYNAMIC_BOND_BPS_UPPER()":"c2f57386","EMERGENCY_REFUND_DELAY()":"0acbdee3","MAX_CREATOR_FEE_BPS()":"a844a134","MAX_FEE_BPS()":"d55be8c6","MAX_RESOLUTION_FEE_BPS()":"b30dbfb2","MIN_BET_LOWER()":"61a895df","MIN_BET_UPPER()":"94a29beb","MIN_BOND_FLOOR_LOWER()":"a732e4c9","MIN_BOND_FLOOR_UPPER()":"7740a680","UNIT_PRICE()":"afa40bbd","VIRTUAL_LIQUIDITY()":"f5dd6a08","VOTING_WINDOW()":"3173cd26","actionNonce()":"2d162369","bondWinnerShareBps()":"d7dfd971","buyNo(uint256,uint256)":"a9f6b058","buyYes(uint256,uint256)":"399af502","canEmergencyRefund(uint256)":"e7176d31","claim(uint256)":"379607f5","confirmAction(uint256)":"a63d914f","createMarket(string,string,string,string,uint256)":"3f4a5d0a","createMarketAndBuy(string,string,string,string,uint256,bool,uint256)":"8b804759","creatorFeeBps()":"17773ebb","dispute(uint256)":"86d6282c","dynamicBondBps()":"d67d643e","emergencyRefund(uint256)":"70e5deb9","executeAction(uint256)":"c0c1cf55","finalizeMarket(uint256)":"c9d2d5de","getDispute(uint256)":"e3a96cbd","getMarket(uint256)":"eb44fdd3","getMarketStatus(uint256)":"ec5a711a","getMaxSellableShares(uint256,uint256,bool)":"b7f12f6a","getNoPrice(uint256)":"c3546485","getPosition(uint256,address)":"d29f541d","getProposal(uint256)":"c7f758a8","getRequiredBond(uint256)":"366b7340","getRequiredDisputeBond(uint256)":"b05ef454","getVoterCount(uint256)":"e92e5c34","getYesPrice(uint256)":"9ba85fae","marketCount()":"ec979082","marketVoters(uint256,uint256)":"abde4803","markets(uint256)":"b1283e77","minBet()":"9619367d","minBondFloor()":"1690088c","paused()":"5c975abb","pendingActions(uint256)":"03117ba2","platformFeeBps()":"22dcd13e","positions(uint256,address)":"e684d718","previewBuy(uint256,uint256,bool)":"14887fdf","previewSell(uint256,uint256,bool)":"12dcf12d","proposeAction(uint8,bytes)":"05040df4","proposeOutcome(uint256,bool,string)":"f5fab622","resolutionFeeBps()":"5de97e11","sellNo(uint256,uint256,uint256)":"16fe6929","sellYes(uint256,uint256,uint256)":"dffad4e2","signers(uint256)":"2079fb9a","treasury()":"61d027b3","vote(uint256,bool)":"c9d27afe"},"id":23}