{"abi":[{"type":"constructor","inputs":[{"name":"_signers","type":"address[3]","internalType":"address[3]"},{"name":"_treasury","type":"address","internalType":"address"}],"stateMutability":"nonpayable"},{"type":"function","name":"ACTION_EXPIRY","inputs":[],"outputs":[{"name":"","type":"uint256","internalType":"uint256"}],"stateMutability":"view"},{"type":"function","name":"BOND_WINNER_SHARE_LOWER","inputs":[],"outputs":[{"name":"","type":"uint256","internalType":"uint256"}],"stateMutability":"view"},{"type":"function","name":"BOND_WINNER_SHARE_UPPER","inputs":[],"outputs":[{"name":"","type":"uint256","internalType":"uint256"}],"stateMutability":"view"},{"type":"function","name":"BPS_DENOMINATOR","inputs":[],"outputs":[{"name":"","type":"uint256","internalType":"uint256"}],"stateMutability":"view"},{"type":"function","name":"CREATOR_PRIORITY_WINDOW","inputs":[],"outputs":[{"name":"","type":"uint256","internalType":"uint256"}],"stateMutability":"view"},{"type":"function","name":"DISPUTE_WINDOW","inputs":[],"outputs":[{"name":"","type":"uint256","internalType":"uint256"}],"stateMutability":"view"},{"type":"function","name":"DYNAMIC_BOND_BPS_LOWER","inputs":[],"outputs":[{"name":"","type":"uint256","internalType":"uint256"}],"stateMutability":"view"},{"type":"function","name":"DYNAMIC_BOND_BPS_UPPER","inputs":[],"outputs":[{"name":"","type":"uint256","internalType":"uint256"}],"stateMutability":"view"},{"type":"function","name":"EMERGENCY_REFUND_DELAY","inputs":[],"outputs":[{"name":"","type":"uint256","internalType":"uint256"}],"stateMutability":"view"},{"type":"function","name":"MAX_CREATOR_FEE_BPS","inputs":[],"outputs":[{"name":"","type":"uint256","internalType":"uint256"}],"stateMutability":"view"},{"type":"function","name":"MAX_FEE_BPS","inputs":[],"outputs":[{"name":"","type":"uint256","internalType":"uint256"}],"stateMutability":"view"},{"type":"function","name":"MAX_HEAT_LEVEL","inputs":[],"outputs":[{"name":"","type":"uint256","internalType":"uint256"}],"stateMutability":"view"},{"type":"function","name":"MAX_MARKET_CREATION_FEE","inputs":[],"outputs":[{"name":"","type":"uint256","internalType":"uint256"}],"stateMutability":"view"},{"type":"function","name":"MAX_PROPOSER_REWARD_BPS","inputs":[],"outputs":[{"name":"","type":"uint256","internalType":"uint256"}],"stateMutability":"view"},{"type":"function","name":"MAX_RESOLUTION_FEE_BPS","inputs":[],"outputs":[{"name":"","type":"uint256","internalType":"uint256"}],"stateMutability":"view"},{"type":"function","name":"MIN_BET_LOWER","inputs":[],"outputs":[{"name":"","type":"uint256","internalType":"uint256"}],"stateMutability":"view"},{"type":"function","name":"MIN_BET_UPPER","inputs":[],"outputs":[{"name":"","type":"uint256","internalType":"uint256"}],"stateMutability":"view"},{"type":"function","name":"MIN_BOND_FLOOR_LOWER","inputs":[],"outputs":[{"name":"","type":"uint256","internalType":"uint256"}],"stateMutability":"view"},{"type":"function","name":"MIN_BOND_FLOOR_UPPER","inputs":[],"outputs":[{"name":"","type":"uint256","internalType":"uint256"}],"stateMutability":"view"},{"type":"function","name":"MIN_HEAT_LEVEL","inputs":[],"outputs":[{"name":"","type":"uint256","internalType":"uint256"}],"stateMutability":"view"},{"type":"function","name":"RESOLUTION_CUTOFF_BUFFER","inputs":[],"outputs":[{"name":"","type":"uint256","internalType":"uint256"}],"stateMutability":"view"},{"type":"function","name":"UNIT_PRICE","inputs":[],"outputs":[{"name":"","type":"uint256","internalType":"uint256"}],"stateMutability":"view"},{"type":"function","name":"VOTING_WINDOW","inputs":[],"outputs":[{"name":"","type":"uint256","internalType":"uint256"}],"stateMutability":"view"},{"type":"function","name":"actionNonce","inputs":[],"outputs":[{"name":"","type":"uint256","internalType":"uint256"}],"stateMutability":"view"},{"type":"function","name":"bondWinnerShareBps","inputs":[],"outputs":[{"name":"","type":"uint256","internalType":"uint256"}],"stateMutability":"view"},{"type":"function","name":"buyNo","inputs":[{"name":"marketId","type":"uint256","internalType":"uint256"},{"name":"minSharesOut","type":"uint256","internalType":"uint256"}],"outputs":[{"name":"sharesOut","type":"uint256","internalType":"uint256"}],"stateMutability":"payable"},{"type":"function","name":"buyYes","inputs":[{"name":"marketId","type":"uint256","internalType":"uint256"},{"name":"minSharesOut","type":"uint256","internalType":"uint256"}],"outputs":[{"name":"sharesOut","type":"uint256","internalType":"uint256"}],"stateMutability":"payable"},{"type":"function","name":"canEmergencyRefund","inputs":[{"name":"marketId","type":"uint256","internalType":"uint256"}],"outputs":[{"name":"eligible","type":"bool","internalType":"bool"},{"name":"timeUntilEligible","type":"uint256","internalType":"uint256"}],"stateMutability":"view"},{"type":"function","name":"claim","inputs":[{"name":"marketId","type":"uint256","internalType":"uint256"}],"outputs":[{"name":"payout","type":"uint256","internalType":"uint256"}],"stateMutability":"nonpayable"},{"type":"function","name":"claimJuryFees","inputs":[{"name":"marketId","type":"uint256","internalType":"uint256"}],"outputs":[{"name":"amount","type":"uint256","internalType":"uint256"}],"stateMutability":"nonpayable"},{"type":"function","name":"confirmAction","inputs":[{"name":"actionId","type":"uint256","internalType":"uint256"}],"outputs":[],"stateMutability":"nonpayable"},{"type":"function","name":"createMarket","inputs":[{"name":"question","type":"string","internalType":"string"},{"name":"evidenceLink","type":"string","internalType":"string"},{"name":"resolutionRules","type":"string","internalType":"string"},{"name":"imageUrl","type":"string","internalType":"string"},{"name":"expiryTimestamp","type":"uint256","internalType":"uint256"},{"name":"heatLevel","type":"uint8","internalType":"enum PredictionMarket.HeatLevel"}],"outputs":[{"name":"marketId","type":"uint256","internalType":"uint256"}],"stateMutability":"payable"},{"type":"function","name":"createMarketAndBuy","inputs":[{"name":"question","type":"string","internalType":"string"},{"name":"evidenceLink","type":"string","internalType":"string"},{"name":"resolutionRules","type":"string","internalType":"string"},{"name":"imageUrl","type":"string","internalType":"string"},{"name":"expiryTimestamp","type":"uint256","internalType":"uint256"},{"name":"heatLevel","type":"uint8","internalType":"enum PredictionMarket.HeatLevel"},{"name":"buyYesSide","type":"bool","internalType":"bool"},{"name":"minSharesOut","type":"uint256","internalType":"uint256"}],"outputs":[{"name":"marketId","type":"uint256","internalType":"uint256"},{"name":"sharesOut","type":"uint256","internalType":"uint256"}],"stateMutability":"payable"},{"type":"function","name":"creatorFeeBps","inputs":[],"outputs":[{"name":"","type":"uint256","internalType":"uint256"}],"stateMutability":"view"},{"type":"function","name":"dispute","inputs":[{"name":"marketId","type":"uint256","internalType":"uint256"}],"outputs":[],"stateMutability":"payable"},{"type":"function","name":"dynamicBondBps","inputs":[],"outputs":[{"name":"","type":"uint256","internalType":"uint256"}],"stateMutability":"view"},{"type":"function","name":"emergencyRefund","inputs":[{"name":"marketId","type":"uint256","internalType":"uint256"}],"outputs":[{"name":"refund","type":"uint256","internalType":"uint256"}],"stateMutability":"nonpayable"},{"type":"function","name":"executeAction","inputs":[{"name":"actionId","type":"uint256","internalType":"uint256"}],"outputs":[],"stateMutability":"nonpayable"},{"type":"function","name":"finalizeMarket","inputs":[{"name":"marketId","type":"uint256","internalType":"uint256"}],"outputs":[],"stateMutability":"nonpayable"},{"type":"function","name":"getDispute","inputs":[{"name":"marketId","type":"uint256","internalType":"uint256"}],"outputs":[{"name":"disputer","type":"address","internalType":"address"},{"name":"disputeTime","type":"uint256","internalType":"uint256"},{"name":"disputeBond","type":"uint256","internalType":"uint256"},{"name":"votingDeadline","type":"uint256","internalType":"uint256"},{"name":"yesVotes","type":"uint256","internalType":"uint256"},{"name":"noVotes","type":"uint256","internalType":"uint256"}],"stateMutability":"view"},{"type":"function","name":"getMarket","inputs":[{"name":"marketId","type":"uint256","internalType":"uint256"}],"outputs":[{"name":"question","type":"string","internalType":"string"},{"name":"evidenceLink","type":"string","internalType":"string"},{"name":"resolutionRules","type":"string","internalType":"string"},{"name":"imageUrl","type":"string","internalType":"string"},{"name":"creator","type":"address","internalType":"address"},{"name":"expiryTimestamp","type":"uint256","internalType":"uint256"},{"name":"yesSupply","type":"uint256","internalType":"uint256"},{"name":"noSupply","type":"uint256","internalType":"uint256"},{"name":"poolBalance","type":"uint256","internalType":"uint256"},{"name":"resolved","type":"bool","internalType":"bool"},{"name":"outcome","type":"bool","internalType":"bool"}],"stateMutability":"view"},{"type":"function","name":"getMarketStatus","inputs":[{"name":"marketId","type":"uint256","internalType":"uint256"}],"outputs":[{"name":"","type":"uint8","internalType":"enum PredictionMarket.MarketStatus"}],"stateMutability":"view"},{"type":"function","name":"getMaxSellableShares","inputs":[{"name":"marketId","type":"uint256","internalType":"uint256"},{"name":"userShares","type":"uint256","internalType":"uint256"},{"name":"isYes","type":"bool","internalType":"bool"}],"outputs":[{"name":"maxShares","type":"uint256","internalType":"uint256"},{"name":"bnbOut","type":"uint256","internalType":"uint256"}],"stateMutability":"view"},{"type":"function","name":"getNoPrice","inputs":[{"name":"marketId","type":"uint256","internalType":"uint256"}],"outputs":[{"name":"price","type":"uint256","internalType":"uint256"}],"stateMutability":"view"},{"type":"function","name":"getPendingCreatorFees","inputs":[{"name":"account","type":"address","internalType":"address"}],"outputs":[{"name":"","type":"uint256","internalType":"uint256"}],"stateMutability":"view"},{"type":"function","name":"getPendingWithdrawal","inputs":[{"name":"account","type":"address","internalType":"address"}],"outputs":[{"name":"","type":"uint256","internalType":"uint256"}],"stateMutability":"view"},{"type":"function","name":"getPosition","inputs":[{"name":"marketId","type":"uint256","internalType":"uint256"},{"name":"user","type":"address","internalType":"address"}],"outputs":[{"name":"yesShares","type":"uint256","internalType":"uint256"},{"name":"noShares","type":"uint256","internalType":"uint256"},{"name":"claimed","type":"bool","internalType":"bool"},{"name":"emergencyRefunded","type":"bool","internalType":"bool"},{"name":"hasVoted","type":"bool","internalType":"bool"},{"name":"votedOutcome","type":"bool","internalType":"bool"}],"stateMutability":"view"},{"type":"function","name":"getProposal","inputs":[{"name":"marketId","type":"uint256","internalType":"uint256"}],"outputs":[{"name":"proposer","type":"address","internalType":"address"},{"name":"proposedOutcome","type":"bool","internalType":"bool"},{"name":"proposalTime","type":"uint256","internalType":"uint256"},{"name":"proposalBond","type":"uint256","internalType":"uint256"},{"name":"disputeDeadline","type":"uint256","internalType":"uint256"}],"stateMutability":"view"},{"type":"function","name":"getRequiredBond","inputs":[{"name":"marketId","type":"uint256","internalType":"uint256"}],"outputs":[{"name":"requiredBond","type":"uint256","internalType":"uint256"}],"stateMutability":"view"},{"type":"function","name":"getRequiredDisputeBond","inputs":[{"name":"marketId","type":"uint256","internalType":"uint256"}],"outputs":[{"name":"","type":"uint256","internalType":"uint256"}],"stateMutability":"view"},{"type":"function","name":"getYesPrice","inputs":[{"name":"marketId","type":"uint256","internalType":"uint256"}],"outputs":[{"name":"price","type":"uint256","internalType":"uint256"}],"stateMutability":"view"},{"type":"function","name":"heatLevelApex","inputs":[],"outputs":[{"name":"","type":"uint256","internalType":"uint256"}],"stateMutability":"view"},{"type":"function","name":"heatLevelCore","inputs":[],"outputs":[{"name":"","type":"uint256","internalType":"uint256"}],"stateMutability":"view"},{"type":"function","name":"heatLevelCrack","inputs":[],"outputs":[{"name":"","type":"uint256","internalType":"uint256"}],"stateMutability":"view"},{"type":"function","name":"heatLevelHigh","inputs":[],"outputs":[{"name":"","type":"uint256","internalType":"uint256"}],"stateMutability":"view"},{"type":"function","name":"heatLevelPro","inputs":[],"outputs":[{"name":"","type":"uint256","internalType":"uint256"}],"stateMutability":"view"},{"type":"function","name":"marketCount","inputs":[],"outputs":[{"name":"","type":"uint256","internalType":"uint256"}],"stateMutability":"view"},{"type":"function","name":"marketCreationFee","inputs":[],"outputs":[{"name":"","type":"uint256","internalType":"uint256"}],"stateMutability":"view"},{"type":"function","name":"markets","inputs":[{"name":"","type":"uint256","internalType":"uint256"}],"outputs":[{"name":"question","type":"string","internalType":"string"},{"name":"evidenceLink","type":"string","internalType":"string"},{"name":"resolutionRules","type":"string","internalType":"string"},{"name":"imageUrl","type":"string","internalType":"string"},{"name":"creator","type":"address","internalType":"address"},{"name":"expiryTimestamp","type":"uint256","internalType":"uint256"},{"name":"yesSupply","type":"uint256","internalType":"uint256"},{"name":"noSupply","type":"uint256","internalType":"uint256"},{"name":"poolBalance","type":"uint256","internalType":"uint256"},{"name":"virtualLiquidity","type":"uint256","internalType":"uint256"},{"name":"heatLevel","type":"uint8","internalType":"enum PredictionMarket.HeatLevel"},{"name":"resolved","type":"bool","internalType":"bool"},{"name":"outcome","type":"bool","internalType":"bool"},{"name":"proposer","type":"address","internalType":"address"},{"name":"proposedOutcome","type":"bool","internalType":"bool"},{"name":"proposalTime","type":"uint256","internalType":"uint256"},{"name":"proposalBond","type":"uint256","internalType":"uint256"},{"name":"disputer","type":"address","internalType":"address"},{"name":"disputeTime","type":"uint256","internalType":"uint256"},{"name":"disputeBond","type":"uint256","internalType":"uint256"},{"name":"yesVotes","type":"uint256","internalType":"uint256"},{"name":"noVotes","type":"uint256","internalType":"uint256"},{"name":"juryFeesPool","type":"uint256","internalType":"uint256"}],"stateMutability":"view"},{"type":"function","name":"minBet","inputs":[],"outputs":[{"name":"","type":"uint256","internalType":"uint256"}],"stateMutability":"view"},{"type":"function","name":"minBondFloor","inputs":[],"outputs":[{"name":"","type":"uint256","internalType":"uint256"}],"stateMutability":"view"},{"type":"function","name":"paused","inputs":[],"outputs":[{"name":"","type":"bool","internalType":"bool"}],"stateMutability":"view"},{"type":"function","name":"pendingActions","inputs":[{"name":"","type":"uint256","internalType":"uint256"}],"outputs":[{"name":"actionType","type":"uint8","internalType":"enum PredictionMarket.ActionType"},{"name":"data","type":"bytes","internalType":"bytes"},{"name":"confirmations","type":"uint256","internalType":"uint256"},{"name":"createdAt","type":"uint256","internalType":"uint256"},{"name":"executed","type":"bool","internalType":"bool"}],"stateMutability":"view"},{"type":"function","name":"pendingCreatorFees","inputs":[{"name":"","type":"address","internalType":"address"}],"outputs":[{"name":"","type":"uint256","internalType":"uint256"}],"stateMutability":"view"},{"type":"function","name":"pendingWithdrawals","inputs":[{"name":"","type":"address","internalType":"address"}],"outputs":[{"name":"","type":"uint256","internalType":"uint256"}],"stateMutability":"view"},{"type":"function","name":"platformFeeBps","inputs":[],"outputs":[{"name":"","type":"uint256","internalType":"uint256"}],"stateMutability":"view"},{"type":"function","name":"positions","inputs":[{"name":"","type":"uint256","internalType":"uint256"},{"name":"","type":"address","internalType":"address"}],"outputs":[{"name":"yesShares","type":"uint256","internalType":"uint256"},{"name":"noShares","type":"uint256","internalType":"uint256"},{"name":"claimed","type":"bool","internalType":"bool"},{"name":"emergencyRefunded","type":"bool","internalType":"bool"},{"name":"hasVoted","type":"bool","internalType":"bool"},{"name":"votedOutcome","type":"bool","internalType":"bool"},{"name":"juryFeesClaimed","type":"bool","internalType":"bool"}],"stateMutability":"view"},{"type":"function","name":"previewBuy","inputs":[{"name":"marketId","type":"uint256","internalType":"uint256"},{"name":"bnbAmount","type":"uint256","internalType":"uint256"},{"name":"isYes","type":"bool","internalType":"bool"}],"outputs":[{"name":"shares","type":"uint256","internalType":"uint256"}],"stateMutability":"view"},{"type":"function","name":"previewSell","inputs":[{"name":"marketId","type":"uint256","internalType":"uint256"},{"name":"shares","type":"uint256","internalType":"uint256"},{"name":"isYes","type":"bool","internalType":"bool"}],"outputs":[{"name":"bnbOut","type":"uint256","internalType":"uint256"}],"stateMutability":"view"},{"type":"function","name":"proposeOutcome","inputs":[{"name":"marketId","type":"uint256","internalType":"uint256"},{"name":"outcome","type":"bool","internalType":"bool"}],"outputs":[],"stateMutability":"payable"},{"type":"function","name":"proposePause","inputs":[],"outputs":[{"name":"actionId","type":"uint256","internalType":"uint256"}],"stateMutability":"nonpayable"},{"type":"function","name":"proposeReplaceSigner","inputs":[{"name":"oldSigner","type":"address","internalType":"address"},{"name":"newSigner","type":"address","internalType":"address"}],"outputs":[{"name":"actionId","type":"uint256","internalType":"uint256"}],"stateMutability":"nonpayable"},{"type":"function","name":"proposeSetBondWinnerShare","inputs":[{"name":"newBondWinnerShare","type":"uint256","internalType":"uint256"}],"outputs":[{"name":"actionId","type":"uint256","internalType":"uint256"}],"stateMutability":"nonpayable"},{"type":"function","name":"proposeSetDynamicBondBps","inputs":[{"name":"newDynamicBondBps","type":"uint256","internalType":"uint256"}],"outputs":[{"name":"actionId","type":"uint256","internalType":"uint256"}],"stateMutability":"nonpayable"},{"type":"function","name":"proposeSetFee","inputs":[{"name":"feeType","type":"uint8","internalType":"enum PredictionMarket.FeeType"},{"name":"newValue","type":"uint256","internalType":"uint256"}],"outputs":[{"name":"actionId","type":"uint256","internalType":"uint256"}],"stateMutability":"nonpayable"},{"type":"function","name":"proposeSetHeatLevel","inputs":[{"name":"level","type":"uint8","internalType":"enum PredictionMarket.HeatLevel"},{"name":"newValue","type":"uint256","internalType":"uint256"}],"outputs":[{"name":"actionId","type":"uint256","internalType":"uint256"}],"stateMutability":"nonpayable"},{"type":"function","name":"proposeSetMinBet","inputs":[{"name":"newMinBet","type":"uint256","internalType":"uint256"}],"outputs":[{"name":"actionId","type":"uint256","internalType":"uint256"}],"stateMutability":"nonpayable"},{"type":"function","name":"proposeSetMinBondFloor","inputs":[{"name":"newMinBondFloor","type":"uint256","internalType":"uint256"}],"outputs":[{"name":"actionId","type":"uint256","internalType":"uint256"}],"stateMutability":"nonpayable"},{"type":"function","name":"proposeSetProposerReward","inputs":[{"name":"newProposerReward","type":"uint256","internalType":"uint256"}],"outputs":[{"name":"actionId","type":"uint256","internalType":"uint256"}],"stateMutability":"nonpayable"},{"type":"function","name":"proposeSetTreasury","inputs":[{"name":"newTreasury","type":"address","internalType":"address"}],"outputs":[{"name":"actionId","type":"uint256","internalType":"uint256"}],"stateMutability":"nonpayable"},{"type":"function","name":"proposeUnpause","inputs":[],"outputs":[{"name":"actionId","type":"uint256","internalType":"uint256"}],"stateMutability":"nonpayable"},{"type":"function","name":"proposerRewardBps","inputs":[],"outputs":[{"name":"","type":"uint256","internalType":"uint256"}],"stateMutability":"view"},{"type":"function","name":"resolutionFeeBps","inputs":[],"outputs":[{"name":"","type":"uint256","internalType":"uint256"}],"stateMutability":"view"},{"type":"function","name":"sellNo","inputs":[{"name":"marketId","type":"uint256","internalType":"uint256"},{"name":"shares","type":"uint256","internalType":"uint256"},{"name":"minBnbOut","type":"uint256","internalType":"uint256"}],"outputs":[{"name":"bnbOut","type":"uint256","internalType":"uint256"}],"stateMutability":"nonpayable"},{"type":"function","name":"sellYes","inputs":[{"name":"marketId","type":"uint256","internalType":"uint256"},{"name":"shares","type":"uint256","internalType":"uint256"},{"name":"minBnbOut","type":"uint256","internalType":"uint256"}],"outputs":[{"name":"bnbOut","type":"uint256","internalType":"uint256"}],"stateMutability":"nonpayable"},{"type":"function","name":"signers","inputs":[{"name":"","type":"uint256","internalType":"uint256"}],"outputs":[{"name":"","type":"address","internalType":"address"}],"stateMutability":"view"},{"type":"function","name":"totalPendingCreatorFees","inputs":[],"outputs":[{"name":"","type":"uint256","internalType":"uint256"}],"stateMutability":"view"},{"type":"function","name":"totalPendingWithdrawals","inputs":[],"outputs":[{"name":"","type":"uint256","internalType":"uint256"}],"stateMutability":"view"},{"type":"function","name":"treasury","inputs":[],"outputs":[{"name":"","type":"address","internalType":"address"}],"stateMutability":"view"},{"type":"function","name":"vote","inputs":[{"name":"marketId","type":"uint256","internalType":"uint256"},{"name":"outcome","type":"bool","internalType":"bool"}],"outputs":[],"stateMutability":"nonpayable"},{"type":"function","name":"withdrawBond","inputs":[],"outputs":[{"name":"amount","type":"uint256","internalType":"uint256"}],"stateMutability":"nonpayable"},{"type":"function","name":"withdrawCreatorFees","inputs":[],"outputs":[{"name":"amount","type":"uint256","internalType":"uint256"}],"stateMutability":"nonpayable"},{"type":"event","name":"ActionConfirmed","inputs":[{"name":"actionId","type":"uint256","indexed":true,"internalType":"uint256"},{"name":"confirmer","type":"address","indexed":true,"internalType":"address"}],"anonymous":false},{"type":"event","name":"ActionExecuted","inputs":[{"name":"actionId","type":"uint256","indexed":true,"internalType":"uint256"},{"name":"actionType","type":"uint8","indexed":false,"internalType":"enum PredictionMarket.ActionType"}],"anonymous":false},{"type":"event","name":"ActionProposed","inputs":[{"name":"actionId","type":"uint256","indexed":true,"internalType":"uint256"},{"name":"actionType","type":"uint8","indexed":false,"internalType":"enum PredictionMarket.ActionType"},{"name":"proposer","type":"address","indexed":true,"internalType":"address"}],"anonymous":false},{"type":"event","name":"BondDistributed","inputs":[{"name":"marketId","type":"uint256","indexed":true,"internalType":"uint256"},{"name":"winner","type":"address","indexed":true,"internalType":"address"},{"name":"winnerAmount","type":"uint256","indexed":false,"internalType":"uint256"},{"name":"voterPoolAmount","type":"uint256","indexed":false,"internalType":"uint256"}],"anonymous":false},{"type":"event","name":"Claimed","inputs":[{"name":"marketId","type":"uint256","indexed":true,"internalType":"uint256"},{"name":"user","type":"address","indexed":true,"internalType":"address"},{"name":"amount","type":"uint256","indexed":false,"internalType":"uint256"}],"anonymous":false},{"type":"event","name":"CreatorFeesClaimed","inputs":[{"name":"creator","type":"address","indexed":true,"internalType":"address"},{"name":"amount","type":"uint256","indexed":false,"internalType":"uint256"}],"anonymous":false},{"type":"event","name":"CreatorFeesCredited","inputs":[{"name":"creator","type":"address","indexed":true,"internalType":"address"},{"name":"marketId","type":"uint256","indexed":true,"internalType":"uint256"},{"name":"amount","type":"uint256","indexed":false,"internalType":"uint256"}],"anonymous":false},{"type":"event","name":"EmergencyRefunded","inputs":[{"name":"marketId","type":"uint256","indexed":true,"internalType":"uint256"},{"name":"user","type":"address","indexed":true,"internalType":"address"},{"name":"amount","type":"uint256","indexed":false,"internalType":"uint256"}],"anonymous":false},{"type":"event","name":"JuryFeesClaimed","inputs":[{"name":"marketId","type":"uint256","indexed":true,"internalType":"uint256"},{"name":"voter","type":"address","indexed":true,"internalType":"address"},{"name":"amount","type":"uint256","indexed":false,"internalType":"uint256"}],"anonymous":false},{"type":"event","name":"JuryFeesPoolCreated","inputs":[{"name":"marketId","type":"uint256","indexed":true,"internalType":"uint256"},{"name":"amount","type":"uint256","indexed":false,"internalType":"uint256"}],"anonymous":false},{"type":"event","name":"MarketCreated","inputs":[{"name":"marketId","type":"uint256","indexed":true,"internalType":"uint256"},{"name":"creator","type":"address","indexed":true,"internalType":"address"},{"name":"question","type":"string","indexed":false,"internalType":"string"},{"name":"expiryTimestamp","type":"uint256","indexed":false,"internalType":"uint256"},{"name":"heatLevel","type":"uint8","indexed":false,"internalType":"enum PredictionMarket.HeatLevel"},{"name":"virtualLiquidity","type":"uint256","indexed":false,"internalType":"uint256"}],"anonymous":false},{"type":"event","name":"MarketResolutionFailed","inputs":[{"name":"marketId","type":"uint256","indexed":true,"internalType":"uint256"},{"name":"reason","type":"string","indexed":false,"internalType":"string"}],"anonymous":false},{"type":"event","name":"MarketResolved","inputs":[{"name":"marketId","type":"uint256","indexed":true,"internalType":"uint256"},{"name":"outcome","type":"bool","indexed":false,"internalType":"bool"},{"name":"wasDisputed","type":"bool","indexed":false,"internalType":"bool"}],"anonymous":false},{"type":"event","name":"OutcomeProposed","inputs":[{"name":"marketId","type":"uint256","indexed":true,"internalType":"uint256"},{"name":"proposer","type":"address","indexed":true,"internalType":"address"},{"name":"outcome","type":"bool","indexed":false,"internalType":"bool"},{"name":"bond","type":"uint256","indexed":false,"internalType":"uint256"}],"anonymous":false},{"type":"event","name":"Paused","inputs":[{"name":"by","type":"address","indexed":true,"internalType":"address"}],"anonymous":false},{"type":"event","name":"ProposalDisputed","inputs":[{"name":"marketId","type":"uint256","indexed":true,"internalType":"uint256"},{"name":"disputer","type":"address","indexed":true,"internalType":"address"},{"name":"bond","type":"uint256","indexed":false,"internalType":"uint256"}],"anonymous":false},{"type":"event","name":"ProposerRewardPaid","inputs":[{"name":"marketId","type":"uint256","indexed":true,"internalType":"uint256"},{"name":"proposer","type":"address","indexed":true,"internalType":"address"},{"name":"amount","type":"uint256","indexed":false,"internalType":"uint256"}],"anonymous":false},{"type":"event","name":"SignerReplaced","inputs":[{"name":"oldSigner","type":"address","indexed":true,"internalType":"address"},{"name":"newSigner","type":"address","indexed":true,"internalType":"address"},{"name":"actionId","type":"uint256","indexed":true,"internalType":"uint256"}],"anonymous":false},{"type":"event","name":"Trade","inputs":[{"name":"marketId","type":"uint256","indexed":true,"internalType":"uint256"},{"name":"trader","type":"address","indexed":true,"internalType":"address"},{"name":"isYes","type":"bool","indexed":false,"internalType":"bool"},{"name":"isBuy","type":"bool","indexed":false,"internalType":"bool"},{"name":"shares","type":"uint256","indexed":false,"internalType":"uint256"},{"name":"bnbAmount","type":"uint256","indexed":false,"internalType":"uint256"}],"anonymous":false},{"type":"event","name":"Unpaused","inputs":[{"name":"by","type":"address","indexed":true,"internalType":"address"}],"anonymous":false},{"type":"event","name":"VoteCast","inputs":[{"name":"marketId","type":"uint256","indexed":true,"internalType":"uint256"},{"name":"voter","type":"address","indexed":true,"internalType":"address"},{"name":"outcome","type":"bool","indexed":false,"internalType":"bool"},{"name":"weight","type":"uint256","indexed":false,"internalType":"uint256"}],"anonymous":false},{"type":"event","name":"WithdrawalClaimed","inputs":[{"name":"user","type":"address","indexed":true,"internalType":"address"},{"name":"amount","type":"uint256","indexed":false,"internalType":"uint256"}],"anonymous":false},{"type":"event","name":"WithdrawalCredited","inputs":[{"name":"user","type":"address","indexed":true,"internalType":"address"},{"name":"amount","type":"uint256","indexed":false,"internalType":"uint256"},{"name":"reason","type":"string","indexed":false,"internalType":"string"}],"anonymous":false},{"type":"error","name":"ActionAlreadyExecuted","inputs":[]},{"type":"error","name":"ActionExpired","inputs":[]},{"type":"error","name":"AlreadyClaimed","inputs":[]},{"type":"error","name":"AlreadyConfirmed","inputs":[]},{"type":"error","name":"AlreadyDisputed","inputs":[]},{"type":"error","name":"AlreadyEmergencyRefunded","inputs":[]},{"type":"error","name":"AlreadyProposed","inputs":[]},{"type":"error","name":"AlreadyVoted","inputs":[]},{"type":"error","name":"BelowMinBet","inputs":[]},{"type":"error","name":"ContractNotPaused","inputs":[]},{"type":"error","name":"ContractPaused","inputs":[]},{"type":"error","name":"CreatorPriorityActive","inputs":[]},{"type":"error","name":"DidNotVote","inputs":[]},{"type":"error","name":"DisputeWindowClosed","inputs":[]},{"type":"error","name":"DisputeWindowExpired","inputs":[]},{"type":"error","name":"EmergencyRefundTooEarly","inputs":[]},{"type":"error","name":"EmptyQuestion","inputs":[]},{"type":"error","name":"InsufficientBond","inputs":[]},{"type":"error","name":"InsufficientCreationFee","inputs":[]},{"type":"error","name":"InsufficientPoolBalance","inputs":[]},{"type":"error","name":"InsufficientShares","inputs":[]},{"type":"error","name":"InvalidAddress","inputs":[]},{"type":"error","name":"InvalidBondWinnerShare","inputs":[]},{"type":"error","name":"InvalidDynamicBondBps","inputs":[]},{"type":"error","name":"InvalidExpiryTimestamp","inputs":[]},{"type":"error","name":"InvalidFee","inputs":[]},{"type":"error","name":"InvalidMarketCreationFee","inputs":[]},{"type":"error","name":"InvalidMinBet","inputs":[]},{"type":"error","name":"InvalidMinBondFloor","inputs":[]},{"type":"error","name":"InvalidProposerReward","inputs":[]},{"type":"error","name":"InvalidSignerReplacement","inputs":[]},{"type":"error","name":"JuryFeesAlreadyClaimed","inputs":[]},{"type":"error","name":"MarketAlreadyResolved","inputs":[]},{"type":"error","name":"MarketNotActive","inputs":[]},{"type":"error","name":"MarketNotExpired","inputs":[]},{"type":"error","name":"MarketNotResolved","inputs":[]},{"type":"error","name":"MarketStuck","inputs":[]},{"type":"error","name":"NoJuryFeesPool","inputs":[]},{"type":"error","name":"NoPosition","inputs":[]},{"type":"error","name":"NoSharesForVoting","inputs":[]},{"type":"error","name":"NoTradesToResolve","inputs":[]},{"type":"error","name":"NotEnoughConfirmations","inputs":[]},{"type":"error","name":"NotProposed","inputs":[]},{"type":"error","name":"NotSigner","inputs":[]},{"type":"error","name":"NothingToClaim","inputs":[]},{"type":"error","name":"NothingToWithdraw","inputs":[]},{"type":"error","name":"OneSidedMarket","inputs":[]},{"type":"error","name":"ProposalWindowClosed","inputs":[]},{"type":"error","name":"ReentrancyGuardReentrantCall","inputs":[]},{"type":"error","name":"ResolutionInProgress","inputs":[]},{"type":"error","name":"SignerNotFound","inputs":[]},{"type":"error","name":"SlippageExceeded","inputs":[]},{"type":"error","name":"TransferFailed","inputs":[]},{"type":"error","name":"VotedForLosingOutcome","inputs":[]},{"type":"error","name":"VotingNotActive","inputs":[]},{"type":"error","name":"VotingNotEnded","inputs":[]}],"bytecode":{"object":"0x6080346200023d57601f62005e1c38819003918201601f19168301926001600160401b039290918385118386101762000241578190604095865283398101906080818303126200023d5781601f820112156200023d578351926060840190811184821017620002415784528290606081019283116200023d57905b828210620002225750506200008f9062000255565b9060019060017f9b779b17422d0df92223018b32b4d1fa46e071723d6817e2486d003becc55f005560646005556032600655601e6007556611c37937e08000806008556009556064600a55611388600b556032600c555f600e556802b5e3af16b1880000600f55680ad78ebc5ac6200000601055681b1ae4d6e2ef500000601155686c6b935b8bbd40000060125569021e19e0c9bab24000006013555f5b600381106200017c575050506001600160a01b031680156200016b57600d80546001600160a01b03191691909117905551615b8b9081620002918239f35b815163e6c4247b60e01b8152600490fd5b6001600160a01b03806200019183856200026a565b51161562000211579083915f5b828110620001cc5750620001b382856200026a565b5182546001600160a01b0319169116178155016200012d565b90829350620001dd8193866200026a565b511682620001ec83876200026a565b51161462000200578401908492916200019e565b865163e6c4247b60e01b8152600490fd5b855163e6c4247b60e01b8152600490fd5b60208091620002318462000255565b8152019101906200007a565b5f80fd5b634e487b7160e01b5f52604160045260245ffd5b51906001600160a01b03821682036200023d57565b9060038110156200027c5760051b0190565b634e487b7160e01b5f52603260045260245ffdfe610140604052600480361015610013575f80fd5b5f3560e01c806303117ba214613ec05780630857f48414613cbb5780630acbdee314613c9e5780630dbacc6214613c8257806312dcf12d14613c27578063132eb94b14613c0b57806314887fdf14613bb05780631690088c14613b9357806316fe69291461395457806317773ebb146139375780632079fb9a14613905578063213a0d4f1461376457806322dcd13e146137475780632d1623691461372a5780632ef1bdfa1461370d5780633173cd26146126d5578063366b7340146136ef578063379607f51461350357806338d9c53b1461335d578063399af502146131505780633fbf2ccd1461312c57806347b0f7371461310f5780635c975abb146130ed5780635cbd9d4314612eea5780635de97e1114612ecd57806361a895df14612eac57806361d027b314612e8457806366eb9cec14612dde5780636c82169d146126d05780636d33bb1e14612c3757806370e5deb914612a625780637740a680146126d05780637ee8b2f81461074457806386d6282c1461290a57806387f72916146128e857806388553a2a146126da5780638ff65651146126d557806394a29beb146126d057806394c38bca146125ae5780639619367d146125915780639716919b1461257457806397e02ee8146125575780639ba85fae146124f6578063a260a02a14612388578063a4563e03146124d9578063a63d914f146123ae578063a732e4c91461238d578063a844a13414612388578063a9f6b0581461213a578063afa40bbd14612119578063b05ef454146120d7578063b1283e7714611ecf578063b1b84b4914611eb2578063b30dbfb214611e97578063b7f12f6a14611e72578063bd149d7114611e55578063bd44240514611ccc578063be04f84f146119cf578063bff9d040146119b3578063c0c1cf55146118d3578063c2f573861461105a578063c35464851461184b578063c598b2f9146107b5578063c651af121461182e578063c655a0eb14611667578063c7f758a8146115e1578063c9d27afe14611468578063c9d2d5de14611418578063d05a18e91461127c578063d1d34bf3146110e6578063d29f541d1461105f578063d55be8c61461105a578063d671484c1461103d578063d67d643e14611020578063d750e82e14610e75578063d7dfd97114610e58578063dffad4e214610b6c578063e13d1aaa14610b51578063e1a4521814610b35578063e1cd04b414610a6f578063e3a96cbd146109e7578063e684d71814610953578063e7176d3114610923578063eb44fdd314610826578063ec5a711a146107ed578063ec763653146107b5578063ec97908214610798578063f02d63721461077c578063f3f4370314610744578063f585dc5714610728578063fae8a3d6146105ac5763fffa080a1461040f575f80fd5b346105a8575f3660031901126105a85761042833614ac7565b156105995760405161043981613fc0565b5f8152600380549161044a83614308565b8255825f5260209380855260405f2060ff19928484835416178255600192838301918051916001600160401b03831161058657506104928261048c8554613f3e565b85614b04565b8890601f83116001146105235791806104c59260059695945f92610518575b50508160011b915f199060031b1c19161790565b90555b8260028201554285820155335f5201855260405f2091825416179055604051908152815f80516020615a96833981519152843393a333815f80516020615b368339815191525f80a3604051908152f35b015190505f806104b1565b9392918591601f19821690845f528b5f20915f5b8d828210610570575050968360059810610559575b505050811b0190556104c8565b01515f19838b1b60f8161c191690555f808061054c565b838a015185558a96909401939283019201610537565b604190634e487b7160e01b5f525260245ffd5b60405163143606b960e31b8152fd5b5f80fd5b50346105a8575f3660031901126105a8576105c633614ac7565b1561059957604051906105d882613fc0565b5f8252600354906105e882614308565b600355815f5260209281845260405f209060ff19918383825416178155600191828201908051906001600160401b0382116107155761062b8261048c8554613f3e565b8890601f83116001146106b157918061065d9260059695945f926105185750508160011b915f199060031b1c19161790565b90555b826002820155426003820155335f5201855260405f2091825416179055604051908152815f80516020615a96833981519152843393a333815f80516020615b368339815191525f80a3604051908152f35b9392918591601f19821690845f528b5f20915f5b8d8282106106ff5750509683600598106106e7575b505050811b019055610660565b01515f1960f88460031b161c191690555f80806106da565b838a015185558a969094019392830192016106c5565b604187634e487b7160e01b5f525260245ffd5b346105a8575f3660031901126105a85760206040516107088152f35b346105a85760203660031901126105a8576001600160a01b0361076561417b565b165f526018602052602060405f2054604051908152f35b346105a8575f3660031901126105a8576020604051611f408152f35b346105a8575f3660031901126105a8576020601554604051908152f35b346105a85760203660031901126105a8576001600160a01b036107d661417b565b165f526019602052602060405f2054604051908152f35b50346105a85760203660031901126105a857355f526016602052602061081560405f20614c7b565b6040519061082281614211565b8152f35b50346105a85760203660031901126105a85780355f5260166020526108c060405f209160018060a01b03908301541660ff600584015460068501546007860154600887015491600a880154936108ea61087e8a613ffc565b6108dc61088d60018d01613ffc565b9b6108ce6108a960036108a260028501613ffc565b9301613ffc565b936040519e8f9e8f926101608085528401906140bf565b9160208184039101526140bf565b8c810360408e0152906140bf565b908a820360608c01526140bf565b96608089015260a088015260c087015260e0860152610100850152818160081c16151561012085015260101c1615156101408301520390f35b50346105a85760203660031901126105a85761093f9035614a76565b604080519215158352602083019190915290f35b50346105a85760403660031901126105a85761096d614191565b90355f52601760205260405f209060018060a01b03165f5260205260e060405f2060ff8154916002600182015491015490604051938452602084015281811615156040840152818160081c1615156060840152818160101c1615156080840152818160181c16151560a084015260201c16151560c0820152f35b50346105a85760203660031901126105a85780355f52601660205260405f2060018060a01b03600d8201541690600e81015490600f810154610e10830190818411610a5c5760c095506011601084015493015493604051958652602086015260408501526060840152608083015260a0820152f35b601186634e487b7160e01b5f525260245ffd5b50346105a8575f3660031901126105a857610a88614c4c565b335f52601960205260405f20548015610b2557335f5260196020525f6040812055610ab581601b54614289565b601b555f80808084335af1610ac8614296565b5015610b15576020906040518181527fd046302bdc39599e60a5981e59227dcd1c643f512f56f2e984390c3ac6eadedb833392a260015f80516020615ab683398151915255604051908152f35b506040516312171d8360e31b8152fd5b50604051630686827b60e51b8152fd5b346105a8575f3660031901126105a85760206040516127108152f35b346105a8575f3660031901126105a857602060405160328152f35b50346105a857610b7b3661412f565b91610b84614c4c565b60ff60145416610e4757805f526020936016855260405f20610ba581614c7b565b610bae81614211565b610e3757825f526017865260405f20335f52865260405f209084825410610e2657600681018054926007830154610c1088610c0a81610c04610bfe60098a0154610bf8818d614237565b97614237565b86614237565b94614289565b92614289565b90662386f26fc10000808a02908a8204148a151715610e135790610c3391614258565b670de0b6b3a764000091828102928184041490151715610e005790610c579161426b565b60088401908154808211610def576127109485610c7660055485614258565b0495610c8460065485614258565b0497610c99610c938a89614237565b85614289565b9c8d10610dde57918a98979695949391610cb68d610cbd95614289565b9055614289565b9055610cca888254614289565b905580610da0575b50878483610d4a575b50505050505f80808087335af1610cf0614296565b5015610d3b575060405191600183525f8584015260408301528260608301525f80516020615af683398151915260803393a360015f80516020615ab683398151915255604051908152f35b6040516312171d8360e31b8152fd5b5f80516020615a76833981519152920160018060a01b0390818154165f526019835260405f20610d7b868254614237565b9055610d8985601b54614237565b601b55541692604051908152a3815f808784610cdb565b5f808093949550809260018060a01b03600d54165af1610dbe614296565b5015610dcd579083915f610cd2565b6040516312171d8360e31b81528390fd5b604051638199f5f360e01b81528a90fd5b60405163bc6072f160e01b81528890fd5b601187634e487b7160e01b5f525260245ffd5b601188634e487b7160e01b5f525260245ffd5b604051633999656760e01b81528390fd5b50604051635a90bb8d60e11b8152fd5b60405163ab35696f60e01b81528490fd5b346105a8575f3660031901126105a8576020600b54604051908152f35b50346105a857602090816003193601126105a8578035610e9433614ac7565b1561101057603281108015611005575b610ff5576040519083820152828152610ebc81613fa5565b60035491610ec983614308565b600355825f5280845260405f2060ff1992600684835416178255600192838301918051916001600160401b0383116105865750610f0a8261048c8554613f3e565b8790601f8311600114610f91579180610f3c9260059695945f926105185750508160011b915f199060031b1c19161790565b90555b826002820155426003820155335f5201845260405f209182541617905560405160068152815f80516020615a96833981519152843393a333815f80516020615b368339815191525f80a3604051908152f35b9392918591601f19821690845f528a5f20915f5b8c828210610fdf575050968360059810610fc7575b505050811b019055610f3f565b01515f1960f88460031b161c191690555f8080610fba565b838a015185558a96909401939283019201610fa5565b5060405163ba344cfd60e01b8152fd5b506101f48111610ea4565b5060405163143606b960e31b8152fd5b346105a8575f3660031901126105a8576020600a54604051908152f35b346105a8575f3660031901126105a8576020601154604051908152f35b61421b565b50346105a85760403660031901126105a857611079614191565b90355f52601760205260405f209060018060a01b03165f5260205260c060405f2060ff8154916002600182015491015490604051938452602084015281811615156040840152818160081c1615156060840152818160101c161515608084015260181c16151560a0820152f35b50346105a857602090816003193601126105a85761110261417b565b61110b33614ac7565b15611010576001600160a01b0316801561126c57604051908382015282815261113381613fa5565b6003549161114083614308565b600355825f5280845260405f2060ff1992600284835416178255600192838301918051916001600160401b03831161058657506111818261048c8554613f3e565b8790601f83116001146112085791806111b39260059695945f926105185750508160011b915f199060031b1c19161790565b90555b826002820155426003820155335f5201845260405f209182541617905560405160028152815f80516020615a96833981519152843393a333815f80516020615b368339815191525f80a3604051908152f35b9392918591601f19821690845f528a5f20915f5b8c82821061125657505096836005981061123e575b505050811b0190556111b6565b01515f1960f88460031b161c191690555f8080611231565b838a015185558a9690940193928301920161121c565b5060405163e6c4247b60e01b8152fd5b50346105a857602090816003193601126105a857803561129b33614ac7565b15611010576107d08110801561140d575b6113fd5760405190838201528281526112c481613fa5565b600354916112d183614308565b600355825f5280845260405f2060ff1992600784835416178255600192838301918051916001600160401b03831161058657506113128261048c8554613f3e565b8790601f83116001146113995791806113449260059695945f926105185750508160011b915f199060031b1c19161790565b90555b826002820155426003820155335f5201845260405f209182541617905560405160078152815f80516020615a96833981519152843393a333815f80516020615b368339815191525f80a3604051908152f35b9392918591601f19821690845f528a5f20915f5b8c8282106113e75750509683600598106113cf575b505050811b019055611347565b01515f1960f88460031b161c191690555f80806113c2565b838a015185558a969094019392830192016113ad565b50604051630c7311a160e31b8152fd5b50611f4081116112ac565b50346105a85760203660031901126105a857611432614c4c565b60ff60145416611459576114469035614418565b60015f80516020615ab683398151915255005b60405163ab35696f60e01b8152fd5b50346105a85760403660031901126105a85780356114846140fd565b9160ff6014541661145957815f52601660205260405f2060036114a682614c7b565b6114af81614211565b036115be57600e810154610e1081018091116115ce5742116115be57825f52601760205260405f20335f5260205260405f20600281019081549060ff8260101c166115ad57806001611505925491015490614237565b93841561159e5750917fcbdf6214089cba887ecbf35a0b6a734589959c9763342c756bb2a80ca2bc9f6e9391620100006115849463ff00000089151560181b169063ffff0000191617179055855f1461158957601001611566828254614237565b90555b60408051951515865260208601919091523394918291820190565b0390a3005b601101611597828254614237565b9055611569565b60405163922b788560e01b8152fd5b604051637c9a1cf960e01b81528590fd5b50604051639b8cc47560e01b8152fd5b601183634e487b7160e01b5f525260245ffd5b50346105a85760203660031901126105a85780355f52601660205260405f20600a81015490600c600b8201549101546107088201918281116116545760408051601886901c6001600160a01b0316815260b89590951c60ff16151560208601528401526060830152608082015260a09150f35b601185634e487b7160e01b5f525260245ffd5b50346105a85760403660031901126105a85780359060058210156105a85760243561169133614ac7565b1561101057670de0b6b3a76400008110801561181b575b61180b57604051906020936116bc81614211565b848301526040820152604081526116d281613f76565b600354916116df83614308565b600355825f5280845260405f2060ff1992600884835416178255600192838301918051916001600160401b03831161058657506117208261048c8554613f3e565b8790601f83116001146117a75791806117529260059695945f926105185750508160011b915f199060031b1c19161790565b90555b826002820155426003820155335f5201845260405f209182541617905560405160088152815f80516020615a96833981519152843393a333815f80516020615b368339815191525f80a3604051908152f35b9392918591601f19821690845f528a5f20915f5b8c8282106117f55750509683600598106117dd575b505050811b019055611755565b01515f1960f88460031b161c191690555f80806117d0565b838a015185558a969094019392830192016117bb565b506040516358d620b360e01b8152fd5b5069032d26d12e980b60000081116116a8565b346105a8575f3660031901126105a8576020601b54604051908152f35b50346105a85760203660031901126105a85780355f52601660205260405f2061188c6006820154611886600960078501549401548092614237565b92614237565b90662386f26fc100009282840293840483036118c05760206118b8856118b28686614237565b9061426b565b604051908152f35b601190634e487b7160e01b5f525260245ffd5b50346105a85760203660031901126105a85780356118f033614ac7565b1561101057805f528160205260405f2060ff83820154166119a2576003810154610e10810180911161198f57421161197f5760ff815416600b81101561196c57600a0361196157600260ff815b16910154106119515761194f9061517d565b005b50604051635c9885ab60e11b8152fd5b600260ff600361193d565b602184634e487b7160e01b5f525260245ffd5b604051621331cf60e01b81528390fd5b601184634e487b7160e01b5f525260245ffd5b604051631b50735b60e21b81528390fd5b346105a8575f3660031901126105a85760206040516107d08152f35b506101003660031901126105a8576001600160401b0381358181116105a8576119fb90369084016141c9565b91906024358281116105a857611a1490369086016141c9565b9390916044358481116105a857611a2e90369088016141c9565b9190946064359081116105a857611a4890369089016141c9565b9060a4359360058510156105a85760c43597881515998a8a036105a857611a6d614c4c565b60ff60145416611cbb57600e54803410611caa57611a8b9034614289565b986008548a10611c9957611aa29860843597614cd1565b92835f526020916016835260405f209061271091611ae683611ac660055485614258565b0493611ad460065485614258565b0492611ae08486614237565b90614289565b92600682019081549160078401611b078154948b898760098a015493614bd7565b9960e4358b10611c8857611b66948b9115611c525750611b2991508254614237565b9055885f526017875260405f20335f52875260405f20611b4a898254614237565b90555b60088301611b5c868254614237565b9055600e54614237565b80611c17575b509086918560409983611bc3575b5050505050855191825260018383015283868301526060820152835f80516020615af683398151915260803393a360015f80516020615ab6833981519152558351928352820152f35b5f80516020615a76833981519152920160018060a01b0390818154165f52601983528b5f20611bf3868254614237565b9055611c0185601b54614237565b601b555416928a51908152a3845f808581611b7a565b600d545f918291829182916001600160a01b03165af1611c35614296565b5015611c41575f611b6c565b6040516312171d8360e31b81528890fd5b611c5d929350614237565b9055885f526017875260405f20335f528752600160405f2001611c81898254614237565b9055611b4d565b604051638199f5f360e01b81528d90fd5b604051635688ffb360e01b81528d90fd5b604051630535b74760e41b81528d90fd5b60405163ab35696f60e01b81528c90fd5b50346105a857602090816003193601126105a8578035611ceb33614ac7565b156110105760c88111611e45576040519083820152828152611d0c81613fa5565b60035491611d1983614308565b600355825f5280845260405f2060ff1992600984835416178255600192838301918051916001600160401b0383116105865750611d5a8261048c8554613f3e565b8790601f8311600114611de1579180611d8c9260059695945f926105185750508160011b915f199060031b1c19161790565b90555b826002820155426003820155335f5201845260405f209182541617905560405160098152815f80516020615a96833981519152843393a333815f80516020615b368339815191525f80a3604051908152f35b9392918591601f19821690845f528a5f20915f5b8c828210611e2f575050968360059810611e17575b505050811b019055611d8f565b01515f1960f88460031b161c191690555f8080611e0a565b838a015185558a96909401939283019201611df5565b506040516379d3ee4160e11b8152fd5b346105a8575f3660031901126105a8576020600c54604051908152f35b346105a8576040611e8b611e853661410c565b91614316565b82519182526020820152f35b346105a8575f3660031901126105a857602060405160648152f35b346105a8575f3660031901126105a8576020601254604051908152f35b50346105a85760203660031901126105a85780355f52601660205260405f20611ef781613ffc565b611f0360018301613ffc565b61010052611f1360028301613ffc565b61012052611f2360038301613ffc565b92600160a01b60019003908301541660e0526005820154926006830154600784015460088501546009860154600a87015490600b88015492600c89015494600160a01b60019003600d8b01541696600e8b015498600f8c01549a60108d01549c60118101546080526012015460a05260405160c0526102e08060c0515260c05101611fad916140bf565b60c051810360c051602001526101005190611fc7916140bf565b60c051810360c051604001526101205190611fe1916140bf565b60c051810360c05160600152611ff6916140bf565b9b60e05160c0516080015260c05160a0015260c05160c0015260c05160e0015260c051610100015260c051610120015260ff811661203390614211565b60ff811660c05161014001528060081c60ff16151560c05161016001528060101c60ff16151560c0516101800152600160a01b600190038160181c1660c0516101a0015260b81c60ff16151560c0516101c0015260c0516101e0015260c051610200015260c051610220015260c051610240015260c051610260015260c051610280015260805160c0516102a0015260a05160c0516102c0015260c051900360c051f35b50346105a85760203660031901126105a85780355f526016602052600c60405f200154908160011b91808304600214901517156118c057602082604051908152f35b346105a8575f3660031901126105a8576020604051662386f26fc100008152f35b5061214436614165565b909161214e614c4c565b60ff6014541661145957600854341061237957825f526020926016845260405f209161217983614c7b565b61218281614211565b61236a57612710928361219760055434614258565b04936121a560065434614258565b04916121ba6121b48487614237565b34614289565b94600683015460078401908154906121f46121ee6121e76121e060098a01548095614237565b9385614237565b8093614237565b8a614258565b670de0b6b3a764000090818102918183041490151715610a5c57662386f26fc100009180830292830403610a5c579061222c9161426b565b988910612359579186959493916122448a8c95614237565b905560088401612255898254614237565b9055855f526017835260405f20335f528352600160405f20016122798a8254614237565b905580612327575b50836122d1575b5050505050604051915f835260018584015283604084015260608301525f80516020615af683398151915260803393a360015f80516020615ab683398151915255604051908152f35b5f80516020615a76833981519152920160018060a01b0390818154165f526019835260405f20612302868254614237565b905561231085601b54614237565b601b55541692604051908152a3805f808681612288565b5f809350809294959650809160018060a01b03600d54165af1612348614296565b5015610d3b5790868493925f612281565b604051638199f5f360e01b81528490fd5b604051635a90bb8d60e11b8152fd5b604051635688ffb360e01b8152fd5b6141f6565b346105a8575f3660031901126105a85760206040516611c37937e080008152f35b50346105a85760203660031901126105a8578035906123cc33614ac7565b1561059957815f528060205260405f209060ff81830154166124ca576003820154610e1081018091116124b75742116124a95760058201335f528060205260ff60405f20541661249957335f5260205260405f20600160ff1982541617905560ff600283019261243c8454614308565b80945533855f80516020615b368339815191525f80a3541690600b8210156124865750600a0361247d5760ff60025b16111561247457005b61194f9061517d565b60ff600361246b565b602190634e487b7160e01b5f525260245ffd5b50604051635f8a9c0b60e01b8152fd5b604051621331cf60e01b8152fd5b601182634e487b7160e01b5f525260245ffd5b604051631b50735b60e21b8152fd5b346105a8575f3660031901126105a8576020601a54604051908152f35b50346105a85760203660031901126105a85780355f52601660205260405f206125316006820154611886600960078501549401548092614237565b90662386f26fc100009281840293840482036118c05760206118b8856118b28686614237565b346105a8575f3660031901126105a8576020601354604051908152f35b346105a8575f3660031901126105a8576020600f54604051908152f35b346105a8575f3660031901126105a8576020600854604051908152f35b5060c03660031901126105a8576001600160401b0381358181116105a8576125d990369084016141c9565b91906024358281116105a8576125f290369086016141c9565b6044939193358281116105a85761260c90369088016141c9565b90926064359081116105a85761262590369089016141c9565b93909260a4359660058810156105a85761263d614c4c565b60ff601454166126bf57600e5434106126ae5761265d9860843597614cd1565b3461267f575b60209060015f80516020615ab683398151915255604051908152f35b5f8080803460018060a01b03600d54165af1612699614296565b5061266357506040516312171d8360e31b8152fd5b604051630535b74760e41b81528a90fd5b60405163ab35696f60e01b81528a90fd5b6141a7565b614149565b5060403660031901126105a85780356126f16140fd565b916126fa614c4c565b60ff6014541661145957815f52601660205260405f209061271a82614c7b565b61272381614211565b80156128d85780612735600192614211565b036128c95760068201541580156128bd575b6128ae5760058201546201518081018082116115ce576201356082019081116115ce5742101561289e5761025881018091116124b757421061287c575b61278d836142d4565b9161271061279d60075434614258565b04906127a98234614289565b93841061286b57600a810180546301000000600160c01b0319163360181b6301000000600160b81b03161787151560b81b60ff60b81b1617905542600b820155600c0183905580612841575b5050604080519315158452602084019190915233927f6c7a43e53c92053a64485f76aa8f94f52dc1de8d1b1d03991e1bbcbf8c0517999190a360015f80516020615ab683398151915255005b600d545f918291829182916001600160a01b03165af161285f614296565b5015610d3b57806127f5565b60405163e92c469f60e01b81528390fd5b808201546001600160a01b0316331461278457604051630c93731360e11b8152fd5b50604051633c79f67960e01b8152fd5b6040516326c3daf960e01b8152fd5b50600782015415612747565b604051633ca148c360e11b8152fd5b5060405163671eb0c560e01b8152fd5b346105a8575f3660031901126105a8576020604051670de0b6b3a76400008152f35b5060203660031901126105a8578035612921614c4c565b60ff60145416612a5257805f52601660205260405f2091600261294384614c7b565b61294c81614211565b03612a4357600b83015461070881018091116124b7574211612a3457600c830154928360011b93808504600214901517156124b75761271061299060075434614258565b049061299c8234614289565b94851061286b57600d810180546001600160a01b0319163317905542600e820155600f0184905580612a0a575b50506040519182527fde1573422d8e8f907aa39b232e67b89a948f3a0367e19ca12e2e761ec229750160203393a360015f80516020615ab683398151915255005b600d545f918291829182916001600160a01b03165af1612a28614296565b5015610d3b57806129c9565b60405163234c0ffd60e21b8152fd5b6040516379543eaf60e11b8152fd5b5060405163ab35696f60e01b8152fd5b50346105a857602090816003193601126105a8578035612a80614c4c565b805f526016835260405f209160058301546201518081018091116124b7574210612c2857600a83015460ff8160081c16612c185760ff60145416159081612c02575b50612bf357815f526017845260405f20335f52845260405f20600281019081549460ff8660081c16612be257815492612b016001840194855490614237565b8015612bd157915f94939185936006830191610100612b41845495612b3c6008612b3160078401998a5490614237565b920195865490614258565b61426b565b9b61ff001916179055612b558a8254614289565b9055612b6383548254614289565b9055612b7184548254614289565b905555555f80808086335af1612b85614296565b5015610d3b5750604051908282527f49def7ae9132a7281c47912927b25c31186e59b9488226d422e1a370e9c2d27f843393a360015f80516020615ab683398151915255604051908152f35b604051632afc3c0d60e21b81528690fd5b60405163438da29b60e11b81528490fd5b604051631162e7df60e21b8152fd5b60181c6001600160a01b0316151590505f612ac2565b5060405163aa43cb2d60e01b8152fd5b6040516321ec2ba160e21b8152fd5b50346105a857602090816003193601126105a8578035612c5633614ac7565b15611010576611c37937e0800081108015612dcd575b612dbd576040519083820152828152612c8481613fa5565b60035491612c9183614308565b600355825f5280845260405f2060ff1992600584835416178255600192838301918051916001600160401b0383116105865750612cd28261048c8554613f3e565b8790601f8311600114612d59579180612d049260059695945f926105185750508160011b915f199060031b1c19161790565b90555b826002820155426003820155335f5201845260405f209182541617905560405160058152815f80516020615a96833981519152843393a333815f80516020615b368339815191525f80a3604051908152f35b9392918591601f19821690845f528a5f20915f5b8c828210612da7575050968360059810612d8f575b505050811b019055612d07565b01515f1960f88460031b161c191690555f8080612d82565b838a015185558a96909401939283019201612d6d565b5060405163329b7bc160e11b8152fd5b5067016345785d8a00008111612c6c565b50346105a8575f3660031901126105a857612df7614c4c565b335f52601860205260405f20548015610b2557335f5260186020525f6040812055612e2481601a54614289565b601a555f80808084335af1612e37614296565b5015610b15576020906040518181527fd3f990ddd0f1a820ca21d6f29136b25c504220122117b21de9ede5602b99c586833392a260015f80516020615ab683398151915255604051908152f35b346105a8575f3660031901126105a857600d546040516001600160a01b039091168152602090f35b346105a8575f3660031901126105a857602060405166038d7ea4c680008152f35b346105a8575f3660031901126105a8576020600754604051908152f35b50346105a85760403660031901126105a857612f0461417b565b90612f0d614191565b91612f1733614ac7565b15611010576001600160a01b03838116919082156130dc578116938285146130cb57612f4290614ac7565b6130ba57612f4f90614ac7565b156130aa576040519060209384830152604082015260408152612f7181613f76565b60035491612f7e83614308565b600355825f5280845260405f2060ff1992600a84835416178255600192838301918051916001600160401b0383116105865750612fbf8261048c8554613f3e565b8790601f8311600114613046579180612ff19260059695945f926105185750508160011b915f199060031b1c19161790565b90555b826002820155426003820155335f5201845260405f2091825416179055604051600a8152815f80516020615a96833981519152843393a333815f80516020615b368339815191525f80a3604051908152f35b9392918591601f19821690845f528a5f20915f5b8c82821061309457505096836005981061307c575b505050811b019055612ff4565b01515f1960f88460031b161c191690555f808061306f565b838a015185558a9690940193928301920161305a565b5060405163bdb712ef60e01b8152fd5b6040516378327bb360e01b81528390fd5b6040516378327bb360e01b81528490fd5b60405163e6c4247b60e01b81528490fd5b346105a8575f3660031901126105a857602060ff601454166040519015158152f35b346105a8575f3660031901126105a8576020601054604051908152f35b346105a8575f3660031901126105a857602060405169032d26d12e980b6000008152f35b5061315a36614165565b9091613164614c4c565b60ff6014541661145957600854341061237957825f526020926016845260405f209161318f83614c7b565b61319881614211565b61236a5761271092836131ad60055434614258565b04936131bb60065434614258565b04916131ca6121b48487614237565b9460068301805460078501546131fa6121ee6131f460098901546131ee8187614237565b94614237565b83614237565b670de0b6b3a764000090818102918183041490151715610a5c57662386f26fc100009180830292830403610a5c57906132329161426b565b9889106123595791869594939161324a8a8c95614237565b90556008840161325b898254614237565b9055855f526017835260405f20335f52835260405f2061327c8a8254614237565b90558061332b575b50836132d5575b5050505050604051916001835260018584015283604084015260608301525f80516020615af683398151915260803393a360015f80516020615ab683398151915255604051908152f35b5f80516020615a76833981519152920160018060a01b0390818154165f526019835260405f20613306868254614237565b905561331485601b54614237565b601b55541692604051908152a3805f80868161328b565b5f809350809294959650809160018060a01b03600d54165af161334c614296565b5015610d3b5790868493925f613284565b50346105a857602090816003193601126105a857803561337c33614ac7565b156110105766038d7ea4c68000811080156134f2575b6134e25760405190838201528281526133aa81613fa5565b600354916133b783614308565b600355825f5280845260405f2060019260ff19928484845416178355848301918051916001600160401b03831161058657506133f78261048c8554613f3e565b8790601f831160011461347e5791806134299260059695945f926105185750508160011b915f199060031b1c19161790565b90555b836002820155426003820155335f520184528160405f2091825416179055604051908152815f80516020615a96833981519152843393a333815f80516020615b368339815191525f80a3604051908152f35b9392918691601f19821690845f528a5f20915f5b8c8282106134cc5750509683600598106134b4575b505050811b01905561342c565b01515f1960f88460031b161c191690555f80806134a7565b838a015185558b96909401939283019201613492565b50604051637cc0badd60e11b8152fd5b5067016345785d8a00008111613392565b50346105a857602090816003193601126105a8578035613521614c4c565b805f526016835260405f2091600a830180549360ff8560081c16156136de57835f526017865260405f20335f52865260405f2090600282019283549660ff88166136cd5760ff8860081c166136bc5760101c60ff169283156136b25754925b83156136a15760ff9190156136975760068301545b6135d66135ab6008860192612b3c845489614258565b6127106135ba60075483614258565b049760016135c88a84614289565b9c8719161790558254614289565b90555460101c16156136815760066135f19101918254614289565b90555b80613657575b505f80808086335af161360b614296565b5015610d3b5750604051908282527f4ec90e965519d92681267467f775ada5bd214aa92c0dc93d90a5e880ce9ed026843393a360015f80516020615ab683398151915255604051908152f35b600d545f918291829182916001600160a01b03165af1613675614296565b5015610d3b575f6135fa565b60076136909101918254614289565b90556135f4565b6007830154613595565b6040516312d37ee560e31b81528690fd5b6001015492613580565b60405163438da29b60e11b81528690fd5b604051630c8d9eab60e31b81528690fd5b60405163174b639360e11b81528390fd5b50346105a85760203660031901126105a8576118b8602091356142d4565b346105a8575f3660031901126105a8576020600e54604051908152f35b346105a8575f3660031901126105a8576020600354604051908152f35b346105a8575f3660031901126105a8576020600554604051908152f35b50346105a857602090816003193601126105a8578035613782614c4c565b805f526016835260405f2091600a8301549260ff8460081c16156138f557601281015480156138e457835f526017865260405f20335f52865260405f2090600282019283549660ff8860101c16156138d35760ff9060101c1680151560ff8960181c161515036138c25760ff888a1c166138b1579161381c612b3c9261382295945f146138a75760100154935b6001815491015490614237565b90614258565b9384156138965764ff0000000019166401000000001790555f80808086335af161384a614296565b5015610d3b5750604051908282527f54586e5b9d70496b1e07fb55bb61b9a7c08e63147a4bc148c78558d01dbf66ae843393a360015f80516020615ab683398151915255604051908152f35b6040516312d37ee560e31b81528390fd5b601101549361380f565b6040516335f5f4c360e11b81528690fd5b604051637c30a9c760e11b81528690fd5b6040516336656e4360e01b81528690fd5b60405163589883ef60e11b81528390fd5b5060405163174b639360e11b8152fd5b50346105a85760203660031901126105a8573560038110156105a857546040516001600160a01b039091168152602090f35b346105a8575f3660031901126105a8576020600654604051908152f35b50346105a8576139633661412f565b9161396c614c4c565b60ff60145416610e4757805f526020936016855260405f2061398d81614c7b565b61399681614211565b610e3757825f526017865260405f20335f528652600160405f20019084825410610e265760068101549160078201908154936139f388610c0a81610c046139ec6139e560098b01548098614237565b968b614237565b8096614237565b90662386f26fc10000808a02908a8204148a151715610e135790613a1691614258565b670de0b6b3a764000091828102928184041490151715610e005790613a3a9161426b565b60088401908154808211610def576127109485613a5960055485614258565b0495613a6760065485614258565b0497613a76610c938a89614237565b9c8d10610dde57918a98979695949391610cb68d613a9395614289565b9055613aa0888254614289565b905580613b66575b50878483613b10575b50505050505f80808087335af1613ac6614296565b5015610d3b5750604051915f83525f8584015260408301528260608301525f80516020615af683398151915260803393a360015f80516020615ab683398151915255604051908152f35b5f80516020615a76833981519152920160018060a01b0390818154165f526019835260405f20613b41868254614237565b9055613b4f85601b54614237565b601b55541692604051908152a3815f808784613ab1565b5f808093949550809260018060a01b03600d54165af1613b84614296565b5015610dcd579083915f613aa8565b346105a8575f3660031901126105a8576020600954604051908152f35b346105a85760206118b8613bc33661410c565b90915f526016845260405f20612710613bea613be460055460065490614237565b85614258565b04926009613c02600684015495600785015493614289565b92015493614bd7565b346105a8575f3660031901126105a85760206040516102588152f35b346105a85760206118b8613c60613c3d3661410c565b90915f526016855260405f20916006830154926009600782015491015493614b53565b612710613c7b613c7560055460065490614237565b83614258565b0490614289565b346105a8575f3660031901126105a8576020604051611c208152f35b346105a8575f3660031901126105a8576020604051620151808152f35b50346105a85760403660031901126105a857803590808210156105a85760243591613ce533614ac7565b15611010575f9281613e62576101f48111613e51575b6040519160209461196c5784830152604082015260408152613d1c81613f76565b60035491613d2983614308565b600355825f5280845260405f2060ff1992838254168255600192838301918051916001600160401b0383116105865750613d678261048c8554613f3e565b8790601f8311600114613ded579180613d999260059695945f926105185750508160011b915f199060031b1c19161790565b90555b826002820155426003820155335f5201845260405f20918254161790556040515f8152815f80516020615a96833981519152843393a333815f80516020615b368339815191525f80a3604051908152f35b9392918591601f19821690845f528a5f20915f5b8c828210613e3b575050968360059810613e23575b505050811b019055613d9c565b01515f1960f88460031b161c191690555f8080613e16565b838a015185558a96909401939283019201613e01565b6040516358d620b360e01b81528390fd5b5f935060018203613e7b5760c88111613e51575b613cfb565b5f935060028203613e935760648111613e5157613cfb565b5f93506002198201613e765767016345785d8a0000811115613e765760405163eb8a0a9360e01b81528390fd5b50346105a85760203660031901126105a85780613f1791355f528060205260405f209060ff82541691613ef560018201613ffc565b90613f2860ff600283015494600384015493015416926040519687809761409e565b60a0602087015260a08601906140bf565b9260408501526060840152151560808301520390f35b90600182811c92168015613f6c575b6020831014613f5857565b634e487b7160e01b5f52602260045260245ffd5b91607f1691613f4d565b606081019081106001600160401b03821117613f9157604052565b634e487b7160e01b5f52604160045260245ffd5b604081019081106001600160401b03821117613f9157604052565b602081019081106001600160401b03821117613f9157604052565b90601f801991011681019081106001600160401b03821117613f9157604052565b9060405191825f825461400e81613f3e565b908184526020946001916001811690815f1461407c575060011461403e575b50505061403c92500383613fdb565b565b5f90815285812095935091905b81831061406457505061403c93508201015f808061402d565b8554888401850152948501948794509183019161404b565b9250505061403c94925060ff191682840152151560051b8201015f808061402d565b90600b8210156140ab5752565b634e487b7160e01b5f52602160045260245ffd5b91908251928382525f5b8481106140e9575050825f602080949584010152601f8019910116010190565b6020818301810151848301820152016140c9565b6024359081151582036105a857565b60609060031901126105a857600435906024359060443580151581036105a85790565b60609060031901126105a857600435906024359060443590565b346105a8575f3660031901126105a8576020604051610e108152f35b60409060031901126105a8576004359060243590565b600435906001600160a01b03821682036105a857565b602435906001600160a01b03821682036105a857565b346105a8575f3660031901126105a857602060405167016345785d8a00008152f35b9181601f840112156105a8578235916001600160401b0383116105a857602083818601950101116105a857565b346105a8575f3660031901126105a857602060405160c88152f35b600511156140ab57565b346105a8575f3660031901126105a85760206040516101f48152f35b9190820180921161424457565b634e487b7160e01b5f52601160045260245ffd5b8181029291811591840414171561424457565b8115614275570490565b634e487b7160e01b5f52601260045260245ffd5b9190820391821161424457565b3d156142cf573d906001600160401b038211613f9157604051916142c4601f8201601f191660200184613fdb565b82523d5f602084013e565b606090565b5f5260166020526127106142f2600860405f200154600a5490614258565b046009548082115f14614303575090565b905090565b5f1981146142445760010190565b92915f935f52601660205260405f2090821561440d576006820154600783015490600984015493600861434c8686898787614b53565b91015490818111156143e957505f95905b81871061439157505084614374575b505050509190565b84965093613c6093929161438795614b53565b915f80808061436c565b909561439d8782614237565b6001808201809211614244571c90826143b98888858989614b53565b116143c75750955b9061435d565b96505f198101908111156143c157634e487b7160e01b5f52601160045260245ffd5b94505050505061440a919350612710613c7b613c7560055460065490614237565b90565b50505090505f905f90565b805f526020601681526040805f209161443083614c7b565b61443981614211565b600281036147135750600b83015461070881018091116142445742111561470257600a83019084825460ff8160b81c165f146146f85760068601545b156145e657509060805f927fdc2ddf2d5ba9d7ae2e3763f353bea15c1618e60da8ac6eca3b14d806ce8a3316966144d460ff61010061ff00198954161780895560b81c16879062ff0000825491151560101b169062ff00001916179055565b836008820191600c8354916127106144ed835485614258565b04948515159386856145d3575b505050018761450a858354614237565b91555f80516020615ad683398151915260018060a01b03998a815460181c168a52601885528b8a2061453d848254614237565b905561454b83601a54614237565b601a5554998a60181c169687928c519081528c8682015260148d820152731c1c9bdc1bdcd95c97d89bdb9917dc995dd85c9960621b6060820152a26145a2575b5050505060ff84519360101c1615158352820152a2565b7f703bc125a2665c8fdf99388ee79d5641c0723bd082e35dbf8976021756e25aa6918851908152a35f86818361458b565b6145dc91614289565b90555f80866144fa565b9050600c7fe12a108659cfceebb9cd8b65c57b8f6d2a0896a9a0bcc5797792c52074abf49e95018054858161466c575b505083546301000000600160b81b031916909355505090516020808252601a908201527f4e6f20686f6c64657273206f6e2077696e6e696e6720736964650000000000006040820152905080606081015b0390a2565b5f80516020615ad6833981519152935f6080945560018060a01b03809160181c165f5260188652815f206146a1848254614237565b90556146af83601a54614237565b601a55865460181c169481519283528201526018868201527f70726f706f7365725f626f6e645f656d7074795f7369646500000000000000006060820152a25f80808085614616565b6007860154614475565b815163234c0ffd60e21b8152600490fd5b8061471f600392614211565b03614a6557600e830154610e10810180911161424457421115614a5457601083018054906011850191825414614a4657549054108015614a3c5760068401545b156149d457600a8401805462ffff00191682151560101b62ff000016176101001781557fdc2ddf2d5ba9d7ae2e3763f353bea15c1618e60da8ac6eca3b14d806ce8a33169460019260ff929190819089845491868360b81c16151514888a5f9483806149c9575b61495a575b84916148538761484e7f27fa0e98dfa1197c7d1238ba14b175c914fafadedebdf5c8d68effd3079f42f194885f1461494f57600f8c0154905b891561493c5760181c6001600160a01b0316985b1561493257600c8c01545b5f600f614840612710614838600b5487614258565b048095614289565b9e82600c8201550155614237565b614237565b888d8060a01b0380971695865f5260188152835f20614873848254614237565b905561488183601a54614237565b601a55865f80516020615ad6833981519152608086518681528785820152600b888201526a3137b7322fbbb4b73732b960a91b6060820152a28351928352820152a388836148fa575b50505050806148e9575b50505460101c169183519215158352820152a2565b6148f391896159df565b5f806148d4565b7f703bc125a2665c8fdf99388ee79d5641c0723bd082e35dbf8976021756e25aa691875460181c16938b51908152a35f8981886148ca565b600f8c0154614823565b508f8060a01b03600d8d01541698614818565b600c8c015490614804565b94507f27fa0e98dfa1197c7d1238ba14b175c914fafadedebdf5c8d68effd3079f42f18491614853600889019761484e89549161271061499c600c5485614258565b049a8b9384806149b6575b505050945050505091506147cb565b6149bf91614289565b90555f80846149a7565b50600c5415156147c6565b5050614a007fe12a108659cfceebb9cd8b65c57b8f6d2a0896a9a0bcc5797792c52074abf49e9261588d565b516020808252601a908201527f4e6f20686f6c64657273206f6e2077696e6e696e67207369646500000000000060408201528060608101614667565b600784015461475f565b5050505061403c915061588d565b8151633fc30bd160e11b8152600490fd5b815163174b639360e11b8152600490fd5b5f52601660205260405f2060ff600a82015460081c16614ac057600501546201518081018091116142445780421015614ab857614ab4904290614289565b5f91565b506001905f90565b505f905f90565b5f546001600160a01b039182169082168114918215614af6575b8215614aec57505090565b6002541614919050565b600154811682149250614ae1565b601f8211614b1157505050565b5f5260205f20906020601f840160051c83019310614b49575b601f0160051c01905b818110614b3e575050565b5f8155600101614b33565b9091508190614b2a565b8280949592614b6d84611886614b899796614b8396614237565b614b778183614237565b9715614bd05750614289565b93614289565b91662386f26fc100009182810292818404149015171561424457614bac91614258565b90670de0b6b3a7640000908181029181830414901517156142445761440a9161426b565b9050614289565b93614be881614bee93959496614237565b93614237565b92614bf98484614237565b9115614c4257614c0a929350614258565b90670de0b6b3a76400009182810292818404149015171561424457662386f26fc1000090808202918204036142445761440a9161426b565b614c0a9250614258565b5f80516020615ab68339815191526002815414614c695760029055565b604051633ee5aeb560e01b8152600490fd5b600a81015460ff8160081c16614cca57600d8201546001600160a01b0391908216614cc25760181c16614cbc5760050154421015614cb7575f90565b600190565b50600290565b505050600390565b5050600490565b9493989299979190969599871561515757428311156151455760155496614cf788614308565b601555879a885f526020966016885260405f20946001600160401b0394858d11613f9157614d2f8d614d298954613f3e565b89614b04565b8c5f601f82116001146150de579080614d5c925f916150d3575b508160011b915f199060031b1c19161790565b87555b6001870191868211613f9157614d798261048c8554613f3e565b5f90601f831160011461506e57614da692915f9183614f755750508160011b915f199060031b1c19161790565b90555b6002850191848211613f9157614dc38261048c8554613f3e565b5f90601f831160011461500b57614df092915f9183614f755750508160011b915f199060031b1c19161790565b90555b60038301918111613f9157614e1281614e0c8454613f3e565b84614b04565b5f601f8211600114614f8057816009949392614e68927f088de4ff1d0b36eed2a164a1efb89ec8d72c1a7846023e20716b1cf80405d7f19b9c9d9e9f5f92614f755750508160011b915f199060031b1c19161790565b90555b6004810180546001600160a01b0319163317905560058101839055600a8101614e9385614211565b60ff1981541660ff8616179055614ea984614211565b83614f0057600f54828201555b01549287604051956080875281608088015260a08701375f60a08987010152840152614ee181614211565b604083015260608201523393601f01601f1916810181900360a00190a3565b614f0984614211565b60018403614f1e57601054828201555b614eb6565b614f2784614211565b60028403614f3b5760115482820155614eb6565b614f4484614211565b60038403614f585760125482820155614eb6565b614f6184614211565b60048403614f195760135482820155614eb6565b013590505f806104b1565b601f19821690835f52875f20915f5b818110614ff45750917f088de4ff1d0b36eed2a164a1efb89ec8d72c1a7846023e20716b1cf80405d7f19a9b9c9d9e8492600997969560019510614fdb575b505050811b019055614e6b565b01355f19600384901b60f8161c191690555f8080614fce565b8f8301358455600190930192918901918901614f8f565b601f19831691845f528a5f20925f5b8c82821061505857505090846001959493921061503f575b505050811b019055614df3565b01355f19600384901b60f8161c191690555f8080615032565b600184968293958701358155019501920161501a565b5f8481528c81209290601f198516908e5b8282106150bc5750509084600195949392106150a3575b505050811b019055614da9565b01355f19600384901b60f8161c191690555f8080615096565b60018496829395870135815501950192018e61507f565b90508d01355f614d49565b885f528b5f20918d8d5f915b601f198416831061512e5750505080601f19811610615114575b905060018092501b018755614d5f565b60f85f199160031b161c19908d01351690555f808e615104565b840135855560019094019392830192018d8f6150ea565b60405163212be55960e11b8152600490fd5b604051630d5003f360e01b8152600490fd5b51906001600160a01b03821682036105a857565b805f526004602090808252604090815f209080820160019060ff1990828282541617905560ff845416600b81101561196c57806152d7575050906151c2828401613ffc565b84818051810103126105a8578581015190828210156105a85785015192816152275750506101f48211615219575060ff5f80516020615b16833981519152949392615216926005555b54169151809261409e565ba2565b83516358d620b360e01b8152fd5b8103615256575060c88211615219575060ff5f80516020615b168339815191529493926152169260065561520b565b60028103615287575060648211615219575060ff5f80516020615b168339815191529493926152169260075561520b565b6003146152ac575b50509061521660ff5f80516020615b16833981519152949361520b565b67016345785d8a000082116152c95750600e5561521660ff61528f565b835163eb8a0a9360e01b8152fd5b80830361534f5750506152eb908301613ffc565b84818051810103126105a8578401519066038d7ea4c680008210801561533e575b615330575060ff5f80516020615b168339815191529493926152169260085561520b565b8351637cc0badd60e11b8152fd5b5067016345785d8a0000821161530c565b600281036153cf575050615364908301613ffc565b84818051810103126105a8576001600160a01b0390615384908601615169565b169081156153c1575060ff5f80516020615b16833981519152949392615216926bffffffffffffffffffffffff60a01b600d541617600d5561520b565b835163e6c4247b60e01b8152fd5b9192909160039080820361542a575050505f80516020615b168339815191529493926152169260ff926014541617601455337f62e78cea01bee320cd4e420270b5ea74000d11b0c9f74754ebdbfc544b05a2585f80a261520b565b92939192808403615481575050505060ff5f80516020615b168339815191529493926152169260145416601455337f5db9ee0a495bf2e6ff9c91a7834c1ba4fdd244a5e8aa4e537bd38aeae4b073aa5f80a261520b565b9293509091600581036154ff57505061549b908301613ffc565b84818051810103126105a857840151906611c37937e08000821080156154ee575b6154e0575060ff5f80516020615b168339815191529493926152169260095561520b565b835163329b7bc160e11b8152fd5b5067016345785d8a000082116154bc565b6006810361556c575050615514908301613ffc565b84818051810103126105a85784015190603282108015615561575b615553575060ff5f80516020615b1683398151915294939261521692600a5561520b565b835163ba344cfd60e01b8152fd5b506101f4821161552f565b600781036155da575050615581908301613ffc565b84818051810103126105a857840151906107d0821080156155cf575b6155c1575060ff5f80516020615b1683398151915294939261521692600b5561520b565b8351630c7311a160e31b8152fd5b50611f40821161559d565b92979695949392600881036156ed5750506155f6818301613ffc565b83818051810103126105a857848101519060058210156105a85784015191670de0b6b3a7640000831080156156da575b6156ca57915f80516020615b168339815191529697988260ff9461564d6152169795614211565b8161565d57505050600f5561520b565b61566682614211565b810361567657505060105561520b565b61567f81614211565b6002810361569157505060115561520b565b61569a81614211565b600381036156ac57505060125561520b565b6156b581614211565b146156c1575b5061520b565b6013555f6156bb565b84516358d620b360e01b81528990fd5b5069032d26d12e980b6000008311615626565b60098199949596979899145f1461575157505061570b908301613ffc565b84818051810103126105a8578401519060c88211615743575060ff5f80516020615b1683398151915294939261521692600c5561520b565b83516379d3ee4160e11b8152fd5b909290600a1461577a575b5050509061521660ff5f80516020615b16833981519152949361520b565b615785828501613ffc565b85818051810103126105a8576157a7866157a0898401615169565b9201615169565b6001600160a01b0390811694918116939091851561587d5785851461586d576157cf86614ac7565b61586d575f925f5b82811061583c575b505050501561582e57505f80516020615b16833981519152949392866152169360ff937f3288defc7d8a5d94d6a119b650b3275db0b541801744754565b543431ea11cf15f80a492939461575c565b845163bdb712ef60e01b8152fd5b878154888482161461585157505083016157d7565b6001600160a01b031916179055509091505f90508080806157df565b87516378327bb360e01b81528490fd5b875163e6c4247b60e01b81528490fd5b600d90600c810180549081615956575b5050600f8101805490816158d4575b5050600a810180546301000000600160b81b03191690550180546001600160a01b0319169055565b5f90555f80516020615ad6833981519152608084840160018060a01b0390818154165f52601860205260405f2061590c868254614237565b905561591a85601a54614237565b601a5554169260405190815260406020820152601160408201527064697370757465725f626f6e645f74696560781b6060820152a25f806158ac565b5f90555f80516020615ad68339815191526080600a840160018060a01b039081815460181c165f52601860205260405f20615992868254614237565b90556159a085601a54614237565b601a555460181c169260405190815260406020820152601160408201527070726f706f7365725f626f6e645f74696560781b6060820152a25f8061589d565b919060ff600a82015460101c165f14615a6b5760108101545b15615a3057817f6373064e4905f7001175d3a79ba8a425c7c5cbb403eb940ea8a21d4fa5cb7cec9260126020930155604051908152a2565b50600d545f9250829182918291906001600160a01b03165af1615a51614296565b5015615a5957565b6040516312171d8360e31b8152600490fd5b60118101546159f856feee6d275681f6338b9dcbc5762e1fb9518bbb1e7db15049fbe7f9ed98857670bd0bd5a1be8a9259e42ff3ff2d4b8457044eda96d3db9aed28322f8da78f1e0d419b779b17422d0df92223018b32b4d1fa46e071723d6817e2486d003becc55f00adadeee46984897fe0fddcdd6b48a8011d2dc74760aac19667d9a7c13ca750581080a6e42ac16e1e06ceeec56bfcd11d5f64a6b48cdf10db0f6566172e7f92a0ccbac48ec328eb4bdb4ace10025e03ecf58898746c98bdf8cfd4d32ade75f42a8d33281e1711fba153adffbde99ea4fd340a412490b8254097b438c0e8d41e4aa26469706673582212202252e467669d756a4061b9f9777dde3fedc530e5237b8c2a5c45067156d4592264736f6c63430008180033","linkReferences":{}},"methodIdentifiers":{"ACTION_EXPIRY()":"8ff65651","BOND_WINNER_SHARE_LOWER()":"bff9d040","BOND_WINNER_SHARE_UPPER()":"f02d6372","BPS_DENOMINATOR()":"e1a45218","CREATOR_PRIORITY_WINDOW()":"132eb94b","DISPUTE_WINDOW()":"f585dc57","DYNAMIC_BOND_BPS_LOWER()":"e13d1aaa","DYNAMIC_BOND_BPS_UPPER()":"c2f57386","EMERGENCY_REFUND_DELAY()":"0acbdee3","MAX_CREATOR_FEE_BPS()":"a844a134","MAX_FEE_BPS()":"d55be8c6","MAX_HEAT_LEVEL()":"3fbf2ccd","MAX_MARKET_CREATION_FEE()":"6c82169d","MAX_PROPOSER_REWARD_BPS()":"a260a02a","MAX_RESOLUTION_FEE_BPS()":"b30dbfb2","MIN_BET_LOWER()":"61a895df","MIN_BET_UPPER()":"94a29beb","MIN_BOND_FLOOR_LOWER()":"a732e4c9","MIN_BOND_FLOOR_UPPER()":"7740a680","MIN_HEAT_LEVEL()":"87f72916","RESOLUTION_CUTOFF_BUFFER()":"0dbacc62","UNIT_PRICE()":"afa40bbd","VOTING_WINDOW()":"3173cd26","actionNonce()":"2d162369","bondWinnerShareBps()":"d7dfd971","buyNo(uint256,uint256)":"a9f6b058","buyYes(uint256,uint256)":"399af502","canEmergencyRefund(uint256)":"e7176d31","claim(uint256)":"379607f5","claimJuryFees(uint256)":"213a0d4f","confirmAction(uint256)":"a63d914f","createMarket(string,string,string,string,uint256,uint8)":"94c38bca","createMarketAndBuy(string,string,string,string,uint256,uint8,bool,uint256)":"be04f84f","creatorFeeBps()":"17773ebb","dispute(uint256)":"86d6282c","dynamicBondBps()":"d67d643e","emergencyRefund(uint256)":"70e5deb9","executeAction(uint256)":"c0c1cf55","finalizeMarket(uint256)":"c9d2d5de","getDispute(uint256)":"e3a96cbd","getMarket(uint256)":"eb44fdd3","getMarketStatus(uint256)":"ec5a711a","getMaxSellableShares(uint256,uint256,bool)":"b7f12f6a","getNoPrice(uint256)":"c3546485","getPendingCreatorFees(address)":"ec763653","getPendingWithdrawal(address)":"7ee8b2f8","getPosition(uint256,address)":"d29f541d","getProposal(uint256)":"c7f758a8","getRequiredBond(uint256)":"366b7340","getRequiredDisputeBond(uint256)":"b05ef454","getYesPrice(uint256)":"9ba85fae","heatLevelApex()":"b1b84b49","heatLevelCore()":"97e02ee8","heatLevelCrack()":"9716919b","heatLevelHigh()":"47b0f737","heatLevelPro()":"d671484c","marketCount()":"ec979082","marketCreationFee()":"2ef1bdfa","markets(uint256)":"b1283e77","minBet()":"9619367d","minBondFloor()":"1690088c","paused()":"5c975abb","pendingActions(uint256)":"03117ba2","pendingCreatorFees(address)":"c598b2f9","pendingWithdrawals(address)":"f3f43703","platformFeeBps()":"22dcd13e","positions(uint256,address)":"e684d718","previewBuy(uint256,uint256,bool)":"14887fdf","previewSell(uint256,uint256,bool)":"12dcf12d","proposeOutcome(uint256,bool)":"88553a2a","proposePause()":"fffa080a","proposeReplaceSigner(address,address)":"5cbd9d43","proposeSetBondWinnerShare(uint256)":"d05a18e9","proposeSetDynamicBondBps(uint256)":"d750e82e","proposeSetFee(uint8,uint256)":"0857f484","proposeSetHeatLevel(uint8,uint256)":"c655a0eb","proposeSetMinBet(uint256)":"38d9c53b","proposeSetMinBondFloor(uint256)":"6d33bb1e","proposeSetProposerReward(uint256)":"bd442405","proposeSetTreasury(address)":"d1d34bf3","proposeUnpause()":"fae8a3d6","proposerRewardBps()":"bd149d71","resolutionFeeBps()":"5de97e11","sellNo(uint256,uint256,uint256)":"16fe6929","sellYes(uint256,uint256,uint256)":"dffad4e2","signers(uint256)":"2079fb9a","totalPendingCreatorFees()":"c651af12","totalPendingWithdrawals()":"a4563e03","treasury()":"61d027b3","vote(uint256,bool)":"c9d27afe","withdrawBond()":"66eb9cec","withdrawCreatorFees()":"e1cd04b4"},"id":21}