{"abi":[{"type":"constructor","inputs":[{"name":"_signers","type":"address[3]","internalType":"address[3]"},{"name":"_treasury","type":"address","internalType":"address"}],"stateMutability":"nonpayable"},{"type":"function","name":"ACTION_EXPIRY","inputs":[],"outputs":[{"name":"","type":"uint256","internalType":"uint256"}],"stateMutability":"view"},{"type":"function","name":"BOND_WINNER_SHARE_LOWER","inputs":[],"outputs":[{"name":"","type":"uint256","internalType":"uint256"}],"stateMutability":"view"},{"type":"function","name":"BOND_WINNER_SHARE_UPPER","inputs":[],"outputs":[{"name":"","type":"uint256","internalType":"uint256"}],"stateMutability":"view"},{"type":"function","name":"BPS_DENOMINATOR","inputs":[],"outputs":[{"name":"","type":"uint256","internalType":"uint256"}],"stateMutability":"view"},{"type":"function","name":"CREATOR_PRIORITY_WINDOW","inputs":[],"outputs":[{"name":"","type":"uint256","internalType":"uint256"}],"stateMutability":"view"},{"type":"function","name":"DISPUTE_WINDOW","inputs":[],"outputs":[{"name":"","type":"uint256","internalType":"uint256"}],"stateMutability":"view"},{"type":"function","name":"DYNAMIC_BOND_BPS_LOWER","inputs":[],"outputs":[{"name":"","type":"uint256","internalType":"uint256"}],"stateMutability":"view"},{"type":"function","name":"DYNAMIC_BOND_BPS_UPPER","inputs":[],"outputs":[{"name":"","type":"uint256","internalType":"uint256"}],"stateMutability":"view"},{"type":"function","name":"EMERGENCY_REFUND_DELAY","inputs":[],"outputs":[{"name":"","type":"uint256","internalType":"uint256"}],"stateMutability":"view"},{"type":"function","name":"MAX_CREATOR_FEE_BPS","inputs":[],"outputs":[{"name":"","type":"uint256","internalType":"uint256"}],"stateMutability":"view"},{"type":"function","name":"MAX_FEE_BPS","inputs":[],"outputs":[{"name":"","type":"uint256","internalType":"uint256"}],"stateMutability":"view"},{"type":"function","name":"MAX_HEAT_LEVEL","inputs":[],"outputs":[{"name":"","type":"uint256","internalType":"uint256"}],"stateMutability":"view"},{"type":"function","name":"MAX_MARKET_CREATION_FEE","inputs":[],"outputs":[{"name":"","type":"uint256","internalType":"uint256"}],"stateMutability":"view"},{"type":"function","name":"MAX_PROPOSER_REWARD_BPS","inputs":[],"outputs":[{"name":"","type":"uint256","internalType":"uint256"}],"stateMutability":"view"},{"type":"function","name":"MAX_RESOLUTION_FEE_BPS","inputs":[],"outputs":[{"name":"","type":"uint256","internalType":"uint256"}],"stateMutability":"view"},{"type":"function","name":"MIN_BET_LOWER","inputs":[],"outputs":[{"name":"","type":"uint256","internalType":"uint256"}],"stateMutability":"view"},{"type":"function","name":"MIN_BET_UPPER","inputs":[],"outputs":[{"name":"","type":"uint256","internalType":"uint256"}],"stateMutability":"view"},{"type":"function","name":"MIN_BOND_FLOOR_LOWER","inputs":[],"outputs":[{"name":"","type":"uint256","internalType":"uint256"}],"stateMutability":"view"},{"type":"function","name":"MIN_BOND_FLOOR_UPPER","inputs":[],"outputs":[{"name":"","type":"uint256","internalType":"uint256"}],"stateMutability":"view"},{"type":"function","name":"MIN_HEAT_LEVEL","inputs":[],"outputs":[{"name":"","type":"uint256","internalType":"uint256"}],"stateMutability":"view"},{"type":"function","name":"RESOLUTION_CUTOFF_BUFFER","inputs":[],"outputs":[{"name":"","type":"uint256","internalType":"uint256"}],"stateMutability":"view"},{"type":"function","name":"UNIT_PRICE","inputs":[],"outputs":[{"name":"","type":"uint256","internalType":"uint256"}],"stateMutability":"view"},{"type":"function","name":"VOTING_WINDOW","inputs":[],"outputs":[{"name":"","type":"uint256","internalType":"uint256"}],"stateMutability":"view"},{"type":"function","name":"actionNonce","inputs":[],"outputs":[{"name":"","type":"uint256","internalType":"uint256"}],"stateMutability":"view"},{"type":"function","name":"bondWinnerShareBps","inputs":[],"outputs":[{"name":"","type":"uint256","internalType":"uint256"}],"stateMutability":"view"},{"type":"function","name":"buyNo","inputs":[{"name":"marketId","type":"uint256","internalType":"uint256"},{"name":"minSharesOut","type":"uint256","internalType":"uint256"}],"outputs":[{"name":"sharesOut","type":"uint256","internalType":"uint256"}],"stateMutability":"payable"},{"type":"function","name":"buyYes","inputs":[{"name":"marketId","type":"uint256","internalType":"uint256"},{"name":"minSharesOut","type":"uint256","internalType":"uint256"}],"outputs":[{"name":"sharesOut","type":"uint256","internalType":"uint256"}],"stateMutability":"payable"},{"type":"function","name":"canEmergencyRefund","inputs":[{"name":"marketId","type":"uint256","internalType":"uint256"}],"outputs":[{"name":"eligible","type":"bool","internalType":"bool"},{"name":"timeUntilEligible","type":"uint256","internalType":"uint256"}],"stateMutability":"view"},{"type":"function","name":"claim","inputs":[{"name":"marketId","type":"uint256","internalType":"uint256"}],"outputs":[{"name":"payout","type":"uint256","internalType":"uint256"}],"stateMutability":"nonpayable"},{"type":"function","name":"claimJuryFees","inputs":[{"name":"marketId","type":"uint256","internalType":"uint256"}],"outputs":[{"name":"amount","type":"uint256","internalType":"uint256"}],"stateMutability":"nonpayable"},{"type":"function","name":"confirmAction","inputs":[{"name":"actionId","type":"uint256","internalType":"uint256"}],"outputs":[],"stateMutability":"nonpayable"},{"type":"function","name":"createMarket","inputs":[{"name":"question","type":"string","internalType":"string"},{"name":"evidenceLink","type":"string","internalType":"string"},{"name":"resolutionRules","type":"string","internalType":"string"},{"name":"imageUrl","type":"string","internalType":"string"},{"name":"expiryTimestamp","type":"uint256","internalType":"uint256"},{"name":"heatLevel","type":"uint8","internalType":"enum PredictionMarket.HeatLevel"}],"outputs":[{"name":"marketId","type":"uint256","internalType":"uint256"}],"stateMutability":"payable"},{"type":"function","name":"createMarketAndBuy","inputs":[{"name":"question","type":"string","internalType":"string"},{"name":"evidenceLink","type":"string","internalType":"string"},{"name":"resolutionRules","type":"string","internalType":"string"},{"name":"imageUrl","type":"string","internalType":"string"},{"name":"expiryTimestamp","type":"uint256","internalType":"uint256"},{"name":"heatLevel","type":"uint8","internalType":"enum PredictionMarket.HeatLevel"},{"name":"buyYesSide","type":"bool","internalType":"bool"},{"name":"minSharesOut","type":"uint256","internalType":"uint256"}],"outputs":[{"name":"marketId","type":"uint256","internalType":"uint256"},{"name":"sharesOut","type":"uint256","internalType":"uint256"}],"stateMutability":"payable"},{"type":"function","name":"creatorFeeBps","inputs":[],"outputs":[{"name":"","type":"uint256","internalType":"uint256"}],"stateMutability":"view"},{"type":"function","name":"dispute","inputs":[{"name":"marketId","type":"uint256","internalType":"uint256"}],"outputs":[],"stateMutability":"payable"},{"type":"function","name":"dynamicBondBps","inputs":[],"outputs":[{"name":"","type":"uint256","internalType":"uint256"}],"stateMutability":"view"},{"type":"function","name":"emergencyRefund","inputs":[{"name":"marketId","type":"uint256","internalType":"uint256"}],"outputs":[{"name":"refund","type":"uint256","internalType":"uint256"}],"stateMutability":"nonpayable"},{"type":"function","name":"executeAction","inputs":[{"name":"actionId","type":"uint256","internalType":"uint256"}],"outputs":[],"stateMutability":"nonpayable"},{"type":"function","name":"finalizeMarket","inputs":[{"name":"marketId","type":"uint256","internalType":"uint256"}],"outputs":[],"stateMutability":"nonpayable"},{"type":"function","name":"getDispute","inputs":[{"name":"marketId","type":"uint256","internalType":"uint256"}],"outputs":[{"name":"disputer","type":"address","internalType":"address"},{"name":"disputeTime","type":"uint256","internalType":"uint256"},{"name":"disputeBond","type":"uint256","internalType":"uint256"},{"name":"votingDeadline","type":"uint256","internalType":"uint256"},{"name":"yesVotes","type":"uint256","internalType":"uint256"},{"name":"noVotes","type":"uint256","internalType":"uint256"}],"stateMutability":"view"},{"type":"function","name":"getMarket","inputs":[{"name":"marketId","type":"uint256","internalType":"uint256"}],"outputs":[{"name":"question","type":"string","internalType":"string"},{"name":"evidenceLink","type":"string","internalType":"string"},{"name":"resolutionRules","type":"string","internalType":"string"},{"name":"imageUrl","type":"string","internalType":"string"},{"name":"creator","type":"address","internalType":"address"},{"name":"expiryTimestamp","type":"uint256","internalType":"uint256"},{"name":"yesSupply","type":"uint256","internalType":"uint256"},{"name":"noSupply","type":"uint256","internalType":"uint256"},{"name":"poolBalance","type":"uint256","internalType":"uint256"},{"name":"resolved","type":"bool","internalType":"bool"},{"name":"outcome","type":"bool","internalType":"bool"}],"stateMutability":"view"},{"type":"function","name":"getMarketStatus","inputs":[{"name":"marketId","type":"uint256","internalType":"uint256"}],"outputs":[{"name":"","type":"uint8","internalType":"enum PredictionMarket.MarketStatus"}],"stateMutability":"view"},{"type":"function","name":"getMaxSellableShares","inputs":[{"name":"marketId","type":"uint256","internalType":"uint256"},{"name":"userShares","type":"uint256","internalType":"uint256"},{"name":"isYes","type":"bool","internalType":"bool"}],"outputs":[{"name":"maxShares","type":"uint256","internalType":"uint256"},{"name":"bnbOut","type":"uint256","internalType":"uint256"}],"stateMutability":"view"},{"type":"function","name":"getNoPrice","inputs":[{"name":"marketId","type":"uint256","internalType":"uint256"}],"outputs":[{"name":"price","type":"uint256","internalType":"uint256"}],"stateMutability":"view"},{"type":"function","name":"getPendingCreatorFees","inputs":[{"name":"account","type":"address","internalType":"address"}],"outputs":[{"name":"","type":"uint256","internalType":"uint256"}],"stateMutability":"view"},{"type":"function","name":"getPendingWithdrawal","inputs":[{"name":"account","type":"address","internalType":"address"}],"outputs":[{"name":"","type":"uint256","internalType":"uint256"}],"stateMutability":"view"},{"type":"function","name":"getPosition","inputs":[{"name":"marketId","type":"uint256","internalType":"uint256"},{"name":"user","type":"address","internalType":"address"}],"outputs":[{"name":"yesShares","type":"uint256","internalType":"uint256"},{"name":"noShares","type":"uint256","internalType":"uint256"},{"name":"claimed","type":"bool","internalType":"bool"},{"name":"emergencyRefunded","type":"bool","internalType":"bool"},{"name":"hasVoted","type":"bool","internalType":"bool"},{"name":"votedOutcome","type":"bool","internalType":"bool"}],"stateMutability":"view"},{"type":"function","name":"getProposal","inputs":[{"name":"marketId","type":"uint256","internalType":"uint256"}],"outputs":[{"name":"proposer","type":"address","internalType":"address"},{"name":"proposedOutcome","type":"bool","internalType":"bool"},{"name":"proposalTime","type":"uint256","internalType":"uint256"},{"name":"proposalBond","type":"uint256","internalType":"uint256"},{"name":"disputeDeadline","type":"uint256","internalType":"uint256"}],"stateMutability":"view"},{"type":"function","name":"getRequiredBond","inputs":[{"name":"marketId","type":"uint256","internalType":"uint256"}],"outputs":[{"name":"requiredBond","type":"uint256","internalType":"uint256"}],"stateMutability":"view"},{"type":"function","name":"getRequiredDisputeBond","inputs":[{"name":"marketId","type":"uint256","internalType":"uint256"}],"outputs":[{"name":"","type":"uint256","internalType":"uint256"}],"stateMutability":"view"},{"type":"function","name":"getYesPrice","inputs":[{"name":"marketId","type":"uint256","internalType":"uint256"}],"outputs":[{"name":"price","type":"uint256","internalType":"uint256"}],"stateMutability":"view"},{"type":"function","name":"heatLevelApex","inputs":[],"outputs":[{"name":"","type":"uint256","internalType":"uint256"}],"stateMutability":"view"},{"type":"function","name":"heatLevelCore","inputs":[],"outputs":[{"name":"","type":"uint256","internalType":"uint256"}],"stateMutability":"view"},{"type":"function","name":"heatLevelCrack","inputs":[],"outputs":[{"name":"","type":"uint256","internalType":"uint256"}],"stateMutability":"view"},{"type":"function","name":"heatLevelHigh","inputs":[],"outputs":[{"name":"","type":"uint256","internalType":"uint256"}],"stateMutability":"view"},{"type":"function","name":"heatLevelPro","inputs":[],"outputs":[{"name":"","type":"uint256","internalType":"uint256"}],"stateMutability":"view"},{"type":"function","name":"marketCount","inputs":[],"outputs":[{"name":"","type":"uint256","internalType":"uint256"}],"stateMutability":"view"},{"type":"function","name":"marketCreationFee","inputs":[],"outputs":[{"name":"","type":"uint256","internalType":"uint256"}],"stateMutability":"view"},{"type":"function","name":"markets","inputs":[{"name":"","type":"uint256","internalType":"uint256"}],"outputs":[{"name":"question","type":"string","internalType":"string"},{"name":"evidenceLink","type":"string","internalType":"string"},{"name":"resolutionRules","type":"string","internalType":"string"},{"name":"imageUrl","type":"string","internalType":"string"},{"name":"creator","type":"address","internalType":"address"},{"name":"expiryTimestamp","type":"uint256","internalType":"uint256"},{"name":"yesSupply","type":"uint256","internalType":"uint256"},{"name":"noSupply","type":"uint256","internalType":"uint256"},{"name":"poolBalance","type":"uint256","internalType":"uint256"},{"name":"virtualLiquidity","type":"uint256","internalType":"uint256"},{"name":"heatLevel","type":"uint8","internalType":"enum PredictionMarket.HeatLevel"},{"name":"resolved","type":"bool","internalType":"bool"},{"name":"outcome","type":"bool","internalType":"bool"},{"name":"proposer","type":"address","internalType":"address"},{"name":"proposedOutcome","type":"bool","internalType":"bool"},{"name":"proposalTime","type":"uint256","internalType":"uint256"},{"name":"proposalBond","type":"uint256","internalType":"uint256"},{"name":"disputer","type":"address","internalType":"address"},{"name":"disputeTime","type":"uint256","internalType":"uint256"},{"name":"disputeBond","type":"uint256","internalType":"uint256"},{"name":"yesVotes","type":"uint256","internalType":"uint256"},{"name":"noVotes","type":"uint256","internalType":"uint256"},{"name":"juryFeesPool","type":"uint256","internalType":"uint256"}],"stateMutability":"view"},{"type":"function","name":"minBet","inputs":[],"outputs":[{"name":"","type":"uint256","internalType":"uint256"}],"stateMutability":"view"},{"type":"function","name":"minBondFloor","inputs":[],"outputs":[{"name":"","type":"uint256","internalType":"uint256"}],"stateMutability":"view"},{"type":"function","name":"paused","inputs":[],"outputs":[{"name":"","type":"bool","internalType":"bool"}],"stateMutability":"view"},{"type":"function","name":"pendingActions","inputs":[{"name":"","type":"uint256","internalType":"uint256"}],"outputs":[{"name":"actionType","type":"uint8","internalType":"enum PredictionMarket.ActionType"},{"name":"data","type":"bytes","internalType":"bytes"},{"name":"confirmations","type":"uint256","internalType":"uint256"},{"name":"createdAt","type":"uint256","internalType":"uint256"},{"name":"executed","type":"bool","internalType":"bool"}],"stateMutability":"view"},{"type":"function","name":"pendingCreatorFees","inputs":[{"name":"","type":"address","internalType":"address"}],"outputs":[{"name":"","type":"uint256","internalType":"uint256"}],"stateMutability":"view"},{"type":"function","name":"pendingWithdrawals","inputs":[{"name":"","type":"address","internalType":"address"}],"outputs":[{"name":"","type":"uint256","internalType":"uint256"}],"stateMutability":"view"},{"type":"function","name":"platformFeeBps","inputs":[],"outputs":[{"name":"","type":"uint256","internalType":"uint256"}],"stateMutability":"view"},{"type":"function","name":"positions","inputs":[{"name":"","type":"uint256","internalType":"uint256"},{"name":"","type":"address","internalType":"address"}],"outputs":[{"name":"yesShares","type":"uint256","internalType":"uint256"},{"name":"noShares","type":"uint256","internalType":"uint256"},{"name":"claimed","type":"bool","internalType":"bool"},{"name":"emergencyRefunded","type":"bool","internalType":"bool"},{"name":"hasVoted","type":"bool","internalType":"bool"},{"name":"votedOutcome","type":"bool","internalType":"bool"},{"name":"juryFeesClaimed","type":"bool","internalType":"bool"}],"stateMutability":"view"},{"type":"function","name":"previewBuy","inputs":[{"name":"marketId","type":"uint256","internalType":"uint256"},{"name":"bnbAmount","type":"uint256","internalType":"uint256"},{"name":"isYes","type":"bool","internalType":"bool"}],"outputs":[{"name":"shares","type":"uint256","internalType":"uint256"}],"stateMutability":"view"},{"type":"function","name":"previewSell","inputs":[{"name":"marketId","type":"uint256","internalType":"uint256"},{"name":"shares","type":"uint256","internalType":"uint256"},{"name":"isYes","type":"bool","internalType":"bool"}],"outputs":[{"name":"bnbOut","type":"uint256","internalType":"uint256"}],"stateMutability":"view"},{"type":"function","name":"proposeOutcome","inputs":[{"name":"marketId","type":"uint256","internalType":"uint256"},{"name":"outcome","type":"bool","internalType":"bool"}],"outputs":[],"stateMutability":"payable"},{"type":"function","name":"proposePause","inputs":[],"outputs":[{"name":"actionId","type":"uint256","internalType":"uint256"}],"stateMutability":"nonpayable"},{"type":"function","name":"proposeReplaceSigner","inputs":[{"name":"oldSigner","type":"address","internalType":"address"},{"name":"newSigner","type":"address","internalType":"address"}],"outputs":[{"name":"actionId","type":"uint256","internalType":"uint256"}],"stateMutability":"nonpayable"},{"type":"function","name":"proposeSetBondWinnerShare","inputs":[{"name":"newBondWinnerShare","type":"uint256","internalType":"uint256"}],"outputs":[{"name":"actionId","type":"uint256","internalType":"uint256"}],"stateMutability":"nonpayable"},{"type":"function","name":"proposeSetDynamicBondBps","inputs":[{"name":"newDynamicBondBps","type":"uint256","internalType":"uint256"}],"outputs":[{"name":"actionId","type":"uint256","internalType":"uint256"}],"stateMutability":"nonpayable"},{"type":"function","name":"proposeSetFee","inputs":[{"name":"feeType","type":"uint8","internalType":"enum PredictionMarket.FeeType"},{"name":"newValue","type":"uint256","internalType":"uint256"}],"outputs":[{"name":"actionId","type":"uint256","internalType":"uint256"}],"stateMutability":"nonpayable"},{"type":"function","name":"proposeSetHeatLevel","inputs":[{"name":"level","type":"uint8","internalType":"enum PredictionMarket.HeatLevel"},{"name":"newValue","type":"uint256","internalType":"uint256"}],"outputs":[{"name":"actionId","type":"uint256","internalType":"uint256"}],"stateMutability":"nonpayable"},{"type":"function","name":"proposeSetMinBet","inputs":[{"name":"newMinBet","type":"uint256","internalType":"uint256"}],"outputs":[{"name":"actionId","type":"uint256","internalType":"uint256"}],"stateMutability":"nonpayable"},{"type":"function","name":"proposeSetMinBondFloor","inputs":[{"name":"newMinBondFloor","type":"uint256","internalType":"uint256"}],"outputs":[{"name":"actionId","type":"uint256","internalType":"uint256"}],"stateMutability":"nonpayable"},{"type":"function","name":"proposeSetProposerReward","inputs":[{"name":"newProposerReward","type":"uint256","internalType":"uint256"}],"outputs":[{"name":"actionId","type":"uint256","internalType":"uint256"}],"stateMutability":"nonpayable"},{"type":"function","name":"proposeSetTreasury","inputs":[{"name":"newTreasury","type":"address","internalType":"address"}],"outputs":[{"name":"actionId","type":"uint256","internalType":"uint256"}],"stateMutability":"nonpayable"},{"type":"function","name":"proposeUnpause","inputs":[],"outputs":[{"name":"actionId","type":"uint256","internalType":"uint256"}],"stateMutability":"nonpayable"},{"type":"function","name":"proposerRewardBps","inputs":[],"outputs":[{"name":"","type":"uint256","internalType":"uint256"}],"stateMutability":"view"},{"type":"function","name":"resolutionFeeBps","inputs":[],"outputs":[{"name":"","type":"uint256","internalType":"uint256"}],"stateMutability":"view"},{"type":"function","name":"sellNo","inputs":[{"name":"marketId","type":"uint256","internalType":"uint256"},{"name":"shares","type":"uint256","internalType":"uint256"},{"name":"minBnbOut","type":"uint256","internalType":"uint256"}],"outputs":[{"name":"bnbOut","type":"uint256","internalType":"uint256"}],"stateMutability":"nonpayable"},{"type":"function","name":"sellYes","inputs":[{"name":"marketId","type":"uint256","internalType":"uint256"},{"name":"shares","type":"uint256","internalType":"uint256"},{"name":"minBnbOut","type":"uint256","internalType":"uint256"}],"outputs":[{"name":"bnbOut","type":"uint256","internalType":"uint256"}],"stateMutability":"nonpayable"},{"type":"function","name":"signers","inputs":[{"name":"","type":"uint256","internalType":"uint256"}],"outputs":[{"name":"","type":"address","internalType":"address"}],"stateMutability":"view"},{"type":"function","name":"totalPendingCreatorFees","inputs":[],"outputs":[{"name":"","type":"uint256","internalType":"uint256"}],"stateMutability":"view"},{"type":"function","name":"totalPendingWithdrawals","inputs":[],"outputs":[{"name":"","type":"uint256","internalType":"uint256"}],"stateMutability":"view"},{"type":"function","name":"treasury","inputs":[],"outputs":[{"name":"","type":"address","internalType":"address"}],"stateMutability":"view"},{"type":"function","name":"vote","inputs":[{"name":"marketId","type":"uint256","internalType":"uint256"},{"name":"outcome","type":"bool","internalType":"bool"}],"outputs":[],"stateMutability":"nonpayable"},{"type":"function","name":"withdrawBond","inputs":[],"outputs":[{"name":"amount","type":"uint256","internalType":"uint256"}],"stateMutability":"nonpayable"},{"type":"function","name":"withdrawCreatorFees","inputs":[],"outputs":[{"name":"amount","type":"uint256","internalType":"uint256"}],"stateMutability":"nonpayable"},{"type":"event","name":"ActionConfirmed","inputs":[{"name":"actionId","type":"uint256","indexed":true,"internalType":"uint256"},{"name":"confirmer","type":"address","indexed":true,"internalType":"address"}],"anonymous":false},{"type":"event","name":"ActionExecuted","inputs":[{"name":"actionId","type":"uint256","indexed":true,"internalType":"uint256"},{"name":"actionType","type":"uint8","indexed":false,"internalType":"enum PredictionMarket.ActionType"}],"anonymous":false},{"type":"event","name":"ActionProposed","inputs":[{"name":"actionId","type":"uint256","indexed":true,"internalType":"uint256"},{"name":"actionType","type":"uint8","indexed":false,"internalType":"enum PredictionMarket.ActionType"},{"name":"proposer","type":"address","indexed":true,"internalType":"address"}],"anonymous":false},{"type":"event","name":"BondDistributed","inputs":[{"name":"marketId","type":"uint256","indexed":true,"internalType":"uint256"},{"name":"winner","type":"address","indexed":true,"internalType":"address"},{"name":"winnerAmount","type":"uint256","indexed":false,"internalType":"uint256"},{"name":"voterPoolAmount","type":"uint256","indexed":false,"internalType":"uint256"}],"anonymous":false},{"type":"event","name":"Claimed","inputs":[{"name":"marketId","type":"uint256","indexed":true,"internalType":"uint256"},{"name":"user","type":"address","indexed":true,"internalType":"address"},{"name":"amount","type":"uint256","indexed":false,"internalType":"uint256"}],"anonymous":false},{"type":"event","name":"CreatorFeesClaimed","inputs":[{"name":"creator","type":"address","indexed":true,"internalType":"address"},{"name":"amount","type":"uint256","indexed":false,"internalType":"uint256"}],"anonymous":false},{"type":"event","name":"CreatorFeesCredited","inputs":[{"name":"creator","type":"address","indexed":true,"internalType":"address"},{"name":"marketId","type":"uint256","indexed":true,"internalType":"uint256"},{"name":"amount","type":"uint256","indexed":false,"internalType":"uint256"}],"anonymous":false},{"type":"event","name":"EmergencyRefunded","inputs":[{"name":"marketId","type":"uint256","indexed":true,"internalType":"uint256"},{"name":"user","type":"address","indexed":true,"internalType":"address"},{"name":"amount","type":"uint256","indexed":false,"internalType":"uint256"}],"anonymous":false},{"type":"event","name":"JuryFeesClaimed","inputs":[{"name":"marketId","type":"uint256","indexed":true,"internalType":"uint256"},{"name":"voter","type":"address","indexed":true,"internalType":"address"},{"name":"amount","type":"uint256","indexed":false,"internalType":"uint256"}],"anonymous":false},{"type":"event","name":"JuryFeesPoolCreated","inputs":[{"name":"marketId","type":"uint256","indexed":true,"internalType":"uint256"},{"name":"amount","type":"uint256","indexed":false,"internalType":"uint256"}],"anonymous":false},{"type":"event","name":"MarketCreated","inputs":[{"name":"marketId","type":"uint256","indexed":true,"internalType":"uint256"},{"name":"creator","type":"address","indexed":true,"internalType":"address"},{"name":"question","type":"string","indexed":false,"internalType":"string"},{"name":"expiryTimestamp","type":"uint256","indexed":false,"internalType":"uint256"},{"name":"heatLevel","type":"uint8","indexed":false,"internalType":"enum PredictionMarket.HeatLevel"},{"name":"virtualLiquidity","type":"uint256","indexed":false,"internalType":"uint256"}],"anonymous":false},{"type":"event","name":"MarketResolutionFailed","inputs":[{"name":"marketId","type":"uint256","indexed":true,"internalType":"uint256"},{"name":"reason","type":"string","indexed":false,"internalType":"string"}],"anonymous":false},{"type":"event","name":"MarketResolved","inputs":[{"name":"marketId","type":"uint256","indexed":true,"internalType":"uint256"},{"name":"outcome","type":"bool","indexed":false,"internalType":"bool"},{"name":"wasDisputed","type":"bool","indexed":false,"internalType":"bool"}],"anonymous":false},{"type":"event","name":"OutcomeProposed","inputs":[{"name":"marketId","type":"uint256","indexed":true,"internalType":"uint256"},{"name":"proposer","type":"address","indexed":true,"internalType":"address"},{"name":"outcome","type":"bool","indexed":false,"internalType":"bool"},{"name":"bond","type":"uint256","indexed":false,"internalType":"uint256"}],"anonymous":false},{"type":"event","name":"Paused","inputs":[{"name":"by","type":"address","indexed":true,"internalType":"address"}],"anonymous":false},{"type":"event","name":"ProposalDisputed","inputs":[{"name":"marketId","type":"uint256","indexed":true,"internalType":"uint256"},{"name":"disputer","type":"address","indexed":true,"internalType":"address"},{"name":"bond","type":"uint256","indexed":false,"internalType":"uint256"}],"anonymous":false},{"type":"event","name":"ProposerRewardPaid","inputs":[{"name":"marketId","type":"uint256","indexed":true,"internalType":"uint256"},{"name":"proposer","type":"address","indexed":true,"internalType":"address"},{"name":"amount","type":"uint256","indexed":false,"internalType":"uint256"}],"anonymous":false},{"type":"event","name":"SignerReplaced","inputs":[{"name":"oldSigner","type":"address","indexed":true,"internalType":"address"},{"name":"newSigner","type":"address","indexed":true,"internalType":"address"},{"name":"actionId","type":"uint256","indexed":true,"internalType":"uint256"}],"anonymous":false},{"type":"event","name":"Trade","inputs":[{"name":"marketId","type":"uint256","indexed":true,"internalType":"uint256"},{"name":"trader","type":"address","indexed":true,"internalType":"address"},{"name":"isYes","type":"bool","indexed":false,"internalType":"bool"},{"name":"isBuy","type":"bool","indexed":false,"internalType":"bool"},{"name":"shares","type":"uint256","indexed":false,"internalType":"uint256"},{"name":"bnbAmount","type":"uint256","indexed":false,"internalType":"uint256"}],"anonymous":false},{"type":"event","name":"Unpaused","inputs":[{"name":"by","type":"address","indexed":true,"internalType":"address"}],"anonymous":false},{"type":"event","name":"VoteCast","inputs":[{"name":"marketId","type":"uint256","indexed":true,"internalType":"uint256"},{"name":"voter","type":"address","indexed":true,"internalType":"address"},{"name":"outcome","type":"bool","indexed":false,"internalType":"bool"},{"name":"weight","type":"uint256","indexed":false,"internalType":"uint256"}],"anonymous":false},{"type":"event","name":"WithdrawalClaimed","inputs":[{"name":"user","type":"address","indexed":true,"internalType":"address"},{"name":"amount","type":"uint256","indexed":false,"internalType":"uint256"}],"anonymous":false},{"type":"event","name":"WithdrawalCredited","inputs":[{"name":"user","type":"address","indexed":true,"internalType":"address"},{"name":"amount","type":"uint256","indexed":false,"internalType":"uint256"},{"name":"reason","type":"string","indexed":false,"internalType":"string"}],"anonymous":false},{"type":"error","name":"ActionAlreadyExecuted","inputs":[]},{"type":"error","name":"ActionExpired","inputs":[]},{"type":"error","name":"AlreadyClaimed","inputs":[]},{"type":"error","name":"AlreadyConfirmed","inputs":[]},{"type":"error","name":"AlreadyDisputed","inputs":[]},{"type":"error","name":"AlreadyEmergencyRefunded","inputs":[]},{"type":"error","name":"AlreadyProposed","inputs":[]},{"type":"error","name":"AlreadyVoted","inputs":[]},{"type":"error","name":"BelowMinBet","inputs":[]},{"type":"error","name":"ContractNotPaused","inputs":[]},{"type":"error","name":"ContractPaused","inputs":[]},{"type":"error","name":"CreatorPriorityActive","inputs":[]},{"type":"error","name":"DidNotVote","inputs":[]},{"type":"error","name":"DisputeWindowClosed","inputs":[]},{"type":"error","name":"DisputeWindowExpired","inputs":[]},{"type":"error","name":"EmergencyRefundTooEarly","inputs":[]},{"type":"error","name":"EmptyQuestion","inputs":[]},{"type":"error","name":"InsufficientBond","inputs":[]},{"type":"error","name":"InsufficientCreationFee","inputs":[]},{"type":"error","name":"InsufficientPoolBalance","inputs":[]},{"type":"error","name":"InsufficientShares","inputs":[]},{"type":"error","name":"InvalidAddress","inputs":[]},{"type":"error","name":"InvalidBondWinnerShare","inputs":[]},{"type":"error","name":"InvalidDynamicBondBps","inputs":[]},{"type":"error","name":"InvalidExpiryTimestamp","inputs":[]},{"type":"error","name":"InvalidFee","inputs":[]},{"type":"error","name":"InvalidMarketCreationFee","inputs":[]},{"type":"error","name":"InvalidMinBet","inputs":[]},{"type":"error","name":"InvalidMinBondFloor","inputs":[]},{"type":"error","name":"InvalidProposerReward","inputs":[]},{"type":"error","name":"InvalidSignerReplacement","inputs":[]},{"type":"error","name":"JuryFeesAlreadyClaimed","inputs":[]},{"type":"error","name":"MarketAlreadyResolved","inputs":[]},{"type":"error","name":"MarketNotActive","inputs":[]},{"type":"error","name":"MarketNotExpired","inputs":[]},{"type":"error","name":"MarketNotResolved","inputs":[]},{"type":"error","name":"MarketStuck","inputs":[]},{"type":"error","name":"NoJuryFeesPool","inputs":[]},{"type":"error","name":"NoPosition","inputs":[]},{"type":"error","name":"NoSharesForVoting","inputs":[]},{"type":"error","name":"NoTradesToResolve","inputs":[]},{"type":"error","name":"NotEnoughConfirmations","inputs":[]},{"type":"error","name":"NotProposed","inputs":[]},{"type":"error","name":"NotSigner","inputs":[]},{"type":"error","name":"NothingToClaim","inputs":[]},{"type":"error","name":"NothingToWithdraw","inputs":[]},{"type":"error","name":"OneSidedMarket","inputs":[]},{"type":"error","name":"ProposalWindowClosed","inputs":[]},{"type":"error","name":"ReentrancyGuardReentrantCall","inputs":[]},{"type":"error","name":"ResolutionInProgress","inputs":[]},{"type":"error","name":"SignerNotFound","inputs":[]},{"type":"error","name":"SlippageExceeded","inputs":[]},{"type":"error","name":"TransferFailed","inputs":[]},{"type":"error","name":"VotedForLosingOutcome","inputs":[]},{"type":"error","name":"VotingNotActive","inputs":[]},{"type":"error","name":"VotingNotEnded","inputs":[]}],"bytecode":{"object":"0x6080346200023d57601f62005da538819003918201601f19168301926001600160401b039290918385118386101762000241578190604095865283398101906080818303126200023d5781601f820112156200023d578351926060840190811184821017620002415784528290606081019283116200023d57905b828210620002225750506200008f9062000255565b9060019060017f9b779b17422d0df92223018b32b4d1fa46e071723d6817e2486d003becc55f005560646005556032600655601e6007556611c37937e08000806008556009556064600a55611388600b556032600c555f600e556802b5e3af16b1880000600f55680ad78ebc5ac6200000601055681b1ae4d6e2ef500000601155686c6b935b8bbd40000060125569021e19e0c9bab24000006013555f5b600381106200017c575050506001600160a01b031680156200016b57600d80546001600160a01b03191691909117905551615b149081620002918239f35b815163e6c4247b60e01b8152600490fd5b6001600160a01b03806200019183856200026a565b51161562000211579083915f5b828110620001cc5750620001b382856200026a565b5182546001600160a01b0319169116178155016200012d565b90829350620001dd8193866200026a565b511682620001ec83876200026a565b51161462000200578401908492916200019e565b865163e6c4247b60e01b8152600490fd5b855163e6c4247b60e01b8152600490fd5b60208091620002318462000255565b8152019101906200007a565b5f80fd5b634e487b7160e01b5f52604160045260245ffd5b51906001600160a01b03821682036200023d57565b9060038110156200027c5760051b0190565b634e487b7160e01b5f52603260045260245ffdfe610140604052600480361015610013575f80fd5b5f3560e01c806303117ba214613e495780630857f48414613c445780630acbdee314613c275780630dbacc6214613c0b57806312dcf12d14613bb0578063132eb94b14613b9457806314887fdf14613b3f5780631690088c14613b2257806316fe6929146138e357806317773ebb146138c65780632079fb9a14613894578063213a0d4f146136f357806322dcd13e146136d65780632d162369146136b95780632ef1bdfa1461369c5780633173cd2614612673578063366b73401461367e578063379607f51461349257806338d9c53b146132ec578063399af502146130ee5780633fbf2ccd146130ca57806347b0f737146130ad5780635c975abb1461308b5780635cbd9d4314612e885780635de97e1114612e6b57806361a895df14612e4a57806361d027b314612e2257806366eb9cec14612d7c5780636c82169d1461266e5780636d33bb1e14612bd557806370e5deb914612a005780637740a6801461266e5780637ee8b2f81461074457806386d6282c146128a857806387f729161461288657806388553a2a146126785780638ff656511461267357806394a29beb1461266e57806394c38bca1461254c5780639619367d1461252f5780639716919b1461251257806397e02ee8146124f55780639ba85fae14612494578063a260a02a14612326578063a4563e0314612477578063a63d914f1461234c578063a732e4c91461232b578063a844a13414612326578063a9f6b058146120bf578063afa40bbd1461209e578063b05ef4541461205c578063b1283e7714611e54578063b1b84b4914611e37578063b30dbfb214611e1c578063b7f12f6a14611df7578063bd149d7114611dda578063bd44240514611c51578063be04f84f146119cf578063bff9d040146119b3578063c0c1cf55146118d3578063c2f573861461105a578063c35464851461184b578063c598b2f9146107b5578063c651af121461182e578063c655a0eb14611667578063c7f758a8146115e1578063c9d27afe14611468578063c9d2d5de14611418578063d05a18e91461127c578063d1d34bf3146110e6578063d29f541d1461105f578063d55be8c61461105a578063d671484c1461103d578063d67d643e14611020578063d750e82e14610e75578063d7dfd97114610e58578063dffad4e214610b6c578063e13d1aaa14610b51578063e1a4521814610b35578063e1cd04b414610a6f578063e3a96cbd146109e7578063e684d71814610953578063e7176d3114610923578063eb44fdd314610826578063ec5a711a146107ed578063ec763653146107b5578063ec97908214610798578063f02d63721461077c578063f3f4370314610744578063f585dc5714610728578063fae8a3d6146105ac5763fffa080a1461040f575f80fd5b346105a8575f3660031901126105a85761042833614a50565b156105995760405161043981613f49565b5f8152600380549161044a83614291565b8255825f5260209380855260405f2060ff19928484835416178255600192838301918051916001600160401b03831161058657506104928261048c8554613ec7565b85614a8d565b8890601f83116001146105235791806104c59260059695945f92610518575b50508160011b915f199060031b1c19161790565b90555b8260028201554285820155335f5201855260405f2091825416179055604051908152815f80516020615a1f833981519152843393a333815f80516020615abf8339815191525f80a3604051908152f35b015190505f806104b1565b9392918591601f19821690845f528b5f20915f5b8d828210610570575050968360059810610559575b505050811b0190556104c8565b01515f19838b1b60f8161c191690555f808061054c565b838a015185558a96909401939283019201610537565b604190634e487b7160e01b5f525260245ffd5b60405163143606b960e31b8152fd5b5f80fd5b50346105a8575f3660031901126105a8576105c633614a50565b1561059957604051906105d882613f49565b5f8252600354906105e882614291565b600355815f5260209281845260405f209060ff19918383825416178155600191828201908051906001600160401b0382116107155761062b8261048c8554613ec7565b8890601f83116001146106b157918061065d9260059695945f926105185750508160011b915f199060031b1c19161790565b90555b826002820155426003820155335f5201855260405f2091825416179055604051908152815f80516020615a1f833981519152843393a333815f80516020615abf8339815191525f80a3604051908152f35b9392918591601f19821690845f528b5f20915f5b8d8282106106ff5750509683600598106106e7575b505050811b019055610660565b01515f1960f88460031b161c191690555f80806106da565b838a015185558a969094019392830192016106c5565b604187634e487b7160e01b5f525260245ffd5b346105a8575f3660031901126105a85760206040516107088152f35b346105a85760203660031901126105a8576001600160a01b03610765614104565b165f526018602052602060405f2054604051908152f35b346105a8575f3660031901126105a8576020604051611f408152f35b346105a8575f3660031901126105a8576020601554604051908152f35b346105a85760203660031901126105a8576001600160a01b036107d6614104565b165f526019602052602060405f2054604051908152f35b50346105a85760203660031901126105a857355f526016602052602061081560405f20614c04565b604051906108228161419a565b8152f35b50346105a85760203660031901126105a85780355f5260166020526108c060405f209160018060a01b03908301541660ff600584015460068501546007860154600887015491600a880154936108ea61087e8a613f85565b6108dc61088d60018d01613f85565b9b6108ce6108a960036108a260028501613f85565b9301613f85565b936040519e8f9e8f92610160808552840190614048565b916020818403910152614048565b8c810360408e015290614048565b908a820360608c0152614048565b96608089015260a088015260c087015260e0860152610100850152818160081c16151561012085015260101c1615156101408301520390f35b50346105a85760203660031901126105a85761093f90356149ff565b604080519215158352602083019190915290f35b50346105a85760403660031901126105a85761096d61411a565b90355f52601760205260405f209060018060a01b03165f5260205260e060405f2060ff8154916002600182015491015490604051938452602084015281811615156040840152818160081c1615156060840152818160101c1615156080840152818160181c16151560a084015260201c16151560c0820152f35b50346105a85760203660031901126105a85780355f52601660205260405f2060018060a01b03600d8201541690600e81015490600f810154610e10830190818411610a5c5760c095506011601084015493015493604051958652602086015260408501526060840152608083015260a0820152f35b601186634e487b7160e01b5f525260245ffd5b50346105a8575f3660031901126105a857610a88614bd5565b335f52601960205260405f20548015610b2557335f5260196020525f6040812055610ab581601b54614212565b601b555f80808084335af1610ac861421f565b5015610b15576020906040518181527fd046302bdc39599e60a5981e59227dcd1c643f512f56f2e984390c3ac6eadedb833392a260015f80516020615a3f83398151915255604051908152f35b506040516312171d8360e31b8152fd5b50604051630686827b60e51b8152fd5b346105a8575f3660031901126105a85760206040516127108152f35b346105a8575f3660031901126105a857602060405160328152f35b50346105a857610b7b366140b8565b91610b84614bd5565b60ff60145416610e4757805f526020936016855260405f20610ba581614c04565b610bae8161419a565b610e3757825f526017865260405f20335f52865260405f209084825410610e2657600681018054926007830154610c1088610c0a81610c04610bfe60098a0154610bf8818d6141c0565b976141c0565b866141c0565b94614212565b92614212565b90662386f26fc10000808a02908a8204148a151715610e135790610c33916141e1565b670de0b6b3a764000091828102928184041490151715610e005790610c57916141f4565b60088401908154808211610def576127109485610c76600554856141e1565b0495610c84600654856141e1565b0497610c99610c938a896141c0565b85614212565b9c8d10610dde57918a98979695949391610cb68d610cbd95614212565b9055614212565b9055610cca888254614212565b905580610da0575b50878483610d4a575b50505050505f80808087335af1610cf061421f565b5015610d3b575060405191600183525f8584015260408301528260608301525f80516020615a7f83398151915260803393a360015f80516020615a3f83398151915255604051908152f35b6040516312171d8360e31b8152fd5b5f805160206159ff833981519152920160018060a01b0390818154165f526019835260405f20610d7b8682546141c0565b9055610d8985601b546141c0565b601b55541692604051908152a3815f808784610cdb565b5f808093949550809260018060a01b03600d54165af1610dbe61421f565b5015610dcd579083915f610cd2565b6040516312171d8360e31b81528390fd5b604051638199f5f360e01b81528a90fd5b60405163bc6072f160e01b81528890fd5b601187634e487b7160e01b5f525260245ffd5b601188634e487b7160e01b5f525260245ffd5b604051633999656760e01b81528390fd5b50604051635a90bb8d60e11b8152fd5b60405163ab35696f60e01b81528490fd5b346105a8575f3660031901126105a8576020600b54604051908152f35b50346105a857602090816003193601126105a8578035610e9433614a50565b1561101057603281108015611005575b610ff5576040519083820152828152610ebc81613f2e565b60035491610ec983614291565b600355825f5280845260405f2060ff1992600684835416178255600192838301918051916001600160401b0383116105865750610f0a8261048c8554613ec7565b8790601f8311600114610f91579180610f3c9260059695945f926105185750508160011b915f199060031b1c19161790565b90555b826002820155426003820155335f5201845260405f209182541617905560405160068152815f80516020615a1f833981519152843393a333815f80516020615abf8339815191525f80a3604051908152f35b9392918591601f19821690845f528a5f20915f5b8c828210610fdf575050968360059810610fc7575b505050811b019055610f3f565b01515f1960f88460031b161c191690555f8080610fba565b838a015185558a96909401939283019201610fa5565b5060405163ba344cfd60e01b8152fd5b506101f48111610ea4565b5060405163143606b960e31b8152fd5b346105a8575f3660031901126105a8576020600a54604051908152f35b346105a8575f3660031901126105a8576020601154604051908152f35b6141a4565b50346105a85760403660031901126105a85761107961411a565b90355f52601760205260405f209060018060a01b03165f5260205260c060405f2060ff8154916002600182015491015490604051938452602084015281811615156040840152818160081c1615156060840152818160101c161515608084015260181c16151560a0820152f35b50346105a857602090816003193601126105a857611102614104565b61110b33614a50565b15611010576001600160a01b0316801561126c57604051908382015282815261113381613f2e565b6003549161114083614291565b600355825f5280845260405f2060ff1992600284835416178255600192838301918051916001600160401b03831161058657506111818261048c8554613ec7565b8790601f83116001146112085791806111b39260059695945f926105185750508160011b915f199060031b1c19161790565b90555b826002820155426003820155335f5201845260405f209182541617905560405160028152815f80516020615a1f833981519152843393a333815f80516020615abf8339815191525f80a3604051908152f35b9392918591601f19821690845f528a5f20915f5b8c82821061125657505096836005981061123e575b505050811b0190556111b6565b01515f1960f88460031b161c191690555f8080611231565b838a015185558a9690940193928301920161121c565b5060405163e6c4247b60e01b8152fd5b50346105a857602090816003193601126105a857803561129b33614a50565b15611010576107d08110801561140d575b6113fd5760405190838201528281526112c481613f2e565b600354916112d183614291565b600355825f5280845260405f2060ff1992600784835416178255600192838301918051916001600160401b03831161058657506113128261048c8554613ec7565b8790601f83116001146113995791806113449260059695945f926105185750508160011b915f199060031b1c19161790565b90555b826002820155426003820155335f5201845260405f209182541617905560405160078152815f80516020615a1f833981519152843393a333815f80516020615abf8339815191525f80a3604051908152f35b9392918591601f19821690845f528a5f20915f5b8c8282106113e75750509683600598106113cf575b505050811b019055611347565b01515f1960f88460031b161c191690555f80806113c2565b838a015185558a969094019392830192016113ad565b50604051630c7311a160e31b8152fd5b50611f4081116112ac565b50346105a85760203660031901126105a857611432614bd5565b60ff601454166114595761144690356143a1565b60015f80516020615a3f83398151915255005b60405163ab35696f60e01b8152fd5b50346105a85760403660031901126105a8578035611484614086565b9160ff6014541661145957815f52601660205260405f2060036114a682614c04565b6114af8161419a565b036115be57600e810154610e1081018091116115ce5742116115be57825f52601760205260405f20335f5260205260405f20600281019081549060ff8260101c166115ad578060016115059254910154906141c0565b93841561159e5750917fcbdf6214089cba887ecbf35a0b6a734589959c9763342c756bb2a80ca2bc9f6e9391620100006115849463ff00000089151560181b169063ffff0000191617179055855f14611589576010016115668282546141c0565b90555b60408051951515865260208601919091523394918291820190565b0390a3005b6011016115978282546141c0565b9055611569565b60405163922b788560e01b8152fd5b604051637c9a1cf960e01b81528590fd5b50604051639b8cc47560e01b8152fd5b601183634e487b7160e01b5f525260245ffd5b50346105a85760203660031901126105a85780355f52601660205260405f20600a81015490600c600b8201549101546107088201918281116116545760408051601886901c6001600160a01b0316815260b89590951c60ff16151560208601528401526060830152608082015260a09150f35b601185634e487b7160e01b5f525260245ffd5b50346105a85760403660031901126105a85780359060058210156105a85760243561169133614a50565b1561101057670de0b6b3a76400008110801561181b575b61180b57604051906020936116bc8161419a565b848301526040820152604081526116d281613eff565b600354916116df83614291565b600355825f5280845260405f2060ff1992600884835416178255600192838301918051916001600160401b03831161058657506117208261048c8554613ec7565b8790601f83116001146117a75791806117529260059695945f926105185750508160011b915f199060031b1c19161790565b90555b826002820155426003820155335f5201845260405f209182541617905560405160088152815f80516020615a1f833981519152843393a333815f80516020615abf8339815191525f80a3604051908152f35b9392918591601f19821690845f528a5f20915f5b8c8282106117f55750509683600598106117dd575b505050811b019055611755565b01515f1960f88460031b161c191690555f80806117d0565b838a015185558a969094019392830192016117bb565b506040516358d620b360e01b8152fd5b5069032d26d12e980b60000081116116a8565b346105a8575f3660031901126105a8576020601b54604051908152f35b50346105a85760203660031901126105a85780355f52601660205260405f2061188c60068201546118866009600785015494015480926141c0565b926141c0565b90662386f26fc100009282840293840483036118c05760206118b8856118b286866141c0565b906141f4565b604051908152f35b601190634e487b7160e01b5f525260245ffd5b50346105a85760203660031901126105a85780356118f033614a50565b1561101057805f528160205260405f2060ff83820154166119a2576003810154610e10810180911161198f57421161197f5760ff815416600b81101561196c57600a0361196157600260ff815b16910154106119515761194f90615106565b005b50604051635c9885ab60e11b8152fd5b600260ff600361193d565b602184634e487b7160e01b5f525260245ffd5b604051621331cf60e01b81528390fd5b601184634e487b7160e01b5f525260245ffd5b604051631b50735b60e21b81528390fd5b346105a8575f3660031901126105a85760206040516107d08152f35b506101003660031901126105a8576001600160401b0381358181116105a8576119fb9036908401614152565b91906024358281116105a857611a149036908601614152565b9390916044358481116105a857611a2e9036908801614152565b9190946064359081116105a857611a489036908901614152565b9060a4359360058510156105a85760c43597881515998a8a036105a857611a6d614bd5565b60ff60145416611c4057600e54803410611c2f57611a8b9034614212565b986008548a10611c1e57611aa29860843597614c5a565b92835f526020916016835260405f2090611acc612710611ac4600554846141e1565b048092614212565b600683019586546007850194611aec865492848685600986015493614b60565b9860e4358a10611c0d57611b4c968a600894611b42965f14611bd75750611b15915082546141c0565b9055895f526017885260405f20335f52885260405f20611b368a82546141c0565b90555b019182546141c0565b9055600e546141c0565b80611b9c575b506040809550519081526001828201528285820152346060820152835f80516020615a7f83398151915260803393a360015f80516020615a3f833981519152558351928352820152f35b600d545f918291829182916001600160a01b03165af1611bba61421f565b5015611bc65784611b52565b6040516312171d8360e31b81528590fd5b611be29293506141c0565b9055895f526017885260405f20335f528852600160405f2001611c068a82546141c0565b9055611b39565b604051638199f5f360e01b81528c90fd5b604051635688ffb360e01b81528d90fd5b604051630535b74760e41b81528d90fd5b60405163ab35696f60e01b81528c90fd5b50346105a857602090816003193601126105a8578035611c7033614a50565b156110105760c88111611dca576040519083820152828152611c9181613f2e565b60035491611c9e83614291565b600355825f5280845260405f2060ff1992600984835416178255600192838301918051916001600160401b0383116105865750611cdf8261048c8554613ec7565b8790601f8311600114611d66579180611d119260059695945f926105185750508160011b915f199060031b1c19161790565b90555b826002820155426003820155335f5201845260405f209182541617905560405160098152815f80516020615a1f833981519152843393a333815f80516020615abf8339815191525f80a3604051908152f35b9392918591601f19821690845f528a5f20915f5b8c828210611db4575050968360059810611d9c575b505050811b019055611d14565b01515f1960f88460031b161c191690555f8080611d8f565b838a015185558a96909401939283019201611d7a565b506040516379d3ee4160e11b8152fd5b346105a8575f3660031901126105a8576020600c54604051908152f35b346105a8576040611e10611e0a36614095565b9161429f565b82519182526020820152f35b346105a8575f3660031901126105a857602060405160648152f35b346105a8575f3660031901126105a8576020601254604051908152f35b50346105a85760203660031901126105a85780355f52601660205260405f20611e7c81613f85565b611e8860018301613f85565b61010052611e9860028301613f85565b61012052611ea860038301613f85565b92600160a01b60019003908301541660e0526005820154926006830154600784015460088501546009860154600a87015490600b88015492600c89015494600160a01b60019003600d8b01541696600e8b015498600f8c01549a60108d01549c60118101546080526012015460a05260405160c0526102e08060c0515260c05101611f3291614048565b60c051810360c051602001526101005190611f4c91614048565b60c051810360c051604001526101205190611f6691614048565b60c051810360c05160600152611f7b91614048565b9b60e05160c0516080015260c05160a0015260c05160c0015260c05160e0015260c051610100015260c051610120015260ff8116611fb89061419a565b60ff811660c05161014001528060081c60ff16151560c05161016001528060101c60ff16151560c0516101800152600160a01b600190038160181c1660c0516101a0015260b81c60ff16151560c0516101c0015260c0516101e0015260c051610200015260c051610220015260c051610240015260c051610260015260c051610280015260805160c0516102a0015260a05160c0516102c0015260c051900360c051f35b50346105a85760203660031901126105a85780355f526016602052600c60405f200154908160011b91808304600214901517156118c057602082604051908152f35b346105a8575f3660031901126105a8576020604051662386f26fc100008152f35b506120c9366140ee565b6120d1614bd5565b60ff6014541661231557600854341061230457815f526020916016835260405f206120fb81614c04565b6121048161419a565b6122f3576127109081612119600554346141e1565b0491612127600654346141e1565b049161213c61213684836141c0565b34614212565b6006830154600784019081549061217561216f61216861216160098a015480956141c0565b93856141c0565b80936141c0565b856141e1565b670de0b6b3a7640000908181029181830414901517156122e057662386f26fc1000091808302928304036122e057906121ad916141f4565b978810610dde57876121be916141c0565b90556121cf600884019182546141c0565b9055835f526017865260405f20335f528652600160405f20016121f38682546141c0565b9055806122a5575b5084839495968361224f575b508584604051905f82526001848301528260408301523460608301525f80516020615a7f83398151915260803393a360015f80516020615a3f83398151915255604051908152f35b5f805160206159ff833981519152920160018060a01b0390818154165f526019835260405f206122808682546141c0565b905561228e85601b546141c0565b601b55541692604051908152a3805f808581612207565b600d545f918291829182916001600160a01b03165af16122c361421f565b50156122cf575f6121fb565b6040516312171d8360e31b81528690fd5b60118c634e487b7160e01b5f525260245ffd5b604051635a90bb8d60e11b81528590fd5b604051635688ffb360e01b81528390fd5b60405163ab35696f60e01b81528390fd5b61417f565b346105a8575f3660031901126105a85760206040516611c37937e080008152f35b50346105a85760203660031901126105a85780359061236a33614a50565b1561059957815f528060205260405f209060ff8183015416612468576003820154610e1081018091116124555742116124475760058201335f528060205260ff60405f20541661243757335f5260205260405f20600160ff1982541617905560ff60028301926123da8454614291565b80945533855f80516020615abf8339815191525f80a3541690600b8210156124245750600a0361241b5760ff60025b16111561241257005b61194f90615106565b60ff6003612409565b602190634e487b7160e01b5f525260245ffd5b50604051635f8a9c0b60e01b8152fd5b604051621331cf60e01b8152fd5b601182634e487b7160e01b5f525260245ffd5b604051631b50735b60e21b8152fd5b346105a8575f3660031901126105a8576020601a54604051908152f35b50346105a85760203660031901126105a85780355f52601660205260405f206124cf60068201546118866009600785015494015480926141c0565b90662386f26fc100009281840293840482036118c05760206118b8856118b286866141c0565b346105a8575f3660031901126105a8576020601354604051908152f35b346105a8575f3660031901126105a8576020600f54604051908152f35b346105a8575f3660031901126105a8576020600854604051908152f35b5060c03660031901126105a8576001600160401b0381358181116105a8576125779036908401614152565b91906024358281116105a8576125909036908601614152565b6044939193358281116105a8576125aa9036908801614152565b90926064359081116105a8576125c39036908901614152565b93909260a4359660058810156105a8576125db614bd5565b60ff6014541661265d57600e54341061264c576125fb9860843597614c5a565b3461261d575b60209060015f80516020615a3f83398151915255604051908152f35b5f8080803460018060a01b03600d54165af161263761421f565b5061260157506040516312171d8360e31b8152fd5b604051630535b74760e41b81528a90fd5b60405163ab35696f60e01b81528a90fd5b614130565b6140d2565b5060403660031901126105a857803561268f614086565b91612698614bd5565b60ff6014541661145957815f52601660205260405f20906126b882614c04565b6126c18161419a565b801561287657806126d360019261419a565b0361286757600682015415801561285b575b61284c5760058201546201518081018082116115ce576201356082019081116115ce5742101561283c57610258810180911161245557421061281a575b61272b8361425d565b9161271061273b600754346141e1565b04906127478234614212565b93841061280957600a810180546301000000600160c01b0319163360181b6301000000600160b81b03161787151560b81b60ff60b81b1617905542600b820155600c01839055806127df575b5050604080519315158452602084019190915233927f6c7a43e53c92053a64485f76aa8f94f52dc1de8d1b1d03991e1bbcbf8c0517999190a360015f80516020615a3f83398151915255005b600d545f918291829182916001600160a01b03165af16127fd61421f565b5015610d3b5780612793565b60405163e92c469f60e01b81528390fd5b808201546001600160a01b0316331461272257604051630c93731360e11b8152fd5b50604051633c79f67960e01b8152fd5b6040516326c3daf960e01b8152fd5b506007820154156126e5565b604051633ca148c360e11b8152fd5b5060405163671eb0c560e01b8152fd5b346105a8575f3660031901126105a8576020604051670de0b6b3a76400008152f35b5060203660031901126105a85780356128bf614bd5565b60ff601454166129f057805f52601660205260405f209160026128e184614c04565b6128ea8161419a565b036129e157600b83015461070881018091116124555742116129d257600c830154928360011b93808504600214901517156124555761271061292e600754346141e1565b049061293a8234614212565b94851061280957600d810180546001600160a01b0319163317905542600e820155600f01849055806129a8575b50506040519182527fde1573422d8e8f907aa39b232e67b89a948f3a0367e19ca12e2e761ec229750160203393a360015f80516020615a3f83398151915255005b600d545f918291829182916001600160a01b03165af16129c661421f565b5015610d3b5780612967565b60405163234c0ffd60e21b8152fd5b6040516379543eaf60e11b8152fd5b5060405163ab35696f60e01b8152fd5b50346105a857602090816003193601126105a8578035612a1e614bd5565b805f526016835260405f20916005830154620151808101809111612455574210612bc657600a83015460ff8160081c16612bb65760ff60145416159081612ba0575b50612b9157815f526017845260405f20335f52845260405f20600281019081549460ff8660081c16612b8057815492612a9f60018401948554906141c0565b8015612b6f57915f94939185936006830191610100612adf845495612ada6008612acf60078401998a54906141c0565b9201958654906141e1565b6141f4565b9b61ff001916179055612af38a8254614212565b9055612b0183548254614212565b9055612b0f84548254614212565b905555555f80808086335af1612b2361421f565b5015610d3b5750604051908282527f49def7ae9132a7281c47912927b25c31186e59b9488226d422e1a370e9c2d27f843393a360015f80516020615a3f83398151915255604051908152f35b604051632afc3c0d60e21b81528690fd5b60405163438da29b60e11b81528490fd5b604051631162e7df60e21b8152fd5b60181c6001600160a01b0316151590505f612a60565b5060405163aa43cb2d60e01b8152fd5b6040516321ec2ba160e21b8152fd5b50346105a857602090816003193601126105a8578035612bf433614a50565b15611010576611c37937e0800081108015612d6b575b612d5b576040519083820152828152612c2281613f2e565b60035491612c2f83614291565b600355825f5280845260405f2060ff1992600584835416178255600192838301918051916001600160401b0383116105865750612c708261048c8554613ec7565b8790601f8311600114612cf7579180612ca29260059695945f926105185750508160011b915f199060031b1c19161790565b90555b826002820155426003820155335f5201845260405f209182541617905560405160058152815f80516020615a1f833981519152843393a333815f80516020615abf8339815191525f80a3604051908152f35b9392918591601f19821690845f528a5f20915f5b8c828210612d45575050968360059810612d2d575b505050811b019055612ca5565b01515f1960f88460031b161c191690555f8080612d20565b838a015185558a96909401939283019201612d0b565b5060405163329b7bc160e11b8152fd5b5067016345785d8a00008111612c0a565b50346105a8575f3660031901126105a857612d95614bd5565b335f52601860205260405f20548015610b2557335f5260186020525f6040812055612dc281601a54614212565b601a555f80808084335af1612dd561421f565b5015610b15576020906040518181527fd3f990ddd0f1a820ca21d6f29136b25c504220122117b21de9ede5602b99c586833392a260015f80516020615a3f83398151915255604051908152f35b346105a8575f3660031901126105a857600d546040516001600160a01b039091168152602090f35b346105a8575f3660031901126105a857602060405166038d7ea4c680008152f35b346105a8575f3660031901126105a8576020600754604051908152f35b50346105a85760403660031901126105a857612ea2614104565b90612eab61411a565b91612eb533614a50565b15611010576001600160a01b038381169190821561307a5781169382851461306957612ee090614a50565b61305857612eed90614a50565b15613048576040519060209384830152604082015260408152612f0f81613eff565b60035491612f1c83614291565b600355825f5280845260405f2060ff1992600a84835416178255600192838301918051916001600160401b0383116105865750612f5d8261048c8554613ec7565b8790601f8311600114612fe4579180612f8f9260059695945f926105185750508160011b915f199060031b1c19161790565b90555b826002820155426003820155335f5201845260405f2091825416179055604051600a8152815f80516020615a1f833981519152843393a333815f80516020615abf8339815191525f80a3604051908152f35b9392918591601f19821690845f528a5f20915f5b8c82821061303257505096836005981061301a575b505050811b019055612f92565b01515f1960f88460031b161c191690555f808061300d565b838a015185558a96909401939283019201612ff8565b5060405163bdb712ef60e01b8152fd5b6040516378327bb360e01b81528390fd5b6040516378327bb360e01b81528490fd5b60405163e6c4247b60e01b81528490fd5b346105a8575f3660031901126105a857602060ff601454166040519015158152f35b346105a8575f3660031901126105a8576020601054604051908152f35b346105a8575f3660031901126105a857602060405169032d26d12e980b6000008152f35b506130f8366140ee565b613100614bd5565b60ff6014541661231557600854341061230457815f526020916016835260405f2061312a81614c04565b6131338161419a565b6122f3576127109081613148600554346141e1565b0491613156600654346141e1565b049161316561213684836141c0565b600683018054600785015461319461216f61318e600989015461318881876141c0565b946141c0565b836141c0565b670de0b6b3a7640000908181029181830414901517156122e057662386f26fc1000091808302928304036122e057906131cc916141f4565b978810610dde57876131dd916141c0565b90556131ee600884019182546141c0565b9055835f526017865260405f20335f52865260405f2061320f8682546141c0565b9055806132c2575b5084839495968361326c575b50858460405190600182526001848301528260408301523460608301525f80516020615a7f83398151915260803393a360015f80516020615a3f83398151915255604051908152f35b5f805160206159ff833981519152920160018060a01b0390818154165f526019835260405f2061329d8682546141c0565b90556132ab85601b546141c0565b601b55541692604051908152a3805f808581613223565b600d545f918291829182916001600160a01b03165af16132e061421f565b50156122cf575f613217565b50346105a857602090816003193601126105a857803561330b33614a50565b156110105766038d7ea4c6800081108015613481575b61347157604051908382015282815261333981613f2e565b6003549161334683614291565b600355825f5280845260405f2060019260ff19928484845416178355848301918051916001600160401b03831161058657506133868261048c8554613ec7565b8790601f831160011461340d5791806133b89260059695945f926105185750508160011b915f199060031b1c19161790565b90555b836002820155426003820155335f520184528160405f2091825416179055604051908152815f80516020615a1f833981519152843393a333815f80516020615abf8339815191525f80a3604051908152f35b9392918691601f19821690845f528a5f20915f5b8c82821061345b575050968360059810613443575b505050811b0190556133bb565b01515f1960f88460031b161c191690555f8080613436565b838a015185558b96909401939283019201613421565b50604051637cc0badd60e11b8152fd5b5067016345785d8a00008111613321565b50346105a857602090816003193601126105a85780356134b0614bd5565b805f526016835260405f2091600a830180549360ff8560081c161561366d57835f526017865260405f20335f52865260405f2090600282019283549660ff881661365c5760ff8860081c1661364b5760101c60ff169283156136415754925b83156136305760ff9190156136265760068301545b61356561353a6008860192612ada8454896141e1565b612710613549600754836141e1565b049760016135578a84614212565b9c8719161790558254614212565b90555460101c16156136105760066135809101918254614212565b90555b806135e6575b505f80808086335af161359a61421f565b5015610d3b5750604051908282527f4ec90e965519d92681267467f775ada5bd214aa92c0dc93d90a5e880ce9ed026843393a360015f80516020615a3f83398151915255604051908152f35b600d545f918291829182916001600160a01b03165af161360461421f565b5015610d3b575f613589565b600761361f9101918254614212565b9055613583565b6007830154613524565b6040516312d37ee560e31b81528690fd5b600101549261350f565b60405163438da29b60e11b81528690fd5b604051630c8d9eab60e31b81528690fd5b60405163174b639360e11b81528390fd5b50346105a85760203660031901126105a8576118b86020913561425d565b346105a8575f3660031901126105a8576020600e54604051908152f35b346105a8575f3660031901126105a8576020600354604051908152f35b346105a8575f3660031901126105a8576020600554604051908152f35b50346105a857602090816003193601126105a8578035613711614bd5565b805f526016835260405f2091600a8301549260ff8460081c1615613884576012810154801561387357835f526017865260405f20335f52865260405f2090600282019283549660ff8860101c16156138625760ff9060101c1680151560ff8960181c161515036138515760ff888a1c1661384057916137ab612ada926137b195945f146138365760100154935b60018154910154906141c0565b906141e1565b9384156138255764ff0000000019166401000000001790555f80808086335af16137d961421f565b5015610d3b5750604051908282527f54586e5b9d70496b1e07fb55bb61b9a7c08e63147a4bc148c78558d01dbf66ae843393a360015f80516020615a3f83398151915255604051908152f35b6040516312d37ee560e31b81528390fd5b601101549361379e565b6040516335f5f4c360e11b81528690fd5b604051637c30a9c760e11b81528690fd5b6040516336656e4360e01b81528690fd5b60405163589883ef60e11b81528390fd5b5060405163174b639360e11b8152fd5b50346105a85760203660031901126105a8573560038110156105a857546040516001600160a01b039091168152602090f35b346105a8575f3660031901126105a8576020600654604051908152f35b50346105a8576138f2366140b8565b916138fb614bd5565b60ff60145416610e4757805f526020936016855260405f2061391c81614c04565b6139258161419a565b610e3757825f526017865260405f20335f528652600160405f20019084825410610e2657600681015491600782019081549361398288610c0a81610c0461397b61397460098b015480986141c0565b968b6141c0565b80966141c0565b90662386f26fc10000808a02908a8204148a151715610e1357906139a5916141e1565b670de0b6b3a764000091828102928184041490151715610e0057906139c9916141f4565b60088401908154808211610def5761271094856139e8600554856141e1565b04956139f6600654856141e1565b0497613a05610c938a896141c0565b9c8d10610dde57918a98979695949391610cb68d613a2295614212565b9055613a2f888254614212565b905580613af5575b50878483613a9f575b50505050505f80808087335af1613a5561421f565b5015610d3b5750604051915f83525f8584015260408301528260608301525f80516020615a7f83398151915260803393a360015f80516020615a3f83398151915255604051908152f35b5f805160206159ff833981519152920160018060a01b0390818154165f526019835260405f20613ad08682546141c0565b9055613ade85601b546141c0565b601b55541692604051908152a3815f808784613a40565b5f808093949550809260018060a01b03600d54165af1613b1361421f565b5015610dcd579083915f613a37565b346105a8575f3660031901126105a8576020600954604051908152f35b346105a85760206118b8613b5236614095565b90915f526016845260405f20612710613b7361216f600554600654906141c0565b04926009613b8b600684015495600785015493614212565b92015493614b60565b346105a8575f3660031901126105a85760206040516102588152f35b346105a85760206118b8613be9613bc636614095565b90915f526016855260405f20916006830154926009600782015491015493614adc565b612710613c04613bfe600554600654906141c0565b836141e1565b0490614212565b346105a8575f3660031901126105a8576020604051611c208152f35b346105a8575f3660031901126105a8576020604051620151808152f35b50346105a85760403660031901126105a857803590808210156105a85760243591613c6e33614a50565b15611010575f9281613deb576101f48111613dda575b6040519160209461196c5784830152604082015260408152613ca581613eff565b60035491613cb283614291565b600355825f5280845260405f2060ff1992838254168255600192838301918051916001600160401b0383116105865750613cf08261048c8554613ec7565b8790601f8311600114613d76579180613d229260059695945f926105185750508160011b915f199060031b1c19161790565b90555b826002820155426003820155335f5201845260405f20918254161790556040515f8152815f80516020615a1f833981519152843393a333815f80516020615abf8339815191525f80a3604051908152f35b9392918591601f19821690845f528a5f20915f5b8c828210613dc4575050968360059810613dac575b505050811b019055613d25565b01515f1960f88460031b161c191690555f8080613d9f565b838a015185558a96909401939283019201613d8a565b6040516358d620b360e01b81528390fd5b5f935060018203613e045760c88111613dda575b613c84565b5f935060028203613e1c5760648111613dda57613c84565b5f93506002198201613dff5767016345785d8a0000811115613dff5760405163eb8a0a9360e01b81528390fd5b50346105a85760203660031901126105a85780613ea091355f528060205260405f209060ff82541691613e7e60018201613f85565b90613eb160ff6002830154946003840154930154169260405196878097614027565b60a0602087015260a0860190614048565b9260408501526060840152151560808301520390f35b90600182811c92168015613ef5575b6020831014613ee157565b634e487b7160e01b5f52602260045260245ffd5b91607f1691613ed6565b606081019081106001600160401b03821117613f1a57604052565b634e487b7160e01b5f52604160045260245ffd5b604081019081106001600160401b03821117613f1a57604052565b602081019081106001600160401b03821117613f1a57604052565b90601f801991011681019081106001600160401b03821117613f1a57604052565b9060405191825f8254613f9781613ec7565b908184526020946001916001811690815f146140055750600114613fc7575b505050613fc592500383613f64565b565b5f90815285812095935091905b818310613fed575050613fc593508201015f8080613fb6565b85548884018501529485019487945091830191613fd4565b92505050613fc594925060ff191682840152151560051b8201015f8080613fb6565b90600b8210156140345752565b634e487b7160e01b5f52602160045260245ffd5b91908251928382525f5b848110614072575050825f602080949584010152601f8019910116010190565b602081830181015184830182015201614052565b6024359081151582036105a857565b60609060031901126105a857600435906024359060443580151581036105a85790565b60609060031901126105a857600435906024359060443590565b346105a8575f3660031901126105a8576020604051610e108152f35b60409060031901126105a8576004359060243590565b600435906001600160a01b03821682036105a857565b602435906001600160a01b03821682036105a857565b346105a8575f3660031901126105a857602060405167016345785d8a00008152f35b9181601f840112156105a8578235916001600160401b0383116105a857602083818601950101116105a857565b346105a8575f3660031901126105a857602060405160c88152f35b6005111561403457565b346105a8575f3660031901126105a85760206040516101f48152f35b919082018092116141cd57565b634e487b7160e01b5f52601160045260245ffd5b818102929181159184041417156141cd57565b81156141fe570490565b634e487b7160e01b5f52601260045260245ffd5b919082039182116141cd57565b3d15614258573d906001600160401b038211613f1a576040519161424d601f8201601f191660200184613f64565b82523d5f602084013e565b606090565b5f52601660205261271061427b600860405f200154600a54906141e1565b046009548082115f1461428c575090565b905090565b5f1981146141cd5760010190565b92915f935f52601660205260405f2090821561439657600682015460078301549060098401549360086142d58686898787614adc565b910154908181111561437257505f95905b81871061431a575050846142fd575b505050509190565b84965093613be993929161431095614adc565b915f8080806142f5565b909561432687826141c0565b60018082018092116141cd571c90826143428888858989614adc565b116143505750955b906142e6565b96505f1981019081111561434a57634e487b7160e01b5f52601160045260245ffd5b945050505050614393919350612710613c04613bfe600554600654906141c0565b90565b50505090505f905f90565b805f526020601681526040805f20916143b983614c04565b6143c28161419a565b6002810361469c5750600b83015461070881018091116141cd5742111561468b57600a83019084825460ff8160b81c165f146146815760068601545b1561456f57509060805f927fdc2ddf2d5ba9d7ae2e3763f353bea15c1618e60da8ac6eca3b14d806ce8a33169661445d60ff61010061ff00198954161780895560b81c16879062ff0000825491151560101b169062ff00001916179055565b836008820191600c8354916127106144768354856141e1565b049485151593868561455c575b50505001876144938583546141c0565b91555f80516020615a5f83398151915260018060a01b03998a815460181c168a52601885528b8a206144c68482546141c0565b90556144d483601a546141c0565b601a5554998a60181c169687928c519081528c8682015260148d820152731c1c9bdc1bdcd95c97d89bdb9917dc995dd85c9960621b6060820152a261452b575b5050505060ff84519360101c1615158352820152a2565b7f703bc125a2665c8fdf99388ee79d5641c0723bd082e35dbf8976021756e25aa6918851908152a35f868183614514565b61456591614212565b90555f8086614483565b9050600c7fe12a108659cfceebb9cd8b65c57b8f6d2a0896a9a0bcc5797792c52074abf49e9501805485816145f5575b505083546301000000600160b81b031916909355505090516020808252601a908201527f4e6f20686f6c64657273206f6e2077696e6e696e6720736964650000000000006040820152905080606081015b0390a2565b5f80516020615a5f833981519152935f6080945560018060a01b03809160181c165f5260188652815f2061462a8482546141c0565b905561463883601a546141c0565b601a55865460181c169481519283528201526018868201527f70726f706f7365725f626f6e645f656d7074795f7369646500000000000000006060820152a25f8080808561459f565b60078601546143fe565b815163234c0ffd60e21b8152600490fd5b806146a860039261419a565b036149ee57600e830154610e1081018091116141cd574211156149dd576010830180549060118501918254146149cf575490541080156149c55760068401545b1561495d57600a8401805462ffff00191682151560101b62ff000016176101001781557fdc2ddf2d5ba9d7ae2e3763f353bea15c1618e60da8ac6eca3b14d806ce8a33169460019260ff929190819089845491868360b81c16151514888a5f948380614952575b6148e3575b84916147dc876147d77f27fa0e98dfa1197c7d1238ba14b175c914fafadedebdf5c8d68effd3079f42f194885f146148d857600f8c0154905b89156148c55760181c6001600160a01b0316985b156148bb57600c8c01545b5f600f6147c96127106147c1600b54876141e1565b048095614212565b9e82600c82015501556141c0565b6141c0565b888d8060a01b0380971695865f5260188152835f206147fc8482546141c0565b905561480a83601a546141c0565b601a55865f80516020615a5f833981519152608086518681528785820152600b888201526a3137b7322fbbb4b73732b960a91b6060820152a28351928352820152a38883614883575b5050505080614872575b50505460101c169183519215158352820152a2565b61487c9189615968565b5f8061485d565b7f703bc125a2665c8fdf99388ee79d5641c0723bd082e35dbf8976021756e25aa691875460181c16938b51908152a35f898188614853565b600f8c01546147ac565b508f8060a01b03600d8d015416986147a1565b600c8c01549061478d565b94507f27fa0e98dfa1197c7d1238ba14b175c914fafadedebdf5c8d68effd3079f42f184916147dc60088901976147d7895491612710614925600c54856141e1565b049a8b93848061493f575b50505094505050509150614754565b61494891614212565b90555f8084614930565b50600c54151561474f565b50506149897fe12a108659cfceebb9cd8b65c57b8f6d2a0896a9a0bcc5797792c52074abf49e92615816565b516020808252601a908201527f4e6f20686f6c64657273206f6e2077696e6e696e672073696465000000000000604082015280606081016145f0565b60078401546146e8565b50505050613fc59150615816565b8151633fc30bd160e11b8152600490fd5b815163174b639360e11b8152600490fd5b5f52601660205260405f2060ff600a82015460081c16614a4957600501546201518081018091116141cd5780421015614a4157614a3d904290614212565b5f91565b506001905f90565b505f905f90565b5f546001600160a01b039182169082168114918215614a7f575b8215614a7557505090565b6002541614919050565b600154811682149250614a6a565b601f8211614a9a57505050565b5f5260205f20906020601f840160051c83019310614ad2575b601f0160051c01905b818110614ac7575050565b5f8155600101614abc565b9091508190614ab3565b8280949592614af684611886614b129796614b0c966141c0565b614b0081836141c0565b9715614b595750614212565b93614212565b91662386f26fc10000918281029281840414901517156141cd57614b35916141e1565b90670de0b6b3a7640000908181029181830414901517156141cd57614393916141f4565b9050614212565b93614b7181614b77939594966141c0565b936141c0565b92614b8284846141c0565b9115614bcb57614b939293506141e1565b90670de0b6b3a7640000918281029281840414901517156141cd57662386f26fc1000090808202918204036141cd57614393916141f4565b614b9392506141e1565b5f80516020615a3f8339815191526002815414614bf25760029055565b604051633ee5aeb560e01b8152600490fd5b600a81015460ff8160081c16614c5357600d8201546001600160a01b0391908216614c4b5760181c16614c455760050154421015614c40575f90565b600190565b50600290565b505050600390565b5050600490565b949398929997919096959987156150e057428311156150ce5760155496614c8088614291565b601555879a885f526020966016885260405f20946001600160401b0394858d11613f1a57614cb88d614cb28954613ec7565b89614a8d565b8c5f601f8211600114615067579080614ce5925f9161505c575b508160011b915f199060031b1c19161790565b87555b6001870191868211613f1a57614d028261048c8554613ec7565b5f90601f8311600114614ff757614d2f92915f9183614efe5750508160011b915f199060031b1c19161790565b90555b6002850191848211613f1a57614d4c8261048c8554613ec7565b5f90601f8311600114614f9457614d7992915f9183614efe5750508160011b915f199060031b1c19161790565b90555b60038301918111613f1a57614d9b81614d958454613ec7565b84614a8d565b5f601f8211600114614f0957816009949392614df1927f088de4ff1d0b36eed2a164a1efb89ec8d72c1a7846023e20716b1cf80405d7f19b9c9d9e9f5f92614efe5750508160011b915f199060031b1c19161790565b90555b6004810180546001600160a01b0319163317905560058101839055600a8101614e1c8561419a565b60ff1981541660ff8616179055614e328461419a565b83614e8957600f54828201555b01549287604051956080875281608088015260a08701375f60a08987010152840152614e6a8161419a565b604083015260608201523393601f01601f1916810181900360a00190a3565b614e928461419a565b60018403614ea757601054828201555b614e3f565b614eb08461419a565b60028403614ec45760115482820155614e3f565b614ecd8461419a565b60038403614ee15760125482820155614e3f565b614eea8461419a565b60048403614ea25760135482820155614e3f565b013590505f806104b1565b601f19821690835f52875f20915f5b818110614f7d5750917f088de4ff1d0b36eed2a164a1efb89ec8d72c1a7846023e20716b1cf80405d7f19a9b9c9d9e8492600997969560019510614f64575b505050811b019055614df4565b01355f19600384901b60f8161c191690555f8080614f57565b8f8301358455600190930192918901918901614f18565b601f19831691845f528a5f20925f5b8c828210614fe1575050908460019594939210614fc8575b505050811b019055614d7c565b01355f19600384901b60f8161c191690555f8080614fbb565b6001849682939587013581550195019201614fa3565b5f8481528c81209290601f198516908e5b82821061504557505090846001959493921061502c575b505050811b019055614d32565b01355f19600384901b60f8161c191690555f808061501f565b60018496829395870135815501950192018e615008565b90508d01355f614cd2565b885f528b5f20918d8d5f915b601f19841683106150b75750505080601f1981161061509d575b905060018092501b018755614ce8565b60f85f199160031b161c19908d01351690555f808e61508d565b840135855560019094019392830192018d8f615073565b60405163212be55960e11b8152600490fd5b604051630d5003f360e01b8152600490fd5b51906001600160a01b03821682036105a857565b805f526004602090808252604090815f209080820160019060ff1990828282541617905560ff845416600b81101561196c57806152605750509061514b828401613f85565b84818051810103126105a8578581015190828210156105a85785015192816151b05750506101f482116151a2575060ff5f80516020615a9f83398151915294939261519f926005555b541691518092614027565ba2565b83516358d620b360e01b8152fd5b81036151df575060c882116151a2575060ff5f80516020615a9f83398151915294939261519f92600655615194565b600281036152105750606482116151a2575060ff5f80516020615a9f83398151915294939261519f92600755615194565b600314615235575b50509061519f60ff5f80516020615a9f8339815191529493615194565b67016345785d8a000082116152525750600e5561519f60ff615218565b835163eb8a0a9360e01b8152fd5b8083036152d8575050615274908301613f85565b84818051810103126105a8578401519066038d7ea4c68000821080156152c7575b6152b9575060ff5f80516020615a9f83398151915294939261519f92600855615194565b8351637cc0badd60e11b8152fd5b5067016345785d8a00008211615295565b600281036153585750506152ed908301613f85565b84818051810103126105a8576001600160a01b039061530d9086016150f2565b1690811561534a575060ff5f80516020615a9f83398151915294939261519f926bffffffffffffffffffffffff60a01b600d541617600d55615194565b835163e6c4247b60e01b8152fd5b919290916003908082036153b3575050505f80516020615a9f83398151915294939261519f9260ff926014541617601455337f62e78cea01bee320cd4e420270b5ea74000d11b0c9f74754ebdbfc544b05a2585f80a2615194565b9293919280840361540a575050505060ff5f80516020615a9f83398151915294939261519f9260145416601455337f5db9ee0a495bf2e6ff9c91a7834c1ba4fdd244a5e8aa4e537bd38aeae4b073aa5f80a2615194565b929350909160058103615488575050615424908301613f85565b84818051810103126105a857840151906611c37937e0800082108015615477575b615469575060ff5f80516020615a9f83398151915294939261519f92600955615194565b835163329b7bc160e11b8152fd5b5067016345785d8a00008211615445565b600681036154f557505061549d908301613f85565b84818051810103126105a857840151906032821080156154ea575b6154dc575060ff5f80516020615a9f83398151915294939261519f92600a55615194565b835163ba344cfd60e01b8152fd5b506101f482116154b8565b6007810361556357505061550a908301613f85565b84818051810103126105a857840151906107d082108015615558575b61554a575060ff5f80516020615a9f83398151915294939261519f92600b55615194565b8351630c7311a160e31b8152fd5b50611f408211615526565b929796959493926008810361567657505061557f818301613f85565b83818051810103126105a857848101519060058210156105a85784015191670de0b6b3a764000083108015615663575b61565357915f80516020615a9f8339815191529697988260ff946155d661519f979561419a565b816155e657505050600f55615194565b6155ef8261419a565b81036155ff575050601055615194565b6156088161419a565b6002810361561a575050601155615194565b6156238161419a565b60038103615635575050601255615194565b61563e8161419a565b1461564a575b50615194565b6013555f615644565b84516358d620b360e01b81528990fd5b5069032d26d12e980b60000083116155af565b60098199949596979899145f146156da575050615694908301613f85565b84818051810103126105a8578401519060c882116156cc575060ff5f80516020615a9f83398151915294939261519f92600c55615194565b83516379d3ee4160e11b8152fd5b909290600a14615703575b5050509061519f60ff5f80516020615a9f8339815191529493615194565b61570e828501613f85565b85818051810103126105a857615730866157298984016150f2565b92016150f2565b6001600160a01b03908116949181169390918515615806578585146157f65761575886614a50565b6157f6575f925f5b8281106157c5575b50505050156157b757505f80516020615a9f8339815191529493928661519f9360ff937f3288defc7d8a5d94d6a119b650b3275db0b541801744754565b543431ea11cf15f80a49293946156e5565b845163bdb712ef60e01b8152fd5b87815488848216146157da5750508301615760565b6001600160a01b031916179055509091505f9050808080615768565b87516378327bb360e01b81528490fd5b875163e6c4247b60e01b81528490fd5b600d90600c8101805490816158df575b5050600f81018054908161585d575b5050600a810180546301000000600160b81b03191690550180546001600160a01b0319169055565b5f90555f80516020615a5f833981519152608084840160018060a01b0390818154165f52601860205260405f206158958682546141c0565b90556158a385601a546141c0565b601a5554169260405190815260406020820152601160408201527064697370757465725f626f6e645f74696560781b6060820152a25f80615835565b5f90555f80516020615a5f8339815191526080600a840160018060a01b039081815460181c165f52601860205260405f2061591b8682546141c0565b905561592985601a546141c0565b601a555460181c169260405190815260406020820152601160408201527070726f706f7365725f626f6e645f74696560781b6060820152a25f80615826565b919060ff600a82015460101c165f146159f45760108101545b156159b957817f6373064e4905f7001175d3a79ba8a425c7c5cbb403eb940ea8a21d4fa5cb7cec9260126020930155604051908152a2565b50600d545f9250829182918291906001600160a01b03165af16159da61421f565b50156159e257565b6040516312171d8360e31b8152600490fd5b601181015461598156feee6d275681f6338b9dcbc5762e1fb9518bbb1e7db15049fbe7f9ed98857670bd0bd5a1be8a9259e42ff3ff2d4b8457044eda96d3db9aed28322f8da78f1e0d419b779b17422d0df92223018b32b4d1fa46e071723d6817e2486d003becc55f00adadeee46984897fe0fddcdd6b48a8011d2dc74760aac19667d9a7c13ca750581080a6e42ac16e1e06ceeec56bfcd11d5f64a6b48cdf10db0f6566172e7f92a0ccbac48ec328eb4bdb4ace10025e03ecf58898746c98bdf8cfd4d32ade75f42a8d33281e1711fba153adffbde99ea4fd340a412490b8254097b438c0e8d41e4aa26469706673582212208c0a6f9bb9d8aad0a8129480a51baaabdba4cacd10f0c51768100512d50239db64736f6c63430008180033","linkReferences":{}},"methodIdentifiers":{"ACTION_EXPIRY()":"8ff65651","BOND_WINNER_SHARE_LOWER()":"bff9d040","BOND_WINNER_SHARE_UPPER()":"f02d6372","BPS_DENOMINATOR()":"e1a45218","CREATOR_PRIORITY_WINDOW()":"132eb94b","DISPUTE_WINDOW()":"f585dc57","DYNAMIC_BOND_BPS_LOWER()":"e13d1aaa","DYNAMIC_BOND_BPS_UPPER()":"c2f57386","EMERGENCY_REFUND_DELAY()":"0acbdee3","MAX_CREATOR_FEE_BPS()":"a844a134","MAX_FEE_BPS()":"d55be8c6","MAX_HEAT_LEVEL()":"3fbf2ccd","MAX_MARKET_CREATION_FEE()":"6c82169d","MAX_PROPOSER_REWARD_BPS()":"a260a02a","MAX_RESOLUTION_FEE_BPS()":"b30dbfb2","MIN_BET_LOWER()":"61a895df","MIN_BET_UPPER()":"94a29beb","MIN_BOND_FLOOR_LOWER()":"a732e4c9","MIN_BOND_FLOOR_UPPER()":"7740a680","MIN_HEAT_LEVEL()":"87f72916","RESOLUTION_CUTOFF_BUFFER()":"0dbacc62","UNIT_PRICE()":"afa40bbd","VOTING_WINDOW()":"3173cd26","actionNonce()":"2d162369","bondWinnerShareBps()":"d7dfd971","buyNo(uint256,uint256)":"a9f6b058","buyYes(uint256,uint256)":"399af502","canEmergencyRefund(uint256)":"e7176d31","claim(uint256)":"379607f5","claimJuryFees(uint256)":"213a0d4f","confirmAction(uint256)":"a63d914f","createMarket(string,string,string,string,uint256,uint8)":"94c38bca","createMarketAndBuy(string,string,string,string,uint256,uint8,bool,uint256)":"be04f84f","creatorFeeBps()":"17773ebb","dispute(uint256)":"86d6282c","dynamicBondBps()":"d67d643e","emergencyRefund(uint256)":"70e5deb9","executeAction(uint256)":"c0c1cf55","finalizeMarket(uint256)":"c9d2d5de","getDispute(uint256)":"e3a96cbd","getMarket(uint256)":"eb44fdd3","getMarketStatus(uint256)":"ec5a711a","getMaxSellableShares(uint256,uint256,bool)":"b7f12f6a","getNoPrice(uint256)":"c3546485","getPendingCreatorFees(address)":"ec763653","getPendingWithdrawal(address)":"7ee8b2f8","getPosition(uint256,address)":"d29f541d","getProposal(uint256)":"c7f758a8","getRequiredBond(uint256)":"366b7340","getRequiredDisputeBond(uint256)":"b05ef454","getYesPrice(uint256)":"9ba85fae","heatLevelApex()":"b1b84b49","heatLevelCore()":"97e02ee8","heatLevelCrack()":"9716919b","heatLevelHigh()":"47b0f737","heatLevelPro()":"d671484c","marketCount()":"ec979082","marketCreationFee()":"2ef1bdfa","markets(uint256)":"b1283e77","minBet()":"9619367d","minBondFloor()":"1690088c","paused()":"5c975abb","pendingActions(uint256)":"03117ba2","pendingCreatorFees(address)":"c598b2f9","pendingWithdrawals(address)":"f3f43703","platformFeeBps()":"22dcd13e","positions(uint256,address)":"e684d718","previewBuy(uint256,uint256,bool)":"14887fdf","previewSell(uint256,uint256,bool)":"12dcf12d","proposeOutcome(uint256,bool)":"88553a2a","proposePause()":"fffa080a","proposeReplaceSigner(address,address)":"5cbd9d43","proposeSetBondWinnerShare(uint256)":"d05a18e9","proposeSetDynamicBondBps(uint256)":"d750e82e","proposeSetFee(uint8,uint256)":"0857f484","proposeSetHeatLevel(uint8,uint256)":"c655a0eb","proposeSetMinBet(uint256)":"38d9c53b","proposeSetMinBondFloor(uint256)":"6d33bb1e","proposeSetProposerReward(uint256)":"bd442405","proposeSetTreasury(address)":"d1d34bf3","proposeUnpause()":"fae8a3d6","proposerRewardBps()":"bd149d71","resolutionFeeBps()":"5de97e11","sellNo(uint256,uint256,uint256)":"16fe6929","sellYes(uint256,uint256,uint256)":"dffad4e2","signers(uint256)":"2079fb9a","totalPendingCreatorFees()":"c651af12","totalPendingWithdrawals()":"a4563e03","treasury()":"61d027b3","vote(uint256,bool)":"c9d27afe","withdrawBond()":"66eb9cec","withdrawCreatorFees()":"e1cd04b4"},"id":2}