{"abi":[{"type":"constructor","inputs":[{"name":"_signers","type":"address[3]","internalType":"address[3]"},{"name":"_treasury","type":"address","internalType":"address"}],"stateMutability":"nonpayable"},{"type":"function","name":"ACTION_EXPIRY","inputs":[],"outputs":[{"name":"","type":"uint256","internalType":"uint256"}],"stateMutability":"view"},{"type":"function","name":"BOND_WINNER_SHARE_LOWER","inputs":[],"outputs":[{"name":"","type":"uint256","internalType":"uint256"}],"stateMutability":"view"},{"type":"function","name":"BOND_WINNER_SHARE_UPPER","inputs":[],"outputs":[{"name":"","type":"uint256","internalType":"uint256"}],"stateMutability":"view"},{"type":"function","name":"BPS_DENOMINATOR","inputs":[],"outputs":[{"name":"","type":"uint256","internalType":"uint256"}],"stateMutability":"view"},{"type":"function","name":"CREATOR_PRIORITY_WINDOW","inputs":[],"outputs":[{"name":"","type":"uint256","internalType":"uint256"}],"stateMutability":"view"},{"type":"function","name":"DISPUTE_WINDOW","inputs":[],"outputs":[{"name":"","type":"uint256","internalType":"uint256"}],"stateMutability":"view"},{"type":"function","name":"DYNAMIC_BOND_BPS_LOWER","inputs":[],"outputs":[{"name":"","type":"uint256","internalType":"uint256"}],"stateMutability":"view"},{"type":"function","name":"DYNAMIC_BOND_BPS_UPPER","inputs":[],"outputs":[{"name":"","type":"uint256","internalType":"uint256"}],"stateMutability":"view"},{"type":"function","name":"EMERGENCY_REFUND_DELAY","inputs":[],"outputs":[{"name":"","type":"uint256","internalType":"uint256"}],"stateMutability":"view"},{"type":"function","name":"MAX_CREATOR_FEE_BPS","inputs":[],"outputs":[{"name":"","type":"uint256","internalType":"uint256"}],"stateMutability":"view"},{"type":"function","name":"MAX_FEE_BPS","inputs":[],"outputs":[{"name":"","type":"uint256","internalType":"uint256"}],"stateMutability":"view"},{"type":"function","name":"MAX_HEAT_LEVEL","inputs":[],"outputs":[{"name":"","type":"uint256","internalType":"uint256"}],"stateMutability":"view"},{"type":"function","name":"MAX_MARKET_CREATION_FEE","inputs":[],"outputs":[{"name":"","type":"uint256","internalType":"uint256"}],"stateMutability":"view"},{"type":"function","name":"MAX_PROPOSER_REWARD_BPS","inputs":[],"outputs":[{"name":"","type":"uint256","internalType":"uint256"}],"stateMutability":"view"},{"type":"function","name":"MAX_RESOLUTION_FEE_BPS","inputs":[],"outputs":[{"name":"","type":"uint256","internalType":"uint256"}],"stateMutability":"view"},{"type":"function","name":"MIN_BET_LOWER","inputs":[],"outputs":[{"name":"","type":"uint256","internalType":"uint256"}],"stateMutability":"view"},{"type":"function","name":"MIN_BET_UPPER","inputs":[],"outputs":[{"name":"","type":"uint256","internalType":"uint256"}],"stateMutability":"view"},{"type":"function","name":"MIN_BOND_FLOOR_LOWER","inputs":[],"outputs":[{"name":"","type":"uint256","internalType":"uint256"}],"stateMutability":"view"},{"type":"function","name":"MIN_BOND_FLOOR_UPPER","inputs":[],"outputs":[{"name":"","type":"uint256","internalType":"uint256"}],"stateMutability":"view"},{"type":"function","name":"MIN_HEAT_LEVEL","inputs":[],"outputs":[{"name":"","type":"uint256","internalType":"uint256"}],"stateMutability":"view"},{"type":"function","name":"UNIT_PRICE","inputs":[],"outputs":[{"name":"","type":"uint256","internalType":"uint256"}],"stateMutability":"view"},{"type":"function","name":"VOTING_WINDOW","inputs":[],"outputs":[{"name":"","type":"uint256","internalType":"uint256"}],"stateMutability":"view"},{"type":"function","name":"actionNonce","inputs":[],"outputs":[{"name":"","type":"uint256","internalType":"uint256"}],"stateMutability":"view"},{"type":"function","name":"bondWinnerShareBps","inputs":[],"outputs":[{"name":"","type":"uint256","internalType":"uint256"}],"stateMutability":"view"},{"type":"function","name":"buyNo","inputs":[{"name":"marketId","type":"uint256","internalType":"uint256"},{"name":"minSharesOut","type":"uint256","internalType":"uint256"}],"outputs":[{"name":"sharesOut","type":"uint256","internalType":"uint256"}],"stateMutability":"payable"},{"type":"function","name":"buyYes","inputs":[{"name":"marketId","type":"uint256","internalType":"uint256"},{"name":"minSharesOut","type":"uint256","internalType":"uint256"}],"outputs":[{"name":"sharesOut","type":"uint256","internalType":"uint256"}],"stateMutability":"payable"},{"type":"function","name":"canEmergencyRefund","inputs":[{"name":"marketId","type":"uint256","internalType":"uint256"}],"outputs":[{"name":"eligible","type":"bool","internalType":"bool"},{"name":"timeUntilEligible","type":"uint256","internalType":"uint256"}],"stateMutability":"view"},{"type":"function","name":"claim","inputs":[{"name":"marketId","type":"uint256","internalType":"uint256"}],"outputs":[{"name":"payout","type":"uint256","internalType":"uint256"}],"stateMutability":"nonpayable"},{"type":"function","name":"confirmAction","inputs":[{"name":"actionId","type":"uint256","internalType":"uint256"}],"outputs":[],"stateMutability":"nonpayable"},{"type":"function","name":"createMarket","inputs":[{"name":"question","type":"string","internalType":"string"},{"name":"evidenceLink","type":"string","internalType":"string"},{"name":"resolutionRules","type":"string","internalType":"string"},{"name":"imageUrl","type":"string","internalType":"string"},{"name":"expiryTimestamp","type":"uint256","internalType":"uint256"},{"name":"heatLevel","type":"uint8","internalType":"enum PredictionMarket.HeatLevel"}],"outputs":[{"name":"marketId","type":"uint256","internalType":"uint256"}],"stateMutability":"payable"},{"type":"function","name":"createMarketAndBuy","inputs":[{"name":"question","type":"string","internalType":"string"},{"name":"evidenceLink","type":"string","internalType":"string"},{"name":"resolutionRules","type":"string","internalType":"string"},{"name":"imageUrl","type":"string","internalType":"string"},{"name":"expiryTimestamp","type":"uint256","internalType":"uint256"},{"name":"heatLevel","type":"uint8","internalType":"enum PredictionMarket.HeatLevel"},{"name":"buyYesSide","type":"bool","internalType":"bool"},{"name":"minSharesOut","type":"uint256","internalType":"uint256"}],"outputs":[{"name":"marketId","type":"uint256","internalType":"uint256"},{"name":"sharesOut","type":"uint256","internalType":"uint256"}],"stateMutability":"payable"},{"type":"function","name":"creatorFeeBps","inputs":[],"outputs":[{"name":"","type":"uint256","internalType":"uint256"}],"stateMutability":"view"},{"type":"function","name":"dispute","inputs":[{"name":"marketId","type":"uint256","internalType":"uint256"}],"outputs":[],"stateMutability":"payable"},{"type":"function","name":"dynamicBondBps","inputs":[],"outputs":[{"name":"","type":"uint256","internalType":"uint256"}],"stateMutability":"view"},{"type":"function","name":"emergencyRefund","inputs":[{"name":"marketId","type":"uint256","internalType":"uint256"}],"outputs":[{"name":"refund","type":"uint256","internalType":"uint256"}],"stateMutability":"nonpayable"},{"type":"function","name":"executeAction","inputs":[{"name":"actionId","type":"uint256","internalType":"uint256"}],"outputs":[],"stateMutability":"nonpayable"},{"type":"function","name":"finalizeMarket","inputs":[{"name":"marketId","type":"uint256","internalType":"uint256"}],"outputs":[],"stateMutability":"nonpayable"},{"type":"function","name":"getDispute","inputs":[{"name":"marketId","type":"uint256","internalType":"uint256"}],"outputs":[{"name":"disputer","type":"address","internalType":"address"},{"name":"disputeTime","type":"uint256","internalType":"uint256"},{"name":"disputeBond","type":"uint256","internalType":"uint256"},{"name":"votingDeadline","type":"uint256","internalType":"uint256"},{"name":"yesVotes","type":"uint256","internalType":"uint256"},{"name":"noVotes","type":"uint256","internalType":"uint256"}],"stateMutability":"view"},{"type":"function","name":"getMarket","inputs":[{"name":"marketId","type":"uint256","internalType":"uint256"}],"outputs":[{"name":"question","type":"string","internalType":"string"},{"name":"evidenceLink","type":"string","internalType":"string"},{"name":"resolutionRules","type":"string","internalType":"string"},{"name":"imageUrl","type":"string","internalType":"string"},{"name":"creator","type":"address","internalType":"address"},{"name":"expiryTimestamp","type":"uint256","internalType":"uint256"},{"name":"yesSupply","type":"uint256","internalType":"uint256"},{"name":"noSupply","type":"uint256","internalType":"uint256"},{"name":"poolBalance","type":"uint256","internalType":"uint256"},{"name":"resolved","type":"bool","internalType":"bool"},{"name":"outcome","type":"bool","internalType":"bool"}],"stateMutability":"view"},{"type":"function","name":"getMarketStatus","inputs":[{"name":"marketId","type":"uint256","internalType":"uint256"}],"outputs":[{"name":"","type":"uint8","internalType":"enum PredictionMarket.MarketStatus"}],"stateMutability":"view"},{"type":"function","name":"getMaxSellableShares","inputs":[{"name":"marketId","type":"uint256","internalType":"uint256"},{"name":"userShares","type":"uint256","internalType":"uint256"},{"name":"isYes","type":"bool","internalType":"bool"}],"outputs":[{"name":"maxShares","type":"uint256","internalType":"uint256"},{"name":"bnbOut","type":"uint256","internalType":"uint256"}],"stateMutability":"view"},{"type":"function","name":"getNoPrice","inputs":[{"name":"marketId","type":"uint256","internalType":"uint256"}],"outputs":[{"name":"price","type":"uint256","internalType":"uint256"}],"stateMutability":"view"},{"type":"function","name":"getPendingCreatorFees","inputs":[{"name":"account","type":"address","internalType":"address"}],"outputs":[{"name":"","type":"uint256","internalType":"uint256"}],"stateMutability":"view"},{"type":"function","name":"getPendingWithdrawal","inputs":[{"name":"account","type":"address","internalType":"address"}],"outputs":[{"name":"","type":"uint256","internalType":"uint256"}],"stateMutability":"view"},{"type":"function","name":"getPosition","inputs":[{"name":"marketId","type":"uint256","internalType":"uint256"},{"name":"user","type":"address","internalType":"address"}],"outputs":[{"name":"yesShares","type":"uint256","internalType":"uint256"},{"name":"noShares","type":"uint256","internalType":"uint256"},{"name":"claimed","type":"bool","internalType":"bool"},{"name":"emergencyRefunded","type":"bool","internalType":"bool"},{"name":"hasVoted","type":"bool","internalType":"bool"},{"name":"votedOutcome","type":"bool","internalType":"bool"}],"stateMutability":"view"},{"type":"function","name":"getProposal","inputs":[{"name":"marketId","type":"uint256","internalType":"uint256"}],"outputs":[{"name":"proposer","type":"address","internalType":"address"},{"name":"proposedOutcome","type":"bool","internalType":"bool"},{"name":"proposalTime","type":"uint256","internalType":"uint256"},{"name":"proposalBond","type":"uint256","internalType":"uint256"},{"name":"disputeDeadline","type":"uint256","internalType":"uint256"}],"stateMutability":"view"},{"type":"function","name":"getRequiredBond","inputs":[{"name":"marketId","type":"uint256","internalType":"uint256"}],"outputs":[{"name":"requiredBond","type":"uint256","internalType":"uint256"}],"stateMutability":"view"},{"type":"function","name":"getRequiredDisputeBond","inputs":[{"name":"marketId","type":"uint256","internalType":"uint256"}],"outputs":[{"name":"","type":"uint256","internalType":"uint256"}],"stateMutability":"view"},{"type":"function","name":"getSweepableAmount","inputs":[],"outputs":[{"name":"surplus","type":"uint256","internalType":"uint256"},{"name":"totalLocked","type":"uint256","internalType":"uint256"},{"name":"contractBalance","type":"uint256","internalType":"uint256"}],"stateMutability":"view"},{"type":"function","name":"getVoterCount","inputs":[{"name":"marketId","type":"uint256","internalType":"uint256"}],"outputs":[{"name":"","type":"uint256","internalType":"uint256"}],"stateMutability":"view"},{"type":"function","name":"getYesPrice","inputs":[{"name":"marketId","type":"uint256","internalType":"uint256"}],"outputs":[{"name":"price","type":"uint256","internalType":"uint256"}],"stateMutability":"view"},{"type":"function","name":"heatLevelCrack","inputs":[],"outputs":[{"name":"","type":"uint256","internalType":"uint256"}],"stateMutability":"view"},{"type":"function","name":"heatLevelHigh","inputs":[],"outputs":[{"name":"","type":"uint256","internalType":"uint256"}],"stateMutability":"view"},{"type":"function","name":"heatLevelPro","inputs":[],"outputs":[{"name":"","type":"uint256","internalType":"uint256"}],"stateMutability":"view"},{"type":"function","name":"marketCount","inputs":[],"outputs":[{"name":"","type":"uint256","internalType":"uint256"}],"stateMutability":"view"},{"type":"function","name":"marketCreationFee","inputs":[],"outputs":[{"name":"","type":"uint256","internalType":"uint256"}],"stateMutability":"view"},{"type":"function","name":"marketVoters","inputs":[{"name":"","type":"uint256","internalType":"uint256"},{"name":"","type":"uint256","internalType":"uint256"}],"outputs":[{"name":"","type":"address","internalType":"address"}],"stateMutability":"view"},{"type":"function","name":"markets","inputs":[{"name":"","type":"uint256","internalType":"uint256"}],"outputs":[{"name":"question","type":"string","internalType":"string"},{"name":"evidenceLink","type":"string","internalType":"string"},{"name":"resolutionRules","type":"string","internalType":"string"},{"name":"imageUrl","type":"string","internalType":"string"},{"name":"creator","type":"address","internalType":"address"},{"name":"expiryTimestamp","type":"uint256","internalType":"uint256"},{"name":"yesSupply","type":"uint256","internalType":"uint256"},{"name":"noSupply","type":"uint256","internalType":"uint256"},{"name":"poolBalance","type":"uint256","internalType":"uint256"},{"name":"virtualLiquidity","type":"uint256","internalType":"uint256"},{"name":"heatLevel","type":"uint8","internalType":"enum PredictionMarket.HeatLevel"},{"name":"resolved","type":"bool","internalType":"bool"},{"name":"outcome","type":"bool","internalType":"bool"},{"name":"proposer","type":"address","internalType":"address"},{"name":"proposedOutcome","type":"bool","internalType":"bool"},{"name":"proposalTime","type":"uint256","internalType":"uint256"},{"name":"proposalBond","type":"uint256","internalType":"uint256"},{"name":"disputer","type":"address","internalType":"address"},{"name":"disputeTime","type":"uint256","internalType":"uint256"},{"name":"disputeBond","type":"uint256","internalType":"uint256"},{"name":"yesVotes","type":"uint256","internalType":"uint256"},{"name":"noVotes","type":"uint256","internalType":"uint256"}],"stateMutability":"view"},{"type":"function","name":"minBet","inputs":[],"outputs":[{"name":"","type":"uint256","internalType":"uint256"}],"stateMutability":"view"},{"type":"function","name":"minBondFloor","inputs":[],"outputs":[{"name":"","type":"uint256","internalType":"uint256"}],"stateMutability":"view"},{"type":"function","name":"paused","inputs":[],"outputs":[{"name":"","type":"bool","internalType":"bool"}],"stateMutability":"view"},{"type":"function","name":"pendingActions","inputs":[{"name":"","type":"uint256","internalType":"uint256"}],"outputs":[{"name":"actionType","type":"uint8","internalType":"enum PredictionMarket.ActionType"},{"name":"data","type":"bytes","internalType":"bytes"},{"name":"confirmations","type":"uint256","internalType":"uint256"},{"name":"createdAt","type":"uint256","internalType":"uint256"},{"name":"executed","type":"bool","internalType":"bool"}],"stateMutability":"view"},{"type":"function","name":"pendingCreatorFees","inputs":[{"name":"","type":"address","internalType":"address"}],"outputs":[{"name":"","type":"uint256","internalType":"uint256"}],"stateMutability":"view"},{"type":"function","name":"pendingWithdrawals","inputs":[{"name":"","type":"address","internalType":"address"}],"outputs":[{"name":"","type":"uint256","internalType":"uint256"}],"stateMutability":"view"},{"type":"function","name":"platformFeeBps","inputs":[],"outputs":[{"name":"","type":"uint256","internalType":"uint256"}],"stateMutability":"view"},{"type":"function","name":"positions","inputs":[{"name":"","type":"uint256","internalType":"uint256"},{"name":"","type":"address","internalType":"address"}],"outputs":[{"name":"yesShares","type":"uint256","internalType":"uint256"},{"name":"noShares","type":"uint256","internalType":"uint256"},{"name":"claimed","type":"bool","internalType":"bool"},{"name":"emergencyRefunded","type":"bool","internalType":"bool"},{"name":"hasVoted","type":"bool","internalType":"bool"},{"name":"votedOutcome","type":"bool","internalType":"bool"}],"stateMutability":"view"},{"type":"function","name":"previewBuy","inputs":[{"name":"marketId","type":"uint256","internalType":"uint256"},{"name":"bnbAmount","type":"uint256","internalType":"uint256"},{"name":"isYes","type":"bool","internalType":"bool"}],"outputs":[{"name":"shares","type":"uint256","internalType":"uint256"}],"stateMutability":"view"},{"type":"function","name":"previewSell","inputs":[{"name":"marketId","type":"uint256","internalType":"uint256"},{"name":"shares","type":"uint256","internalType":"uint256"},{"name":"isYes","type":"bool","internalType":"bool"}],"outputs":[{"name":"bnbOut","type":"uint256","internalType":"uint256"}],"stateMutability":"view"},{"type":"function","name":"proposeAction","inputs":[{"name":"actionType","type":"uint8","internalType":"enum PredictionMarket.ActionType"},{"name":"data","type":"bytes","internalType":"bytes"}],"outputs":[{"name":"actionId","type":"uint256","internalType":"uint256"}],"stateMutability":"nonpayable"},{"type":"function","name":"proposeOutcome","inputs":[{"name":"marketId","type":"uint256","internalType":"uint256"},{"name":"outcome","type":"bool","internalType":"bool"}],"outputs":[],"stateMutability":"payable"},{"type":"function","name":"proposerRewardBps","inputs":[],"outputs":[{"name":"","type":"uint256","internalType":"uint256"}],"stateMutability":"view"},{"type":"function","name":"resolutionFeeBps","inputs":[],"outputs":[{"name":"","type":"uint256","internalType":"uint256"}],"stateMutability":"view"},{"type":"function","name":"sellNo","inputs":[{"name":"marketId","type":"uint256","internalType":"uint256"},{"name":"shares","type":"uint256","internalType":"uint256"},{"name":"minBnbOut","type":"uint256","internalType":"uint256"}],"outputs":[{"name":"bnbOut","type":"uint256","internalType":"uint256"}],"stateMutability":"nonpayable"},{"type":"function","name":"sellYes","inputs":[{"name":"marketId","type":"uint256","internalType":"uint256"},{"name":"shares","type":"uint256","internalType":"uint256"},{"name":"minBnbOut","type":"uint256","internalType":"uint256"}],"outputs":[{"name":"bnbOut","type":"uint256","internalType":"uint256"}],"stateMutability":"nonpayable"},{"type":"function","name":"signers","inputs":[{"name":"","type":"uint256","internalType":"uint256"}],"outputs":[{"name":"","type":"address","internalType":"address"}],"stateMutability":"view"},{"type":"function","name":"totalPendingCreatorFees","inputs":[],"outputs":[{"name":"","type":"uint256","internalType":"uint256"}],"stateMutability":"view"},{"type":"function","name":"totalPendingWithdrawals","inputs":[],"outputs":[{"name":"","type":"uint256","internalType":"uint256"}],"stateMutability":"view"},{"type":"function","name":"treasury","inputs":[],"outputs":[{"name":"","type":"address","internalType":"address"}],"stateMutability":"view"},{"type":"function","name":"vote","inputs":[{"name":"marketId","type":"uint256","internalType":"uint256"},{"name":"outcome","type":"bool","internalType":"bool"}],"outputs":[],"stateMutability":"nonpayable"},{"type":"function","name":"withdrawBond","inputs":[],"outputs":[{"name":"amount","type":"uint256","internalType":"uint256"}],"stateMutability":"nonpayable"},{"type":"function","name":"withdrawCreatorFees","inputs":[],"outputs":[{"name":"amount","type":"uint256","internalType":"uint256"}],"stateMutability":"nonpayable"},{"type":"event","name":"ActionConfirmed","inputs":[{"name":"actionId","type":"uint256","indexed":true,"internalType":"uint256"},{"name":"confirmer","type":"address","indexed":true,"internalType":"address"}],"anonymous":false},{"type":"event","name":"ActionExecuted","inputs":[{"name":"actionId","type":"uint256","indexed":true,"internalType":"uint256"},{"name":"actionType","type":"uint8","indexed":false,"internalType":"enum PredictionMarket.ActionType"}],"anonymous":false},{"type":"event","name":"ActionProposed","inputs":[{"name":"actionId","type":"uint256","indexed":true,"internalType":"uint256"},{"name":"actionType","type":"uint8","indexed":false,"internalType":"enum PredictionMarket.ActionType"},{"name":"proposer","type":"address","indexed":true,"internalType":"address"}],"anonymous":false},{"type":"event","name":"BondDistributed","inputs":[{"name":"marketId","type":"uint256","indexed":true,"internalType":"uint256"},{"name":"winner","type":"address","indexed":true,"internalType":"address"},{"name":"winnerAmount","type":"uint256","indexed":false,"internalType":"uint256"},{"name":"voterPoolAmount","type":"uint256","indexed":false,"internalType":"uint256"}],"anonymous":false},{"type":"event","name":"Claimed","inputs":[{"name":"marketId","type":"uint256","indexed":true,"internalType":"uint256"},{"name":"user","type":"address","indexed":true,"internalType":"address"},{"name":"amount","type":"uint256","indexed":false,"internalType":"uint256"}],"anonymous":false},{"type":"event","name":"CreatorFeesClaimed","inputs":[{"name":"creator","type":"address","indexed":true,"internalType":"address"},{"name":"amount","type":"uint256","indexed":false,"internalType":"uint256"}],"anonymous":false},{"type":"event","name":"CreatorFeesCredited","inputs":[{"name":"creator","type":"address","indexed":true,"internalType":"address"},{"name":"marketId","type":"uint256","indexed":true,"internalType":"uint256"},{"name":"amount","type":"uint256","indexed":false,"internalType":"uint256"}],"anonymous":false},{"type":"event","name":"EmergencyRefunded","inputs":[{"name":"marketId","type":"uint256","indexed":true,"internalType":"uint256"},{"name":"user","type":"address","indexed":true,"internalType":"address"},{"name":"amount","type":"uint256","indexed":false,"internalType":"uint256"}],"anonymous":false},{"type":"event","name":"FundsSwept","inputs":[{"name":"amount","type":"uint256","indexed":false,"internalType":"uint256"},{"name":"totalLocked","type":"uint256","indexed":false,"internalType":"uint256"},{"name":"contractBalance","type":"uint256","indexed":false,"internalType":"uint256"}],"anonymous":false},{"type":"event","name":"JuryFeeDistributed","inputs":[{"name":"marketId","type":"uint256","indexed":true,"internalType":"uint256"},{"name":"voter","type":"address","indexed":true,"internalType":"address"},{"name":"amount","type":"uint256","indexed":false,"internalType":"uint256"}],"anonymous":false},{"type":"event","name":"MarketCreated","inputs":[{"name":"marketId","type":"uint256","indexed":true,"internalType":"uint256"},{"name":"creator","type":"address","indexed":true,"internalType":"address"},{"name":"question","type":"string","indexed":false,"internalType":"string"},{"name":"expiryTimestamp","type":"uint256","indexed":false,"internalType":"uint256"},{"name":"heatLevel","type":"uint8","indexed":false,"internalType":"enum PredictionMarket.HeatLevel"},{"name":"virtualLiquidity","type":"uint256","indexed":false,"internalType":"uint256"}],"anonymous":false},{"type":"event","name":"MarketResolutionFailed","inputs":[{"name":"marketId","type":"uint256","indexed":true,"internalType":"uint256"},{"name":"reason","type":"string","indexed":false,"internalType":"string"}],"anonymous":false},{"type":"event","name":"MarketResolved","inputs":[{"name":"marketId","type":"uint256","indexed":true,"internalType":"uint256"},{"name":"outcome","type":"bool","indexed":false,"internalType":"bool"},{"name":"wasDisputed","type":"bool","indexed":false,"internalType":"bool"}],"anonymous":false},{"type":"event","name":"OutcomeProposed","inputs":[{"name":"marketId","type":"uint256","indexed":true,"internalType":"uint256"},{"name":"proposer","type":"address","indexed":true,"internalType":"address"},{"name":"outcome","type":"bool","indexed":false,"internalType":"bool"},{"name":"bond","type":"uint256","indexed":false,"internalType":"uint256"}],"anonymous":false},{"type":"event","name":"Paused","inputs":[{"name":"by","type":"address","indexed":true,"internalType":"address"}],"anonymous":false},{"type":"event","name":"ProposalDisputed","inputs":[{"name":"marketId","type":"uint256","indexed":true,"internalType":"uint256"},{"name":"disputer","type":"address","indexed":true,"internalType":"address"},{"name":"bond","type":"uint256","indexed":false,"internalType":"uint256"}],"anonymous":false},{"type":"event","name":"ProposerRewardPaid","inputs":[{"name":"marketId","type":"uint256","indexed":true,"internalType":"uint256"},{"name":"proposer","type":"address","indexed":true,"internalType":"address"},{"name":"amount","type":"uint256","indexed":false,"internalType":"uint256"}],"anonymous":false},{"type":"event","name":"SignerReplaced","inputs":[{"name":"oldSigner","type":"address","indexed":true,"internalType":"address"},{"name":"newSigner","type":"address","indexed":true,"internalType":"address"},{"name":"actionId","type":"uint256","indexed":true,"internalType":"uint256"}],"anonymous":false},{"type":"event","name":"Trade","inputs":[{"name":"marketId","type":"uint256","indexed":true,"internalType":"uint256"},{"name":"trader","type":"address","indexed":true,"internalType":"address"},{"name":"isYes","type":"bool","indexed":false,"internalType":"bool"},{"name":"isBuy","type":"bool","indexed":false,"internalType":"bool"},{"name":"shares","type":"uint256","indexed":false,"internalType":"uint256"},{"name":"bnbAmount","type":"uint256","indexed":false,"internalType":"uint256"}],"anonymous":false},{"type":"event","name":"Unpaused","inputs":[{"name":"by","type":"address","indexed":true,"internalType":"address"}],"anonymous":false},{"type":"event","name":"VoteCast","inputs":[{"name":"marketId","type":"uint256","indexed":true,"internalType":"uint256"},{"name":"voter","type":"address","indexed":true,"internalType":"address"},{"name":"outcome","type":"bool","indexed":false,"internalType":"bool"},{"name":"weight","type":"uint256","indexed":false,"internalType":"uint256"}],"anonymous":false},{"type":"event","name":"WithdrawalClaimed","inputs":[{"name":"user","type":"address","indexed":true,"internalType":"address"},{"name":"amount","type":"uint256","indexed":false,"internalType":"uint256"}],"anonymous":false},{"type":"event","name":"WithdrawalCredited","inputs":[{"name":"user","type":"address","indexed":true,"internalType":"address"},{"name":"amount","type":"uint256","indexed":false,"internalType":"uint256"},{"name":"reason","type":"string","indexed":false,"internalType":"string"}],"anonymous":false},{"type":"error","name":"ActionAlreadyExecuted","inputs":[]},{"type":"error","name":"ActionExpired","inputs":[]},{"type":"error","name":"AlreadyClaimed","inputs":[]},{"type":"error","name":"AlreadyConfirmed","inputs":[]},{"type":"error","name":"AlreadyDisputed","inputs":[]},{"type":"error","name":"AlreadyEmergencyRefunded","inputs":[]},{"type":"error","name":"AlreadyProposed","inputs":[]},{"type":"error","name":"AlreadyVoted","inputs":[]},{"type":"error","name":"BelowMinBet","inputs":[]},{"type":"error","name":"ContractNotPaused","inputs":[]},{"type":"error","name":"ContractPaused","inputs":[]},{"type":"error","name":"CreatorPriorityActive","inputs":[]},{"type":"error","name":"DisputeWindowExpired","inputs":[]},{"type":"error","name":"EmergencyRefundTooEarly","inputs":[]},{"type":"error","name":"EmptyQuestion","inputs":[]},{"type":"error","name":"InsufficientBond","inputs":[]},{"type":"error","name":"InsufficientCreationFee","inputs":[]},{"type":"error","name":"InsufficientPoolBalance","inputs":[]},{"type":"error","name":"InsufficientShares","inputs":[]},{"type":"error","name":"InvalidAddress","inputs":[]},{"type":"error","name":"InvalidBondWinnerShare","inputs":[]},{"type":"error","name":"InvalidDynamicBondBps","inputs":[]},{"type":"error","name":"InvalidExpiryTimestamp","inputs":[]},{"type":"error","name":"InvalidFee","inputs":[]},{"type":"error","name":"InvalidMarketCreationFee","inputs":[]},{"type":"error","name":"InvalidMinBet","inputs":[]},{"type":"error","name":"InvalidMinBondFloor","inputs":[]},{"type":"error","name":"InvalidProposerReward","inputs":[]},{"type":"error","name":"InvalidSignerReplacement","inputs":[]},{"type":"error","name":"MarketAlreadyResolved","inputs":[]},{"type":"error","name":"MarketNotActive","inputs":[]},{"type":"error","name":"MarketNotExpired","inputs":[]},{"type":"error","name":"MarketNotResolved","inputs":[]},{"type":"error","name":"MarketStuck","inputs":[]},{"type":"error","name":"NoPosition","inputs":[]},{"type":"error","name":"NoSharesForVoting","inputs":[]},{"type":"error","name":"NoTradesToResolve","inputs":[]},{"type":"error","name":"NotEnoughConfirmations","inputs":[]},{"type":"error","name":"NotProposed","inputs":[]},{"type":"error","name":"NotSigner","inputs":[]},{"type":"error","name":"NothingToClaim","inputs":[]},{"type":"error","name":"NothingToSweep","inputs":[]},{"type":"error","name":"NothingToWithdraw","inputs":[]},{"type":"error","name":"ReentrancyGuardReentrantCall","inputs":[]},{"type":"error","name":"SignerNotFound","inputs":[]},{"type":"error","name":"SlippageExceeded","inputs":[]},{"type":"error","name":"TransferFailed","inputs":[]},{"type":"error","name":"VotingNotActive","inputs":[]},{"type":"error","name":"VotingNotEnded","inputs":[]}],"bytecode":{"object":"0x6080346200022157601f62004bbb38819003918201601f19168301926001600160401b03929091838511838610176200022557819060409586528339810190608081830312620002215781601f8201121562000221578351926060840190811184821017620002255784528290606081019283116200022157905b828210620002065750506200008f9062000239565b9060019060017f9b779b17422d0df92223018b32b4d1fa46e071723d6817e2486d003becc55f005560646005556032600655601e6007556611c37937e08000806008556009556064600a55611388600b556032600c555f600e55674563918244f40000600f556801158e460913d000006010556802b5e3af16b18800006011555f5b6003811062000160575050506001600160a01b031680156200014f57600d80546001600160a01b031916919091179055516149469081620002758239f35b815163e6c4247b60e01b8152600490fd5b6001600160a01b03806200017583856200024e565b511615620001f5579083915f5b828110620001b057506200019782856200024e565b5182546001600160a01b03191691161781550162000111565b90829350620001c18193866200024e565b511682620001d083876200024e565b511614620001e45784019084929162000182565b865163e6c4247b60e01b8152600490fd5b855163e6c4247b60e01b8152600490fd5b60208091620002158462000239565b8152019101906200007a565b5f80fd5b634e487b7160e01b5f52604160045260245ffd5b51906001600160a01b03821682036200022157565b906003811015620002605760051b0190565b634e487b7160e01b5f52603260045260245ffdfe610120604052600480361015610013575f80fd5b5f3560e01c90816303117ba214612ab757816305040df4146128f65781630acbdee3146128d957816312dcf12d1461287e578163132eb94b1461286257816314887fdf1461280d5781631690088c146127f057816316fe6929146125b257816317773ebb146125955781632079fb9a1461256457816322dcd13e146125475781632d1623691461252a5781632ef1bdfa1461250d5781633173cd2614611b45578163366b7340146124f0578163379607f514612360578163399af502146121635781633fbf2ccd1461214057816347b0f737146121235781635c975abb146121015781635de97e11146120e457816361a895df146120c357816361d027b31461209b57816366eb9cec14611ff65781636c82169d14611b4057816370e5deb914611e945781637740a68014611b405781637ee8b2f81461041357816386d6282c14611d3d57816387f7291614611d1b57816388553a2a14611b4a5781638ff6565114611b4557816394a29beb14611b4057816394c38bca14611a375781639619367d14611a1a5781639716919b146119fd5781639ba85fae1461199d578163a260a02a14611821578163a4563e0314611980578163a63d914f14611847578163a732e4c914611826578163a844a13414611821578163a9f6b058146115a8578163abde480314611560578163afa40bbd1461153f578163b05ef454146114fe578163b1283e7714611310578163b30dbfb2146112f5578163b7f12f6a146112d0578163bd149d71146112b3578163be04f84f14611031578163bff9d04014611015578163c0c1cf5514610f26578163c2f5738614610bbe578163c354648514610e9f578163c598b2f914610484578163c651af1214610e82578163c7f758a814610dfd578163c9d27afe14610c12578163c9d2d5de14610bc3578163d29f541d1461065d578163d55be8c614610bbe578163d671484c14610ba1578163d67d643e14610b84578163d7dfd97114610b67578163dffad4e21461087c578163e13d1aaa14610861578163e1a4521814610845578163e1cd04b414610780578163e3a96cbd146106f9578163e684d7181461065d578163e7176d311461062e578163e92e5c3414610606578163eb44fdd31461050a578163ec5a711a146104bc57508063ec76365314610484578063ec97908214610467578063f02d63721461044b578063f3f4370314610413578063f585dc57146103f75763fd759e5114610398575f80fd5b346103f3575f3660031901126103f3576103b0614611565b47818111156103e9576103e56103c68383612eb9565b915b604051938493846040919493926060820195825260208201520152565b0390f35b6103e55f916103c8565b5f80fd5b346103f3575f3660031901126103f35760206040516107088152f35b346103f35760203660031901126103f3576001600160a01b03610434612d71565b165f526017602052602060405f2054604051908152f35b346103f3575f3660031901126103f3576020604051611f408152f35b346103f3575f3660031901126103f3576020601354604051908152f35b346103f35760203660031901126103f3576001600160a01b036104a5612d71565b165f526018602052602060405f2054604051908152f35b346103f35760203660031901126103f35780355f5260146020526104e260405f2061383c565b6040519060058110156104f757602092508152f35b602183634e487b7160e01b5f525260245ffd5b346103f35760203660031901126103f35780355f5260146020526105a360405f209160018060a01b03908301541660ff600584015460068501546007860154600887015491600a880154936105cd6105618a612ba2565b6105bf61057060018d01612ba2565b9b6105b161058c600361058560028501612ba2565b9301612ba2565b936040519e8f9e8f92610160808552840190612c65565b916020818403910152612c65565b8c810360408e015290612c65565b908a820360608c0152612c65565b96608089015260a088015260c087015260e0860152610100850152818160081c16151561012085015260101c1615156101408301520390f35b346103f35760203660031901126103f357355f526016602052602060405f2054604051908152f35b346103f35760203660031901126103f3576106499035613686565b604080519215158352602083019190915290f35b346103f35760403660031901126103f357610676612d87565b90355f52601560205260405f209060018060a01b03165f5260205260405f2080546103e56002600184015493015491604051938360ff869560181c169260ff8260101c169260ff808460081c169316918794919260a0949197969360c0870198875260208701521515604086015215156060850152151560808401521515910152565b346103f35760203660031901126103f35780355f52601460205260405f2060018060a01b03600d8201541690600e81015490600f810154610e1083019081841161076d5760c095506011601084015493015493604051958652602086015260408501526060840152608083015260a0820152f35b601186634e487b7160e01b5f525260245ffd5b346103f3575f3660031901126103f35761079861380d565b335f52601860205260405f2054801561083557335f5260186020525f60408120556107c581601a54612eb9565b601a555f80808084335af16107d8612ec6565b5015610825576020906040518181527fd046302bdc39599e60a5981e59227dcd1c643f512f56f2e984390c3ac6eadedb833392a260015f8051602061489183398151915255604051908152f35b506040516312171d8360e31b8152fd5b50604051630686827b60e51b8152fd5b346103f3575f3660031901126103f35760206040516127108152f35b346103f3575f3660031901126103f357602060405160328152f35b346103f35761088a36612d03565b9161089361380d565b60ff60125416610b5657805f526020936014855260405f206108b48161383c565b60058110156104f757610b4657825f526015865260405f20335f52865260405f209084825410610b355760068101805492600783015461091f886109198161091361090d60098a0154610907818d612e7b565b97612e7b565b86612e7b565b94612eb9565b92612eb9565b90662386f26fc10000808a02908a8204148a151715610b22579061094291612e88565b670de0b6b3a764000091828102928184041490151715610b0f579061096691612e9b565b60088401908154808211610afe57612710948561098560055485612e88565b049561099360065485612e88565b04976109a86109a28a89612e7b565b85612eb9565b9c8d10610aed57918a989796959493916109c58d6109cc95612eb9565b9055612eb9565b90556109d9888254612eb9565b905580610aaf575b50878483610a59575b50505050505f80808087335af16109ff612ec6565b5015610a4a575060405191600183525f8584015260408301528260608301525f805160206148d183398151915260803393a360015f8051602061489183398151915255604051908152f35b6040516312171d8360e31b8152fd5b5f80516020614871833981519152920160018060a01b0390818154165f526018835260405f20610a8a868254612e7b565b9055610a9885601a54612e7b565b601a55541692604051908152a381868087846109ea565b5f808093949550809260018060a01b03600d54165af1610acd612ec6565b5015610adc57908391886109e1565b6040516312171d8360e31b81528390fd5b604051638199f5f360e01b81528a90fd5b60405163bc6072f160e01b81528890fd5b601187634e487b7160e01b5f525260245ffd5b601188634e487b7160e01b5f525260245ffd5b604051633999656760e01b81528390fd5b50604051635a90bb8d60e11b8152fd5b60405163ab35696f60e01b81528490fd5b346103f3575f3660031901126103f3576020600b54604051908152f35b346103f3575f3660031901126103f3576020600a54604051908152f35b346103f3575f3660031901126103f3576020601154604051908152f35b612dee565b346103f35760203660031901126103f357610bdc61380d565b60ff60125416610c0357610bf0903561303b565b60015f8051602061489183398151915255005b60405163ab35696f60e01b8152fd5b346103f35760403660031901126103f3578035610c2d612cd1565b9160ff60125416610c0357815f52601460205260405f2090610c4e8261383c565b6005811015610dea57600303610dc857600e820154610e108101809111610dd7574211610dc857825f52601560205260405f20335f5260205260405f20916002830180549360ff8560101c16610db757806001610caf925491015490612e7b565b938415610da65763ffff000019168615801560181b63ff00000016919091176201000017909155610d9157601001610ce8838254612e7b565b90555b825f52601660205260405f2080549168010000000000000000831015610d7e575091610d41827fcbdf6214089cba887ecbf35a0b6a734589959c9763342c756bb2a80ca2bc9f6e946001610d7995018155612db8565b81546001600160a01b0360039290921b91821b1916339182901b17909155604080519615158752602087019290925294918291820190565b0390a3005b604190634e487b7160e01b5f525260245ffd5b601101610d9f838254612e7b565b9055610ceb565b60405163922b788560e01b81528490fd5b604051637c9a1cf960e01b81528490fd5b604051639b8cc47560e01b8152fd5b601182634e487b7160e01b5f525260245ffd5b602182634e487b7160e01b5f525260245ffd5b346103f35760203660031901126103f35780355f52601460205260405f20600a81015490600c600b820154910154610708820191828111610e6f5760408051601886901c6001600160a01b0316815260b89590951c60ff16151560208601528401526060830152608082015260a09150f35b601185634e487b7160e01b5f525260245ffd5b346103f3575f3660031901126103f3576020601a54604051908152f35b346103f35760203660031901126103f35780355f52601460205260405f20610edf6006820154610ed9600960078501549401548092612e7b565b92612e7b565b90662386f26fc10000928284029384048303610f13576020610f0b85610f058686612e7b565b90612e9b565b604051908152f35b601190634e487b7160e01b5f525260245ffd5b346103f35760203660031901126103f3578035610f42336136d7565b1561100557805f528160205260405f2060ff8382015416610ff4576003810154610e108101809111610fe1574211610fd15760ff8154166011811015610fbe57601003610fb357600260ff815b1691015410610fa357610fa190613cb1565b005b50604051635c9885ab60e11b8152fd5b600260ff6003610f8f565b602184634e487b7160e01b5f525260245ffd5b604051621331cf60e01b81528390fd5b601184634e487b7160e01b5f525260245ffd5b604051631b50735b60e21b81528390fd5b5060405163143606b960e31b8152fd5b346103f3575f3660031901126103f35760206040516107d08152f35b6101003660031901126103f35767ffffffffffffffff81358181116103f35761105d9036908401612ca3565b91906024358281116103f3576110769036908601612ca3565b9390916044358481116103f3576110909036908801612ca3565b9190946064359081116103f3576110aa9036908901612ca3565b9060a4359360038510156103f35760c43597881515998a8a036103f3576110cf61380d565b60ff601254166112a257600e54803410611291576110ed9034612eb9565b986008548a10611280576111049860843597613892565b92835f526020916014835260405f209061112e61271061112660055484612e88565b048092612eb9565b60068301958654600785019461114e865492848685600986015493613798565b9860e4358a1061126f576111ae968a6008946111a4965f14611239575061117791508254612e7b565b9055895f526015885260405f20335f52885260405f206111988a8254612e7b565b90555b01918254612e7b565b9055600e54612e7b565b806111fe575b506040809550519081526001828201528285820152346060820152835f805160206148d183398151915260803393a360015f80516020614891833981519152558351928352820152f35b600d545f918291829182916001600160a01b03165af161121c612ec6565b501561122857846111b4565b6040516312171d8360e31b81528590fd5b611244929350612e7b565b9055895f526015885260405f20335f528852600160405f20016112688a8254612e7b565b905561119b565b604051638199f5f360e01b81528c90fd5b604051635688ffb360e01b81528d90fd5b604051630535b74760e41b81528d90fd5b60405163ab35696f60e01b81528c90fd5b346103f3575f3660031901126103f3576020600c54604051908152f35b346103f35760406112e96112e336612ce0565b91612f39565b82519182526020820152f35b346103f3575f3660031901126103f357602060405160648152f35b346103f35760203660031901126103f35780355f52601460205260405f2061133781612ba2565b61134360018301612ba2565b60e05261135260028301612ba2565b6101005261136260038301612ba2565b92600160a01b60019003908301541660a0526005820154926006830154600784015460088501546009860154600a87015490600b88015492600c89015494600160a01b60019003600d8b01541696600e8b015498600f8c01549a60108d01549c6011015460805260405160c0526102c08060c0515260c051016113e491612c65565b60c051810360c0516020015260e051906113fd91612c65565b60c051810360c05160400152610100519061141791612c65565b60c051810360c0516060015261142c91612c65565b9b60a05160c0516080015260c05160a0015260c05160c0015260c05160e0015260c051610100015260c051610120015260c0516101400160ff82169061147191612de1565b8060081c60ff16151560c05161016001528060101c60ff16151560c0516101800152600160a01b600190038160181c1660c0516101a0015260b81c60ff16151560c0516101c0015260c0516101e0015260c051610200015260c051610220015260c051610240015260c051610260015260c051610280015260805160c0516102a0015260c051900360c051f35b346103f35760203660031901126103f35780355f526014602052600c60405f200154908160011b9180830460021490151715610f1357602082604051908152f35b346103f3575f3660031901126103f3576020604051662386f26fc100008152f35b346103f35761156e36612d39565b905f52601660205260405f2080548210156103f35760209161158f91612db8565b905460405160039290921b1c6001600160a01b03168152f35b6115b136612d39565b6115b961380d565b60ff601254166118105760085434106117ff57815f526020916014835260405f206115e38161383c565b60058110156117ec576117db57612710908161160160055434612e88565b049161160f60065434612e88565b049161162461161e8483612e7b565b34612eb9565b6006830154600784019081549061165d61165761165061164960098a01548095612e7b565b9385612e7b565b8093612e7b565b85612e88565b670de0b6b3a7640000908181029181830414901517156117c857662386f26fc1000091808302928304036117c8579061169591612e9b565b978810610aed57876116a691612e7b565b90556116b760088401918254612e7b565b9055835f526015865260405f20335f528652600160405f20016116db868254612e7b565b90558061178d575b50848394959683611737575b508584604051905f82526001848301528260408301523460608301525f805160206148d183398151915260803393a360015f8051602061489183398151915255604051908152f35b5f80516020614871833981519152920160018060a01b0390818154165f526018835260405f20611768868254612e7b565b905561177685601a54612e7b565b601a55541692604051908152a380848085816116ef565b600d545f918291829182916001600160a01b03165af16117ab612ec6565b50156117b757866116e3565b6040516312171d8360e31b81528690fd5b60118c634e487b7160e01b5f525260245ffd5b604051635a90bb8d60e11b81528590fd5b602186634e487b7160e01b5f525260245ffd5b604051635688ffb360e01b81528390fd5b60405163ab35696f60e01b81528390fd5b612d9d565b346103f3575f3660031901126103f35760206040516611c37937e080008152f35b346103f35760203660031901126103f357803590611864336136d7565b1561197157815f528060205260405f209060ff8183015416611962576003820154610e108101809111610dd75742116119545760058201335f528060205260ff60405f20541661194457335f5260205260405f20600160ff1982541617905560ff60028301926118d48454612e0a565b80945533857f8d33281e1711fba153adffbde99ea4fd340a412490b8254097b438c0e8d41e4a5f80a3541690601182101561193157506010036119285760ff60025b16111561191f57005b610fa190613cb1565b60ff6003611916565b602190634e487b7160e01b5f525260245ffd5b50604051635f8a9c0b60e01b8152fd5b604051621331cf60e01b8152fd5b604051631b50735b60e21b8152fd5b60405163143606b960e31b8152fd5b346103f3575f3660031901126103f3576020601954604051908152f35b346103f35760203660031901126103f35780355f52601460205260405f206119d76006820154610ed9600960078501549401548092612e7b565b90662386f26fc10000928184029384048203610f13576020610f0b85610f058686612e7b565b346103f3575f3660031901126103f3576020600f54604051908152f35b346103f3575f3660031901126103f3576020600854604051908152f35b60c03660031901126103f35767ffffffffffffffff81358181116103f357611a629036908401612ca3565b91906024358281116103f357611a7b9036908601612ca3565b6044939193358281116103f357611a959036908801612ca3565b90926064359081116103f357611aae9036908901612ca3565b93909260a4359660038810156103f35760ff60125416611b2f57600e543410611b1e57611ade9860843597613892565b34611aef575b602090604051908152f35b5f8080803460018060a01b03600d54165af1611b09612ec6565b50611ae457506040516312171d8360e31b8152fd5b604051630535b74760e41b81528a90fd5b60405163ab35696f60e01b81528a90fd5b612d4f565b612d1d565b60403660031901126103f3578035611b60612cd1565b91611b6961380d565b60ff60125416610c0357815f52601460205260405f2090611b898261383c565b6005811015610dea578015611d0b57600103611cfc5760068201541580611cf0575b611ce15760058201546102588101809111610dd7574210611cbf575b611bd083612f05565b91612710611be060075434612e88565b0490611bec8234612eb9565b938410611cae57600a810180546301000000600160c01b0319163360181b6301000000600160b81b03161787151560b81b60ff60b81b1617905542600b820155600c0183905580611c84575b5050604080519315158452602084019190915233927f6c7a43e53c92053a64485f76aa8f94f52dc1de8d1b1d03991e1bbcbf8c0517999190a360015f8051602061489183398151915255005b600d545f918291829182916001600160a01b03165af1611ca2612ec6565b5015610a4a5780611c38565b60405163e92c469f60e01b81528390fd5b808201546001600160a01b03163314611bc757604051630c93731360e11b8152fd5b604051630c73072d60e11b8152fd5b50600782015415611bab565b604051633ca148c360e11b8152fd5b5060405163671eb0c560e01b8152fd5b346103f3575f3660031901126103f3576020604051670de0b6b3a76400008152f35b60203660031901126103f3578035611d5361380d565b60ff60125416611e8457805f52601460205260405f2091611d738361383c565b6005811015610dea57600203611e7557600b8301546107088101809111610dd7574211611e6657600c830154928360011b9380850460021490151715610dd757612710611dc260075434612e88565b0490611dce8234612eb9565b948510611cae57600d810180546001600160a01b0319163317905542600e820155600f0184905580611e3c575b50506040519182527fde1573422d8e8f907aa39b232e67b89a948f3a0367e19ca12e2e761ec229750160203393a360015f8051602061489183398151915255005b600d545f918291829182916001600160a01b03165af1611e5a612ec6565b5015610a4a5780611dfb565b60405163234c0ffd60e21b8152fd5b6040516379543eaf60e11b8152fd5b5060405163ab35696f60e01b8152fd5b346103f357602090816003193601126103f3578035611eb161380d565b805f526014835260405f20916005830154620151808101809111610dd7574210611fe75760ff600a84015460081c16611fd857815f526015845260405f20335f52845260405f2092600284019081549460ff8660081c16611fc757806001611f1d925491015490612e7b565b8015611fb65781611f4c611f51926008611f436006610100970154600786015490612e7b565b93015490612e88565b612e9b565b9461ff0019161790555f80808086335af1611f6a612ec6565b5015610a4a5750604051908282527f49def7ae9132a7281c47912927b25c31186e59b9488226d422e1a370e9c2d27f843393a360015f8051602061489183398151915255604051908152f35b604051632afc3c0d60e21b81528490fd5b60405163438da29b60e11b81528490fd5b60405163aa43cb2d60e01b8152fd5b6040516321ec2ba160e21b8152fd5b346103f3575f3660031901126103f35761200e61380d565b335f52601760205260405f2054801561083557335f5260176020525f604081205561203b81601954612eb9565b6019555f80808084335af161204e612ec6565b5015610825576020906040518181527fd3f990ddd0f1a820ca21d6f29136b25c504220122117b21de9ede5602b99c586833392a260015f8051602061489183398151915255604051908152f35b346103f3575f3660031901126103f357600d546040516001600160a01b039091168152602090f35b346103f3575f3660031901126103f357602060405166038d7ea4c680008152f35b346103f3575f3660031901126103f3576020600754604051908152f35b346103f3575f3660031901126103f357602060ff601254166040519015158152f35b346103f3575f3660031901126103f3576020601054604051908152f35b346103f3575f3660031901126103f3576020604051680ad78ebc5ac62000008152f35b61216c36612d39565b61217461380d565b60ff601254166118105760085434106117ff57815f526020916014835260405f2061219e8161383c565b60058110156117ec576117db5761271090816121bc60055434612e88565b04916121ca60065434612e88565b04916121d961161e8483612e7b565b600683018054600785015461220861165761220260098901546121fc8187612e7b565b94612e7b565b83612e7b565b670de0b6b3a7640000908181029181830414901517156117c857662386f26fc1000091808302928304036117c8579061224091612e9b565b978810610aed578761225191612e7b565b905561226260088401918254612e7b565b9055835f526015865260405f20335f52865260405f20612283868254612e7b565b905580612336575b508483949596836122e0575b50858460405190600182526001848301528260408301523460608301525f805160206148d183398151915260803393a360015f8051602061489183398151915255604051908152f35b5f80516020614871833981519152920160018060a01b0390818154165f526018835260405f20612311868254612e7b565b905561231f85601a54612e7b565b601a55541692604051908152a38084808581612297565b600d545f918291829182916001600160a01b03165af1612354612ec6565b50156117b7578661228b565b346103f357602090816003193601126103f357803561237d61380d565b805f526014835260405f2091600a8301549260ff8460081c16156124e057825f526015855260405f20335f52855260405f2090600282019182549560ff87166124cf5760101c60ff169081156124c55754905b81156124b4576123f59291611f4c91156124a75760086006840154935b015490612e88565b90600161241261271061240a60075486612e88565b048094612eb9565b9560ff19161790558061247d575b505f80808086335af1612431612ec6565b5015610a4a5750604051908282527f4ec90e965519d92681267467f775ada5bd214aa92c0dc93d90a5e880ce9ed026843393a360015f8051602061489183398151915255604051908152f35b600d545f918291829182916001600160a01b03165af161249b612ec6565b5015610a4a5784612420565b60086007840154936123ed565b6040516312d37ee560e31b81528590fd5b60010154906123d0565b604051630c8d9eab60e31b81528590fd5b5060405163174b639360e11b8152fd5b346103f35760203660031901126103f357610f0b60209135612f05565b346103f3575f3660031901126103f3576020600e54604051908152f35b346103f3575f3660031901126103f3576020600354604051908152f35b346103f3575f3660031901126103f3576020600554604051908152f35b346103f35760203660031901126103f3573560038110156103f357546040516001600160a01b039091168152602090f35b346103f3575f3660031901126103f3576020600654604051908152f35b346103f3576125c036612d03565b916125c961380d565b60ff60125416610b5657805f526020936014855260405f206125ea8161383c565b60058110156104f757610b4657825f526015865260405f20335f528652600160405f20019084825410610b35576006810154916007820190815493612650886109198161091361264961264260098b01548098612e7b565b968b612e7b565b8096612e7b565b90662386f26fc10000808a02908a8204148a151715610b22579061267391612e88565b670de0b6b3a764000091828102928184041490151715610b0f579061269791612e9b565b60088401908154808211610afe5761271094856126b660055485612e88565b04956126c460065485612e88565b04976126d36109a28a89612e7b565b9c8d10610aed57918a989796959493916109c58d6126f095612eb9565b90556126fd888254612eb9565b9055806127c3575b5087848361276d575b50505050505f80808087335af1612723612ec6565b5015610a4a5750604051915f83525f8584015260408301528260608301525f805160206148d183398151915260803393a360015f8051602061489183398151915255604051908152f35b5f80516020614871833981519152920160018060a01b0390818154165f526018835260405f2061279e868254612e7b565b90556127ac85601a54612e7b565b601a55541692604051908152a3818680878461270e565b5f808093949550809260018060a01b03600d54165af16127e1612ec6565b5015610adc5790839188612705565b346103f3575f3660031901126103f3576020600954604051908152f35b346103f3576020610f0b61282036612ce0565b90915f526014845260405f2061271061284161165760055460065490612e7b565b04926009612859600684015495600785015493612eb9565b92015493613798565b346103f3575f3660031901126103f35760206040516102588152f35b346103f3576020610f0b6128b761289436612ce0565b90915f526014855260405f20916006830154926009600782015491015493613714565b6127106128d26128cc60055460065490612e7b565b83612e88565b0490612eb9565b346103f3575f3660031901126103f3576020604051620151808152f35b346103f35760403660031901126103f35780359060118210156103f35767ffffffffffffffff916024358381116103f3576129349036908401612ca3565b9261293e336136d7565b15611971576003549361295085612e0a565b600355845f5260209582875260405f209160ff19948584541660ff8816178455600194858501938311610d7e57506129928261298c8554612b34565b85612e2c565b5f90601f8311600114612a515791806129c59260059695945f92612a46575b50508160011b915f199060031b1c19161790565b90555b826002820155426003820155335f5201855260405f20918254161790556129f26040518092612c44565b817f0bd5a1be8a9259e42ff3ff2d4b8457044eda96d3db9aed28322f8da78f1e0d41843393a36040519033817f8d33281e1711fba153adffbde99ea4fd340a412490b8254097b438c0e8d41e4a5f80a38152f35b013590508b806129b1565b918591949392601f19821690845f528b5f20915f5b8d828210612aa1575050968360059810612a88575b505050811b0190556129c8565b01355f19600384901b60f8161c191690558a8080612a7b565b838a01358555988901988a969094019301612a66565b346103f35760203660031901126103f35780612b0d91355f528060205260405f209060ff82541691612aeb60018201612ba2565b90612b1e60ff6002830154946003840154930154169260405196878097612c44565b60a0602087015260a0860190612c65565b9260408501526060840152151560808301520390f35b90600182811c92168015612b62575b6020831014612b4e57565b634e487b7160e01b5f52602260045260245ffd5b91607f1691612b43565b90601f8019910116810190811067ffffffffffffffff821117612b8e57604052565b634e487b7160e01b5f52604160045260245ffd5b9060405191825f8254612bb481612b34565b908184526020946001916001811690815f14612c225750600114612be4575b505050612be292500383612b6c565b565b5f90815285812095935091905b818310612c0a575050612be293508201015f8080612bd3565b85548884018501529485019487945091830191612bf1565b92505050612be294925060ff191682840152151560051b8201015f8080612bd3565b906011821015612c515752565b634e487b7160e01b5f52602160045260245ffd5b91908251928382525f5b848110612c8f575050825f602080949584010152601f8019910116010190565b602081830181015184830182015201612c6f565b9181601f840112156103f35782359167ffffffffffffffff83116103f357602083818601950101116103f357565b6024359081151582036103f357565b60609060031901126103f357600435906024359060443580151581036103f35790565b60609060031901126103f357600435906024359060443590565b346103f3575f3660031901126103f3576020604051610e108152f35b60409060031901126103f3576004359060243590565b346103f3575f3660031901126103f357602060405167016345785d8a00008152f35b600435906001600160a01b03821682036103f357565b602435906001600160a01b03821682036103f357565b346103f3575f3660031901126103f357602060405160c88152f35b8054821015612dcd575f5260205f2001905f90565b634e487b7160e01b5f52603260045260245ffd5b906003821015612c515752565b346103f3575f3660031901126103f35760206040516101f48152f35b5f198114612e185760010190565b634e487b7160e01b5f52601160045260245ffd5b601f8211612e3957505050565b5f5260205f20906020601f840160051c83019310612e71575b601f0160051c01905b818110612e66575050565b5f8155600101612e5b565b9091508190612e52565b91908201809211612e1857565b81810292918115918404141715612e1857565b8115612ea5570490565b634e487b7160e01b5f52601260045260245ffd5b91908203918211612e1857565b3d15612f00573d9067ffffffffffffffff8211612b8e5760405191612ef5601f8201601f191660200184612b6c565b82523d5f602084013e565b606090565b5f526014602052612710612f23600860405f200154600a5490612e88565b046009548082115f14612f34575090565b905090565b92915f935f52601460205260405f209082156130305760068201546007830154906009840154936008612f6f8686898787613714565b910154908181111561300c57505f95905b818710612fb457505084612f97575b505050509190565b849650936128b7939291612faa95613714565b915f808080612f8f565b9095612fc08782612e7b565b6001808201809211612e18571c9082612fdc8888858989613714565b11612fea5750955b90612f80565b96505f19810190811115612fe457634e487b7160e01b5f52601160045260245ffd5b94505050505061302d9193506127106128d26128cc60055460065490612e7b565b90565b50505090505f905f90565b805f526020601481526040805f20916130538361383c565b6005811015612c51576002810361332d5750600b8301546107088101809111612e185742111561331c5783600a840193845460ff8160b81c165f146133125760068201545b1561320a57509160805f927fdc2ddf2d5ba9d7ae2e3763f353bea15c1618e60da8ac6eca3b14d806ce8a331696946130f860ff61010061ff00198954161780895560b81c16879062ff0000825491151560101b169062ff00001916179055565b836008820191600c835491612710613111835485612e88565b04948515159386856131f7575b505050018761312e858354612e7b565b91555f805160206148b183398151915260018060a01b03998a815460181c168a52601785528b8a20613161848254612e7b565b905561316f83601954612e7b565b60195554998a60181c169687928c519081528c8682015260148d820152731c1c9bdc1bdcd95c97d89bdb9917dc995dd85c9960621b6060820152a26131c6575b5050505060ff84519360101c1615158352820152a2565b7f703bc125a2665c8fdf99388ee79d5641c0723bd082e35dbf8976021756e25aa6918851908152a35f8681836131af565b61320091612eb9565b90555f808661311e565b907fe12a108659cfceebb9cd8b65c57b8f6d2a0896a9a0bcc5797792c52074abf49e959250600c01908482549182613286575b50505050505051806132818160609060208152601a60208201527f4e6f20686f6c64657273206f6e2077696e6e696e67207369646500000000000060408201520190565b0390a2565b5f805160206148b1833981519152945f6080955560018060a01b03809260181c165f5260178752825f206132bb858254612e7b565b90556132c984601954612e7b565b6019555460181c169481519283528201526018858201527f70726f706f7365725f626f6e645f656d7074795f7369646500000000000000006060820152a25f808080848161323d565b6007820154613098565b815163234c0ffd60e21b8152600490fd5b60030361367557600e830154610e108101809111612e1857421115613664576010830180549060118501918254146136565754905410801561364c5760068401545b156135e457600a8401805462ffff00191682151560101b62ff000016176101001781557fdc2ddf2d5ba9d7ae2e3763f353bea15c1618e60da8ac6eca3b14d806ce8a33169460019260ff929190819089845491868360b81c16151514888a5f9483806135d9575b61356a575b84916134638761345e7f27fa0e98dfa1197c7d1238ba14b175c914fafadedebdf5c8d68effd3079f42f194885f1461355f57600f8c0154905b891561354c5760181c6001600160a01b0316985b1561354257600c8c01545b5f600f613450612710613448600b5487612e88565b048095612eb9565b9e82600c8201550155612e7b565b612e7b565b888d8060a01b0380971695865f5260178152835f20613483848254612e7b565b905561349183601954612e7b565b601955865f805160206148b1833981519152608086518681528785820152600b888201526a3137b7322fbbb4b73732b960a91b6060820152a28351928352820152a3888361350a575b50505050806134f9575b50505460101c169183519215158352820152a2565b61350391896146b7565b5f806134e4565b7f703bc125a2665c8fdf99388ee79d5641c0723bd082e35dbf8976021756e25aa691875460181c16938b51908152a35f8981886134da565b600f8c0154613433565b508f8060a01b03600d8d01541698613428565b600c8c015490613414565b94507f27fa0e98dfa1197c7d1238ba14b175c914fafadedebdf5c8d68effd3079f42f18491613463600889019761345e8954916127106135ac600c5485612e88565b049a8b9384806135c6575b505050945050505091506133db565b6135cf91612eb9565b90555f80846135b7565b50600c5415156133d6565b50506136107fe12a108659cfceebb9cd8b65c57b8f6d2a0896a9a0bcc5797792c52074abf49e926144ea565b516020808252601a908201527f4e6f20686f6c64657273206f6e2077696e6e696e67207369646500000000000060408201528060608101613281565b600784015461336f565b50505050612be291506144ea565b8151633fc30bd160e11b8152600490fd5b815163174b639360e11b8152600490fd5b5f52601460205260405f2060ff600a82015460081c166136d05760050154620151808101809111612e1857804210156136c8576136c4904290612eb9565b5f91565b506001905f90565b505f905f90565b5f546001600160a01b039182169082168114918215613706575b82156136fc57505090565b6002541614919050565b6001548116821492506136f1565b828094959261372e84610ed961374a979661374496612e7b565b6137388183612e7b565b97156137915750612eb9565b93612eb9565b91662386f26fc1000091828102928184041490151715612e185761376d91612e88565b90670de0b6b3a764000090818102918183041490151715612e185761302d91612e9b565b9050612eb9565b936137a9816137af93959496612e7b565b93612e7b565b926137ba8484612e7b565b9115613803576137cb929350612e88565b90670de0b6b3a764000091828102928184041490151715612e1857662386f26fc100009080820291820403612e185761302d91612e9b565b6137cb9250612e88565b5f80516020614891833981519152600281541461382a5760029055565b604051633ee5aeb560e01b8152600490fd5b600a81015460ff8160081c1661388b57600d8201546001600160a01b03919082166138835760181c1661387d5760050154421015613878575f90565b600190565b50600290565b505050600390565b5050600490565b949596999891909793998815613c8b5742851115613c7957601354976138b789612e0a565b601355889b895f52601460205260405f209867ffffffffffffffff94858d11612b8e576138ee8d6138e88d54612b34565b8d612e2c565b8c5f601f8211600114613c1357908061391b925f91613c08575b508160011b915f199060031b1c19161790565b8b555b600197888c0191878211612b8e5761393a8261298c8554612b34565b5f90601f8311600114613ba75761396792915f9183613ada5750508160011b915f199060031b1c19161790565b90555b60028a0191858211612b8e576139848261298c8554612b34565b5f90601f8311600114613b46576139b192915f9183613ada5750508160011b915f199060031b1c19161790565b90555b60038801928211612b8e576139cd8261298c8554612b34565b5f90601f8311600114613ae5576139fa92915f9183613ada5750508160011b915f199060031b1c19161790565b90555b6004850180546001600160a01b0319163317905560058501839055600a85016003821015612c51577f088de4ff1d0b36eed2a164a1efb89ec8d72c1a7846023e20716b1cf80405d7f195613a9a9360099260ff1981541660ff861617905583155f14613ab45750600f54828201555b01549287604051956080875281608088015260a08701375f60a0898701015260208501526040840190612de1565b60608201523393601f01601f1916810181900360a00190a3565b8303613ac65760105482820155613a6c565b60028303613a6c5760115482820155613a6c565b013590505f806129b1565b90859291601f19831691855f5260205f20925f5b818110613b2e57508411613b15575b505050811b0190556139fd565b01355f19600384901b60f8161c191690555f8080613b08565b82840135855589969094019360209283019201613af9565b90889291601f19831691855f5260205f20925f5b818110613b8f57508411613b76575b505050811b0190556139b4565b01355f19600384901b60f8161c191690555f8080613b69565b8284013585558c969094019360209283019201613b5a565b908a9291601f19831691855f5260205f20925f5b818110613bf057508411613bd7575b505050811b01905561396a565b01355f19600384901b60f8161c191690555f8080613bca565b8284013585558e969094019360209283019201613bbb565b90508c01355f613908565b8c5f5260205f20915f5b8d601f1983168210613c6157505080601f19811610613c47575b905060018092501b018b5561391e565b60f85f199160031b161c19908c01351690555f808e613c37565b60018495602093958493013581550194019201613c1d565b60405163212be55960e11b8152600490fd5b604051630d5003f360e01b8152600490fd5b51906001600160a01b03821682036103f357565b805f526004602090808252604090815f209080820160019060ff1990828282541617905560ff8454166011811015610fbe5780613d46575050613cf5908301612ba2565b84818051810103126103f357840151906101f48211613d38575060ff5f805160206148f1833981519152949392613d35926005555b541691518092612c44565ba2565b83516358d620b360e01b8152fd5b808303613dbe575050613d5a908301612ba2565b84818051810103126103f3578401519066038d7ea4c6800082108015613dad575b613d9f575060ff5f805160206148f1833981519152949392613d3592600855613d2a565b8351637cc0badd60e11b8152fd5b5067016345785d8a00008211613d7b565b60028103613e3e575050613dd3908301612ba2565b84818051810103126103f3576001600160a01b0390613df3908601613c9d565b16908115613e30575060ff5f805160206148f1833981519152949392613d35926bffffffffffffffffffffffff60a01b600d541617600d55613d2a565b835163e6c4247b60e01b8152fd5b91929091600390808203613e99575050505f805160206148f1833981519152949392613d359260ff926012541617601255337f62e78cea01bee320cd4e420270b5ea74000d11b0c9f74754ebdbfc544b05a2585f80a2613d2a565b92939192808403613ef0575050505060ff5f805160206148f1833981519152949392613d359260125416601255337f5db9ee0a495bf2e6ff9c91a7834c1ba4fdd244a5e8aa4e537bd38aeae4b073aa5f80a2613d2a565b929350909160058103613f42575050613f0a908301612ba2565b84818051810103126103f3578401519060c88211613d38575060ff5f805160206148f1833981519152949392613d3592600655613d2a565b60068103613f8f575050613f57908301612ba2565b84818051810103126103f3578401519060648211613d38575060ff5f805160206148f1833981519152949392613d3592600755613d2a565b60078103614008575050613fa4908301612ba2565b84818051810103126103f357840151906611c37937e0800082108015613ff7575b613fe9575060ff5f805160206148f1833981519152949392613d3592600955613d2a565b835163329b7bc160e11b8152fd5b5067016345785d8a00008211613fc5565b6008810361407557505061401d908301612ba2565b84818051810103126103f3578401519060328210801561406a575b61405c575060ff5f805160206148f1833981519152949392613d3592600a55613d2a565b835163ba344cfd60e01b8152fd5b506101f48211614038565b600981036140e357505061408a908301612ba2565b84818051810103126103f357840151906107d0821080156140d8575b6140ca575060ff5f805160206148f1833981519152949392613d3592600b55613d2a565b8351630c7311a160e31b8152fd5b50611f4082116140a6565b600a81036141455750506140f8908301612ba2565b84818051810103126103f3578401519067016345785d8a00008211614137575060ff5f805160206148f1833981519152949392613d3592600e55613d2a565b835163eb8a0a9360e01b8152fd5b600b81036141b257505061415a908301612ba2565b84818051810103126103f35784015190670de0b6b3a7640000821080156141a0575b613d38575060ff5f805160206148f1833981519152949392613d3592600f55613d2a565b50680ad78ebc5ac6200000821161417c565b600c810361421f5750506141c7908301612ba2565b84818051810103126103f35784015190670de0b6b3a76400008210801561420d575b613d38575060ff5f805160206148f1833981519152949392613d3592601055613d2a565b50680ad78ebc5ac620000082116141e9565b600d810361428c575050614234908301612ba2565b84818051810103126103f35784015190670de0b6b3a76400008210801561427a575b613d38575060ff5f805160206148f1833981519152949392613d3592601155613d2a565b50680ad78ebc5ac62000008211614256565b600e81036143535750505061429f614611565b904782811115614344576142b38382612eb9565b915f8080808660018060a01b03600d54165af16142ce612ec6565b50156143365750927fff02ca5daf9e2d4ae6902c9f40af03bfc1d974ac4e37ea162881d0eaaeb272e6613d359360ff9361432e88975f805160206148f18339815191529a9951938493846040919493926060820195825260208201520152565b0390a1613d2a565b85516312171d8360e31b8152fd5b508351630d44987f60e21b8152fd5b600f81036143ae575050614368908301612ba2565b84818051810103126103f3578401519060c882116143a0575060ff5f805160206148f1833981519152949392613d3592600c55613d2a565b83516379d3ee4160e11b8152fd5b9092906010146143d7575b50505090613d3560ff5f805160206148f18339815191529493613d2a565b6143e2828501612ba2565b85818051810103126103f357614404866143fd898401613c9d565b9201613c9d565b6001600160a01b039081169491811693909185156144da578585146144ca5761442c866136d7565b6144ca575f925f5b828110614499575b505050501561448b57505f805160206148f183398151915294939286613d359360ff937f3288defc7d8a5d94d6a119b650b3275db0b541801744754565b543431ea11cf15f80a49293946143b9565b845163bdb712ef60e01b8152fd5b87815488848216146144ae5750508301614434565b6001600160a01b031916179055509091505f905080808061443c565b87516378327bb360e01b81528490fd5b875163e6c4247b60e01b81528490fd5b600c810180549081614588575b5050600f81018054918261450a57505050565b600d6080915f5f805160206148b183398151915294550160018060a01b0390818154165f52601760205260405f20614543868254612e7b565b905561455185601954612e7b565b60195554169260405190815260406020820152601160408201527064697370757465725f626f6e645f74696560781b6060820152a2565b5f90555f805160206148b18339815191526080600a840160018060a01b039081815460181c165f52601760205260405f206145c4868254612e7b565b90556145d285601954612e7b565b6019555460181c169260405190815260406020820152601160408201527070726f706f7365725f626f6e645f74696560781b6060820152a25f806144f7565b5f80601354905b81811061463a57505061463161302d9160195490612e7b565b601a5490612e7b565b805f52601460205260405f20600a81015460ff600891821c16156146a1575b50600c8101548061468d575b50600f015480614679575b50600101614618565b6146869060019294612e7b565b9290614670565b61469a90600f9295612e7b565b9390614665565b9381946146b092015490612e7b565b925f614659565b9291909260ff600a8501549260ff60109460101c1695865f146148665760100154905b811561482557835f5260209160168352604093845f20985f5b8a5481101561481857806147096001928d612db8565b838060a01b0391549060031b1c16895f5260158852885f20815f5288528989898d89835f20918a600284015480921c169081614805575b50614752575b505050505050016146f3565b611f4c614768838a61476e955491015490612e7b565b8d612e88565b8061477a575b89614746565b845f805160206148b183398151915260807f554650a83f978b117f8cf5d88e8fe59a5293f4d01273ba34e3a362e5d63399ec95835f5260178652805f206147c2868254612e7b565b905560196147d1868254612e7b565b905560088151918683528088840152820152676a7572795f66656560c01b6060820152a28c51908152a35f89898983614774565b60181c8b1615158a15151490505f614740565b5050505050505050509050565b600d549596505f958695508594508493509091506001600160a01b03165af161484c612ec6565b501561485457565b6040516312171d8360e31b8152600490fd5b60110154906146da56feee6d275681f6338b9dcbc5762e1fb9518bbb1e7db15049fbe7f9ed98857670bd9b779b17422d0df92223018b32b4d1fa46e071723d6817e2486d003becc55f00adadeee46984897fe0fddcdd6b48a8011d2dc74760aac19667d9a7c13ca750581080a6e42ac16e1e06ceeec56bfcd11d5f64a6b48cdf10db0f6566172e7f92a0ccbac48ec328eb4bdb4ace10025e03ecf58898746c98bdf8cfd4d32ade75f42aa2646970667358221220dcd4a373a094fcf56ebf7f61d2b9daa94e6b6a0efe82e8e2ef2c3387a52f9bbc64736f6c63430008180033","linkReferences":{}},"methodIdentifiers":{"ACTION_EXPIRY()":"8ff65651","BOND_WINNER_SHARE_LOWER()":"bff9d040","BOND_WINNER_SHARE_UPPER()":"f02d6372","BPS_DENOMINATOR()":"e1a45218","CREATOR_PRIORITY_WINDOW()":"132eb94b","DISPUTE_WINDOW()":"f585dc57","DYNAMIC_BOND_BPS_LOWER()":"e13d1aaa","DYNAMIC_BOND_BPS_UPPER()":"c2f57386","EMERGENCY_REFUND_DELAY()":"0acbdee3","MAX_CREATOR_FEE_BPS()":"a844a134","MAX_FEE_BPS()":"d55be8c6","MAX_HEAT_LEVEL()":"3fbf2ccd","MAX_MARKET_CREATION_FEE()":"6c82169d","MAX_PROPOSER_REWARD_BPS()":"a260a02a","MAX_RESOLUTION_FEE_BPS()":"b30dbfb2","MIN_BET_LOWER()":"61a895df","MIN_BET_UPPER()":"94a29beb","MIN_BOND_FLOOR_LOWER()":"a732e4c9","MIN_BOND_FLOOR_UPPER()":"7740a680","MIN_HEAT_LEVEL()":"87f72916","UNIT_PRICE()":"afa40bbd","VOTING_WINDOW()":"3173cd26","actionNonce()":"2d162369","bondWinnerShareBps()":"d7dfd971","buyNo(uint256,uint256)":"a9f6b058","buyYes(uint256,uint256)":"399af502","canEmergencyRefund(uint256)":"e7176d31","claim(uint256)":"379607f5","confirmAction(uint256)":"a63d914f","createMarket(string,string,string,string,uint256,uint8)":"94c38bca","createMarketAndBuy(string,string,string,string,uint256,uint8,bool,uint256)":"be04f84f","creatorFeeBps()":"17773ebb","dispute(uint256)":"86d6282c","dynamicBondBps()":"d67d643e","emergencyRefund(uint256)":"70e5deb9","executeAction(uint256)":"c0c1cf55","finalizeMarket(uint256)":"c9d2d5de","getDispute(uint256)":"e3a96cbd","getMarket(uint256)":"eb44fdd3","getMarketStatus(uint256)":"ec5a711a","getMaxSellableShares(uint256,uint256,bool)":"b7f12f6a","getNoPrice(uint256)":"c3546485","getPendingCreatorFees(address)":"ec763653","getPendingWithdrawal(address)":"7ee8b2f8","getPosition(uint256,address)":"d29f541d","getProposal(uint256)":"c7f758a8","getRequiredBond(uint256)":"366b7340","getRequiredDisputeBond(uint256)":"b05ef454","getSweepableAmount()":"fd759e51","getVoterCount(uint256)":"e92e5c34","getYesPrice(uint256)":"9ba85fae","heatLevelCrack()":"9716919b","heatLevelHigh()":"47b0f737","heatLevelPro()":"d671484c","marketCount()":"ec979082","marketCreationFee()":"2ef1bdfa","marketVoters(uint256,uint256)":"abde4803","markets(uint256)":"b1283e77","minBet()":"9619367d","minBondFloor()":"1690088c","paused()":"5c975abb","pendingActions(uint256)":"03117ba2","pendingCreatorFees(address)":"c598b2f9","pendingWithdrawals(address)":"f3f43703","platformFeeBps()":"22dcd13e","positions(uint256,address)":"e684d718","previewBuy(uint256,uint256,bool)":"14887fdf","previewSell(uint256,uint256,bool)":"12dcf12d","proposeAction(uint8,bytes)":"05040df4","proposeOutcome(uint256,bool)":"88553a2a","proposerRewardBps()":"bd149d71","resolutionFeeBps()":"5de97e11","sellNo(uint256,uint256,uint256)":"16fe6929","sellYes(uint256,uint256,uint256)":"dffad4e2","signers(uint256)":"2079fb9a","totalPendingCreatorFees()":"c651af12","totalPendingWithdrawals()":"a4563e03","treasury()":"61d027b3","vote(uint256,bool)":"c9d27afe","withdrawBond()":"66eb9cec","withdrawCreatorFees()":"e1cd04b4"},"id":2}